:020000040800F2
:1000000000500020B90E0008010F0008010F000881
:10001000010F0008010F0008010F00080000000098
:10002000000000000000000000000000851900082A
:10003000010F000800000000C9190008A11A0008FB
:10004000010F0008010F0008010F0008010F000850
:10005000010F0008010F0008C5050008CF050008C2
:10006000D9050008010F0008010F0008010F000862
:10007000010F0008010F0008010F0008010F000820
:10008000010F0008010F0008010F0008010F000810
:10009000010F0008010F0008010F0008010F000800
:1000A000010F0008010F0008010F0008010F0008F0
:1000B000010F0008010F0008010F0008010F0008E0
:1000C000010F0008010F0008010F0008010F0008D0
:1000D000010F0008010F0008010F0008010F0008C0
:1000E000010F0008010F0008010F000800000000C8
:1000F0000000000000000000000000000000000000
:0C01000000000000000000005FF808F1A3
:10010C0010F8012B11F8013B012A28BF9A42F7D0B5
:10011C00D01A704710B5054C237833B9044B13B182
:10012C000448AFF300800123237010BD10000020A1
:10013C0000000000AC29000808B5034B1BB10349B3
:10014C000348AFF3008008BD00000000140000203D
:10015C00AC29000830B583B0134800F049FC0446C4
:10016C0008B100F061FC114800F052FD054608B1E1
:10017C0000F06AFD00238DF8073002E00A2001F040
:10018C000BFB002CFAD00DF10701204600F06EFCA1
:10019C000028F3D19DF80710012914BF002101217B
:1001AC00284600F073FDE9E7C4290008CC290008B3
:1001BC0010B582B000F05EF888B9002401940223D7
:1001CC00009323464FF480720649074801F01EF94C
:1001DC0001F032F900F04BF8204602B010BD00F0EF
:1001EC0046F8EAE7D429000861010008034B0360D4
:1001FC00034B0B6080231380704700BF2C02002040
:10020C002C00002000BEFEE710B590B006AC2822F2
:10021C000021204602F097FB0023019302930393E5
:10022C0004930593012306934FF480330793022222
:10023C000D920E934FF4E0130F93204601F084FFC0
:10024C0078B90F23019302210291002303934FF4F9
:10025C0080620492059301A802F0A8F920B910B0AD
:10026C0010BD6FF00A00FAE76FF00A00F7E772B6FC
:10027C0000BFFDE708B501F0ABFEFFF7C5FF28B9DD
:10028C0000F0AAF900F0C2FA002008BDFFF7EFFF5A
:10029C0086B0264B98420DD0254B984216D0254B54
:1002AC0098421FD0244B984228D0244B984231D0EE
:1002BC0006B0704703F584339A6942F004029A61E0
:1002CC009B6903F004030193019BF1E703F582336F
:1002DC009A6942F008029A619B6903F00803029341
:1002EC00029BE5E703F580339A6942F010029A61AC
:1002FC009B6903F010030393039BD9E703F57C433D
:10030C009A6942F020029A619B6903F020030493DE
:10031C00049BCDE703F578439A6942F040029A6159
:10032C009B6903F040030593059BC1E7000801405E
:10033C00000C014000100140001401400018014065
:10034C0010B504468188006802F0F0FA637B98428D
:10035C0001D0002010BD0120FCE738B50446FFF7A2
:10036C00EFFF054601F0A8F8E37BAB4202D0E57342
:10037C00206138BD2369C01A1328FAD9A37BAB427C
:10038C00F7D0A573012D00D002252575F1E70000EB
:10039C0038B5002300E00133022B08D803EB8301AE
:1003AC00114A02EB810292689042F4D101E04FF0C5
:1003BC00FF33002B14DB03EB43040C4A02EBC404A5
:1003CC00A5680B4B58612846FFF7C7FF2B7D03F040
:1003DC00FF013BB100232B75204600F067FB01E0C9
:1003EC00034B586138BD00BF1C2A0008880200204E
:1003FC000004014070B50D468468637D3BB1A37B5E
:10040C00012B14BF002301230B70002070BD20466C
:10041C00FFF796FF064601F049F8E37BB34208D09C
:10042C00E6732061A37B012B14BF002301232B70E7
:10043C00EBE72369C01A1328F4D9A673F2E710B5B9
:10044C0084B084680CB3206810B3FFF721FF00233D
:10045C00009301930293039363680093637B93B9B6
:10046C00012302936946206802F056F92046FFF7F3
:10047C0067FFA073E07301F019F82061002020756C
:10048C00607504B010BD0223EBE76FF00700F8E7CE
:10049C006FF00700F5E7000010B586B00446144B6A
:1004AC009A6942F001029A619B6903F0010301937E
:1004BC00019B0023029303930493059343680293D7
:1004CC000C4B0393437B8BB90123049302A9206843
:1004DC0002F022F90022022194F90C0001F0E8FD4F
:1004EC0094F90C0001F0F4FD06B010BD0223ECE70A
:1004FC00001002400000311030B585B08468002C2B
:10050C0035D02368002B35D0A9B1637D13B1002001
:10051C0005B030BD2046FFF713FFA073E07300F069
:10052C00C5FF2061002525752046FFF7B5FF012387
:10053C0063752846ECE7637D0BB90020E8E794F976
:10054C000C0001F0D3FD002300930193029303935D
:10055C0063680093637B43B9012302936946206867
:10056C0002F0DAF800206075D2E70223F5E76FF0AD
:10057C000100CDE76FF00100CAE730B585B08568A2
:10058C00A5B12B68ABB10021FFF7B6FF694600247B
:10059C0000940194029403946B68009303230193D9
:1005AC00286802F0B9F8204605B030BD6FF00100A4
:1005BC00FAE76FF00100F7E708B50120FFF7E8FE56
:1005CC0008BD08B50220FFF7E3FE08BD08B50420FE
:1005DC00FFF7DEFE08BD000038B500240DE005EB8A
:1005EC004500204B03EBC00000F0D6F90135AC42BE
:1005FC00F5D84FF0FF3034E00134022C30D804EB46
:10060C004401194800EBC103002240F831205A6024
:10061C009A60DA601A615A61144D04EB840C05EB94
:10062C008C02D2F804E040F831E091685960D1684E
:10063C00996092F910101973527C5A7304EB4401AF
:10064C00084A02EBC10055F82C5042F83150084AC8
:10065C004260836000F06EF90028CDD00025C6E71B
:10066C00002038BD88020020D00200201C2A00087F
:10067C00082A000886B0264B98420DD0254B98428C
:10068C0016D0254B98421FD0244B984228D0244B8F
:10069C00984231D006B0704703F584339A6942F022
:1006AC0004029A619B6903F004030193019BF1E737
:1006BC0003F582339A6942F008029A619B6903F050
:1006CC0008030293029BE5E703F580339A6942F035
:1006DC0010029A619B6903F010030393039BD9E703
:1006EC0003F57C439A6942F020029A619B6903F0FE
:1006FC0020030493049BCDE703F578439A6942F0F9
:10070C0040029A619B6903F040030593059BC1E786
:10071C0000080140000C0140001001400014014091
:10072C000018014083682BB11A6832B15B7A0B70E8
:10073C00002070476FF0010070476FF001007047A8
:10074C0038B5846874B10D46206870B1A188227ADE
:10075C00012D02D0013A18BF012202F0EEF86572A9
:10076C00002038BD6FF00100FBE76FF00100F8E7E7
:10077C0030B585B08568CDB12868D0B12A7A013AF8
:10078C0018BF0122A98802F0D8F869460024009409
:10079C000194029403946B680093032301932868DB
:1007AC0001F0BAFF6C72204605B030BD6FF001004D
:1007BC00FAE76FF00100F7E730B585B08468F4B163
:1007CC002068F8B1FFF756FF6946002500950195A2
:1007DC00029503956368009301230193022303930D
:1007EC00206801F099FF227A013A18BF0122A188F2
:1007FC00206802F0A2F86572284605B030BD6FF093
:10080C000700FAE76FF00700F7E7000070B5002467
:10081C000BE01C4800EB051000F0D8F90135AC4298
:10082C00F7D84FF0FF302BE00134022C27D804EB23
:10083C004402154D05EB8203002145F82210596046
:10084C009960124E4FEA041C06EB0410D0F804E039
:10085C0045F822E082685A60027B1A725972094A82
:10086C0002EB041056F80C1042F80C10084A4260C7
:10087C00836000F07BF90028D6D00025CFE700205C
:10088C0070BD00BF18030020480300206C2A00082C
:10089C00582A000808B5084B1B780BB1002008BD7E
:1008AC0004220649064800F012FA0028F7D1024B40
:1008BC0001221A70F3E700BF6C03002078030020BC
:1008CC007003002010B582B01446002301930093EE
:1008DC006B4601AA00F0A4FA0CB1009B236010B97E
:1008EC00019802B010BD0020FBE7000010B582B0EB
:1008FC0004460E4B187870B19CB123689BB1002351
:10090C00019301AA21680A48FFF7DCFF28B1019B7B
:10091C00A34204D0002002B010BD0020FBE7012050
:10092C00F9E70020F7E70020F5E700BF6C03002093
:10093C0070030020F8B110B582B004460368EBB127
:10094C001B78F3B14368FBB1FFF7A4FF08B102B009
:10095C0010BD019001AA21680E48FFF7B3FFB0B992
:10096C00002323732361636123466268216809486D
:10097C0000F0D1F9EBE76FF0040070476FF0040062
:10098C00E5E76FF00400E2E76FF00400DFE76FF0DB
:10099C000900DCE77003002018B310B50446124BB5
:1009AC001B78DBB1FFF7A2FFC0B1237B73B1636887
:1009BC0023B11B6913B100212046984763681BB112
:1009CC005B680BB1204698470023237300232361F7
:1009DC0063612168054800F0ECF910BD6FF001006F
:1009EC00FBE76FF0040070476C03002070030020DD
:1009FC00014680B103787BB1094B1B7873B100B50C
:100A0C0083B00023019301AA0648FFF75BFF01980E
:100A1C0003B05DF804FB704700207047002070475E
:100A2C006C0300207003002088B110B504464368A5
:100A3C0083B1FFF75BFF80B1237B8BB963681B68C5
:100A4C008BB12046984708B90123237310BD6FF072
:100A5C00040070476FF00400F8E76FF00100F5E751
:100A6C006FF00D00F2E76FF00C00EFE778B138B5DE
:100A7C000C46054671B1FFF739FF70B12B7B7BB18A
:100A8C006B68DB687BB121462846984738BD6FF010
:100A9C00040070476FF00400F8E76FF00100F5E711
:100AAC006FF00100F2E76FF00C00EFE768B138B5BA
:100ABC000D46044603693BB1FFF718FF20B12369CB
:100ACC00626929462046984738BD704708B5084BDF
:100ADC001B780BB1002008BD08220649064800F01F
:100AEC00F6F80028F7D1024B01221A70F3E700BF89
:100AFC00A8030020B4030020AC03002010B582B082
:100B0C0014460023019300936B4601AA00F088F968
:100B1C000CB1009B236010B9019802B010BD0020ED
:100B2C00FBE7000010B582B004460E4B187870B18C
:100B3C009CB123689BB10023019301AA21680A4848
:100B4C00FFF7DCFF28B1019BA34204D0002002B0C8
:100B5C0010BD0020FBE70120F9E70020F7E700209B
:100B6C00F5E700BFA8030020AC030020E8B110B5E6
:100B7C0082B004460368DBB11B78E3B14368EBB188
:100B8C00FFF7A4FF08B102B010BD019001AA2168C3
:100B9C000D48FFF7B3FFA0B9002323732346626807
:100BAC002168094800F0B7F8EDE76FF004007047D2
:100BBC006FF00400E7E76FF00400E4E76FF0040067
:100BCC00E1E76FF00900DEE7AC030020C8B110B517
:100BDC0004460D4B1B788BB1FFF7A4FF70B1237B40
:100BEC003BB163681BB15B680BB12046984700238F
:100BFC0023732168054800F0DCF810BD6FF001008C
:100C0C00FBE76FF004007047A8030020AC03002042
:100C1C00014680B103787BB1094B1B7873B100B5E9
:100C2C0083B00023019301AA0648FFF767FF0198E0
:100C3C0003B05DF804FB704700207047002070473C
:100C4C00A8030020AC03002088B110B5044643680B
:100C5C0083B1FFF767FF80B1237B8BB963681B6897
:100C6C008BB12046984708B90123237310BD6FF050
:100C7C00040070476FF00400F8E76FF00100F5E72F
:100C8C006FF00D00F2E76FF00C00EFE780B138B5B4
:100C9C000C46054601290ED8FFF744FF70B12B7B9B
:100CAC007BB16B68DB687BB121462846984738BD21
:100CBC006FF0040070476FF00400F8E76FF001006C
:100CCC00F5E76FF00100F2E76FF00C00EFE7C8B149
:100CDC0010B4D1B1E2B1016082800023C3800CE07A
:100CEC0003EB43004FEA800C01EB8000002441F839
:100CFC000C404460846001339BB29342F0D30020DB
:100D0C0010BC70476FF0040070476FF00400F7E7F9
:100D1C006FF00400F4E700283FD02DE9F8430F46AC
:100D2C0091469846064600293AD00B78002B3AD0CB
:100D3C000568002D3AD0002401E00134A4B2B38838
:100D4C00A3420ED904EB440355F823000028F4D039
:100D5C003946FFF7D5F90028EFD16FF00900BDE84F
:100D6C00F8830020834215D900EB40029200A95869
:100D7C0011B1013080B2F5E7AF5033681344C3F8BA
:100D8C00049033681344C3F80880F3880133F3806C
:100D9C000020E4E76FF00A00E1E76FF00400704711
:100DAC006FF00400DBE76FF00400D8E76FF0010090
:100DBC00D5E748B32DE9F0418846064639B30768B4
:100DCC0047B3C3884BB3002401E00134A4B2B38809
:100DDC00A34215D904EB4405AD0078590028F4D092
:100DEC004146FFF78DF90028EFD1785133682B4439
:100DFC00586033682B449860F388013BF38001E022
:100E0C006FF00800BDE8F0816FF0040070476FF0E0
:100E1C000400F7E76FF00800F4E76FF00800F1E763
:100E2C00A0B32DE9F0470F4692469946064681B38A
:100E3C000B788BB3056895B3C3889BB3002401E092
:100E4C000134A4B2B388A3421CD904EB440005EBD3
:100E5C00800855F820000028F2D03946FFF750F9E9
:100E6C000028EDD1BAF1000F03D0D8F80430CAF83D
:100E7C000030B9F1000F03D0D8F80830C9F80030B1
:100E8C00002001E06FF00800BDE8F0876FF004006F
:100E9C0070476FF00400F7E76FF00400F4E76FF0B1
:100EAC000800F1E76FF00800EEE7000000F023F80F
:100EBC000B480C490C4A002302E0D458C4500433AC
:100ECC00C4188C42F9D3094A094C002301E0136081
:100EDC000432A242FBD301F03FFDFFF769F97047E2
:100EEC000000002010000020D42A00081000002070
:100EFC00402D0020FEE77047074B1B681B6823B989
:100F0C00064B4FF0FF321A607047034B1B68DB68CF
:100F1C001A68024B1A607047840400201C040020DD
:100F2C002DE9F04781460D4617469A46DDF820809C
:100F3C000A9C9200A521206B01F005FD236B07F1A3
:100F4C008042013A03EB820323F007068DB14FF088
:100F5C00000CBCF10F0F09D815F80C3004EB0C0287
:100F6C0082F8343013B10CF1010CF2E7002384F851
:100F7C004330B8F1040F08D94FF0200383F31188E4
:100F8C00BFF36F8FBFF34F8FFEE7C4F82C80C4F80C
:100F9C004C80201D00F0A1FC04F1180000F09DFC19
:100FAC002461C8F10503A361646252464946304688
:100FBC0000F026FD2060361AB7EBA60F08D84FF0CC
:100FCC00200383F31188BFF36F8FBFF34F8FFEE7BE
:100FDC00099B03B11C60BDE8F0872DE9F04186B098
:100FEC000D9E9EB10446884617461D460E9BB3B116
:100FFC005C230593059B5C2B1AD04FF0200383F3E5
:10100C001188BFF36F8FBFF34F8FFEE74FF02003B4
:10101C0083F31188BFF36F8FBFF34F8FFEE74FF051
:10102C00200383F31188BFF36F8FBFF34F8FFEE75D
:10103C00059B5C2200210E9801F085FC0E9B1E6323
:10104C0002230E9A82F859300023039302920F9BCD
:10105C0001930C9B00932B463A4641462046FFF7E2
:10106C005FFF0E9806B0BDE8F081000038B5002493
:10107C0007E004EB840293000E48184400F022FCB5
:10108C000134042CF5D90C4D284600F01BFC0B4CFC
:10109C00204600F017FC0A4800F014FC094800F048
:1010AC0011FC094800F00EFC084B1D60084B1C603D
:1010BC0038BD00BFB00400209C0400208804002030
:1010CC006C040020580400204004002084040020FC
:1010DC008004002010B5044600F0A4FC2A4A1368D2
:1010EC0001331360294B1B685BB1294B1B686BB92F
:1010FC00264B1B68DA6AE36A9A4207D8234B1C60BA
:10110C0004E0224B1C601368012B3AD0214A13686F
:10111C00013313606364E36A01229A401E49086834
:10112C0002430A601D4A03EB830302EB83035B68F3
:10113C00A3609868E060211D41609960E36A03EB4D
:10114C00830102EB8100606152F82110013103EB45
:10115C00830342F8231000F087FC0D4B1B687BB116
:10116C000A4B1B68DA6AE36A9A4209D24FF0E02311
:10117C004FF08052C3F8042DBFF34F8FBFF36F8F26
:10118C0010BDFFF773FFC1E73C04002014050020DD
:10119C00300400202004002034040020B00400207F
:1011AC002DE9F04385B006460F461446984690004C
:1011BC0000F0CCFD8146F8B15C2000F0C7FD05467F
:1011CC00B0B15C22002101F0BEFBC5F830900023C9
:1011DC00039302950D9B01930C9B0093434622466F
:1011EC0039463046FFF79CFE284605B0BDE8F08333
:1011FC00484600F077FEF7E70546F5E710B50446DC
:10120C0090F8593063B1012B11D0022B0ED04FF056
:10121C00200383F31188BFF36F8FBFF34F8FFEE76B
:10122C00006B00F05FFE204600F05CFE10BD00F08D
:10123C0059FEFBE70F4B1B68D3B110B500F0F2FB66
:10124C000D4BDB68DC68201D00F063FB0B4A136858
:10125C00013B1360074A1368013B136000F004FC68
:10126C002046FFF7CBFF034B1B68002BE6D110BDCC
:10127C00704700BF54040020580400203C04002098
:10128C0008B5FFF7D7FF074B1B68012BF9D94FF0B7
:10129C00E0234FF08052C3F8042DBFF34F8FBFF300
:1012AC006F8FEEE7B00400202DE9F04104460D46A7
:1012BC00254B1E68254B1F68254BD3F80080254B0A
:1012CC001868043000F025FB48B9224B1B68DB6A18
:1012DC0001229A4020490B6823EA02030B60B4F107
:1012EC00FF3F0DD034441B4B1B685C60A6421DD9DC
:1012FC00184B19680431404600F0F2FABDE8F08151
:10130C00002DEFD0154A5168124B1868816018688F
:10131C008C68C46018680430606018680430886099
:10132C001B685A61136801331360E7E7094B1968AE
:10133C000431384600F0D4FA094B1B68A342DDD9BE
:10134C00074B1C60DAE700BF38040020840400203F
:10135C0080040020140500203404002040040020E8
:10136C001C04002010B586B00024059405AC039431
:10137C000A9C0294099C0194089C0094FFF72DFE92
:10138C0008B1FFF7A7FE059806B010BD30B58DB0BB
:10139C000023089309930A930B930E2B09D8184A30
:1013AC00D25C03F13001694401F8102C0AB101330D
:1013BC00F3E730336B44002403F8104C002C02DDAF
:1013CC0001200DB030BD0025069507950DF11602D4
:1013DC0007A906A8FEF70AFF069B0293079B019339
:1013EC0000952B46BDF8162008A90648FFF7BAFF52
:1013FC00054B43F8240008B10134DFE70020E0E797
:10140C00002A00088D1200081804002000B583B0D3
:10141C00DDF814C0CDF804C0DDF810C0CDF800C064
:10142C00FFF7BEFE28B1FFF755FE012003B05DF8B3
:10143C0004FB4FF0FF30F9E708B5FFF7A7FF0128D1
:10144C0005D0B0F1FF3F17D0104B1B6808BD4FF013
:10145C00200383F31188BFF36F8FBFF34F8F0C4BB7
:10146C004FF0FF321A600B4B01221A600A4B00221C
:10147C001A6000F031FBE7E74FF0200383F311888B
:10148C00BFF36F8FBFF34F8FFEE700BFAC2A00088E
:10149C001C0400203004002038040020024A136889
:1014AC0001331360704700BF14040020014B18680F
:1014BC00704700BF3804002008B500F0A9FB014BB1
:1014CC00186808BD38040020F8B5524B1B68002B77
:1014DC0040F09980504B1C6801341C60C4B94F4BD0
:1014EC001B681B6843B14FF0200383F31188BFF3D3
:1014FC006F8FBFF34F8FFEE7484A1168484B18684F
:10150C0010601960474A136801331360FFF7F4FC4D
:10151C00454B1B68A34211D90020444B1B68DB6A66
:10152C0003EB83039A00424B9B58012B00D90120FB
:10153C00404B1B68002B6BD0012069E0002037E08A
:10154C00394B4FF0FF321A60E7E7374B1A60E4E78C
:10155C00D968516042E0002199621168013911602B
:10156C00DA6A01219140344E376839433160304991
:10157C0002EB82024FEA820C8C44DCF804209A6065
:10158C009668DE6075609560DA6A02EB820C4FEA51
:10159C008C056E185E614D5901354FEA8C0C41F883
:1015AC000C50DA6A214B1B68DB6A9A4200D9012085
:1015BC001A4B1B681B68002BC2D0184B1B68DB68CE
:1015CC00DB685A689442C0D35A699D68D968A9608F
:1015DC009D684D6051681D1DA942B9D0002159610B
:1015EC001168013911609A6A002AB9D0DE69196A4A
:1015FC00B160DE694E60566803F118018E42AAD1C3
:10160C00196A5160A7E70D4A136801331360002073
:10161C00F8BD00BF1404002038040020840400200E
:10162C0080040020240400201C0400201405002049
:10163C00B004002028040020340400202C040020D6
:10164C0038B500F0EFF94C4B1B6843B94FF0200351
:10165C0083F31188BFF36F8FBFF34F8FFEE7464BB9
:10166C001A68013A1A601B68002B7FD1434B1B6828
:10167C003BB900247BE0196A516015E0D9685160D0
:10168C0021E000233E4A1268002A4AD03C4BDB681A
:10169C00DB689A6AD869196A8160D86948605068B1
:1016AC0003F118018842E6D00021996211680139D2
:1016BC0011605A699868D968816098684860516867
:1016CC00181D8142DAD0002159611168013911606D
:1016DC00DA6A012191402B4C2568294321602A4963
:1016EC0002EB820201EB820252689A609468DC6021
:1016FC0060609060DA6A02EB820001EB80045C614E
:10170C0051F82000013002EB820241F82200D96A24
:10171C001E4A1268D26A9142B4D91D4A0121116045
:10172C00B0E70BB1FFF7E8FB1A4B1C6894B9184BE8
:10173C001C68E4B1154B1B684FF0E0234FF080524E
:10174C00C3F8042DBFF34F8FBFF36F8F01240EE04E
:10175C00013C07D0FFF7B8FE0028F9D00C4B012252
:10176C001A60F5E70B4B00221A60E0E7002400F04A
:10177C007BF9204638BD00BF140400203C04002037
:10178C006C04002034040020B00400201405002058
:10179C00280400202C04002010B550B94FF0E02391
:1017AC004FF08052C3F8042DBFF34F8FBFF36F8FF0
:1017BC0010BD0446FFF772FE0A4B1B68012B08D0C4
:1017CC004FF0200383F31188BFF36F8FBFF34F8F5C
:1017DC00FEE700212046FFF767FDFFF731FF0028E9
:1017EC00E6D1DBE71404002008B5314B1B681BB1B4
:1017FC00304B01221A6008BD2E4B00221A602E4B72
:10180C001A68126B196809681B681B6B994203D91B
:10181C001368B3F1A53F1BD0274B196818683431F6
:10182C00FEF7F0FC254B1B68B3FA83F3DBB2C3F174
:10183C001F0303EB83018A0021498A58AAB94FF090
:10184C00200383F31188BFF36F8FBFF34F8FFEE735
:10185C005368B3F1A53FDFD19368B3F1A53FDBD15A
:10186C00D368B3F1A53FD7D1DCE7154803EB83016F
:10187C008A00024451684968516003EB830C4FEABB
:10188C008C020832024491420AD003EB83039A0083
:10189C000B4B13445B68DA68074B1A601B68AAE7AA
:1018AC006246910002460A44D1685160EDE700BFE0
:1018BC001404002028040020140500203404002007
:1018CC00B004002000F1080343604FF0FF32826047
:1018DC00C3600361002303607047002303617047FA
:1018EC0030B40D68B5F1FF3F11D000F108031C4670
:1018FC005B681A68AA42FAD963684B6099608C607D
:10190C006160086103680133036030BC704704698F
:10191C00F2E70369416882688A60416851605A68DD
:10192C00824205D0002202611868013818607047A5
:10193C0082685A60F6E7000082B0002301930D4BD9
:10194C001B68B3F1FF3F08D04FF0200383F31188DD
:10195C00BFF36F8FBFF34F8FFEE74FF0200383F37E
:10196C001188BFF36F8FBFF34F8F019B002BFCD0FF
:10197C0002B0704704000020074B19680868B0E8F3
:10198C00F00F80F30988BFF36F8F4FF0000080F3E6
:10199C0011884EF00D0E70471405002006480068A3
:1019AC00006880F3088862B661B6BFF34F8FBFF34F
:1019BC006F8F00DF00BF000008ED00E0EFF309803F
:1019CC00BFF36F8F0D4B1A6820E9F00F10602DE9F3
:1019DC0008404FF0200080F31188FFF705FF4FF00F
:1019EC00000080F31188BDE8084019680868B0E869
:1019FC00F00F80F30988BFF36F8F70471405002038
:101A0C004FF0807340F8043C21F0010140F8081CB1
:101A1C00034B40F80C3C40F8202C4038704700BF7A
:101A2C00451900084FF0200383F31188BFF36F8F23
:101A3C00BFF34F8F0B4A136801331360012B00D097
:101A4C0070474FF0E023D3F8043D13F0FF0FF7D0AD
:101A5C004FF0200383F31188BFF36F8FBFF34F8FC9
:101A6C00FEE700BF04000020094B1B6843B94FF090
:101A7C00200383F31188BFF36F8FBFF34F8FFEE703
:101A8C00013B034A13600BB983F31188704700BF05
:101A9C000400002008B54FF0200383F31188BFF336
:101AAC006F8FBFF34F8FFFF70FFD28B14FF0E0237F
:101ABC004FF08052C3F8042D002383F3118808BD26
:101ACC004FF0E02300221A619A61024A5A61072200
:101ADC001A6170473F1901004FF0E023D3F8083D1D
:101AEC00D96A454A914208D04FF0200383F31188FC
:101AFC00BFF36F8FBFF34F8FFEE79A6B3F4B9A424A
:101B0C0008D04FF0200383F31188BFF36F8FBFF31E
:101B1C004F8FFEE710B582B000230193384B1A7833
:101B2C00D2B28DF80220FF221A701B78DBB28DF82E
:101B3C0003309DF8033003F02003324A137043B98D
:101B4C004FF0200383F31188BFF36F8FBFF34F8FD8
:101B5C00FEE79DF8033013F0200F08D14FF020035F
:101B6C0083F31188BFF36F8FBFF34F8FFEE79DF8A0
:101B7C00033013F0800F09D0019B013301939DF8C2
:101B8C0003305B00DBB28DF80330F0E7019B082BD0
:101B9C002ED0019BC3F107031B4A13601A4A13682A
:101BAC001B02136003F4E06313609DF80230DBB298
:101BBC00134A13704FF0E023D3F8202D42F47F0228
:101BCC00C3F8202DD3F8202D42F07F42C3F8202DEE
:101BDC000024C3F81C4DFFF773FF0C4B1C60FFF780
:101BEC00DDFEFFF701FEFFF7A7FE204602B010BD99
:101BFC00054B00221A60D1E785190008C9190008A5
:101C0C0000E400E01C050020180500200400002062
:101C1C00EFF305830F2B0ED9114A9A5C114B1B78ED
:101C2C009A4208D24FF0200383F31188BFF36F8FD1
:101C3C00BFF34F8FFEE74FF0E023D3F80C3D03F4D6
:101C4C00E063094A1268934208D94FF0200383F3EA
:101C5C001188BFF36F8FBFF34F8FFEE7704700BF44
:101C6C00F0E300E01C05002018050020104A12F0DB
:101C7C00070F1AD0D11D21F00701C1F520531344D1
:101C8C000A460C480260002141601344083B23F0D3
:101C9C0007030948036059601960991A5160136071
:101CAC00064B1960064B196070474FF42053E8E758
:101CBC003C050020340500203005002028050020BC
:101CCC002C0500201D4B19461B688342FBD31B4A75
:101CDC0091420ED01A4A914202D31A4A914208D923
:101CEC004FF0200383F31188BFF36F8FBFF34F8F37
:101CFC00FEE74A6801EB020C844509D0426800EB10
:101D0C00020C634509D00360884200D0086070471C
:101D1C00406802444A600846F0E7DFF82CC0DCF863
:101D2C0000C0634506D05B681A4442600B681B68B0
:101D3C000360E9E7C0F800C0E6E700BF3405002007
:101D4C003C0500203B2D00203005002038B5044612
:101D5C0070B110F1090F0AD8083414F0070307D03A
:101D6C00C3F10802093BA34223D3144400E000242E
:101D7C00FFF794FB544B1B68EBB1002CC0F28D8029
:101D8C00002C00F08C80514B1868A042C0F096805B
:101D9C004F4B1B684F4A934202D34F4A934229D967
:101DAC004FF0200383F31188BFF36F8FBFF34F8F76
:101DBC00FEE70024DCE7FFF759FFDEE700219C4635
:101DCC0079B113465A68A24217D21A68AAB141498E
:101DDC008A42F3D340498A4201D90021EFE701211D
:101DEC00EDE74FF0200383F31188BFF36F8FBFF340
:101DFC004F8FFEE7DFF8D8C0E4E7334A12689A4207
:101E0C005ED0DCF800500835324A954202D3324A93
:101E1C00954208D94FF0200383F31188BFF36F8FDD
:101E2C00BFF34F8FFEE71A68CCF800205A68A24225
:101E3C000FD3121B102A1CD9191911F0070F11D02E
:101E4C004FF0200383F31188BFF36F8FBFF34F8FD5
:101E5C00FEE74FF0200383F31188BFF36F8FBFF3BE
:101E6C004F8FFEE74A605C60DCF800201A51CCF81A
:101E7C0000105A68801A1549086018490968884288
:101E8C0001D21649086042F000425A6000221A60E2
:101E9C00134A13680133136002E0002500E00025AB
:101EAC00FFF7CEFB15F0070F0CD04FF0200383F398
:101EBC001188BFF36F8FBFF34F8FFEE70025EFE75D
:101ECC000025EDE7284638BD300500202C05002004
:101EDC00340500203C0500203B2D00202805002067
:101EEC0024050020002841D038B50446A0F108058F
:101EFC001F4B9D420FD31F4B9D420CD850F8043CF6
:101F0C00002B11DB4FF0200383F31188BFF36F8F8D
:101F1C00BFF34F8FFEE74FF0200383F31188BFF31D
:101F2C006F8FBFF34F8FFEE750F8082C42B14FF084
:101F3C00200383F31188BFF36F8FBFF34F8FFEE73E
:101F4C0023F0004340F8043CFFF7A8FA54F8041CB3
:101F5C00094A13680B4413602846FFF7B3FE074A7F
:101F6C00136801331360FFF76BFB38BD704700BF7C
:101F7C003C0500203B2D00202C05002020050020D6
:101F8C007047000010B504460E4B1A784FF47A7364
:101F9C00B3FBF2F30C4A1068B0FBF3F000F0AAF8B4
:101FAC0068B90F2C01D901200AE0002221464FF01C
:101FBC00FF3000F07DF8054B1C60002000E0012094
:101FCC0010BD00BF08000020000000200C00002005
:101FDC0008B5074A136843F010031360032000F0A0
:101FEC0055F80F20FFF7CEFFFFF7CAFF002008BD02
:101FFC0000200240014B1868704700BF3C2D0020A8
:10200C0000280CDB00F01F02400901239340203014
:10201C00034A42F82030BFF34F8FBFF36F8F7047E6
:10202C0000E100E0002808DB0901C9B200F16040C2
:10203C0000F5614080F80013704700F00F000901B3
:10204C00C9B2014B1954704714ED00E000B500F013
:10205C000700C0F1070CBCF1040F28BF4FF0040CB3
:10206C00031D062B0FD9C31E4FF0FF3E0EFA0CF0CA
:10207C0021EA000199400EFA03FE22EA0E0241EA1F
:10208C0002005DF804FB0023EEE70000074AD3686A
:10209C0023F4E0631B041B0C000200F4E060034318
:1020AC0043F0BF6343F40033D360704700ED00E0AE
:1020BC0010B50446054BD868C0F30220FFF7C6FFE5
:1020CC0001462046FFF7AEFF10BD00BF00ED00E05B
:1020DC00002807DB00F01F02400901239340024A4D
:1020EC0042F82030704700BF00E100E008B5FFF770
:1020FC0087FF08BD0138B0F1807F0BD24FF0E02391
:10210C005861054AF02182F82310002098610722BB
:10211C001A6170470120704700ED00E082B0084B57
:10212C001B68084AA2FB03235B0A00FB03F3019321
:10213C0000BF019B5A1E0192002BF9D102B07047CF
:10214C0000000020D34D6210002800F0F18170B522
:10215C0082B00446036813F0010F2CD0994B5B68D6
:10216C0003F00C03042B1DD0964B5B6803F00C039F
:10217C00082B12D06368B3F5803F41D0002B55D1AA
:10218C0003F1804303F504331A6822F480321A6099
:10219C001A6822F480221A6037E08A4B5B6813F4C9
:1021AC00803FE7D0874B1B6813F4003F03D0636874
:1021BC00002B00F0BF81236813F0020F75D0814B08
:1021CC005B6813F00C0F5FD07E4B5B6803F00C0365
:1021DC00082B54D02369002B00F08A807A4B012203
:1021EC001A60FFF707FF0546764B1B6813F0020FCA
:1021FC0075D1FFF7FFFE401B0228F5D903209EE1A5
:10220C00704A136843F480331360636843B3FFF779
:10221C00F1FE05466B4B1B6813F4003FCBD1FFF767
:10222C00E9FE401B6428F5D9032088E1B3F5A02F03
:10223C0009D0644B1A6822F480321A601A6822F4AE
:10224C0080221A60E1E703F18043A3F53C331A685E
:10225C0042F480221A601A6842F480321A60D4E781
:10226C00FFF7C8FE0546574B1B6813F4003FA2D07E
:10227C00FFF7C0FE401B6428F5D903205FE1514BEA
:10228C005B6813F4803FA5D14E4B1B6813F0020F13
:10229C0003D02369012B40F04F814A4A136823F085
:1022AC00F803616943EAC1031360236813F0080F54
:1022BC0033D0A369002B5CD0434B0122C3F880249C
:1022CC00FFF798FE05463F4B5B6A13F0020F21D1D6
:1022DC00FFF790FE401B0228F5D903202FE1394A65
:1022EC00136823F0F803616943EAC1031360DCE768
:1022FC00354B00221A60FFF77DFE0546314B1B68FB
:10230C0013F0020FD1D0FFF775FE401B0228F5D950
:10231C00032014E10120FFF701FF236813F0040FE1
:10232C0000F09680274BDB6913F0805F34D1254B8E
:10233C00DA6942F08052DA61DB6903F08053019371
:10234C00019B0125214B1B6813F4807F26D0E36889
:10235C00012B3DD0002B53D103F1804303F5043303
:10236C001A6A22F001021A621A6A22F004021A6234
:10237C0033E0154B0022C3F88024FFF73BFE0546E3
:10238C00104B5B6A13F0020FC7D0FFF733FE401BF4
:10239C000228F5D90320D2E00025D3E70B4A1368B5
:1023AC0043F480731360FFF725FE0646074B1B684A
:1023BC0013F4807FCBD1FFF71DFE801B6428F5D969
:1023CC000320BCE0001002400000424200700040BC
:1023DC005F4A136A43F001031362E36833B3FFF7F8
:1023EC0009FE06465A4B1B6A13F0020F2FD1FFF75A
:1023FC0001FE801B41F288339842F3D903209EE002
:10240C00052B09D0524B1A6A22F001021A621A6A81
:10241C0022F004021A62E0E74D4B1A6A42F0040201
:10242C001A621A6A42F001021A62D6E7FFF7E2FD5D
:10243C000646474B1B6A13F0020F08D0FFF7DAFD74
:10244C00801B41F288339842F3D9032077E0E5B939
:10245C00E369002B72D03E4A526802F00C02082A43
:10246C0056D0022B17D03B4B00221A66FFF7C2FD49
:10247C000446374B1B6813F0007F47D0FFF7BAFDBB
:10248C00001B0228F5D9032059E0314AD36923F007
:10249C008053D361DCE72F4B00221A66FFF7AAFDAD
:1024AC0005462B4B1B6813F0007F06D0FFF7A2FDEF
:1024BC00401B0228F5D9032041E0236AB3F5803F85
:1024CC001AD023494B6823F47413226A606A0243BE
:1024DC0013434B601F4B01221A66FFF78BFD04461A
:1024EC001B4B1B6813F0007F0ED1FFF783FD001B05
:1024FC000228F5D9032022E0154A536823F400334F
:10250C00A1680B435360DCE7002018E0002016E0C4
:10251C00012B16D00E4B5B6803F48031226A91427A
:10252C0011D103F47013626A93420ED1002006E0BD
:10253C0001207047012002E0012000E0002002B0E1
:10254C0070BD0120FBE70120F9E70120F7E700BF90
:10255C0000100240000042420F4B5B6803F00C027B
:10256C00082A01D00D487047C3F383420C49885C9C
:10257C0013F4803F0BD0084B5B68C3F34043094A0C
:10258C00D35C064A02FB00F0B0FBF3F07047064B3D
:10259C0003FB00F0704700BF0010024000127A00ED
:1025AC00B42A0008B02A000800093D00002800F0F9
:1025BC00A08070B50D460446524B1B6803F0070310
:1025CC008B420BD24F4A136823F007030B43136063
:1025DC00136803F007038B4240F08D80236813F0DF
:1025EC00020F17D013F0040F04D0474A536843F47A
:1025FC00E0635360236813F0080F04D0424A536819
:10260C0043F460535360404A536823F0F003A168CD
:10261C000B435360236813F0010F31D06368012B17
:10262C0020D0022B25D0384A126812F0020F64D049
:10263C0035494A6822F0030213434B60FFF7DAFC7A
:10264C000646314B5B6803F00C036268B3EB820FF8
:10265C0016D0FFF7CFFC801B41F288339842F0D99B
:10266C00032045E0284A126812F4003FE0D1012013
:10267C003EE0254A126812F0007FD9D1012037E0E4
:10268C00204B1B6803F00703AB420AD91D4A1368A1
:10269C0023F007032B431360136803F00703AB42CB
:1026AC002DD1236813F0040F06D0174A536823F476
:1026BC00E063E1680B435360236813F0080F07D005
:1026CC00114A536823F46053216943EAC1035360F0
:1026DC00FFF742FF0C4B5B68C3F303130B4AD35C4D
:1026EC00D8400B4B18600B4B1868FFF74BFC0020C5
:1026FC0070BD012070470120FAE70120F8E70120A6
:10270C00F6E700BF00200240001002409C2A00089F
:10271C00000000200C00002070B582B00024A446FC
:10272C009EE07C4DAB4214D00CD8A5F58015AB4285
:10273C000FD005F57025AB420BD0A5F58015AB423B
:10274C001FD106E0744DAB4203D005F58035AB428A
:10275C0017D18B68A3B1012B0DD04261082410E076
:10276C00CC680EE0CC6804340BE0CC68083408E08C
:10277C00CC680C3405E00261082402E0002400E07F
:10278C000424BEF1FF0F37D806464FEA8C0233689B
:10279C000F25954023EA050304FA02F21343336034
:1027AC004B6813F0805F59D05C4B9A6942F0010280
:1027BC009A619B6903F001030193019B4FEA9C0210
:1027CC00951C574B53F825600CF00305AD000F23F7
:1027DC00AB4026EA0306534B984214D003F58063B2
:1027EC00984279D003F58063984277D003F58063E3
:1027FC00984206D0042307E0061DACF108029200B3
:10280C00C5E7032300E00023AB4033430232444DC1
:10281C0045F822304B6813F4801F61D0424A93680C
:10282C0043EA0E0393604B6813F4001F5ED03E4ADC
:10283C00D36843EA0E03D3604B6813F4003F5BD0BC
:10284C00394A536843EA0E0353604B6813F4803FD4
:10285C0058D0354A136843EA0E0313600CF1010C8F
:10286C000B6833FA0CF253D0012202FA0CF203EA91
:10287C00020E32EA0303F1D14B68122B3FF651AF33
:10288C00122B3FF67EAF01A555F823F05F27000809
:10289C006D27000877270008892700088F27000874
:1028AC008F2700088F2700088F2700088F27000824
:1028BC008F2700088F2700088F2700088F27000814
:1028CC008F2700088F2700088F2700088F27000804
:1028DC00712700087D270008012395E7022393E761
:1028EC00114A936823EA0E0393609CE70E4AD3685F
:1028FC0023EA0E03D3609FE70B4A536823EA0E03C7
:10290C005360A2E7084A136823EA0E031360A5E795
:10291C0002B070BD00002210000031100010024007
:10292C000000014000080140000401408368194286
:10293C0001D001207047002070470AB10161704737
:10294C0009040161704703460244934200D1704769
:10295C0003F8011BF9E7000070B500260C4D0D4B78
:10296C005B1B9C10A64209D1002600F019F80A4DF9
:10297C000A4B5B1B9C10A64205D170BD55F8043B5D
:10298C0098470136EEE755F8043B98470136F2E7D5
:10299C00CC2A0008CC2A0008CC2A0008D02A00082F
:1029AC00F8B500BFF8BC08BC9E467047F8B500BF30
:0829BC00F8BC08BC9E46704700
:1029C4006B657931000000006C6564310000000023
:1029D4004170705374617274000000006B65793249
:1029E400000000006B657933000000006C65643200
:1029F400000000006C6564330000000049444C454D
:102A0400000000004B0400088705000800000000D7
:102A14000104000805050008C42900080008014055
:102A240008000000040000060A000000E029000875
:102A34000008014010000000050000061700000017
:102A4400E8290008000801402000000003000006F7
:102A540009000000C50700087D0700080000000009
:102A64004D07000831070008CC2900080010014078
:102A74000020000000000000F029000800080140C8
:102A84000400000001000000F8290008000C0140C7
:102A94000020000000000000000000000000000012
:102AA40001020304060708090400000001020000F3
:102AB40002030405060708090A0B0C0D0E0F10107B
:082AC40048D6FF7F010000006D
:042ACC0045010008B8
:042AD00021010008D8
:102AD40000127A00AAAAAAAA0100000010000000AD
:0400000508000EB928
:00000001FF
