:020000040800F2
:1000000000500020B5420008FD420008FD420008F3
:10001000FD420008FD420008FD420008000000000B
:10002000000000000000000000000000315B00083C
:10003000FD42000800000000755B00084D5C0008F0
:10004000FD420008FD420008FD420008FD42000894
:10005000FD420008FD42000849260008532600081A
:100060005D260008FD420008FD420008FD42000830
:10007000FD420008FD420008FD420008FD42000864
:10008000FD420008FD420008FD420008FD42000854
:10009000FD420008FD420008FD420008FD42000844
:1000A000FD420008E92C0008FD420008FD4200085E
:1000B000012D00081D2D0008392D0008FD42000803
:1000C000FD420008FD420008FD420008FD42000814
:1000D000FD420008FD420008FD420008FD42000804
:1000E000FD420008FD420008FD420008000000003B
:1000F0000000000000000000000000000000000000
:0C01000000000000000000005FF808F1A3
:10010C007BB972B90029BEBF00204FF0004106E058
:10011C0008BF00281CBF6FF000414FF0FF3000F00B
:10012C0057B8ADF1080C6DE904CE002909DB002BA2
:10013C001ADB07F00DFEDDF804E0DDE9022304B064
:10014C007047404261EB4101002B1BDB07F000FEC6
:10015C00DDF804E0DDE9022304B0404261EB41012B
:10016C00524263EB43037047524263EB430307F085
:10017C00EFFDDDF804E0DDE9022304B0404261EB61
:10018C0041017047524263EB430307F0E1FDDDF898
:10019C0004E0DDE9022304B0524263EB43037047F1
:1001AC0053B94AB9002908BF00281CBF4FF0FF31D2
:1001BC004FF0FF3000F00CB8ADF1080C6DE904CE37
:1001CC0007F0C6FDDDF804E0DDE9022304B070475A
:1001DC00704700BF10F8012B11F8013B012A28BF12
:1001EC009A42F7D0D01A704710B5054C237833B922
:1001FC00044B13B10448AFF300800123237010BDEE
:10020C006000002000000000148A000808B5034BB1
:10021C001BB103490348AFF3008008BD0000000088
:10022C0064000020148A00087F2917D83F2A15D8AB
:10023C00120192B202EBD10292B2C94301F0070152
:10024C004FF0010C0CFA01F1C9B21BB1835C0B43EA
:10025C0083547047835C23EA010383547047000086
:10026C002DE9F047074688469146A3F12502352A29
:10027C0057D8DFE802F039565656565636562D3CAE
:10028C00301E1E1E1E1E1E1E1E1E1E1B56563356B6
:10029C0056562525252525252525252525252525A0
:1002AC00252525252525252525252525DFF878A097
:1002BC000CE0303B03EB83031C4A03EB020A05E022
:1002CC00303B03EB8303194A03EB020A002522E0BF
:1002DC00DFF85CA0FAE7DFF85CA0F7E7DFF858A0DE
:1002EC00F4E7DFF858A0F1E7DFF854A0EEE7DFF809
:1002FC0054A0EBE746FA04F303F0010309EB040204
:10030C0008EB05013846FFF78FFF0134E4B2062CE9
:10031C00F0D90135EDB2042D03D81AF8056000248C
:10032C00F5E7BDE8F08700BFCE8B00089C8B00087A
:10033C00D88B0008DD8B0008E28B0008E78B0008E7
:10034C00EC8B0008D38B0008F8B507460C46164614
:10035C001D4607E0324621463846FFF781FF06343A
:10036C00E4B201352B78002BF4D1F8BDF8B5074673
:10037C000C4615461E4607E00123324621463846F8
:10038C00FFF752FF0134E4B2AC42F5D9F8BD0000DE
:10039C0030B583B0144802F0DDFF044608B102F01A
:1003AC00F5FF124803F0E6F8054608B103F0FEF835
:1003BC0000238DF8073002E00A2004F047FC002CE3
:1003CC00FAD00DF10701204603F002F80028F3D112
:1003DC009DF80710012914BF00210121002DEBD03D
:1003EC00284603F005F9E7E75C8A0008648A0008F0
:1003FC0070B50646114803F0BDF80546E0B103F0B0
:10040C00D5F819E0782004F021FC0134E4B2B442B0
:10041C000ED21DB10121284603F0EAF8782004F031
:10042C0015FC002DEED00021284603F0E1F8E9E799
:10043C004FF47A7004F00AFC0024E8E76C8A000898
:10044C0010B582B004460A46084B93E80300CDE988
:10045C0000014FF480636946204603F07FFD08B12C
:10046C0002B010BD204603F0AAFDF9E72C8A000863
:10047C0000B585B0002303938DF8003001900291F4
:10048C0003AA69460948006805F0A2F8039B4BB122
:10049C004FF0E0234FF08052C3F8042DBFF34F8F81
:1004AC00BFF36F8F05B05DF804FB00BF7C0000202C
:1004BC0000B585B00023039301228DF80020019034
:1004CC00029103AA69460948006805F081F8039B6C
:1004DC004BB14FF0E0234FF08052C3F8042DBFF323
:1004EC004F8FBFF36F8F05B05DF804FB7C000020CD
:1004FC0008B50A46002107F0EBFD08BD2DE9F04FC9
:10050C0095B000220C21102004F067FFB74B186047
:10051C0020B103F061F90646002403E00520FFF743
:10052C0067FF0134B4421ED2B14B1B68032B1AD89F
:10053C00204603F05FF905460028F2D003F088F955
:10054C000028EED10022AB49284603F059FA0121CC
:10055C00284603F067FAA64A1368591C1160A64A8C
:10056C0042F82350DDE703F025FB0646002400E0AB
:10057C000134B4421ED2A14B1B68032B1AD820465F
:10058C0003F026FB05460028F2D003F04FFB0028B1
:10059C00EED100229A49284603F0C4FB01212846DB
:1005AC0003F0D2FB954A1368591C1160954A42F826
:1005BC002350DDE7944803F093FC0346934A92E8FA
:1005CC00030014AA02E90300984633B1184603F05D
:1005DC00A3FC28B10220FFF70BFF0120FFF708FF57
:1005EC00002101910DF1470300930DF146030A46DA
:1005FC00404603F01EFD9DF8473023B99DF846B0E8
:10060C00BBF1000F18D00320FFF7F2FE0134784B3A
:10061C001B68A34212D9784B53F82450002DF5D007
:10062C00284603F079F90021284603F059F91E21D8
:10063C00284603F02FF9E9E70024E8E7744C4FF45F
:10064C0080612046FFF754FF724B00221146204672
:10065C00FFF77AFE09237F2200212046FFF786FE52
:10066C006D4B142200212046FFF76EFE21464046BA
:10067C00FFF7E6FE4FF4FA7004F0E8FA674802F070
:10068C0069FE814608B102F081FE04F00BF910906E
:10069C004FF0010A1EE1BBF1000F40F033818AF0EC
:1006AC000106002406E0284603F015F9284603F05D
:1006BC004DF901344E4B1B68A34212D94E4B53F8E3
:1006CC002450002DF5D0002EEDD0284603F024F94F
:1006DC000021284603F004F91E21284603F0DAF81D
:1006EC00E7E7BAF1000F0DD1B2460BE1454B53F8D9
:1006FC00240003F0FDFA0134404B1B68A342F5D8EB
:10070C00B246FFE00024F7E7322110A804F046FAC5
:10071C00E0E00AAE02930192059B00932B46404AFF
:10072C001621304607F08EFC04EB84025200023294
:10073C00334602F0FE0200213548FFF705FE013476
:10074C00E4B201352D4B1B68AB424DD9032C1BD8A1
:10075C000023059306932B4E05A956F8250003F0AC
:10076C0087FA06A956F8250003F0A2FA069B2D4934
:10077C0081FB0321DA17C2EBA10202EB8201B3EB7E
:10078C004103C6D55B42C4E7002526E00026069649
:10079C00194F05A957F8250003F0F2F806A957F8E8
:1007AC00250003F00DF90AAF069B01939DF8143058
:1007BC0000932B461C4A1621384607F043FC04EBE9
:1007CC008402520002323B4602F0FE0231461048CF
:1007DC00FFF7BAFD0134E4B20135054B1B68AB429F
:1007EC006CD9052CD2D969E00025F6E77C000020F5
:1007FC0080000020BD040008880000208400002038
:10080C007D04000898000020748A00082C8A0008D7
:10081C00A80400207C8A0008908A0008A08A00089E
:10082C00BC8A000867666666D48A0008514C524B35
:10083C00002211462046FFF787FD09237F22002165
:10084C002046FFF793FD002501241EE000260696A6
:10085C0006A94A4B53F8250003F00AFA0AAF069B87
:10086C0000932B46464A1621384607F0EBFB04EB67
:10087C008402520002323B4602F0FE0231463D48F1
:10088C00FFF762FD0134E4B201353E4B1B68AB420D
:10089C0001D9032CDAD9374C3B4B282200212046B6
:1008AC00FFF752FD394B322200212046FFF74CFD59
:1008BC00374B3C2200212046FFF746FD4FF4806267
:1008CC0034492C4807F0F4FB002840D1322110A801
:1008DC0004F064F9002207A92F4B186804F049FFB3
:1008EC000128F7D0B9F1000F0ED000238DF8283075
:1008FC000AA9484602F06CFD30B99DF82830012B4E
:10090C003FF4C9AE9DF828B00DF11301404603F039
:10091C0070FB9DF81330022B3FF4F6AE4FF4806160
:10092C001448FFF7E5FDBAF1000F3FF47FAF114C0F
:10093C001A4B002211462046FFF706FD09237F22A1
:10094C0000212046FFF712FD00250124FAE6094C90
:10095C004FF480652A4621460E4807F0E7FB2B46EC
:10096C00224612A9404603F0F9FA404603F027FB51
:10097C00ACE700BFA8040020E88A0008980000201B
:10098C00FC8A000884000020088B00081C8B0008DF
:10099C002C8B0008A80000207C000020A88A0008EE
:1009AC0010B582B000F084F8D8B900240194022369
:1009BC00009323464FF480720B490C4803F022FF3E
:1009CC0001940323009323464FF48062084909489D
:1009DC0003F018FF03F02CFF00F050F8204602B093
:1009EC0010BD00F04BF8E0E73C8B00089D030008BD
:1009FC00488B000809050008034B0360034B0B6090
:100A0C0080231380704700BFA80A0020A80800208C
:100A1C0000BEFEE710B590B006AC2822002120469F
:100A2C0007F056FB00230193029303930493059361
:100A3C00012306934FF48033079302220D920E93F9
:100A4C004FF4E0130F93204605F054FC78B90F23B4
:100A5C00019302210291002303934FF480620492CC
:100A6C00059301A805F078FE20B910B010BD6FF009
:100A7C000A00FAE76FF00A00F7E7000072B60A4ABC
:100A8C00936943F010039361084B5A6822F4700287
:100A9C005A605A6842F400125A60DA6822F4005222
:100AAC00DA6000BFFDE700BF0010024000100140FB
:100ABC0008B505F063FBFFF7ADFFA0B9114800F0D6
:100ACC0089F990B901F0CAFD88B901F0E1FE80B94D
:100ADC0001F0DEFB78B901F09DF970B900F04CFF24
:100AEC0068B9002008BDFFF7C9FFFFF7C7FFFFF784
:100AFC00C5FFFFF7C3FFFFF7C1FFFFF7BFFFFFF70E
:100B0C00BDFF00BF801A06000268054B9A4200D058
:100B1C007047044AD36923F40013D361F8E700BF8C
:100B2C00005400400010024000B170476420704730
:100B3C0082B0094B1B68094AA2FB03231B0D00FB67
:100B4C0003F3019300E000BF019B5A1E0192002B9E
:100B5C00F9D102B0704700BF0000002083DE1B43B8
:100B6C0008B5021E18BF01224021024805F0D1FF32
:100B7C0008BD00BF000C014008B5021E18BF0122C1
:100B8C008021024805F0C5FF08BD00BF000C0140E4
:100B9C0030B585B00F4D0122C021284605F0B9FFB4
:100BAC0000230093019302930393112301930123D8
:100BBC00029302230393402300936946284605F0D1
:100BCC0097FE802300936946284605F091FE05B0F8
:100BDC0030BD00BF000C014000B587B00B4B9A69CB
:100BEC0042F008029A619B6903F008030193019B90
:100BFC00074B0DF1080C0FCB8CE80F006146054834
:100C0C0005F076FE07B05DF804FB00BF0010024053
:100C1C00348A0008000C01400268124B9A4200D042
:100C2C00704710B586B0104CA36943F00803A3615C
:100C3C00A36903F008030093009B0C4B0DF1080C07
:100C4C000FCB8CE80F006146094805F051FEE369B3
:100C5C0043F40013E361E36903F400130193019B74
:100C6C0006B010BD0054004000100240348A000849
:100C7C00000C014008B58021034805F043FF012812
:100C8C0000D0002008BD00BF000C014008B5402179
:100C9C00034805F037FF012800D0002008BD00BF35
:100CAC00000C014010B5FFF773FFFFF7EFFFB8B36F
:100CBC0000240F2C13D8FFF7DDFF60BBFFF750FFAC
:100CCC000520FFF735FF0120FFF74AFF0520FFF74E
:100CDC002FFFFFF7DBFF30B30134E4B2E9E7002369
:100CEC00DBB1FFF7C7FFC0B1FFF7D0FFA8B1002001
:100CFC00FFF742FF0520FFF71BFF0120FFF730FF36
:100D0C000520FFF715FF0120FFF736FF0520FFF741
:100D1C000FFF002010BD0123E2E76FF00400F9E79C
:100D2C006FF00400F6E76FF00400F3E7184B1B7844
:100D3C002BB310B5174B1C6824B3E8B1C30E41019B
:100D4C00091A63F100039B0043EA917389000918A7
:100D5C0043F100034FEAC30C4FF47A720023C8002E
:100D6C004CEA5171FFF71CFA0146204604F0A1FD34
:100D7C0001280AD1002010BD4FF0FF31F5E76FF0CC
:100D8C00060070476FF00600F5E76FF00200F2E71F
:100D9C00000B0020FC0A002008B50C4B1B785BB143
:100DAC000B4B186858B100231A46194604F043FB44
:100DBC00012807D1002008BD6FF00600FBE76FF09B
:100DCC000600F8E74FF0FF30F5E700BF000B0020FE
:100DDC00FC0A002030B583B0304A1278002A5AD170
:100DEC0003462F4A2F4911602F49D1672F49C2F86A
:100DFC00801000B92E4B2A48436000238360C360E7
:100E0C004FF48042026143618361C361036206F067
:100E1C0021F8F8B9012004F0D0FB264B186008B378
:100E2C00FFF740FF044618BB234BDA6942F400126B
:100E3C00DA61DB6903F400130193019BFFF7CCFE2D
:100E4C00174806F007F8E8B9144B01221A7020462F
:100E5C0003B030BD184AD36923F40013D3616FF08B
:100E6C000404F4E70E4806F001F96FF00504EEE710
:100E7C000B4806F0FBF80F4D286804F0D2FD002358
:100E8C002B60E4E70B4C206804F0CBFD00232360BF
:100E9C006FF00404DBE76FF00204D8E7000B0020CE
:100EAC00040B002000540040250C0008150B000812
:100EBC00A0860100FC0A0020001002402DE9F04140
:100ECC0082B01F46184B1B78F3B104460D461646EC
:100EDC00E9B1FAB13846FFF727FE80466400384680
:100EEC00FFF724FF0746C0B9CDF8008033462A46E9
:100EFC0021460E4806F0DEF80446FFF74DFF7CB99C
:100F0C00384602B0BDE8F0816FF00607F8E76FF0E5
:100F1C000107F5E76FF00107F2E76FF00207EFE763
:100F2C006FF00407ECE700BF000B0020040B00205F
:100F3C000268124B9A4200D0704710B582B0002361
:100F4C0001930F4A13700F4A146813600E4B186804
:100F5C0010B101A904F0ACFB0CB10020A047019B1F
:100F6C004BB14FF0E0234FF08052C3F8042DBFF388
:100F7C004F8FBFF36F8F02B010BD00BF0054004005
:100F8C00F80A0020F40A0020FC0A00200268124B28
:100F9C009A4200D0704710B582B0002301930F4ADB
:100FAC0013700F4A146813600E4B186810B101A926
:100FBC0004F07EFB14B16FF00400A047019B4BB111
:100FCC004FF0E0234FF08052C3F8042DBFF34F8F46
:100FDC00BFF36F8F02B010BD00540040F80A002020
:100FEC00F40A0020FC0A002008B5FFF7CFFF08BD6B
:100FFC00F8B5124B1B78BBB105460C460846FFF7FB
:10100C0093FD06462046FFF791FE074678B9334616
:10101C00012205FA02F10A4806F006F90446FFF728
:10102C00BBFE3CB93846F8BD6FF00607FAE76FF027
:10103C000207F7E76FF00407F4E700BF000B00208E
:10104C00040B0020FF230B7000207047044B93F817
:10105C00013413B16FF00C0070476FF00100704752
:10106C00380C00206FF00C0070476FF00C007047CC
:10107C006FF00C0070470000094B93F802341BB161
:10108C0002230B7000207047054B93F801340BB909
:10109C000B70F7E7024B93F800340B70F2E700BFCC
:1010AC00380C002000200860704710B4019C029896
:1010BC0019B18C468021ACF800100AB14021118086
:1010CC000BB100221A700CB10023237008B121233C
:1010DC000360002010BC70476FF00C0070476FF07D
:1010EC000C007047002900F007812DE9F04F85B006
:1010FC0016461A460C46002E00F001818D88002DF4
:10110C0000F00081CB88002B00F0FF80088841198B
:10111C00802900F2FD8061881944402900F2FB808F
:10112C0010F0070F40F0FA8015F0070B40F0F98033
:10113C00ED0805FB03F3934200F2F680804B186830
:10114C00002800F0F4807F4B93F80234002B40F021
:10115C00F180642104F0ADFB012840F0EE80794B66
:10116C0093F8023463B9638813F0070040F0B5803C
:10117C00B4F8068018F0070864D00095A64694E0F1
:10118C0000231A4619466E48006804F054F96FF0B3
:10119C000200AEE003FB0502B15C03F110026A44ED
:1011AC0002F8081C0133DBB2072BF3D9002017E03F
:1011BC000133DBB2072B0DD803F110026A4412F88D
:1011CC00082C0A42F4D001229A404BEA02025FFA40
:1011DC0082FBEDE767445B4B03F807B00130C0B20C
:1011EC00072808D80746C0F1070301219940C9B266
:1011FC0000239B46DEE70EF1010E1FFA8EFEAE4574
:10120C0012D2B4F800C04FEACE039BB29C441FFA32
:10121C008CFC0CEBCA1C1FFA8CFC05FB09F080B291
:10122C00704480B20023BFE709F108091FFA89F95D
:10123C00E3884B4555D9B4F802A0CA44CAF3C70A8F
:10124C00C646DCE7C146F3E73E4DE95C6FEA0900B0
:10125C0040B20140E9540132D2B2072A18D8BEF884
:10126C00003003EBC7039BB29B1A9BB207339BB2B4
:10127C005FFA88F103EBC1139BB22CFA02F111F067
:10128C00010FE1D02F48C15C41EA0A01C154E2E7E9
:10129C000137BFB2009B9F4204D2E31916F803C07A
:1012AC000022DAE70198431C98B2BEF8063083425C
:1012BC0017D9BEF802300344C3F3CC0803F007037C
:1012CC004FF0010909FA03F95FFA89FA009B03FB55
:1012DC0000F4A4B25F460190DCE758460095A646A0
:1012EC00E3E700231A4619461548006804F0A3F8F2
:1012FC00002005B0BDE8F08F6FF0040070476FF070
:10130C000400F6E76FF00400F3E76FF00400F0E779
:10131C006FF00400EDE76FF00400EAE76FF00400F3
:10132C00E7E76FF00400E4E76FF00400E1E76FF02B
:10133C000100DEE76FF00200DBE76FF00200D8E798
:10134C001C0C0020380C002008B5074900230B703A
:10135C004870642302223C20FFF7B0FD00B908BDA1
:10136C004FF0FF30FBE700BF0C0C002038B5154BDD
:10137C0093F80134E3B10C46134B1868D8B16421CF
:10138C0004F097FA012819D184B1AF20FFF7DCFFE4
:10139C00054610B90B4B83F8004400231A46194636
:1013AC000948006804F047F8284638BDAE20EDE740
:1013BC006FF00105F8E76FF00105F5E76FF0020536
:1013CC00F2E700BF380C00201C0C002008B50B46BF
:1013DC00074900220A7048708B70642303223C205A
:1013EC00FFF76CFD00B908BD4FF0FF30FBE700BF05
:1013FC000C0C00200F2913D838B503460C460B4DA6
:10140C002846002200F8012B0A46194606F08EFEEB
:10141C006423621C29463C20FFF750FD18B938BDE7
:10142C006FF0040070474FF0FF30F8E70C0C002011
:10143C002DE9F04184B007469046CC081944013997
:10144C002ED4C1F3C705072D00D9072521238DF80C
:10145C000C308DF80D7007EB0803DBB2013B8DF8F7
:10146C000E30032103A8FFF7C5FF0646D0B1244C6C
:10147C002368ADF800301B0C8DF802300321684650
:10148C00FFF7B8FF6368ADF804301B0C8DF806301D
:10149C00032101A8FFF7AEFF304604B0BDE8F08190
:1014AC000731CEE722238DF808308DF809408DF8EE
:1014BC000A50032102A8FFF79DFF0646B0B1D6E7FC
:1014CC00104E3046402300F8013B07EBC413424654
:1014DC000D49194406F02AFE642308F10102314635
:1014EC003C20FFF7EBFC06460134E4B2A54201D3E5
:1014FC00002EE5D0002EBAD04FF0FF36B7E700BF74
:10150C00448A0008880B0020380C0020F8B50646E9
:10151C001D46204B186820B30F46144622B335B332
:10152C0016F0070F26D112F0070F26D19319802B36
:10153C0026D86B18402B26D8642104F0BAF9012860
:10154C0024D12B46224639463046FFF771FF04461C
:10155C0000231A4619460F48006803F06CFF20461A
:10156C00F8BD6FF00104FAE76FF00404F7E76FF0D1
:10157C000404F4E76FF00404F1E76FF00404EEE701
:10158C006FF00404EBE76FF00404E8E76FF002047B
:10159C00E5E700BF1C0C0020E9B18C468A88EAB153
:1015AC0008B5CB88EBB1088810F0070F1CD112F0EE
:1015BC00070F1CD1811880291CD8BCF8021001EB34
:1015CC00030CBCF1400F18D8DBB2D2B2C9B2C0B216
:1015DC00FFF79CFF08BD6FF0040070476FF004002C
:1015EC0070476FF00400F5E76FF00400F2E76FF05E
:1015FC000400EFE76FF00400ECE76FF00400E9E79C
:10160C0030B583B01E4B1B68ADF804301B0C8DF845
:10161C000630032101A8FFF7EDFE034610B1184672
:10162C0003B030BD164B5B68ADF800301B0C8DF869
:10163C00023003216846FFF7DDFE03460028EED199
:10164C00002413E00F4D2846402300F8013B802274
:10165C000D4901EBC41106F069FD64238122294672
:10166C003C20FFF72BFC03460134E4B2072C01D8D5
:10167C00002BE7D0002BD2D04FF0FF33CFE700BFC9
:10168C00448A0008880B0020380C002010B50D4B44
:10169C00186880B1642104F00CF901280ED1FFF711
:1016AC00AFFF044600231A4619460648006803F0AB
:1016BC00C2FE204610BD6FF00104FAE76FF0020481
:1016CC00F7E700BF1C0C002008B5084B93F8013459
:1016DC0033B1064B93F802342BB9FFF7D7FF08BD93
:1016EC006FF00100FBE76FF00200F8E7380C002008
:1016FC0038B52A4B93F80134002B43D0284B1B6888
:10170C00002B42D0254B93F802343BB16421234B80
:10171C00D3F8040404F0CDF8012838D16421204B0F
:10172C00186804F0C6F8012834D1AE20FFF70CFE7F
:10173C000446D0B100231A4619461948006803F034
:10174C007AFE04BB154BD3F8040428B104F069F9F4
:10175C00124B0022C3F80424114B186898B104F002
:10176C0060F90F4B00221A600DE00C4D4FF48062B3
:10177C000021284606F0ACFC002385F8003485F8DF
:10178C000134D7E70024204638BD0024FBE76FF076
:10179C000204F8E76FF00204F5E700BF380C0020F4
:1017AC001C0C002010B582B0704B93F80134002B48
:1017BC0040F0D7806E4B1B68EBB16C4BD3F8043404
:1017CC001BB34FF4FA716A4B186804F072F80128D5
:1017DC0040F0C98032213C20FFF70AFC10B36FF0B7
:1017EC00070400231A4619466148006803F023FEDB
:1017FC00204602B010BD012003F0DFFE5C4B1860E8
:10180C000028DAD14FF0FF34F2E703220021012047
:10181C0003F0E3FD554BC3F804040028D1D14FF07D
:10182C00FF34E5E7AE20FFF78FFD04460028D8D142
:10183C008021D520FFF7CAFD04460028D1D13F21D5
:10184C00A820FFF7C3FD04460028CAD10021D320ED
:10185C00FFF7BCFD04460028C3D14020FFF774FD00
:10186C0004460028BDD1A120FFF76EFD04460028D8
:10187C00B7D1C820FFF768FD04460028B1D112216A
:10188C00DA20FFF7A3FD04460028AAD1CF2181203E
:10189C00FFF79CFD04460028A3D1A420FFF754FDBC
:1018AC00044600289DD1A620FFF74EFD04460028D3
:1018BC0097D1F121D920FFF789FD0446002890D15A
:1018CC003021DB20FFF782FD0446002889D114214A
:1018DC008D20FFF77BFD0446002882D100212020BB
:1018EC00FFF774FD044600287FF47BAF214B1B6887
:1018FC00ADF804301B0C8DF80630032101A8FFF75E
:10190C0079FD044600287FF46CAF1A4B5B68ADF888
:10191C0000301B0C8DF8023003216846FFF76AFD7E
:10192C00044600287FF45DAF4FF4806200210F481D
:10193C0006F0CEFBFFF764FE044600287FF451AF9F
:10194C00AF20FFF701FD044600287FF44AAF074B98
:10195C00012283F8002483F80124002283F8022456
:10196C003FE7002444E76FF0020441E7380C002005
:10197C001C0C0020448A00080E4B93F801340BB168
:10198C000020704710B50B4C4FF4816200212046AB
:10199C0006F09EFB0848094B0360094B43608460CA
:1019AC0002F042FA00B910BD034802F06FFA6FF072
:1019BC000400F8E7380C0020200C0020748A000882
:1019CC00748C000886B0264B984217D0254B984251
:1019DC0021D0254B98422AD0244B984233D0244B0B
:1019EC00984216D103F578439A6942F040029A6105
:1019FC009B6903F040030593059B0AE003F58433D0
:101A0C009A6942F004029A619B6903F00403019302
:101A1C00019B06B0704703F582339A6942F00802C5
:101A2C009A619B6903F008030293029BF1E703F5AB
:101A3C0080339A6942F010029A619B6903F010039B
:101A4C000393039BE5E703F57C439A6942F020027C
:101A5C009A619B6903F020030493049BD9E700BFB0
:101A6C0000080140000C014000100140001401402E
:101A7C0000180140FF230B70002070478368B3B13E
:101A8C001A7FBAB19A7E1AB903230B7000207047E3
:101A9C00DA7E1AB102230B70002070475B7E13B9FB
:101AAC0000200870704701230B70002070476FF006
:101ABC00010070476FF0010070470020086070470C
:101ACC006FF00C00704710B50446012281898068C4
:101ADC0005F01FF80122A18A206905F01AF810BD43
:101AEC0010B5846884B1237F8BB1A37E93B100229F
:101AFC002179206801F0ACFA2046FFF7E4FF0020C2
:101B0C0060760123E37610BD6FF00100FBE76FF008
:101B1C000100F8E76FF00100F5E710B5044600226C
:101B2C008189806804F0F5FF0022A18A206904F005
:101B3C00F0FF10BD10B584686CB1237F73B1002227
:101B4C002179206801F084FA2046FFF7E6FF002097
:101B5C00A076E07610BD6FF00100FBE76FF001009E
:101B6C00F8E738B504460D4659B9012281898068D9
:101B7C0004F0CFFF0022A18A206904F0CAFF257669
:101B8C0038BD00228189806804F0C3FF0122A18A3C
:101B9C00206904F0BEFFF2E7806868B108B5037FE6
:101BAC006BB1837E73B1C37E13B10176002008BD87
:101BBC00FFF7D7FF0020FAE76FF0010070476FF0D6
:101BCC000100F4E76FF00100F1E738B584680CB35D
:101BDC000D46237F0BB3A37E13B3642923D8E37E76
:101BEC0003B139B92A462179206801F031FA40B99C
:101BFC00657638BD217E2046FFF7B3FF0023E376E0
:101C0C00F0E710F1090F02D06FF00700F1E76FF069
:101C1C000C00EEE76FF00100EBE76FF00100E8E776
:101C2C006FF00100E5E76FF00400E2E710B5044641
:101C3C0002464FF48041034804F06BFF024B1C70CA
:101C4C0010BD00BF000C01404010002038B5846866
:101C5C00BCB1237FC3B10E4B1B7873B10025E57665
:101C6C00217E2046FFF77DFF627E2179206801F0FE
:101C7C00EFF90123A376284638BD0120FFF7D6FFE4
:101C8C00ECE76FF00100F7E76FF00100F4E700BF3D
:101C9C00401000200B4B1B7813B1013B094A137009
:101CAC00084B1B7863B9084B186848B110B501F0A4
:101CBC006BF9054C206801F0A2F90023236010BDDC
:101CCC00704700BF411000204410002038B58468D4
:101CDC0084B1237F8BB100222179206801F0B8F9FF
:101CEC002046FFF71AFF00252577FFF7D3FF256065
:101CFC00284638BD6FF00100FBE76FF00100F8E7F4
:101D0C0010B584B00446154B1B684BB1134B1B68C4
:101D1C002360134A137801331370002004B010BDF4
:101D2C0001A901934B608B6044F6206301930B4A2D
:101D3C00012001F009F868B900221146074B186818
:101D4C0001F096F80028E1D0044C206801F057F916
:101D5C00002323606FF00700E0E700BF4410002071
:101D6C004110002038B58468ECB12046FFF7C8FF5D
:101D7C00054688B92179012903D0206801F0CCF9F6
:101D8C0060B9002262762276A276E276012323776E
:101D9C002179206801F05CF9284638BDFFF77AFFFD
:101DAC006FF00705F8E76FF00705F5E710B584B09D
:101DBC00064C2046FFF706FE054B0FCB8DE80F00B7
:101DCC006946204604F094FD04B010BD000C01409F
:101DDC004C8A000830B585B004468068FFF7F2FDE8
:101DEC002069FFF7EFFD0023009301930293039307
:101DFC000123019303230393E36800936946A068CE
:101E0C0004F076FD636900936946206904F070FD67
:101E1C0005B030BD2DE9F843FFF7C8FF0020FFF7F0
:101E2C0005FF0026012E3FD84FEA460906EB460572
:101E3C004FEAC5081E4F07EBC5052846FFF7CAFF3A
:101E4C001C4C04EB461420220021204606F040F9DD
:101E5C002B792371AB68A360EB68E3602B6923617A
:101E6C006B696361002323764B463344124A02EBC1
:101E7C00C30057F8081042F83310104B43608460CD
:101E8C0001F04AFC70B90136CCE704EB44000A4B74
:101E9C0003EBC00001F072FC0134A642F5D84FF000
:101EAC00FF3002E00024F8E70020BDE8F88300BF13
:101EBC00E08C00087810002048100020B48C00083A
:101ECC00012804D0022804D028B901207047022030
:101EDC0070470420704704207047FF230B700020CC
:101EEC0070470020086070472DE9F0418468D4B138
:101EFC00884617461D46A37CC3B139B1E668207CE1
:101F0C00FFF7DEFF00FB06F6C8F800600FB10023F8
:101F1C003B7075B1637C23B910232B600020BDE8A6
:101F2C00F0811423F9E76FF00100F8E76FF001007E
:101F3C00F5E70020F3E76FF00C00704730B583B085
:101F4C008468A4B10D462068A0B1A37CABB101A9F3
:101F5C0001F006F9A0B9A268019B9A4205D00223B0
:101F6C002B70019BA36003B030BD0123F8E76FF029
:101F7C000100F8E76FF00100F5E76FF00100F2E700
:101F8C006FF00700EFE730B583B08468D4B10D462D
:101F9C002068D0B1A37CDBB101A901F0E1F8D0B984
:101FAC00019A6368D31A6260002B03DD01232B7046
:101FBC0003B030BD002B02DB00232B70F8E70223AB
:101FCC002B70F5E76FF00100F2E76FF00100EFE71F
:101FDC006FF00100ECE76FF00700E9E7F0B583B0B4
:101FEC008668002E46D00C463068002845D0B37C5D
:101FFC00002B45D0737C002B45D001A901F0B0F823
:10200C000546002842D1F768307CFFF759FF00FBEA
:10201C0007F2019B93FBF2F102FB1133002B27DB40
:10202C00D817810041EA93714FEA830C1CEB030330
:10203C0040EB0100010141EA13714FEA031CBCEBB8
:10204C00030C61EB0006330143EA1C734FEA0C11DD
:10205C00B1EB0C0163EB06034FEA431C0023480170
:10206C004CEAD161FEF79CF82060284603B0F0BD25
:10207C001344D5E76FF00105F7E76FF00105F4E7BE
:10208C006FF00105F1E76FF00C05EEE76FF0070557
:10209C00EBE708B583683BB1186840B19B7C4BB14A
:1020AC0001F05EF848B908BD6FF00100FBE76FF076
:1020BC000100F8E76FF00100F5E76FF00700F2E7B9
:1020CC0010B584686CB1206870B1A37C7BB101F051
:1020DC0073F878B96060A06084F820000123637401
:1020EC0010BD6FF00100FBE76FF00100F8E76FF037
:1020FC000100F5E76FF00700F2E708B5FFF7E0FF26
:10210C0008BD00002DE9F04782B08468002C3ED059
:10211C000E46206800283DD0A37C002B3DD001A9A1
:10212C0001F01EF8804600283AD102F0BBFB0546B0
:10213C0094F82030F3B1A769C71B01D1E0691AE00C
:10214C0063690198A0EB0309D4F80CA0207CFFF77D
:10215C00B7FE00FB0AF3C3EB03135B004FEAE97E07
:10216C001149A9FB0109A7FB032301FB0E91FDF704
:10217C00C7FF00E00020019B6361A561E0610123C2
:10218C0084F820303060404602B0BDE8F0876FF034
:10219C000108F8E76FF00108F5E76FF00108F2E7C6
:1021AC006FF00708EFE700BFC027090010B584687F
:1021BC0054B1206858B100F0E7FE206800F01FFF12
:1021CC0000202060A07410BD6FF00100FBE76FF0E1
:1021DC000100F8E738B505460024012C10D804EBB3
:1021EC0044032946074A52F82300FDF7F3FF08B1D0
:1021FC000134F2E704EB4404024800EB840000E0F5
:10220C00002038BD448D000830B585B08468002CA2
:10221C0034D00068FFF7DEFF0546002831D001A955
:10222C00002301934B608B6001238DF808304279B9
:10223C008DF80B2082798DF80C208DF80D306A46C4
:10224C00007900F081FDF8B900221146009800F0E9
:10225C000FFE68B9009B2360AB68E3606B79237455
:10226C0000236360A36063740123A37405B030BDC5
:10227C00009800F0C4FE6FF00700F7E76FF007005E
:10228C00F4E76FF00100F1E76FF00700EEE70000F4
:10229C0038B50024012C32D804EBC403194D05EBDE
:1022AC00830524220021284605F012FF164904EB71
:1022BC00440C01EB8C039A68EA605B792B74002365
:1022CC006B74124B03EBCC0051F82C1043F83C1000
:1022DC000F4B4360856001F011FC70B90134D9E7F4
:1022EC0005EB4500094B03EBC00001F039FC01354F
:1022FC00AC42F5D84FF0FF3002E00025F8E70020A3
:10230C0038BD00BFE8100020448D0008B810002034
:10231C00108D000886B0264B98420DD0254B984264
:10232C0016D0254B98421FD0244B984228D0244BD2
:10233C00984231D006B0704703F584339A6942F065
:10234C0004029A619B6903F004030193019BF1E77A
:10235C0003F582339A6942F008029A619B6903F093
:10236C0008030293029BE5E703F580339A6942F078
:10237C0010029A619B6903F010030393039BD9E746
:10238C0003F57C439A6942F020029A619B6903F041
:10239C0020030493049BCDE703F578439A6942F03C
:1023AC0040029A619B6903F040030593059BC1E7CA
:1023BC0000080140000C01400010014000140140D5
:1023CC000018014010B504468188006804F09AFB9F
:1023DC00637B984201D0002010BD0120FCE738B58A
:1023EC000446FFF7EFFF054602F062FAE37BAB42CF
:1023FC0002D0E573206138BD2369C01A1328FAD9BD
:10240C00A37BAB42F7D0A573012D00D00225257517
:10241C00F1E7000038B5002300E00133022B08D8A7
:10242C0003EB8301114A02EB810292689042F4D1D2
:10243C0001E04FF0FF33002B14DB03EB43040C4A99
:10244C0002EBC404A5680B4B58612846FFF7C7FF85
:10245C002B7D03F0FF013BB100232B75204600F0D0
:10246C00D7FF01E0034B586138BD00BF708D0008E9
:10247C00301100200004014070B50D468468637D66
:10248C003BB1A37B012B14BF002301230B70002055
:10249C0070BD2046FFF796FF064602F003FAE37B79
:1024AC00B34208D0E6732061A37B012B14BF002339
:1024BC0001232B70EBE72369C01A1328F4D9A673F8
:1024CC00F2E710B584B084680CB3206810B3FFF742
:1024DC0021FF0023009301930293039363680093FD
:1024EC00637B93B9012302936946206804F000FAD8
:1024FC002046FFF767FFA073E07302F0D3F9206169
:10250C0000202075607504B010BD0223EBE76FF05E
:10251C000700F8E76FF00700F5E7000010B586B08C
:10252C000446144B9A6942F001029A619B6903F0CC
:10253C0001030193019B00230293039304930593DE
:10254C00436802930C4B0393437B8BB90123049395
:10255C0002A9206804F0CCF90022022194F90C00A5
:10256C0003F07CFE94F90C0003F088FE06B010BD5D
:10257C000223ECE7001002400000311030B585B0AA
:10258C008468002C35D02368002B35D0A9B1637D2D
:10259C0013B1002005B030BD2046FFF713FFA07328
:1025AC00E07302F07FF92061002525752046FFF7C6
:1025BC00B5FF012363752846ECE7637D0BB900205A
:1025CC00E8E794F90C0003F067FE002300930193F5
:1025DC000293039363680093637B43B901230293D3
:1025EC006946206804F084F900206075D2E7022364
:1025FC00F5E76FF00100CDE76FF00100CAE730B5E9
:10260C0085B08568A5B12B68ABB10021FFF7B6FF8B
:10261C006946002400940194029403946B6800931F
:10262C0003230193286804F063F9204605B030BDFC
:10263C006FF00100FAE76FF00100F7E708B5012031
:10264C00FFF7E8FE08BD08B50220FFF7E3FE08BD62
:10265C0008B50420FFF7DEFE08BD000038B50024E5
:10266C000DE005EB4500204B03EBC00000F046FEEF
:10267C000135AC42F5D84FF0FF3034E00134022C78
:10268C0030D804EB4401194800EBC103002240F898
:10269C0031205A609A60DA601A615A61144D04EB69
:1026AC00840C05EB8C02D2F804E040F831E0916820
:1026BC005960D168996092F910101973527C5A7351
:1026CC0004EB4401084A02EBC10055F82C5042F8C7
:1026DC003150084A4260836000F0DEFD0028CDD006
:1026EC000025C6E7002038BD3011002078110020ED
:1026FC00708D00085C8D000886B0264B98420DD07A
:10270C00254B984216D0254B98421FD0244B98420B
:10271C0028D0244B984231D006B0704703F584334F
:10272C009A6942F004029A619B6903F004030193D5
:10273C00019BF1E703F582339A6942F008029A6132
:10274C009B6903F008030293029BE5E703F58033D2
:10275C009A6942F010029A619B6903F0100303938B
:10276C00039BD9E703F57C439A6942F020029A61F6
:10277C009B6903F020030493049BCDE703F5784396
:10278C009A6942F040029A619B6903F040030593F9
:10279C00059BC1E700080140000C014000100140FE
:1027AC00001401400018014083682BB11A6832B143
:1027BC005B7A0B70002070476FF0010070476FF070
:1027CC000100704738B5846874B10D46206870B14B
:1027DC00A188227A012D02D0013A18BF012204F0FF
:1027EC0098F96572002038BD6FF00100FBE76FF0BF
:1027FC000100F8E730B585B08568CDB12868D0B157
:10280C002A7A013A18BF0122A98804F082F9694694
:10281C00002400940194029403946B6800930323A6
:10282C000193286804F064F86C72204605B030BD42
:10283C006FF00100FAE76FF00100F7E730B585B0F3
:10284C008468F4B12068F8B1FFF756FF694600259B
:10285C0000950195029503956368009301230193FC
:10286C0002230393206804F043F8227A013A18BF3C
:10287C000122A188206804F04CF96572284605B045
:10288C0030BD6FF00700FAE76FF00700F7E70000C4
:10289C0070B500240BE01C4800EB051000F048FE5E
:1028AC000135AC42F7D84FF0FF302BE00134022C4D
:1028BC0027D804EB4402154D05EB8203002145F8A3
:1028CC00221059609960124E4FEA041C06EB04105A
:1028DC00D0F804E045F822E082685A60027B1A7254
:1028EC005972094A02EB041056F80C1042F80C10FD
:1028FC00084A4260836000F0EBFD0028D6D000252A
:10290C00CFE7002070BD00BFC0110020F0110020E7
:10291C00C08D0008AC8D000868B1084BC31AB3F524
:10292C00317F04D890F8E7301BB9002070470020A5
:10293C007047012070470020704700BF1412002020
:10294C0084B0013803280DD8DFE800F0020E1924FA
:10295C00164B9A6942F400629A619B6903F4006316
:10296C000093009B04B07047104BDA6942F00102EF
:10297C00DA61DB6903F001030193019BF2E70B4B76
:10298C00DA6942F00202DA61DB6903F002030293B6
:10299C00029BE7E7054BDA6942F00402DA61DB6976
:1029AC0003F004030393039BDCE700BF0010024019
:1029BC00013803281AD8DFE800F002080E140C4A7C
:1029CC00936923F4006393617047094AD36923F038
:1029DC000103D3617047064AD36923F00203D36124
:1029EC007047034AD36923F00403D361704700BFD7
:1029FC000010024010B51C46B2B19446134A002395
:102A0C00ACFB0001FDF7CCFBE8B10021B1F5803F38
:102A1C0013D201F1010CB0FBFCF2013A4FF6FE7E31
:102A2C00724505D96146F1E751B1B0FBF1F0EBE726
:102A3C002160029B1A60002010BD6FF00100FBE7C3
:102A4C006FF00100F8E76FF00100F5E740420F006E
:102A5C0090F8C030012B00D0704703681A6912F04F
:102A6C00010FF9D0DA6812F0010FF5D06FF0010206
:102A7C001A6103681B6813F0100F06D0D0F8E03011
:102A8C00A3F58033C0F8E0307047D0F8E03003F5A0
:102A9C008033C0F8E030DFE730B589B00546D0F8B8
:102AAC00B4300360416090F8C130012B27D0002373
:102ABC00AB60EA6000232B618023AB61284605F0F4
:102ACC00ABF8044600BB00230193029303930493D9
:102ADC000593069307936023019395F8C23003B1D5
:102AEC0002230393032C0CD80A4B53F8242001A97E
:102AFC00284604F079FE50B90134E4B2F2E7202301
:102B0C00D6E7002009B030BD6FF00400FAE76FF093
:102B1C000400F7E7F08D000810B58AB00446D0F831
:102B2C00B43003600023436083604FF6FF72C260D1
:102B3C000361836190F8C330DBB1032294F8C43095
:102B4C00CBB1022001920290012103910022049248
:102B5C000F230593069007910892099301A920462B
:102B6C0005F090F848B923686FF001021A610AB0B9
:102B7C0010BD0122E2E70020E4E76FF00400F6E765
:102B8C0010B5044690F8C030012B0AD00721002262
:102B9C0094F9B80003F062FB94F9B80003F06EFBF3
:102BAC0010BD0521F3E708B590F9B80003F074FBEC
:102BBC0008BD000000B587B0002302930393049373
:102BCC0005930368B3F1804F05D0184A934217D090
:102BDC0007B05DF804FB03F504339A6942F0040274
:102BEC009A619B6903F004030093009B03230293F7
:102BFC0001220492059302A90D4803F079FEE7E740
:102C0C000C4B9A6942F004029A619B6903F004032D
:102C1C000193019BC0230293012304930323059387
:102C2C0002A9034803F064FED2E700BF0004004091
:102C3C00000801400010024030B587B00023029319
:102C4C000393049305930268124B9A4201D007B088
:102C5C0030BD03F564439A6942F004029A619B69A2
:102C6C0003F004030193019B4FF48073029302233E
:102C7C0003930323059302AD074C2946204603F02A
:102C8C0037FE4FF4007302932946204603F030FEC2
:102C9C00DDE700BF002C01400008014008B500230F
:102CAC0000E00133032B15D80B4AEC2101FB032266
:102CBC0092F8E720002AF4D0074A01FB0322D2F84D
:102CCC00B41002689142ECD1EC20034A00FB0320C3
:102CDC00FFF7BEFE08BD00BF1412002008B5044B60
:102CEC0093F8E73003B908BD014804F053FCFAE748
:102CFC001412002008B5044B93F8D33103B908BD66
:102D0C00024804F047FCFAE71412002000130020DC
:102D1C0008B5044B93F8BF3203B908BD024804F060
:102D2C0039FCFAE714120020EC13002008B5044B10
:102D3C0093F8AB3303B908BD024804F02BFCFAE757
:102D4C0014120020D81400202DE9F04385B000297E
:102D5C007BD0054690460E46002A79D0441EE4B23C
:102D6C00032C78D8EC233F4F03FB047797F8E7301C
:102D7C00002B73D14FF0EC094A460021384605F080
:102D8C00A7F987F8E650012287F8E72007F1BC0C79
:102D9C0096E807008CE80700334951F83420C7F84F
:102DAC00B42001EBC40191F9042087F8B8202F4A14
:102DBC00C7F8C820727A87F8DC202846FFF7C0FDD8
:102DCC0000230393029333798BB1012B31D06FF035
:102DDC0001062846FFF7ECFD224BEC2202FB0433E4
:102DEC00002283F8E720304605B0BDE8F083316857
:102DFC0009B94FF47A711B4BEC2202FB0433D3F864
:102E0C00C80002AB009303AB0022FFF7F3FD0646AC
:102E1C000028DED10399134BEC2202FB0433C3F8D8
:102E2C00D010029AC3F8CC203846FFF735FE064680
:102E3C0003E03846FFF770FE0646002EC9D138462F
:102E4C00FFF79EFEC8F80070CDE76FF00106CAE7E9
:102E5C006FF00106C7E76FF00106C4E76FF00206DA
:102E6C00C1E700BF14120020008E000800A24A0423
:102E7C0070B584B005460E461446FFF74DFD00288C
:102E8C006FD095F8C030002B56D1642C6CD8CEB1D5
:102E9C0095F8E830002B44D103AB009302AB3246DB
:102EAC000021D5F8C800FFF7A5FD002841D12B68FB
:102EBC00029A9A622968039BCB62EB60C5F8D0201A
:102ECC00C5F8CC30D5F8CC100131A4FB0131C3F3DB
:102EDC001302180D40EA01301044284AA2FB0042AC
:102EEC00D20802EB820202EB8202821A9B1A61F177
:102EFC0000012348234A03FB02F200FB0122A3FB3F
:102F0C00003002449B0843EA82732A685363002111
:102F1C00284604F0E7FC50BB012385F8E83004B0E8
:102F2C0070BD0021284604F047FD002385F8E830E9
:102F3C00B2E76FF00100F2E70023C5F8E030A5F826
:102F4C00E4302A6853623C21284604F077FD88B9A6
:102F5C002A68D36843F00103D360012385F8E83075
:102F6C00DDE76FF00100DAE76FF00100D7E76FF0F3
:102F7C000400D4E76FF00400D1E700BF1F85EB51CC
:102F8C00295C8FC2F5285C8F30B585B00446FFF7FD
:102F9C00C3FC50B394F8E83053B394F8C030D3B9B1
:102FAC000021204604F008FD002384F8E83094F852
:102FBC00DC3003B3D4F8D430FBB101A90025019562
:102FCC004D608D6008228DF80420D4F8D82020465E
:102FDC00984728460DE02268D36823F00103D3609C
:102FEC003C21204604F090FDDEE76FF0010000E08C
:102FFC00002005B030BD0020FBE70020F9E710B53C
:10300C000446FFF789FCF8B194F8E830A3B994F8BA
:10301C00C030ABB9204604F059FA2046FFF7C3FD87
:10302C0094F8E600FFF7C4FC0020C4F8D400C4F800
:10303C00D80084F8E70010BD2046FFF7A5FFE6E7AF
:10304C00204604F079FAE8E76FF00100F3E700009E
:10305C0070B505460C461646FFF75EFC002845D0B9
:10306C0095F8C030002B44D1631EDBB2032B43D840
:10307C00642E44D8D5F8CC300133A6FB0336C3F309
:10308C0013011A0D42EA06328818204AA2FB002CC2
:10309C004FEADC0C0CEB8C0C0CEB8C0CA0EB0C014D
:1030AC005B1A66F100001A491A4A03FB02F201FB93
:1030BC000022A3FB01310A449B0843EA8273013CC2
:1030CC00032C1FD8DFE804F002060A0E2A685363AB
:1030DC00002070BD2A6893630020FAE72A68D36346
:1030EC000020F6E72A6813640020F2E76FF0010075
:1030FC00EFE76FF00800ECE76FF00100E9E76FF025
:10310C000100E6E76FF00100E3E700BF1F85EB511C
:10311C00295C8FC2F5285C8F38B505460C46FFF745
:10312C00FBFB78B195F8C0307BB9631EDBB2032B87
:10313C000ED8013C094B53F82410284604F0D2FB5E
:10314C0048B938BD6FF00100FBE76FF00800F8E7F5
:10315C006FF00100F5E76FF00400F2E7F08D000866
:10316C0038B504460D46FFF7D7FBE0B1F5B194F83E
:10317C00C030012B1DD1EFF3108172B623685A6A4F
:10318C0092B2B4F8E430D31A1BB2A4F8E420D4F809
:10319C00E0201344C4F8E030D4F8E0302B6081F325
:1031AC001088002038BD6FF00100FBE76FF00100C4
:1031BC00F8E76FF00800F5E710B50446FFF7ACFB35
:1031CC0080B194F8C030012B0FD1EFF3108372B69D
:1031DC00226800205062C4F8E000A4F8E40083F3F5
:1031EC00108810BD6FF00100FBE76FF00800F8E7E6
:1031FC00704770477047000008B5084B1B780BB13F
:10320C00002008BD04220649064800F035FF0028BE
:10321C00F7D1024B01221A70F3E700BFC41500204E
:10322C00D0150020C815002010B582B0144600231C
:10323C00019300936B4601AA00F0C7FF0CB1009BF1
:10324C00236010B9019802B010BD0020FBE700000C
:10325C0010B582B004460E4B187870B19CB123683F
:10326C009BB10023019301AA21680A48FFF7DCFFF8
:10327C0028B1019BA34204D0002002B010BD002055
:10328C00FBE70120F9E70020F7E70020F5E700BF96
:10329C00C4150020C8150020F8B110B582B0044642
:1032AC000368EBB11B78F3B14368FBB1FFF7A4FFE4
:1032BC0008B102B010BD019001AA21680E48FFF7B9
:1032CC00B3FFB0B9002323732361636123466268A3
:1032DC002168094800F0F4FEEBE76FF0040070473A
:1032EC006FF00400E5E76FF00400E2E76FF0040014
:1032FC00DFE76FF00900DCE7C815002018B310B544
:10330C000446124B1B78DBB1FFF7A2FFC0B1237B45
:10331C0073B1636823B11B6913B100212046984730
:10332C0063681BB15B680BB120469847002323737D
:10333C000023236163612168054800F00FFF10BD75
:10334C006FF00100FBE76FF004007047C41500201C
:10335C00C8150020014680B103787BB1094B1B785E
:10336C0073B100B583B00023019301AA0648FFF79F
:10337C005BFF019803B05DF804FB704700207047B9
:10338C0000207047C4150020C815002088B110B566
:10339C000446436883B1FFF75BFF80B1237B8BB995
:1033AC0063681B688BB12046984708B901232373C7
:1033BC0010BD6FF0040070476FF00400F8E76FF079
:1033CC000100F5E76FF00D00F2E76FF00C00EFE78E
:1033DC0078B138B50C46054671B1FFF739FF70B1BD
:1033EC002B7B7BB16B68DB687BB121462846984709
:1033FC0038BD6FF0040070476FF00400F8E76FF011
:10340C000100F5E76FF00100F2E76FF00C00EFE759
:10341C0068B138B50D46044603693BB1FFF718FF98
:10342C0020B12369626929462046984738BD704708
:10343C0008B5084B1B780BB1002008BD08220649C3
:10344C00064800F019FE0028F7D1024B01221A7031
:10345C00F3E700BF001600200C1600200416002015
:10346C0010B582B014460023019300936B4601AA59
:10347C0000F0ABFE0CB1009B236010B9019802B0B8
:10348C0010BD0020FBE7000010B582B004460E4BC7
:10349C00187870B19CB123689BB10023019301AAE9
:1034AC0021680A48FFF7DCFF28B1019BA34204D036
:1034BC00002002B010BD0020FBE70120F9E700203E
:1034CC00F7E70020F5E700BF0016002004160020E7
:1034DC00E8B110B582B004460368DBB11B78E3B1E8
:1034EC004368EBB1FFF7A4FF08B102B010BD019027
:1034FC0001AA21680D48FFF7B3FFA0B9002323737D
:10350C00234662682168094800F0DAFDEDE76FF0A8
:10351C00040070476FF00400E7E76FF00400E4E785
:10352C006FF00400E1E76FF00900DEE704160020FD
:10353C00C8B110B504460D4B1B788BB1FFF7A4FF37
:10354C0070B1237B3BB163681BB15B680BB1204648
:10355C009847002323732168054800F0FFFD10BD38
:10356C006FF00100FBE76FF00400704700160020BD
:10357C0004160020014680B103787BB1094B1B78FF
:10358C0073B100B583B00023019301AA0648FFF77D
:10359C0067FF019803B05DF804FB7047002070478B
:1035AC0000207047001600200416002088B110B5CA
:1035BC000446436883B1FFF767FF80B1237B8BB967
:1035CC0063681B688BB12046984708B901232373A5
:1035DC0010BD6FF0040070476FF00400F8E76FF057
:1035EC000100F5E76FF00D00F2E76FF00C00EFE76C
:1035FC0080B138B50C46054601290ED8FFF744FFBB
:10360C0070B12B7B7BB16B68DB687BB121462846A4
:10361C00984738BD6FF0040070476FF00400F8E76E
:10362C006FF00100F5E76FF00100F2E76FF00C00AE
:10363C00EFE74368F3B110B582B004461B6A3BB1A7
:10364C000DF10701984718B99DF80730032B0FD0DF
:10365C006368DB6813B10021204698476368DB6917
:10366C000BB12046984763689B690BB1204698477D
:10367C0002B010BD7047000008B5084B1B780BB1A9
:10368C00002008BD04220649064800F0F5FC00287D
:10369C00F7D1024B01221A70F3E700BF6C16002021
:1036AC00781600207016002010B582B01446002346
:1036BC00019300936B4601AA00F087FD0CB1009BAF
:1036CC00236010B9019802B010BD0020FBE7000088
:1036DC0010B582B004460E4B187870B19CB12368BB
:1036EC009BB10023019301AA21680A48FFF7DCFF74
:1036FC0028B1019BA34204D0002002B010BD0020D1
:10370C00FBE70120F9E70020F7E70020F5E700BF11
:10371C006C16002070160020F8B110B582B004466B
:10372C000368EBB11B78F3B14368FBB1FFF7A4FF5F
:10373C0008B102B010BD019001AA21680E48FFF734
:10374C00B3FFB0B90023237323616361234662681E
:10375C002168094800F0B4FCEBE76FF004007047F7
:10376C006FF00400E5E76FF00400E2E76FF004008F
:10377C00DFE76FF00900DCE77016002020B310B50E
:10378C000446134B1B78E3B1FFF7A2FFC8B1237BB0
:10379C007BB163689B6A13B1002120469847204691
:1037AC00FFF747FF63685B680BB12046984700231F
:1037BC0023730023236163612168064800F0CEFC6B
:1037CC0010BD6FF00100FBE76FF00400704700BF05
:1037DC006C1600207016002008B5044B1B780BB932
:1037EC00002008BD024800F035FDFAE76C160020F9
:1037FC0070160020144B1B781BB3F0B585B0074630
:10380C00124B9E880024254603E0039817E00134F0
:10381C00A4B2B44212D200230293039303AA0092DF
:10382C0002AA2146094800F01AFD0028EFD1029B9C
:10383C00002BECD0BD42E8D00135E8E7002005B004
:10384C00F0BD0020704700BF6C16002070160020E1
:10385C0088B110B50446436883B1FFF739FF80B1D6
:10386C00237B8BB963681B688BB12046984708B9DA
:10387C000123237310BD6FF0040070476FF0040038
:10388C00F8E76FF00100F5E76FF00D00F2E76FF06D
:10389C000C00EFE780B138B50C46054664290ED80C
:1038AC00FFF716FF70B12B7B7BB16B68DB687BB1CC
:1038BC0021462846984738BD6FF0040070476FF0DA
:1038CC000400F8E76FF00100F5E76FF00100F2E794
:1038DC006FF00C00EFE708B50021FFF7DBFF08BD28
:1038EC0070B138B50D460446FFF7F2FE58B1237B94
:1038FC0063B163681B6963B129462046984738BD9C
:10390C006FF0040070476FF00100F8E76FF00100F2
:10391C00F5E76FF00C00F2E760B110B50446FFF765
:10392C00D7FE50B1237B5BB163685B695BB120460A
:10393C00984710BD6FF0040070476FF00100F8E776
:10394C006FF00100F5E76FF00C00F2E760B110B515
:10395C000446FFF7BDFE50B1237B5BB163689B69E6
:10396C005BB12046984710BD6FF0040070476FF0B4
:10397C000100F8E76FF00100F5E76FF00C00F2E7DB
:10398C0078B138B50C46054671B1FFF7A1FE70B1A0
:10399C002B7B7BB16B681B6A7BB121462846984711
:1039AC0038BD6FF0040070476FF00400F8E76FF05B
:1039BC000100F5E76FF00100F2E76FF00C00EFE7A4
:1039CC0078B138B50C46054671B1FFF781FE70B180
:1039DC002B7B7BB16B685B6A7BB121462846984791
:1039EC0038BD6FF0040070476FF00400F8E76FF01B
:1039FC000100F5E76FF00100F2E76FF00C00EFE764
:103A0C0050B170B50D4614460646FFF761FE30B155
:103A1C0035617461002070BD6FF0040070476FF069
:103A2C000100F8E770B138B50D460446FFF750FEBB
:103A3C0058B1237B63B163689B6A63B12946204606
:103A4C00984738BD6FF0040070476FF00100F8E73D
:103A5C006FF00100F5E76FF00C00F2E708B5084BCA
:103A6C001B780BB1002008BD04220649064800F063
:103A7C0003FB0028F7D1024B01221A70F3E700BFB9
:103A8C00A8160020B4160020AC16002010B582B089
:103A9C0014460023019300936B4601AA00F095FB9A
:103AAC000CB1009B236010B9019802B010BD00202E
:103ABC00FBE7000010B582B004460E4B187870B1CD
:103ACC009CB123689BB10023019301AA21680A4889
:103ADC00FFF7DCFF28B1019BA34204D0002002B009
:103AEC0010BD0020FBE70120F9E70020F7E70020DC
:103AFC00F5E700BFA8160020AC160020F8B110B5F1
:103B0C0082B004460368EBB11B78F3B14368FBB198
:103B1C00FFF7A4FF08B102B010BD019001AA216803
:103B2C000E48FFF7B3FFB0B9002323732361636121
:103B3C00234662682168094800F0C2FAEBE76FF08F
:103B4C00040070476FF00400E5E76FF00400E2E753
:103B5C006FF00400DFE76FF00900DCE7AC16002023
:103B6C0008B310B50446114B1B78CBB1FFF7A2FF7D
:103B7C00B0B1237B63B163681B6B13B1002120468A
:103B8C00984763685B680BB1204698470023237302
:103B9C000023236163612168054800F0DFFA10BD42
:103BAC006FF00100FBE76FF004007047A8160020CF
:103BBC00AC16002008B5044B1B780BB9002008BDCF
:103BCC00024800F047FBFAE7A8160020AC160020CC
:103BDC00144B1B781BB3F0B585B00746124B9E886F
:103BEC000024254603E0039817E00134A4B2B44244
:103BFC0012D200230293039303AA009202AA214635
:103C0C00094800F02CFB0028EFD1029B002BECD0D4
:103C1C00BD42E8D00135E8E7002005B0F0BD00203A
:103C2C00704700BFA8160020AC16002088B110B554
:103C3C000446436883B1FFF73DFF80B1237B8BB90A
:103C4C0063681B688BB12046984708B9012323731E
:103C5C0010BD6FF0040070476FF00400F8E76FF0D0
:103C6C000100F5E76FF00D00F2E76FF00C00EFE7E5
:103C7C0078B138B50C46054671B1FFF71BFF70B132
:103C8C002B7B7BB16B68DB687BB121462846984760
:103C9C0038BD6FF0040070476FF00400F8E76FF068
:103CAC000100F5E76FF00100F2E76FF00C00EFE7B1
:103CBC0078B138B50C46054671B1FFF7FBFE70B113
:103CCC002B7B7BB16B685B697BB12146284698479F
:103CDC0038BD6FF0040070476FF00400F8E76FF028
:103CEC000100F5E76FF00100F2E76FF00C00EFE771
:103CFC0060B110B50446FFF7DDFE50B1237B5BB11C
:103D0C006368DB695BB12046984710BD6FF0040017
:103D1C0070476FF00100F8E76FF00100F5E76FF006
:103D2C000C00F2E750B170B50D4614460646FFF78D
:103D3C00C1FE30B135617461002070BD6FF00400BC
:103D4C0070476FF00100F8E778B138B50D460446BE
:103D5C00FFF7B0FE60B1237B6BB1636873B11B6B73
:103D6C007BB129462046984738BD6FF00400704758
:103D7C006FF00100F8E76FF00100F5E76FF00C0051
:103D8C00F2E76FF00C00EFE708B5084B1B780BB1AE
:103D9C00002008BD04220649064800F06DF90028F1
:103DAC00F7D1024B01221A70F3E700BFE416002092
:103DBC00F0160020E816002010B582B0144600233F
:103DCC00019300936B4601AA00F0FFF90CB1009B24
:103DDC00236010B9019802B010BD0020FBE7000071
:103DEC0010B582B004460E4B187870B19CB12368A4
:103DFC009BB10023019301AA21680A48FFF7DCFF5D
:103E0C0028B1019BA34204D0002002B010BD0020B9
:103E1C00FBE70120F9E70020F7E70020F5E700BFFA
:103E2C00E4160020E8160020F8B110B582B0044664
:103E3C000368EBB11B78F3B14368FBB1FFF7A4FF48
:103E4C0008B102B010BD019001AA21680E48FFF71D
:103E5C00B3FFB0B900232373236163612346626807
:103E6C002168094800F02CF9EBE76FF0040070476B
:103E7C006FF00400E5E76FF00400E2E76FF0040078
:103E8C00DFE76FF00900DCE7E816002008B310B597
:103E9C000446114B1B78CBB1FFF7A2FFB0B1237BCB
:103EAC0063B16368DB6B13B10021204698476368EC
:103EBC005B680BB1204698470023237300232361D2
:103ECC0063612168054800F049F910BD6FF00100ED
:103EDC00FBE76FF004007047E4160020E8160020A2
:103EEC00014680B103787BB1094B1B7873B100B5E7
:103EFC0083B00023019301AA0648FFF75DFF0198E8
:103F0C0003B05DF804FB7047002070470020704739
:103F1C00E4160020E816002088B110B5044643686A
:103F2C0083B1FFF75DFF80B1237B8BB963681B689E
:103F3C008BB12046984708B90123237310BD6FF04D
:103F4C00040070476FF00400F8E76FF00100F5E72C
:103F5C006FF00D00F2E76FF00C00EFE7D0B12DE938
:103F6C00F0410C4615461E460746B1B1C2B1D3B15D
:103F7C00FFF736FFD0B13B7BDBB17B68D3F80C800D
:103F8C00B8F1000F18D033462A4621463846C047B0
:103F9C00BDE8F0816FF0040070476FF00400F7E7A4
:103FAC006FF00400F4E76FF00400F1E76FF001002C
:103FBC00EEE76FF00100EBE76FF00C00E8E760B1A3
:103FCC0010B50446FFF70CFF50B1237B5BB163685F
:103FDC001B695BB12046984710BD6FF00400704719
:103FEC006FF00100F8E76FF00100F5E76FF00C00DF
:103FFC00F2E778B138B50C46054671B1FFF7F0FE23
:10400C0070B12B7B7BB16B681B6B7BB12146284657
:10401C00984738BD6FF0040070476FF00400F8E764
:10402C006FF00100F5E76FF00100F2E76FF00C00A4
:10403C00EFE7C0B12DE9F04182B0884617461E4625
:10404C000446FFF7CDFE88B163689D6B8DB1099B6B
:10405C000193089B009333463A4641462046A847B5
:10406C0002B0BDE8F0816FF0040070476FF0010002
:10407C00F6E76FF00C00F3E7C8B110B4D1B1E2B1C0
:10408C00016082800023C3800CE003EB43004FEA05
:10409C00800C01EB8000002441F80C4044608460EB
:1040AC0001339BB29342F0D3002010BC70476FF0E9
:1040BC00040070476FF00400F7E76FF00400F4E7BA
:1040CC0000283FD02DE9F8430F4691469846064606
:1040DC0000293AD00B78002B3AD00568002D3AD045
:1040EC00002401E00134A4B2B388A3420ED904EB3E
:1040FC00440355F823000028F4D03946FCF76AF83D
:10410C000028EFD16FF00900BDE8F883002083424E
:10411C0015D900EB40029200A95811B1013080B2C0
:10412C00F5E7AF5033681344C3F804903368134475
:10413C00C3F80880F3880133F3800020E4E76FF0C4
:10414C000A00E1E76FF0040070476FF00400DBE752
:10415C006FF00400D8E76FF00100D5E748B32DE904
:10416C00F0418846064639B3076847B3C3884BB35A
:10417C00002401E00134A4B2B388A34215D904EBA6
:10418C004405AD0078590028F4D04146FCF722F8DC
:10419C000028EFD1785133682B44586033682B4496
:1041AC009860F388013BF38001E06FF00800BDE8F4
:1041BC00F0816FF0040070476FF00400F7E76FF0C8
:1041CC000800F4E76FF00800F1E7A0B32DE9F04721
:1041DC000F4692469946064681B30B788BB3056819
:1041EC0095B3C3889BB3002401E00134A4B2B38817
:1041FC00A3421CD904EB440005EB800855F82000C1
:10420C000028F2D03946FBF7E5FF0028EDD1BAF1D2
:10421C00000F03D0D8F80430CAF80030B9F1000F01
:10422C0003D0D8F80830C9F80030002001E06FF056
:10423C000800BDE8F0876FF0040070476FF00400D1
:10424C00F7E76FF00400F4E76FF00800F1E76FF0A8
:10425C000800EEE708B1C08870470020704710B422
:10426C00019CC0B184468088884217D9DCF80000D4
:10427C0001EB41014FEA810C00EB810112B150F8C6
:10428C000C0010600BB14A681A6054B18B68236043
:10429C00002010BC70476FF00400FAE76FF00400C8
:1042AC00F7E70020F5E7000000F023F80B480C4975
:1042BC000C4A002302E0D458C4500433C4188C4276
:1042CC00F9D3094A094C002301E013600432A242DD
:1042DC00FBD303F005FFFCF763FB704700000020E5
:1042EC0060000020948E00086000002098310020AF
:1042FC00FEE77047074B1B681B6823B9064B4FF052
:10430C00FF321A607047034B1B68DB681A68024B5C
:10431C001A60704790170020281700202DE9F047ED
:10432C0081460D4617469A46DDF820800A9C92007D
:10433C00A521206B03F0CCFE236B07F18042013AE0
:10434C0003EB820323F0070695B14FF0000C01E05C
:10435C000CF1010CBCF1070F07D815F80C3004EB6D
:10436C000C0282F83430002BF2D1002384F83B305D
:10437C00B8F1040F08D94FF0200383F31188BFF371
:10438C006F8FBFF34F8FFEE7C4F82C80C4F83C80CE
:10439C00201D01F079FB04F1180001F075FB24617C
:1043AC00C8F10503A361646252464946304601F0E8
:1043BC00FDFB2060361AB7EBA60F08D84FF0200390
:1043CC0083F31188BFF36F8FBFF34F8FFEE7099B09
:1043DC0003B11C60BDE8F0872DE9F04186B00D9E5D
:1043EC009EB10446884617461D460E9BB3B14C231E
:1043FC000593059B4C2B1AD04FF0200383F31188A7
:10440C00BFF36F8FBFF34F8FFEE74FF0200383F3A3
:10441C001188BFF36F8FBFF34F8FFEE74FF0200370
:10442C0083F31188BFF36F8FBFF34F8FFEE7059BAC
:10443C004C2200210E9803F04BFE0E9B1E630223B0
:10444C000E9A82F849300023039302920F9B01933A
:10445C000C9B00932B463A4641462046FFF75EFFE5
:10446C000E9806B0BDE8F08138B5002407E004EBE7
:10447C00840293000E48184401F0FBFA0134042C1A
:10448C00F5D90C4D284601F0F4FA0B4C204601F0FE
:10449C00F0FA0A4801F0EDFA094801F0EAFA094885
:1044AC0001F0E7FA084B1D60084B1C6038BD00BFDB
:1044BC00BC170020A81700209417002078170020A4
:1044CC00641700204C170020901700208C17002038
:1044DC0010B5044601F07CFB2A4A136801331360C3
:1044EC00294B1B685BB1294B1B686BB9264B1B68AE
:1044FC00DA6AE36A9A4207D8234B1C6004E0224B29
:10450C001C601368012B39D0214A136801331360E6
:10451C00E36A01229A401F49086802430A601E4A56
:10452C0003EB830302EB83035B68A3609868E06092
:10453C00211D41609960E36A03EB830102EB81006A
:10454C00606152F82110013103EB830342F8231010
:10455C0001F060FB0D4B1B687BB10B4B1B68DA6ADF
:10456C00E36A9A4209D24FF0E0234FF08052C3F82D
:10457C00042DBFF34F8FBFF36F8F10BDFFF774FF88
:10458C00C2E700BF48170020201800203C1700206D
:10459C002C17002040170020BC1700202DE9F043F9
:1045AC0085B006460F4614469846900001F0A4FCD0
:1045BC008146F8B14C2001F09FFC0546B0B14C226D
:1045CC00002103F085FDC5F830900023039302957C
:1045DC000D9B01930C9B0093434622463946304673
:1045EC00FFF79CFE284605B0BDE8F083484601F075
:1045FC004FFDF7E70546F5E710B5044690F849304E
:10460C0063B1012B11D0022B0ED04FF0200383F39A
:10461C001188BFF36F8FBFF34F8FFEE7006B01F074
:10462C0037FD204601F034FD10BD01F031FDFBE7F4
:10463C000F4B1B68D3B110B501F0CAFA0D4BDB68F8
:10464C00DC68201D01F03CFA0B4A1368013B136037
:10465C00074A1368013B136001F0DCFA2046FFF7B0
:10466C00CBFF034B1B68002BE6D110BD704700BF7E
:10467C0060170020641700204817002008B5FFF7CA
:10468C00D7FF074B1B68012BF9D94FF0E0234FF0F4
:10469C008052C3F8042DBFF34F8FBFF36F8FEEE73B
:1046AC00BC1700202DE9F04104460D46254B1E6831
:1046BC00254B1F68254BD3F80080254B1868043018
:1046CC0001F0FEF948B9224B1B68DB6A01229A40C3
:1046DC0020490B6823EA02030B60B4F1FF3F0DD0B5
:1046EC0034441B4B1B685C60A6421DD9184B1968DF
:1046FC000431404601F0CBF9BDE8F081002DEFD03C
:10470C00154A5168124B1868816018688C68C4602F
:10471C001868043060601868043088601B685A613F
:10472C00136801331360E7E7094B19680431384605
:10473C0001F0ADF9094B1B68A342DDD9074B1C6096
:10474C00DAE700BF44170020901700208C170020D8
:10475C0020180020401700204C170020281700209C
:10476C0010B586B00024059405AC03940A9C029401
:10477C00099C0194089C0094FFF72EFE08B1FFF7EA
:10478C00A7FE059806B010BD30B58BB0002308937A
:10479C000993062B09D8184AD25C03F12801694405
:1047AC0001F8082C0AB10133F3E728336B440024D9
:1047BC0003F8084C002C02DD01200BB030BD0025A5
:1047CC00069507950DF1160207A906A8FCF714F932
:1047DC00069B0293079B019300952B46BDF8162070
:1047EC0008A90648FFF7BCFF054B43F8240008B1A5
:1047FC000134DFE70020E0E7948B000889460008CD
:10480C002417002000B583B0DDF814C0CDF804C027
:10481C00DDF810C0CDF800C0FFF7C0FE28B1FFF7DF
:10482C0057FE012003B05DF804FB4FF0FF30F9E7B1
:10483C0008B5FFF7A9FF012805D0B0F1FF3F17D04D
:10484C00104B1B6808BD4FF0200383F31188BFF396
:10485C006F8FBFF34F8F0C4B4FF0FF321A600B4B27
:10486C0001221A600A4B00221A6001F00BFAE7E7EA
:10487C004FF0200383F31188BFF36F8FBFF34F8F7B
:10488C00FEE700BF388E0008281700203C170020D8
:10489C0044170020024A136801331360704700BFAD
:1048AC0020170020014B1868704700BF44170020E8
:1048BC0008B501F083FA014B186808BD44170020B5
:1048CC00014B1868704700BF48170020F8B5524BD1
:1048DC001B68002B40F09980504B1C6801341C6005
:1048EC00C4B94F4B1B681B6843B14FF0200383F3D3
:1048FC001188BFF36F8FBFF34F8FFEE7484A1168E3
:10490C00484B186810601960474A136801331360EC
:10491C00FFF7F0FC454B1B68A34211D90020444B18
:10492C001B68DB6A03EB83039A00424B9B58012BF9
:10493C0000D90120404B1B68002B6BD0012069E093
:10494C00002037E0394B4FF0FF321A60E7E7374B66
:10495C001A60E4E7D968516042E00021996211685D
:10496C0001391160DA6A01219140344E37683943BC
:10497C003160304902EB82024FEA820C8C44DCF845
:10498C0004209A609668DE6075609560DA6A02EBC6
:10499C00820C4FEA8C056E185E614D5901354FEA59
:1049AC008C0C41F80C50DA6A214B1B68DB6A9A427A
:1049BC0000D901201A4B1B681B68002BC2D0184B66
:1049CC001B68DB68DB685A689442C0D35A699D68DF
:1049DC00D968A9609D684D6051681D1DA942B9D068
:1049EC00002159611168013911609A6A002AB9D005
:1049FC00DE69196AB160DE694E60566803F1180110
:104A0C008E42AAD1196A5160A7E70D4A1368013387
:104A1C0013600020F8BD00BF2017002044170020B1
:104A2C00901700208C17002030170020281700202A
:104A3C0020180020BC17002034170020401700203D
:104A4C003817002038B501F0C3F84C4B1B6843B93C
:104A5C004FF0200383F31188BFF36F8FBFF34F8F99
:104A6C00FEE7464B1A68013A1A601B68002B7FD18F
:104A7C00434B1B683BB900247BE0196A516015E07D
:104A8C00D968516021E000233E4A1268002A4AD0BE
:104A9C003C4BDB68DB689A6AD869196A8160D86913
:104AAC004860506803F118018842E6D000219962F1
:104ABC001168013911605A699868D96881609868E1
:104ACC0048605168181D8142DAD000215961116883
:104ADC0001391160DA6A012191402B4C2568294378
:104AEC0021602A4902EB820201EB820252689A6031
:104AFC009468DC6060609060DA6A02EB820001EB23
:104B0C0080045C6151F82000013002EB820241F814
:104B1C002200D96A1E4A1268D26A9142B4D91D4A3F
:104B2C0001211160B0E70BB1FFF7E4FB1A4B1C68D5
:104B3C0094B9184B1C68E4B1154B1B684FF0E0237B
:104B4C004FF08052C3F8042DBFF34F8FBFF36F8F1C
:104B5C0001240EE0013C07D0FFF7B8FE0028F9D085
:104B6C000C4B01221A60F5E70B4B00221A60E0E7B0
:104B7C00002401F04FF8204638BD00BF201700205C
:104B8C00481700207817002040170020BC17002081
:104B9C0020180020341700203817002038B558B1E1
:104BAC000C46054689B94FF0200383F31188BFF3F7
:104BBC006F8FBFF34F8FFEE74FF0200383F3118805
:104BCC00BFF36F8FBFF34F8FFEE7FFF763FE1D4BF5
:104BDC0018681D4B1B68012B08D04FF0200383F382
:104BEC001188BFF36F8FBFF34F8FFEE72B681C4408
:104BFC0083420BD9A34202D82C60002410E0A042BF
:104C0C0002D32C6000240BE02C6004E0A34201D8FA
:104C1C00A04214D22C600021201AFFF743FD01247E
:104C2C00FFF710FF48B94FF0E0234FF08052C3F864
:104C3C00042DBFF34F8FBFF36F8F204638BD2C6010
:104C4C000024EDE7441700202017002010B550B9C0
:104C5C004FF0E0234FF08052C3F8042DBFF34F8F79
:104C6C00BFF36F8F10BD0446FFF714FE0A4B1B6891
:104C7C00012B08D04FF0200383F31188BFF36F8F03
:104C8C00BFF34F8FFEE700212046FFF70BFDFFF728
:104C9C00D9FE0028E6D1DBE72017002008B5314B00
:104CAC001B681BB1304B01221A6008BD2E4B002231
:104CBC001A602E4B1A68126B196809681B681B6BFB
:104CCC00994203D91368B3F1A53F1BD0274B196840
:104CDC0018683431FBF79CFE254B1B68B3FA83F341
:104CEC00DBB2C3F11F0303EB83018A0021498A580D
:104CFC00AAB94FF0200383F31188BFF36F8FBFF372
:104D0C004F8FFEE75368B3F1A53FDFD19368B3F142
:104D1C00A53FDBD1D368B3F1A53FD7D1DCE715486C
:104D2C0003EB83018A00024451684968516003EB2C
:104D3C00830C4FEA8C020832024491420AD003EBF6
:104D4C0083039A000B4B13445B68DA68074B1A60B9
:104D5C001B68AAE76246910002460A44D16851607A
:104D6C00EDE700BF2017002034170020201800208A
:104D7C0040170020BC17002058B110B50C46094A4A
:104D8C001168183100F083FE01212046FFF78AFCE0
:104D9C0010BD4FF0200383F31188BFF36F8FBFF367
:104DAC004F8FFEE720180020C368DB68002B4DD026
:104DBC0030B49A6AD869196A8160D86948605168B8
:104DCC0003F1180081424AD000219962116801391F
:104DDC0011602D4A1268002A47D15A699868D9681F
:104DEC008160986848605168181D81423AD0002152
:104DFC005961116801391160DA6A01219140234C23
:104E0C00256829432160224902EB820201EB8202D0
:104E1C0052689A609468DC6060609060DA6A02EBB9
:104E2C00820001EB80045C6151F82000013002EB40
:104E3C00820241F82200DA6A164B1B68DB6A9A423E
:104E4C001FD90120144B186030BC70474FF0200361
:104E5C0083F31188BFF36F8FBFF34F8FFEE7196A8F
:104E6C005160B1E7D9685160C1E70C4A5168D9610A
:104E7C008C681C62606088609A62116801311160F4
:104E8C00D9E70020E0E700BF2017002040170020E2
:104E9C00BC170020201800203417002078170020A1
:104EAC00034B1B680360034B1B684360704700BFD8
:104EBC00301700204417002038B5D0B10C460546F9
:104ECC0001B300F085FE1D4B19686B68C81A226887
:104EDC00B2F1FF3F2DD0DFF868C0DCF800C0D5F888
:104EEC0000E0E64517D08B4215D80023236001243F
:104EFC0020E04FF0200383F31188BFF36F8FBFF3D3
:104F0C004F8FFEE74FF0200383F31188BFF36F8FB1
:104F1C00BFF34F8FFEE7824203D8002323600124A6
:104F2C0008E05B1A134423602846FFF7B9FF0024FE
:104F3C0000E0002400F06EFE204638BD441700202F
:104F4C0030170020014B01221A60704734170020E3
:104F5C00002857D070B50446C36A2C4A1268D26A2E
:104F6C00934247D28269002A05DB284A1268D26A2A
:104F7C00C2F105028261616903EB8303244A02EBEF
:104F8C008303994205D0214B1B68DB6AE362012045
:104F9C0070BD251D284600F093FD38B9E36A012247
:104FAC009A401C490B6823EA02030B60174B1B68E1
:104FBC00DB6AE362012000FA03F216490E68324301
:104FCC000A60134A03EB830302EB83035B68A36061
:104FDC009968E1604D609D60E36A03EB830102EB2D
:104FEC008105656152F82110014403EB830342F8FB
:104FFC002310CDE7C26B054B1B68DB6A9A4203D3C7
:10500C000020C5E7002070470120C1E720180020D0
:10501C00BC17002040170020002856D038B5044695
:10502C002C4B1B68834208D04FF0200383F311886C
:10503C00BFF36F8FBFF34F8FFEE7036C43B94FF095
:10504C00200383F31188BFF36F8FBFF34F8FFEE7FD
:10505C00013B0364C16AC26B914238D00BB1002092
:10506C0038BD051D284600F02BFD38B9E36A012236
:10507C009A4019490B6823EA02030B60E36BE36265
:10508C00C3F10502A261012000FA03F21249D1F822
:10509C0000C042EA0C020A60104A03EB830302EBE5
:1050AC0083035B68A3609968E1604D609D60E36A6F
:1050BC0003EB830102EB8105656152F82110014479
:1050CC0003EB830342F82310CAE70020704700204B
:1050DC00C6E700BF2018002040170020BC17002096
:1050EC0000285ED070B50446036C43B94FF0200322
:1050FC0083F31188BFF36F8FBFF34F8FFEE7C26B43
:10510C008A4200D20A46E56A954201D0012B00D0B2
:10511C0070BD244B1B68A3423AD0E262A369002BFA
:10512C0002DBC2F10502A261616905EB85021E4B2F
:10513C0003EB82039942EBD1261D304600F0C0FCF4
:10514C0030B90122AA4019490B6823EA02030B600B
:10515C00E36A01229A401549086802430A60124A20
:10516C0003EB830302EB83035B68A3609968E16044
:10517C004E609E60E36A03EB830102EB8100606189
:10518C0052F82110013103EB830342F82310BFE7DF
:10519C004FF0200383F31188BFF36F8FBFF34F8F52
:1051AC00FEE7704720180020BC1700204017002095
:1051BC00034B186810B1036C01330364704700BFD4
:1051CC00201800200346406A18B11B6B1868C0F108
:1051DC000500704710B5044600F0FAFCA26BE36BB7
:1051EC009A4204D0002400F015FD204610BD012485
:1051FC00F9E710B5044600F0EBFCA36B23B90124CE
:10520C0000F008FD204610BD0024F9E770B50446F7
:10521C001546866B026C5AB903681BB10020013627
:10522C00A66370BD8068FFF7F7FE0023A360F6E766
:10523C006DB9406802F07AFF6368226C13446360B6
:10524C00A268934219D3236863602846E7E7C068D5
:10525C0002F06CFFE368226C51429B1AE3602268F7
:10526C00934202D2A3680B44E360022D01D00020CC
:10527C00D5E726B1013E0020D1E72846CFE7002034
:10528C00CDE708B50346026C62B10846D9681144F3
:10529C00D960D3F808C0614501D31968D960D968C1
:1052AC0002F044FF08BD38B5054600F091FC95F8B6
:1052BC00454064B201E0013C64B2002C0ADD6B6A2B
:1052CC0043B105F12400FFF76FFD0028F3D0FFF781
:1052DC0039FEF0E7FF2385F8453000F09BFC00F029
:1052EC0077FC95F8444064B201E0013C64B2002CB8
:1052FC000ADD2B6943B105F11000FFF755FD0028BD
:10530C00F3D0FFF71FFEF0E7FF2385F8443000F0E1
:10531C0081FC38BD38B590B10D460446C36B2BB13A
:10532C00026C0021A2FB032393B999B14FF0200327
:10533C0083F31188BFF36F8FBFF34F8FFEE74FF0EE
:10534C00200383F31188BFF36F8FBFF34F8FFEE7FA
:10535C000121EAE700F03CFC2368E26B216C01FBC5
:10536C000230A0600020A0636360013A02FB0133AD
:10537C00E360FF2384F8443084F84530B5B92369E1
:10538C001BB900F047FC012038BD04F11000FFF7F9
:10539C000BFD0028F5D04FF0E0234FF08052C3F8FE
:1053AC00042DBFF34F8FBFF36F8FEAE704F11000AA
:1053BC0000F05FFB04F1240000F05BFBE1E710B5AB
:1053CC00034602980C4631B90060C36304640121A2
:1053DC00FFF7A0FF10BD0260F7E7F0B583B060B136
:1053EC000C46174605460023A4FB001272B923B9DC
:1053FC0004FB05F010F1490F0AD94FF0200383F399
:10540C001188BFF36F8FBFF34F8FFEE70123EEE7D9
:10541C00483000F071FD064650B1002380F846304C
:10542C0000903B4600F1480221462846FFF7C7FF93
:10543C00304603B0F0BDF0B585B0019238B10F46DF
:10544C001D46044661B1022D16D0002660E04FF0D7
:10545C00200383F31188BFF36F8FBFF34F8FFEE7E9
:10546C00036C002BEFD04FF0200383F31188BFF3B4
:10547C006F8FBFF34F8FFEE7E36B012B08D04FF01C
:10548C00200383F31188BFF36F8FBFF34F8FFEE7B9
:10549C0000263DE02A4639462046FFF7B7FE636AF0
:1054AC007BB948B14FF0E0234FF08052C3F8042D84
:1054BC00BFF34F8FBFF36F8F00F0ACFB012005B033
:1054CC00F0BD04F12400FFF76FFC0028F4D04FF07E
:1054DC00E0234FF08052C3F8042DBFF34F8FBFF37E
:1054EC006F8FE9E700F096FB0020E8E702A8FFF7D2
:1054FC00D7FC012619E0002384F8443021E0002376
:10550C0084F8453023E02046FFF7CDFEFFF79AFAEA
:10551C0000F05EFBA26BE36B9A42BBD3022DB9D0B9
:10552C00019B002BDED0002EE0D000F073FBFFF7C8
:10553C00B1F900F04DFB94F8442052B2B2F1FF3FA8
:10554C00D9D094F8452052B2B2F1FF3FD7D000F039
:10555C0061FB01A902A8FFF7AFFCD8B92046FFF701
:10556C0039FE0028CFD0019904F11000FFF704FC9C
:10557C002046FFF798FEFFF765FA0028C8D14FF0D8
:10558C00E0234FF08052C3F8042DBFF34F8FBFF3CD
:10559C006F8FBDE72046FFF786FEFFF753FA00201A
:1055AC008DE748B108B5002181600160C1600B46F0
:1055BC000A46FFF740FF08BD704710B502460021B0
:1055CC000120FFF70AFF0446FFF7EBFF204610BD52
:1055DC002DE9F843A8B10F4616461C46054669B19D
:1055EC00022C17D1EB6B012B14D04FF0200383F35B
:1055FC001188BFF36F8FBFF34F8FFEE7036C002B47
:10560C00EED04FF0200383F31188BFF36F8FBFF3FD
:10561C004F8FFEE700F0D2FBEFF311884FF0200321
:10562C0083F31188BFF36F8FBFF34F8FAA6BEB6BB4
:10563C009A4206D3022C04D0002088F31188BDE8CE
:10564C00F88395F845904FFA89F9AB6B22463946A9
:10565C002846FFF7DBFDB9F1FF3F0CD16B6A0BB9A4
:10566C000120EAE705F12400FFF79EFBD0B1DEB183
:10567C0001203060E1E7FFF723F9814516D2B9F13B
:10568C007F0F06D009F101035BB285F8453001208C
:10569C00D3E74FF0200383F31188BFF36F8FBFF371
:1056AC004F8FFEE70120C8E70120C6E70120C4E7C1
:1056BC00F8B518B10C460546036C43B14FF0200306
:1056CC0083F31188BFF36F8FBFF34F8FFEE703682F
:1056DC00DBB100F073FBEFF311864FF0200383F383
:1056EC001188BFF36F8FBFF34F8FAB6BEA6B9A428E
:1056FC0035D995F845707FB20133AB63B7F1FF3FF5
:10570C0018D16B6A6BB901202AE08368002BE0D0BA
:10571C004FF0200383F31188BFF36F8FBFF34F8FCC
:10572C00FEE705F12400FFF73FFBE0B1ECB10120EF
:10573C00206015E0FFF7C4F8874218D27F2F05D000
:10574C007B1C5BB285F84530012009E04FF020034B
:10575C0083F31188BFF36F8FBFF34F8FFEE70020E9
:10576C0086F31188F8BD0120FAE70120F8E7012043
:10577C00F6E7F0B585B0019220B10F46044651B161
:10578C00002654E04FF0200383F31188BFF36F8F92
:10579C00BFF34F8FFEE7036C43B14FF0200383F34D
:1057AC001188BFF36F8FBFF34F8FFEE700263EE0EB
:1057BC0039462046FFF765FD013DA563236923B9F2
:1057CC0000F028FA012005B0F0BD04F11000FFF73D
:1057DC00EBFA0028F4D04FF0E0234FF08052C3F8DE
:1057EC00042DBFF34F8FBFF36F8FE9E700F012FA70
:1057FC000020E8E702A8FFF753FB012621E0002375
:10580C0084F8443029E0002384F845302BE020460E
:10581C00FFF749FDFFF716F909E02046FFF743FDB6
:10582C00FFF710F92046FFF7E4FC00283FD100F009
:10583C00CFF9A56B002DBBD1019B002BD6D0002E30
:10584C00D8D000F0E7F9FFF725F800F0C1F994F88B
:10585C0044305BB2B3F1FF3FD1D094F845305BB22A
:10586C00B3F1FF3FCFD000F0D5F901A902A8FFF7A3
:10587C0023FB0028D1D12046FFF7BBFC0028C6D063
:10588C00019904F12400FFF777FA2046FFF70BFD8E
:10589C00FFF7D8F80028CAD14FF0E0234FF0805220
:1058AC00C3F8042DBFF34F8FBFF36F8FBFE70020FA
:1058BC0089E770B584B0019158B10446036C8BB183
:1058CC004FF0200383F31188BFF36F8FBFF34F8F1B
:1058DC00FEE74FF0200383F31188BFF36F8FBFF304
:1058EC004F8FFEE70026354649E0013BA363236852
:1058FC0033B1236943B900F08DF9012004B070BDB8
:10590C00FFF756FCA060F4E704F11000FFF74CFA27
:10591C000028F0D04FF0E0234FF08052C3F8042D54
:10592C00BFF34F8FBFF36F8FE5E700F073F90020E3
:10593C00E4E702A8FFF7B4FA01252AE0002384F873
:10594C00443032E0002384F8453034E000F040F974
:10595C00A068FFF7FDFA064600F05CF93BE0204634
:10596C00FFF7A1FCFFF76EF809E02046FFF79BFC60
:10597C00FFF768F82046FFF73CFC002842D100F006
:10598C0027F9A36B002BB0D1019B002BCDD0002DA0
:10599C00CFD000F03FF9FEF77DFF00F019F994F835
:1059AC0044305BB2B3F1FF3FC8D094F845305BB2E2
:1059BC00B3F1FF3FC6D000F02DF901A902A8FFF703
:1059CC007BFA0028D1D12046FFF713FC0028C6D063
:1059DC002368002BBAD0019904F12400FFF7CCF90D
:1059EC002046FFF760FCFFF72DF80028C7D14FF0D9
:1059FC00E0234FF08052C3F8042DBFF34F8FBFF359
:105A0C006F8FBCE70EB9002078E700F0E1F8204674
:105A1C00FFF7D8FB0146A068FFF762FB00F0FAF82D
:105A2C00F1E708B550B102698AB14FF0200383F356
:105A3C001188BFF36F8FBFF34F8FFEE74FF020033A
:105A4C0083F31188BFF36F8FBFF34F8FFEE7426A6A
:105A5C0042B14FF0200383F31188BFF36F8FBFF374
:105A6C004F8FFEE790F8462002B108BD00F010FB06
:105A7C00FBE700F1080343604FF0FF328260C36024
:105A8C00036100230360704700230361704730B447
:105A9C000D68B5F1FF3F11D000F108031C465B689F
:105AAC001A68AA42FAD963684B6099608C6061608D
:105ABC00086103680133036030BC70470469F2E786
:105ACC000369416882688A60416851605A68824201
