:020000040800F2
:1000000000500020F50200083D0300083D030008F1
:100010003D0300083D0300083D0300080000000008
:10002000000000000000000000000000BD0F0008FC
:100030003D0300080000000001100008D91000086E
:100040003D0300083D0300083D0300083D03000890
:100050003D0300083D0300083D0300083D03000880
:100060003D0300083D0300083D0300083D03000870
:100070003D0300083D0300083D0300083D03000860
:100080003D0300083D0300083D0300083D03000850
:100090003D0300083D0300083D0300083D03000840
:1000A0003D0300083D0300083D0300083D03000830
:1000B0003D0300083D0300083D0300083D03000820
:1000C0003D0300083D0300083D0300083D03000810
:1000D0003D0300083D0300083D0300083D03000800
:1000E0003D0300083D0300083D0300080000000038
:1000F0000000000000000000000000000000000000
:0C01000000000000000000005FF808F1A3
:10010C0010B5054C237833B9044B13B10448AFF345
:10011C0000800123237010BD10000020000000009F
:10012C003C19000808B5034B1BB103490348AFF356
:10013C00008008BD00000000140000203C190008DD
:10014C0030B583B000F09CFC019000240FE000203F
:10015C0000F0BCF801ADC821284600F0FFFD0020DE
:10016C0000F0B4F8C821284600F0F8FD0134022C48
:10017C00EDDD0021084600F08DF8002000F0C4FBF6
:10018C0003B030BD00B583B000F052F800B1FEE70B
:10019C00002301930122009280220349034800F0BE
:1001AC009DFB00F033FCFEE7541900084D010008DC
:1001BC00034B0360034B0B6080231380704700BF1D
:1001CC002C0200202C00002000BEFEE708B5164AC9
:1001DC00136843F480331360134B1B6813F4003F14
:1001EC00FAD0124B14221A60A3F580534FF480629C
:1001FC005A605A6842F4E8125A601A6842F08072E7
:10020C001A60094B1B6813F0007FFAD0064A53683A
:10021C0043F002035360044B5B6803F00C03082BA0
:10022C00F9D100F087F808BD001002400020024010
:10023C0008B5FFF7CBFF01F0B9F900F001F808BDE4
:10024C00F0B587B002A9002402944C608C60CC609D
:10025C000E4B9A6942F010029A619B6903F01003ED
:10026C000193019B4FF4005602960127039702233A
:10027C000593074D284601F015FA3A4631462846B3
:10028C0001F01AFB204607B0F0BD00BF0010024081
:10029C0000100140B8B908B5034661B10A4A02EB37
:1002AC00C0029279084800EBC301898850F83300EA
:1002BC0001F002FB08BD044A02EBC0029279013A3C
:1002CC0018BF0122EEE770476819000800B17047AB
:1002DC0008B5044A02EBC001898852F8300001F0DD
:1002EC00F1FA08BD6819000800F023F80B480C4916
:1002FC000C4A002302E0D458C4500433C4188C4276
:10030C00F9D3094A094C002301E013600432A242DC
:10031C00FBD301F0E9FAFFF735FF7047000000202E
:10032C00100000208C19000810000020B02B0020B9
:10033C00FEE770471F4B5B6803F00C03042B11D0D6
:10034C00082B13D0002B31D11B4B1C4A1A60194BB4
:10035C005B68C3F303131A4AD15C174A1368CB408A
:10036C0013607047144B154A1A60F0E7114A536832
:10037C005268C3F38343023312F4803F05D1114A10
:10038C0002FB03F30C4A1360E1E70A4A526812F4C9
:10039C00003F05D00B4A02FB03F3074A1360D6E774
:1003AC00064A02FB03F3044A1360D0E7024B034AEC
:1003BC001A60CCE7001002400000002000127A0006
:1003CC007019000800093D00074B1B681B6823B916
:1003DC00064B4FF0FF321A607047034B1B68DB680B
:1003EC001A68024B1A607047F80200209002002035
:1003FC002DE9F04781460D4617469A46DDF82080D8
:10040C000A9C9200A521206B01F065FA236B07F181
:10041C008042013A03EB820323F007068DB14FF0C3
:10042C00000CBCF10F0F09D815F80C3004EB0C02C2
:10043C0082F8343013B10CF1010CF2E7002384F88C
:10044C004330B8F1040F08D94FF0200383F311881F
:10045C00BFF36F8FBFF34F8FFEE7C4F82C80C4F847
:10046C004C80201D00F04BFD04F1180000F047FDFE
:10047C002461C8F10503A3616462524649463046C3
:10048C0000F0DAFD2060361AB7EBA60F08D84FF053
:10049C00200383F31188BFF36F8FBFF34F8FFEE7F9
:1004AC00099B03B11C60BDE8F0872DE9F04186B0D3
:1004BC000D9E9EB10446884617461D460E9BB3B151
:1004CC005C230593059B5C2B1AD04FF0200383F320
:1004DC001188BFF36F8FBFF34F8FFEE74FF02003F0
:1004EC0083F31188BFF36F8FBFF34F8FFEE74FF08D
:1004FC00200383F31188BFF36F8FBFF34F8FFEE799
:10050C00059B5C2200210E9801F0E5F90E9B1E6301
:10051C0002230E9A82F859300023039302920F9B08
:10052C0001930C9B00932B463A4641462046FFF71D
:10053C005FFF0E9806B0BDE8F081000038B50024CE
:10054C0007E004EB840293000E48184400F0CCFC46
:10055C000134042CF5D90C4D284600F0C5FC0B4C8D
:10056C00204600F0C1FC0A4800F0BEFC094800F02F
:10057C00BBFC094800F0B8FC084B1D60084B1C6024
:10058C0038BD00BF2403002010030020FC02002013
:10059C00E0020020CC020020B4020020F80200206F
:1005AC00F402002010B5044600F058FD2A4A1368E6
:1005BC0001331360294B1B685BB1294B1B686BB96A
:1005CC00264B1B68DA6AE36A9A4207D8234B1C60F5
:1005DC0004E0224B1C601368012B3AD0214A1368AB
:1005EC00013313606364E36A01229A401E49086870
:1005FC0002430A601D4A03EB830302EB83035B682F
:10060C00A3609868E060211D41609960E36A03EB88
:10061C00830102EB8100606152F82110013103EB80
:10062C00830342F8231000F03BFD0D4B1B687BB19C
:10063C000A4B1B68DA6AE36A9A4209D24FF0E0234C
:10064C004FF08052C3F8042DBFF34F8FBFF36F8F61
:10065C0010BDFFF773FFC1E7B00200208803002034
:10066C00A402002094020020A802002024030020F1
:10067C002DE9F04385B006460F4614469846900087
:10068C0000F052FE8146F8B15C2000F04DFE0546AC
:10069C00B0B15C22002101F01EF9C5F830900023A6
:1006AC00039302950D9B01930C9B009343462246AA
:1006BC0039463046FFF79CFE284605B0BDE8F0836E
:1006CC00484600F0FDFEF7E70546F5E710B5044691
:1006DC0090F8593063B1012B11D0022B0ED04FF092
:1006EC00200383F31188BFF36F8FBFF34F8FFEE7A7
:1006FC00006B00F0E5FE204600F0E2FE10BD00F0BD
:10070C00DFFEFBE70F4B1B68D3B110B500F0A6FC66
:10071C000D4BDB68DC68201D00F018FC0B4A1368DD
:10072C00013B1360074A1368013B136000F0B8FCEF
:10073C002046FFF7CBFF034B1B68002BE6D110BD07
:10074C00704700BFC8020020CC020020B00200207D
:10075C0008B5FFF7D7FF074B1B68012BF9D94FF0F2
:10076C00E0234FF08052C3F8042DBFF34F8FBFF33B
:10077C006F8FEEE7240300202DE9F04104460D466F
:10078C00254B1E68254B1F68254BD3F80080254B45
:10079C001868043000F0DAFB48B9224B1B68DB6A9E
:1007AC0001229A4020490B6823EA02030B60B4F142
:1007BC00FF3F0DD034441B4B1B685C60A6421DD917
:1007CC00184B19680431404600F0A7FBBDE8F081D6
:1007DC00002DEFD0154A5168124B186881601868CB
:1007EC008C68C460186804306060186804308860D5
:1007FC001B685A61136801331360E7E7094B1968EA
:10080C000431384600F089FB094B1B68A342DDD943
:10081C00074B1C60DAE700BFAC020020F802002096
:10082C00F402002088030020A8020020B40200205B
:10083C009002002010B586B00024059405AC0394FA
:10084C000A9C0294099C0194089C0094FFF72DFECD
:10085C0008B1FFF7A7FE059806B010BD30B58DB0F6
:10086C000023089309930A930B930E2B09D8184A6B
:10087C00D25C03F13001694401F8102C0AB1013348
:10088C00F3E730336B44002403F8104C002C02DDEA
:10089C0001200DB030BD0025069507950DF116020F
:1008AC0007A906A8FFF784FC069B0293079B0193FC
:1008BC0000952B46BDF8162008A90648FFF7BAFF8D
:1008CC00054B43F8240008B10134DFE70020E0E7D2
:1008DC00601900085D0700088C02002000B583B089
:1008EC00DDF814C0CDF804C0DDF810C0CDF800C0A0
:1008FC00FFF7BEFE28B1FFF755FE012003B05DF8EF
:10090C0004FB4FF0FF30F9E738B5044600F0A6FBC6
:10091C00002C38D0251D284600F018FB68B9E36A76
:10092C0003EB8301304A52F8212032B901229A405C
:10093C002E490B6823EA02030B60A36A1BB104F176
:10094C00180000F003FB2A4A136801331360294B8B
:10095C001B68A34224D00022274B1B6803B10ABB9F
:10096C00264A1368013B1360FFF72EFD00F098FB3D
:10097C002046FFF7ABFE204B1B681BB11D4B1B68C1
:10098C00A3421AD038BD1B4B1C68002CC2D14FF0AF
:10099C00200383F31188BFF36F8FBFF34F8FFEE7F4
:1009AC000122D9E72946164800F0ACFA154A13681B
:1009BC000133136000F074FBDDE7134B1B6843B18C
:1009CC004FF0200383F31188BFF36F8FBFF34F8F6A
:1009DC00FEE74FF0E0234FF08052C3F8042DBFF335
:1009EC004F8FBFF36F8FCDE724030020A8020020A8
:1009FC009402002088030020A4020020B0020020F2
:100A0C00CC020020C80200208802002008B5FFF7A5
:100A1C0025FF012805D0B0F1FF3F17D0104B1B6804
:100A2C0008BD4FF0200383F31188BFF36F8FBFF322
:100A3C004F8F0C4B4FF0FF321A600B4B01221A6098
:100A4C000A4B00221A6000F063FBE7E74FF020032B
:100A5C0083F31188BFF36F8FBFF34F8FFEE700BF97
:100A6C008019000890020020A4020020AC02002093
:100A7C00024A136801331360704700BF88020020DC
:100A8C00014B1868704700BFAC020020F8B5524B00
:100A9C001B68002B40F09980504B1C6801341C6083
:100AAC00C4B94F4B1B681B6843B14FF0200383F351
:100ABC001188BFF36F8FBFF34F8FFEE7484A116861
:100ACC00484B186810601960474A1368013313606B
:100ADC00FFF77AFC454B1B68A34211D90020444B0D
:100AEC001B68DB6A03EB83039A00424B9B58012B78
:100AFC0000D90120404B1B68002B6BD0012069E012
:100B0C00002037E0394B4FF0FF321A60E7E7374BE4
:100B1C001A60E4E7D968516042E0002199621168DB
:100B2C0001391160DA6A01219140344E376839433A
:100B3C003160304902EB82024FEA820C8C44DCF8C3
:100B4C0004209A609668DE6075609560DA6A02EB44
:100B5C00820C4FEA8C056E185E614D5901354FEAD7
:100B6C008C0C41F80C50DA6A214B1B68DB6A9A42F8
:100B7C0000D901201A4B1B681B68002BC2D0184BE4
:100B8C001B68DB68DB685A689442C0D35A699D685D
:100B9C00D968A9609D684D6051681D1DA942B9D0E6
:100BAC00002159611168013911609A6A002AB9D083
:100BBC00DE69196AB160DE694E60566803F118018E
:100BCC008E42AAD1196A5160A7E70D4A1368013306
:100BDC0013600020F8BD00BF88020020AC0200208A
:100BEC00F8020020F402002098020020900200205D
:100BFC0088030020240300209C020020A80200206F
:100C0C00A002002038B500F029FA4C4B1B6843B900
:100C1C004FF0200383F31188BFF36F8FBFF34F8F17
:100C2C00FEE7464B1A68013A1A601B68002B7FD10D
:100C3C00434B1B683BB900247BE0196A516015E0FB
:100C4C00D968516021E000233E4A1268002A4AD03C
:100C5C003C4BDB68DB689A6AD869196A8160D86991
:100C6C004860506803F118018842E6D0002199626F
:100C7C001168013911605A699868D968816098685F
:100C8C0048605168181D8142DAD000215961116801
:100C9C0001391160DA6A012191402B4C25682943F6
:100CAC0021602A4902EB820201EB820252689A60AF
:100CBC009468DC6060609060DA6A02EB820001EBA1
:100CCC0080045C6151F82000013002EB820241F893
:100CDC002200D96A1E4A1268D26A9142B4D91D4ABE
:100CEC0001211160B0E70BB1FFF76EFB1A4B1C68CA
:100CFC0094B9184B1C68E4B1154B1B684FF0E023FA
:100D0C004FF08052C3F8042DBFF34F8FBFF36F8F9A
:100D1C0001240EE0013C07D0FFF7B8FE0028F9D003
:100D2C000C4B01221A60F5E70B4B00221A60E0E72E
:100D3C00002400F0B5F9204638BD00BF8802002021
:100D4C00B0020020E0020020A802002024030020B2
:100D5C00880300209C020020A002002038B558B166
:100D6C000C46054689B94FF0200383F31188BFF375
:100D7C006F8FBFF34F8FFEE74FF0200383F3118883
:100D8C00BFF36F8FBFF34F8FFEE7FFF771FE1D4B65
:100D9C0018681D4B1B68012B08D04FF0200383F300
:100DAC001188BFF36F8FBFF34F8FFEE72B681C4486
:100DBC0083420BD9A34202D82C60002410E0A0423D
:100DCC0002D32C6000240BE02C6004E0A34201D879
:100DDC00A04214D22C600021201AFFF7CDFC012474
:100DEC00FFF710FF48B94FF0E0234FF08052C3F8E3
:100DFC00042DBFF34F8FBFF36F8F204638BD2C608F
:100E0C000024EDE7AC0200208802002008B5314B2D
:100E1C001B681BB1304B01221A6008BD2E4B0022FF
:100E2C001A602E4B1A68126B196809681B681B6BC9
:100E3C00994203D91368B3F1A53F1BD0274B19680E
:100E4C0018683431FFF7C0F9254B1B68B3FA83F3EC
:100E5C00DBB2C3F11F0303EB83018A0021498A58DB
:100E6C00AAB94FF0200383F31188BFF36F8FBFF340
:100E7C004F8FFEE75368B3F1A53FDFD19368B3F111
:100E8C00A53FDBD1D368B3F1A53FD7D1DCE715483B
:100E9C0003EB83018A00024451684968516003EBFB
:100EAC00830C4FEA8C020832024491420AD003EBC5
:100EBC0083039A000B4B13445B68DA68074B1A6088
:100ECC001B68AAE76246910002460A44D168516049
:100EDC00EDE700BF880200209C0200208803002060
:100EEC00A80200202403002000F1080343604FF007
:100EFC00FF328260C36003610023036070470023EC
:100F0C000361704743684B609A688A6051609960CE
:100F1C000861036801330360704730B40D68B5F1A4
:100F2C00FF3F11D000F108031C465B681A68AA4207
:100F3C00FAD963684B6099608C60616008610368E2
:100F4C000133036030BC70470469F2E70369416800
:100F5C0082688A60416851605A68824205D00022DA
:100F6C000261186801381860704782685A60F6E7A9
:100F7C0082B0002301930D4B1B68B3F1FF3F08D0E7
:100F8C004FF0200383F31188BFF36F8FBFF34F8FA4
:100F9C00FEE74FF0200383F31188BFF36F8FBFF38D
:100FAC004F8F019B002BFCD002B070470400002037
:100FBC00074B19680868B0E8F00F80F30988BFF395
:100FCC006F8F4FF0000080F311884EF00D0E7047BC
:100FDC008803002006480068006880F3088862B621
:100FEC0061B6BFF34F8FBFF36F8F00DF00BF000000
:100FFC0008ED00E0EFF30980BFF36F8F0D4B1A681B
:10100C0020E9F00F10602DE908404FF0200080F32C
:10101C001188FFF7FBFE4FF0000080F31188BDE84C
:10102C00084019680868B0E8F00F80F30988BFF32E
:10103C006F8F7047880300204FF0807340F8043C9A
:10104C0021F0010140F8081C034B40F80C3C40F81F
:10105C00202C4038704700BF7D0F00084FF0200354
:10106C0083F31188BFF36F8FBFF34F8F0B4A136855
:10107C0001331360012B00D070474FF0E023D3F8FD
:10108C00043D13F0FF0FF7D04FF0200383F31188CA
:10109C00BFF36F8FBFF34F8FFEE700BF040000203C
:1010AC00094B1B6843B94FF0200383F31188BFF33E
:1010BC006F8FBFF34F8FFEE7013B034A13600BB9F1
:1010CC0083F31188704700BF0400002008B54FF06F
:1010DC00200383F31188BFF36F8FBFF34F8FFFF79C
:1010EC00D5FC28B14FF0E0234FF08052C3F8042D0B
:1010FC00002383F3118808BD4FF0E02300221A610E
:10110C009A61024A5A6107221A6170473F1901001D
:10111C004FF0E023D3F8083DD96A454A914208D0F4
:10112C004FF0200383F31188BFF36F8FBFF34F8F02
:10113C00FEE79A6B3F4B9A4208D04FF0200383F3A3
:10114C001188BFF36F8FBFF34F8FFEE710B582B0DE
:10115C0000230193384B1A78D2B28DF80220FF226B
:10116C001A701B78DBB28DF803309DF8033003F056
:10117C002003324A137043B94FF0200383F31188D4
:10118C00BFF36F8FBFF34F8FFEE79DF8033013F063
:10119C00200F08D14FF0200383F31188BFF36F8F1A
:1011AC00BFF34F8FFEE79DF8033013F0800F09D08B
:1011BC00019B013301939DF803305B00DBB28DF88A
:1011CC000330F0E7019B082B2ED0019BC3F10703E2
:1011DC001B4A13601A4A13681B02136003F4E06382
:1011EC0013609DF80230DBB2134A13704FF0E0230A
:1011FC00D3F8202D42F47F02C3F8202DD3F8202DF4
:10120C0042F07F42C3F8202D0024C3F81C4DFFF799
:10121C0073FF0C4B1C60FFF7DDFEFFF7F7FDFFF7CC
:10122C00A7FE204602B010BD054B00221A60D1E784
:10123C00BD0F00080110000800E400E0900300203E
:10124C008C03002004000020104A12F0070F1AD063
:10125C00D11D21F00701C1F5205313440A460C4857
:10126C000260002141601344083B23F00703094846
:10127C00036059601960991A51601360064B19602C
:10128C00064B196070474FF42053E8E7B003002079
:10129C00A8030020A40300209C030020A00300202E
:1012AC001D4B19461B688342FBD31B4A91420ED03F
:1012BC001A4A914202D31A4A914208D94FF020039C
:1012CC0083F31188BFF36F8FBFF34F8FFEE74A682C
:1012DC0001EB020C844509D0426800EB020C63451B
:1012EC0009D00360884200D008607047406802440F
:1012FC004A600846F0E7DFF82CC0DCF800C0634514
:10130C0006D05B681A4442600B681B680360E9E70F
:10131C00C0F800C0E6E700BFA8030020B00300201F
:10132C00AF2B0020A403002038B5044670B110F197
:10133C00090F0AD8083414F0070307D0C3F10802C8
:10134C00093BA34223D3144400E00024FFF790FB95
:10135C00544B1B68EBB1002CC0F28D80002C00F0BC
:10136C008C80514B1868A042C0F096804F4B1B6884
:10137C004F4A934202D34F4A934229D94FF020034C
:10138C0083F31188BFF36F8FBFF34F8FFEE70024F9
:10139C00DCE7FFF759FFDEE700219C4679B11346E5
:1013AC005A68A24217D21A68AAB141498A42F3D3A9
:1013BC0040498A4201D90021EFE70121EDE74FF0C6
:1013CC00200383F31188BFF36F8FBFF34F8FFEE7BA
:1013DC00DFF8D8C0E4E7334A12689A425ED0DCF8F2
:1013EC0000500835324A954202D3324A954208D908
:1013FC004FF0200383F31188BFF36F8FBFF34F8F30
:10140C00FEE71A68CCF800205A68A2420FD3121BD0
:10141C00102A1CD9191911F0070F11D04FF0200305
:10142C0083F31188BFF36F8FBFF34F8FFEE74FF03D
:10143C00200383F31188BFF36F8FBFF34F8FFEE749
:10144C004A605C60DCF800201A51CCF800105A6835
:10145C00801A1549086018490968884201D2164952
:10146C00086042F000425A6000221A60134A136866
:10147C000133136002E0002500E00025FFF7C2FBFA
:10148C0015F0070F0CD04FF0200383F31188BFF336
:10149C006F8FBFF34F8FFEE70025EFE70025EDE7D9
:1014AC00284638BDA4030020A0030020A803002078
:1014BC00B0030020AF2B00209C03002098030020D9
:1014CC00002841D038B50446A0F108051F4B9D42B9
:1014DC000FD31F4B9D420CD850F8043C002B11DB52
:1014EC004FF0200383F31188BFF36F8FBFF34F8F3F
:1014FC00FEE74FF0200383F31188BFF36F8FBFF328
:10150C004F8FFEE750F8082C42B14FF0200383F3C5
:10151C001188BFF36F8FBFF34F8FFEE723F00043AB
:10152C0040F8043CFFF7A4FA54F8041C094A136869
:10153C000B4413602846FFF7B3FE074A13680133C8
:10154C001360FFF75FFB38BD704700BFB00300208E
:10155C00AF2B0020A0030020940300207047000054
:10156C0010B504460E4B1A784FF47A73B3FBF2F3B2
:10157C000C4A1068B0FBF3F000F080F868B90F2C3F
:10158C0001D901200AE0002221464FF0FF3000F083
:10159C0065F8054B1C60002000E0012010BD00BF69
:1015AC0008000020000000200C00002008B5074AAD
:1015BC00136843F010031360032000F03DF80F2074
:1015CC00FFF7CEFFFFF7CAFF002008BD0020024046
:1015DC00002808DB0901C9B200F1604000F5614048
:1015EC0080F80013704700F00F000901C9B2014BDD
:1015FC001954704714ED00E000B500F00700C0F17D
:10160C00070CBCF1040F28BF4FF0040C031D062B74
:10161C000FD9C31E4FF0FF3E0EFA0CF021EA000169
:10162C0099400EFA03FE22EA0E0241EA02005DF82E
:10163C0004FB0023EEE70000074AD36823F4E063C1
:10164C001B041B0C000200F4E060034343F0BF6377
:10165C0043F40033D360704700ED00E010B504464E
:10166C00054BD868C0F30220FFF7C6FF01462046A1
:10167C00FFF7AEFF10BD00BF00ED00E00138B0F188
:10168C00807F0BD24FF0E0235861054AF02182F89D
:10169C0023100020986107221A61704701207047BF
:1016AC0000ED00E070B582B00024A4469EE07C4DB5
:1016BC00AB4214D00CD8A5F58015AB420FD005F574
:1016CC007025AB420BD0A5F58015AB421FD106E0BF
:1016DC00744DAB4203D005F58035AB4217D18B6806
:1016EC00A3B1012B0DD04261082410E0CC680EE0B0
:1016FC00CC6804340BE0CC68083408E0CC680C34BB
:10170C0005E00261082402E0002400E00424BEF19C
:10171C00FF0F37D806464FEA8C0233680F259540E9
:10172C0023EA050304FA02F2134333604B6813F007
:10173C00805F59D05C4B9A6942F001029A619B69B7
:10174C0003F001030193019B4FEA9C02951C574B3C
:10175C0053F825600CF00305AD000F23AB4026EACF
:10176C000306534B984214D003F58063984279D00A
:10177C0003F58063984277D003F58063984206D0D6
:10178C00042307E0061DACF108029200C5E7032311
:10179C0000E00023AB4033430232444D45F8223085
:1017AC004B6813F4801F61D0424A936843EA0E03DE
:1017BC0093604B6813F4001F5ED03E4AD36843EA33
:1017CC000E03D3604B6813F4003F5BD0394A536867
:1017DC0043EA0E0353604B6813F4803F58D0354AEC
:1017EC00136843EA0E0313600CF1010C0B6833FA17
:1017FC000CF253D0012202FA0CF203EA020E32EA86
:10180C000303F1D14B68122B3FF651AF122B3FF66D
:10181C007EAF01A555F823F0EB160008F916000869
:10182C0003170008151700081B1700081B170008E2
:10183C001B1700081B1700081B1700081B170008B4
:10184C001B1700081B1700081B1700081B170008A4
:10185C001B1700081B1700081B170008FD160008B3
:10186C0009170008012395E7022393E7114A9368AF
:10187C0023EA0E0393609CE70E4AD36823EA0E0317
:10188C00D3609FE70B4A536823EA0E035360A2E729
:10189C00084A136823EA0E031360A5E702B070BD73
:1018AC000000221000003110001002400000014026
:1018BC0000080140000401400AB1016170470904AD
:1018CC0001617047C36801EA030221EA030141EA9E
:1018DC0002410161704703460244934200D17047B4
:1018EC0003F8011BF9E7000070B500260C4D0D4BF9
:1018FC005B1B9C10A64209D1002600F019F80A4D7A
:10190C000A4B5B1B9C10A64205D170BD55F8043BDD
:10191C0098470136EEE755F8043B98470136F2E755
:10192C008419000884190008841900088819000813
:10193C00F8B500BFF8BC08BC9E467047F8B500BFB0
:08194C00F8BC08BC9E46704780
:1019540073656C66746573740000000049444C45FB
:101964000000000000100140002000000000000002
:101974000000000001020304060708090400000037
:041984003101000825
:041988000D01000845
:10198C0000127A00AAAAAAAA010000001000000006
:04000005080002F5F8
:00000001FF
