:020000040800F2
:1000000000500020750C0008BD0C0008BD0C000855
:10001000BD0C0008BD0C0008BD0C0008000000006D
:100020000000000000000000000000003117000880
:10003000BD0C000800000000751700084D180008EE
:10004000BD0C0008BD0C0008BD0C0008BD0C00086C
:10005000BD0C0008BD0C0008BD0C0008BD0C00085C
:10006000BD0C0008BD0C0008BD0C0008BD0C00084C
:10007000BD0C0008BD0C0008BD0C0008BD0C00083C
:10008000BD0C0008BD0C0008BD0C0008BD0C00082C
:10009000BD0C0008BD0C0008BD0C0008BD0C00081C
:1000A000BD0C0008BD0C0008BD0C0008BD0C00080C
:1000B000BD0C0008BD0C0008BD0C0008BD0C0008FC
:1000C000BD0C0008BD0C0008BD0C0008BD0C0008EC
:1000D000BD0C0008BD0C0008BD0C0008BD0C0008DC
:1000E000BD0C0008BD0C0008BD0C0008000000009D
:1000F0000000000000000000000000000000000000
:0C01000000000000000000005FF808F1A3
:10010C0010F8012B11F8013B012A28BF9A42F7D0B5
:10011C00D01A704710B5054C237833B9044B13B182
:10012C000448AFF300800123237010BD10000020A1
:10013C0000000000B426000808B5034B1BB10349AE
:10014C000348AFF3008008BD00000000140000203D
:10015C00B426000830B583B0124800F003FB044607
:10016C0008B100F01BFB104800F030FC054608B14C
:10017C0000F048FC0023019302E00A2001F0E2F9B0
:10018C00002CFAD001A9204600F06AFB0028F4D11B
:10019C000199012914BF00210121284600F054FCCB
:1001AC00EBE700BFCC260008D426000810B582B0BF
:1001BC0000F05EF888B900240194022300932346D2
:1001CC004FF480720649074800F0FEFF01F012F868
:1001DC0000F04BF8204602B010BD00F046F8EAE7FC
:1001EC00DC26000861010008034B0360034B0B6025
:1001FC0080231380704700BF2C0200202C000020AD
:10020C0000BEFEE710B590B006AC282200212046B7
:10021C0002F01DFA002301930293039304930593B8
:10022C00012306934FF48033079302220D920E9311
:10023C004FF4E0130F93204601F00AFE78B90F2318
:10024C00019302210291002303934FF480620492E4
:10025C00059301A802F02EF820B910B010BD6FF074
:10026C000A00FAE76FF00A00F7E772B600BFFDE785
:10027C0008B501F055FDFFF7C5FF28B900F0B8F837
:10028C0000F0ACF9002008BDFFF7EFFF10B50446F5
:10029C008188006802F0CEF9237A984201D00020C0
:1002AC0010BD0120FCE770B50E4684682046FFF7B0
:1002BC00EDFF054600F0D8FFA37AAB4205D0A5723E
:1002CC00E060637A3360002070BDE368C01A1328C5
:1002DC00F7D96572F5E783689BB11A68A2B110B5BE
:1002EC0084B06946002400940194029403945A68E3
:1002FC00009203220192186802F092F8204604B092
:10030C0010BD6FF0010070476FF0010070470000E6
:10031C0010B588B08468002C56D02368002B56D0BA
:10032C002E4A93422DD02E4A934235D02D4A9342D9
:10033C003DD02D4A93424DD12C4B9A6942F020026C
:10034C009A619B6903F020030393039B002304939E
:10035C0005930693079363680493237A002B31D19A
:10036C000123069304A9206802F05AF82046FFF7EF
:10037C008DFF6072A07200F077FFE060002008B083
:10038C0010BD1A4B9A6942F004029A619B6903F002
:10039C0004030093009BD9E7144B9A6942F00802BE
:1003AC009A619B6903F008030193019BCEE70F4B05
:1003BC009A6942F010029A619B6903F01003029350
:1003CC00029BC3E70223CCE76FF00700D7E76FF07F
:1003DC000700D4E76FF00700D1E700BF0008014029
:1003EC00000C0140001001400014014000100240BC
:1003FC0038B500240BE0184800EB051000F00CFA9F
:10040C000135AC42F7D84FF0FF3023E00134022C19
:10041C001FD82201114800EB0413002181505960B0
:10042C009960D9600E4DA918D1F804C040F802C0EB
:10043C0088685860097B197207495018AD588D505F
:10044C00084A4260836000F05DF90028DED0002588
:10045C00D7E7002038BD00BF88020020B80200207A
:10046C00202700081027000883682BB11A6832B1C6
:10047C005B7A0B70002070476FF0010070476FF0D3
:10048C000100704738B5846884B10D46206880B18E
:10049C00012909D0227A013A18BF0122A18802F061
:1004AC00D0F86572002038BD227AF7E76FF00100B2
:1004BC00F9E76FF00100F6E730B585B0856895B1C6
:1004CC002B689BB169460024009401940294039418
:1004DC006B68009303230193286801F0A1FF6C72F1
:1004EC00204605B030BD6FF00100FAE76FF0010057
:1004FC00F7E7000010B588B08468002C5AD0236848
:10050C00002B5AD0304A93422DD0304A934235D0EA
:10051C002F4A93423DD02F4A934251D12E4B9A6988
:10052C0042F020029A619B6903F020030393039B22
:10053C0004A9002304934B608B60CB606368049325
:10054C000123059302230793206801F069FF237AA6
:10055C00012B29D00122A188206802F072F800201A
:10056C00607208B010BD1C4B9A6942F004029A618B
:10057C009B6903F004030093009BD9E7164B9A691F
:10058C0042F008029A619B6903F008030193019BF6
:10059C00CEE7114B9A6942F010029A619B6903F005
:1005AC0010030293029BC3E70022A188206802F08B
:1005BC0048F8D4E76FF00700D3E76FF00700D0E7F7
:1005CC006FF00700CDE700BF00080140000C0140B0
:1005DC0000100140001401400010024070B50024CE
:1005EC000BE01C4800EB051000F0D0F90135AC42D3
:1005FC00F7D84FF0FF302BE00134022C27D804EB56
:10060C004402154D05EB8203002145F82210596078
:10061C009960124E4FEA041C06EB0410D0F804E06B
:10062C0045F822E082685A60027B1A725972094AB4
:10063C0002EB041056F80C1042F80C10084A4260F9
:10064C00836000F073F90028D6D00025CFE7002096
:10065C0070BD00BFE80200201803002064270008CA
:10066C005027000808B5084B1B780BB1002008BDBB
:10067C0004220649064800F008FA0028F7D1024B7C
:10068C0001221A70F3E700BF3C030020480300204E
:10069C004003002010B582B0144600230193009350
:1006AC006B4601AA00F09AFA0CB1009B236010B9BA
:1006BC00019802B010BD0020FBE7000010B582B01D
:1006CC0004460E4B187870B19CB123689BB1002383
:1006DC00019301AA21680A48FFF7DCFF28B1019BAE
:1006EC00A34204D0002002B010BD0020FBE7012083
:1006FC00F9E70020F7E70020F5E700BF3C030020F6
:10070C0040030020E8B110B582B004460368DBB1A9
:10071C001B78E3B14368EBB1FFF7A4FF08B102B05B
:10072C0010BD019001AA21680D48FFF7B3FFA0B9D5
:10073C0000232373234662682168094800F0C9F935
:10074C00EDE76FF0040070476FF00400E7E76FF01F
:10075C000400E4E76FF00400E1E76FF00900DEE766
:10076C0040030020014680B103787BB1094B1B7814
:10077C0073B100B583B00023019301AA0648FFF7BB
:10078C0089FF019803B05DF804FB704700207047A7
:10079C00002070473C0300204003002088B110B5B6
:1007AC000446436883B1FFF789FF80B1237B8BB983
:1007BC0063681B688BB12046984708B901232373E3
:1007CC0010BD6FF0040070476FF00400F8E76FF095
:1007DC000100F5E76FF00D00F2E76FF00C00EFE7AA
:1007EC0070B110B50446FFF769FF60B1237B6BB1A4
:1007FC0063685B686BB12046984700B9207310BDE5
:10080C006FF0040070476FF00100F8E76FF0010023
:10081C00F5E76FF00C00F2E790B110B504460E4B03
:10082C001B7883B1FFF74AFF80B1237B1BB12046B5
:10083C00FFF7D6FF68B92168084800F098F910BD99
:10084C006FF0040070476FF00100F8E76FF00100E3
:10085C00F5E76FF00200F2E73C03002040030020B4
:10086C0038B108B541B142684AB1D26852B190472B
:10087C0008BD6FF0040070476FF00400F8E76FF0EC
:10088C000100F5E76FF00C00F2E7000008B5084B2B
:10089C001B780BB1002008BD08220649064800F061
:1008AC00F4F80028F7D1024B01221A70F3E700BFCD
:1008BC0078030020840300207C03002010B582B054
:1008CC0014460023019300936B4601AA00F086F9AD
:1008DC000CB1009B236010B9019802B010BD002030
:1008EC00FBE7000010B582B004460E4B187870B1CF
:1008FC009CB123689BB10023019301AA21680A488B
:10090C00FFF7DCFF28B1019BA34204D0002002B00A
:10091C0010BD0020FBE70120F9E70020F7E70020DD
:10092C00F5E700BF780300207C030020E8B110B588
:10093C0082B004460368DBB11B78E3B14368EBB1CA
:10094C00FFF7A4FF08B102B010BD019001AA216805
:10095C000D48FFF7B3FFA0B9002323732346626849
:10096C002168094800F0B5F8EDE76FF00400704716
:10097C006FF00400E7E76FF00400E4E76FF00400A9
:10098C00E1E76FF00900DEE77C03002070B110B5E1
:10099C0004460C4B1B7863B1FFF7A4FF60B1237BBB
:1009AC006BB92168084800F0E2F810BD6FF0040044
:1009BC0070476FF00100F8E76FF00100F5E76FF09A
:1009CC000200F2E7780300207C030020014680B18E
:1009DC0003787BB1094B1B7873B100B583B000234E
:1009EC00019301AA0648FFF769FF019803B05DF86F
:1009FC0004FB7047002070470020704778030020EC
:100A0C007C03002088B110B50446436883B1FFF71E
:100A1C0069FF80B1237B8BB963681B688BB120465F
:100A2C00984708B90123237310BD6FF00400704779
:100A3C006FF00400F8E76FF00100F5E76FF00D00C0
:100A4C00F2E76FF00C00EFE780B138B50C460546C5
:100A5C0001290ED8FFF746FF70B12B7B7BB16B6879
:100A6C00DB687BB121462846984738BD6FF00400FF
:100A7C0070476FF00400F8E76FF00100F5E76FF0D6
:100A8C000100F2E76FF00C00EFE7C8B110B4D1B180
:100A9C00E2B1016082800023C3800CE003EB4300D1
:100AAC004FEA800C01EB8000002441F80C404460BC
:100ABC00846001339BB29342F0D3002010BC70478A
:100ACC006FF0040070476FF00400F7E76FF004005C
:100ADC00F4E700283FD02DE9F8430F46914698469D
:100AEC00064600293AD00B78002B3AD00568002D29
:100AFC003AD0002401E00134A4B2B388A3420ED949
:100B0C0004EB440355F823000028F4D03946FFF7D2
:100B1C00F7FA0028EFD16FF00900BDE8F883002048
:100B2C00834215D900EB40029200A95811B1013053
:100B3C0080B2F5E7AF5033681344C3F804903368C0
:100B4C001344C3F80880F3880133F3800020E4E7F2
:100B5C006FF00A00E1E76FF0040070476FF00400DB
:100B6C00DBE76FF00400D8E76FF00100D5E748B37E
:100B7C002DE9F0418846064639B3076847B3C38868
:100B8C004BB3002401E00134A4B2B388A34215D9BD
:100B9C0004EB4405AD0078590028F4D04146FFF72A
:100BAC00AFFA0028EFD1785133682B445860336882
:100BBC002B449860F388013BF38001E06FF0080050
:100BCC00BDE8F0816FF0040070476FF00400F7E7A8
:100BDC006FF00800F4E76FF00800F1E7A0B32DE91F
:100BEC00F0470F4692469946064681B30B788BB375
:100BFC00056895B3C3889BB3002401E00134A4B20B
:100C0C00B388A3421CD904EB440005EB800855F8CB
:100C1C0020000028F2D03946FFF772FA0028EDD1F7
:100C2C00BAF1000F03D0D8F80430CAF80030B9F18B
:100C3C00000F03D0D8F80830C9F80030002001E0CC
:100C4C006FF00800BDE8F0876FF0040070476FF09C
:100C5C000400F7E76FF00400F4E76FF00800F1E729
:100C6C006FF00800EEE7000000F023F80B480C4989
:100C7C000C4A002302E0D458C4500433C4188C42EC
:100C8C00F9D3094A094C002301E013600432A24253
:100C9C00FBD301F0E5FCFFF789FA70470000002058
:100CAC0010000020CC27000810000020102D002080
:100CBC00FEE77047074B1B681B6823B9064B4FF0C8
:100CCC00FF321A607047034B1B68DB681A68024BD3
:100CDC001A60704754040020EC0300202DE9F04703
:100CEC0081460D4617469A46DDF820800A9C9200F4
:100CFC00A521206B01F0ABFC236B07F18042013A7C
:100D0C0003EB820323F007068DB14FF0000CBCF10E
:100D1C000F0F09D815F80C3004EB0C0282F83430A4
:100D2C0013B10CF1010CF2E7002384F84330B8F155
:100D3C00040F08D94FF0200383F31188BFF36F8F92
:100D4C00BFF34F8FFEE7C4F82C80C4F84C80201DF5
:100D5C0000F099FC04F1180000F095FC2461C8F136
:100D6C000503A361646252464946304600F01EFDFD
:100D7C002060361AB7EBA60F08D84FF0200383F388
:100D8C001188BFF36F8FBFF34F8FFEE7099B03B141
:100D9C001C60BDE8F0872DE9F04186B00D9E9EB138
:100DAC000446884617461D460E9BB3B15C2305933B
:100DBC00059B5C2B1AD04FF0200383F31188BFF3F3
:100DCC006F8FBFF34F8FFEE74FF0200383F3118833
:100DDC00BFF36F8FBFF34F8FFEE74FF0200383F30A
:100DEC001188BFF36F8FBFF34F8FFEE7059B5C221B
:100DFC0000210E9801F02BFC0E9B1E6302230E9A11
:100E0C0082F859300023039302920F9B01930C9BA1
:100E1C0000932B463A4641462046FFF75FFF0E985B
:100E2C0006B0BDE8F081000038B5002407E004EB03
:100E3C00840293000E48184400F01AFC0134042C70
:100E4C00F5D90C4D284600F013FC0B4C204600F055
:100E5C000FFC0A4800F00CFC094800F009FC09489A
:100E6C0000F006FC084B1D60084B1C6038BD00BF31
:100E7C00800400206C040020580400203C04002056
:100E8C0028040020100400205404002050040020EA
:100E9C0010B5044600F09CFC2A4A13680133136019
:100EAC00294B1B685BB1294B1B686BB9264B1B6824
:100EBC00DA6AE36A9A4207D8234B1C6004E0224B9F
:100ECC001C601368012B3AD0214A1368013313605C
:100EDC006364E36A01229A401E49086802430A606F
:100EEC001D4A03EB830302EB83035B68A3609868E2
:100EFC00E060211D41609960E36A03EB830102EB22
:100F0C008100606152F82110013103EB830342F838
:100F1C00231000F07FFC0D4B1B687BB10A4B1B6848
:100F2C00DA6AE36A9A4209D24FF0E0234FF080521A
:100F3C00C3F8042DBFF34F8FBFF36F8F10BDFFF7B6
:100F4C0073FFC1E70C040020E4040020000400201F
:100F5C00F003002004040020800400202DE9F0435D
:100F6C0085B006460F4614469846900000F096FD54
:100F7C008146F8B15C2000F091FD0546B0B15C22D1
:100F8C00002101F064FBC5F8309000230393029517
:100F9C000D9B01930C9B00934346224639463046E9
:100FAC00FFF79CFE284605B0BDE8F083484600F0EC
:100FBC0041FEF7E70546F5E710B5044690F85930C1
:100FCC0063B1012B11D0022B0ED04FF0200383F311
:100FDC001188BFF36F8FBFF34F8FFEE7006B00F0EC
:100FEC0029FE204600F026FE10BD00F023FEFBE794
:100FFC000F4B1B68D3B110B500F0EAFB0D4BDB684F
:10100C00DC68201D00F05BFB0B4A1368013B13608E
:10101C00074A1368013B136000F0FCFB2046FFF706
:10102C00CBFF034B1B68002BE6D110BD704700BFF4
:10103C0024040020280400200C04002008B5FFF72D
:10104C00D7FF074B1B68012BF9D94FF0E0234FF06A
:10105C008052C3F8042DBFF34F8FBFF36F8FEEE7B1
:10106C00800400202DE9F04104460D46254B1E68F6
:10107C00254B1F68254BD3F80080254B186804308E
:10108C0000F01DFB48B9224B1B68DB6A01229A4019
:10109C0020490B6823EA02030B60B4F1FF3F0DD02B
:1010AC0034441B4B1B685C60A6421DD9184B196855
:1010BC000431404600F0EAFABDE8F081002DEFD093
:1010CC00154A5168124B1868816018688C68C460A6
:1010DC001868043060601868043088601B685A61B6
:1010EC00136801331360E7E7094B1968043138467C
:1010FC0000F0CCFA094B1B68A342DDD9074B1C60EE
:10110C00DAE700BF0804002054040020500400203B
:10111C00E40400200404002010040020EC03002050
:10112C0010B586B00024059405AC03940A9C029477
:10113C00099C0194089C0094FFF72DFE08B1FFF761
:10114C00A7FE059806B010BD30B58DB000230893EE
:10115C0009930A930B930E2B09D8184AD25C03F10E
:10116C003001694401F8102C0AB10133F3E7303334
:10117C006B44002403F8104C002C02DD01200DB050
:10118C0030BD0025069507950DF1160207A906A896
:10119C00FFF72AF8069B0293079B019300952B46B9
:1011AC00BDF8162008A90648FFF7BAFF054B43F80F
:1011BC00240008B10134DFE70020E0E7082700082D
:1011CC0049100008E803002000B583B0DDF814C016
:1011DC00CDF804C0DDF810C0CDF800C0FFF7BEFE9E
:1011EC0028B1FFF755FE012003B05DF804FB4FF06A
:1011FC00FF30F9E708B5FFF7A7FF012805D0B0F1DC
:10120C00FF3F17D0104B1B6808BD4FF0200383F332
:10121C001188BFF36F8FBFF34F8F0C4B4FF0FF3222
:10122C001A600B4B01221A600A4B00221A6000F064
:10123C0029FBE7E74FF0200383F31188BFF36F8F8F
:10124C00BFF34F8FFEE700BFA4270008EC0300207C
:10125C000004002008040020024A136801331360C4
:10126C00704700BFE4030020014B1868704700BFB3
:10127C0008040020F8B5524B1B68002B40F09980F5
:10128C00504B1C6801341C60C4B94F4B1B681B6865
:10129C0043B14FF0200383F31188BFF36F8FBFF37B
:1012AC004F8FFEE7484A1168484B18681060196068
:1012BC00474A136801331360FFF7FCFC454B1B686E
:1012CC00A34211D90020444B1B68DB6A03EB830358
:1012DC009A00424B9B58012B00D90120404B1B68B4
:1012EC00002B6BD0012069E0002037E0394B4FF028
:1012FC00FF321A60E7E7374B1A60E4E7D9685160B0
:10130C0042E000219962116801391160DA6A012109
:10131C009140344E376839433160304902EB8202D8
:10132C004FEA820C8C44DCF804209A609668DE60EC
:10133C0075609560DA6A02EB820C4FEA8C056E18C8
:10134C005E614D5901354FEA8C0C41F80C50DA6A4C
:10135C00214B1B68DB6A9A4200D901201A4B1B688F
:10136C001B68002BC2D0184B1B68DB68DB685A6803
:10137C009442C0D35A699D68D968A9609D684D6034
:10138C0051681D1DA942B9D000215961116801395C
:10139C0011609A6A002AB9D0DE69196AB160DE69F7
:1013AC004E60566803F118018E42AAD1196A516039
:1013BC00A7E70D4A1368013313600020F8BD00BF86
:1013CC00E4030020080400205404002050040020F2
:1013DC00F4030020EC030020E4040020800400202F
:1013EC00F803002004040020FC03002038B500F0B2
:1013FC00EFF94C4B1B6843B94FF0200383F3118872
:10140C00BFF36F8FBFF34F8FFEE7464B1A68013A5D
:10141C001A601B68002B7FD1434B1B683BB900241F
:10142C007BE0196A516015E0D968516021E0002316
:10143C003E4A1268002A4AD03C4BDB68DB689A6A49
:10144C00D869196A8160D8694860506803F118013D
:10145C008842E6D0002199621168013911605A69FD
:10146C009868D9688160986848605168181D8142F5
:10147C00DAD000215961116801391160DA6A012151
:10148C0091402B4C2568294321602A4902EB8202AA
:10149C0001EB820252689A609468DC606060906034
:1014AC00DA6A02EB820001EB80045C6151F82000E7
:1014BC00013002EB820241F82200D96A1E4A1268FE
:1014CC00D26A9142B4D91D4A01211160B0E70BB127
:1014DC00FFF7F0FB1A4B1C6894B9184B1C68E4B16D
:1014EC00154B1B684FF0E0234FF08052C3F8042DCE
:1014FC00BFF34F8FBFF36F8F01240EE0013C07D079
:10150C00FFF7B8FE0028F9D00C4B01221A60F5E762
:10151C000B4B00221A60E0E7002400F07BF9204618
:10152C0038BD00BFE40300200C0400203C04002064
:10153C000404002080040020E4040020F8030020B0
:10154C00FC03002010B550B94FF0E0234FF080524F
:10155C00C3F8042DBFF34F8FBFF36F8F10BD04463C
:10156C00FFF77AFE0A4B1B68012B08D04FF02003C3
:10157C0083F31188BFF36F8FBFF34F8FFEE700210A
:10158C002046FFF76FFDFFF731FF0028E6D1DBE7C0
:10159C00E403002008B5314B1B681BB1304B012212
:1015AC001A6008BD2E4B00221A602E4B1A68126B63
:1015BC00196809681B681B6B994203D91368B3F14E
:1015CC00A53F1BD0274B196818683431FEF718FE5D
:1015DC00254B1B68B3FA83F3DBB2C3F11F0303EB98
:1015EC0083018A0021498A58AAB94FF0200383F35A
:1015FC001188BFF36F8FBFF34F8FFEE75368B3F1C2
:10160C00A53FDFD19368B3F1A53FDBD1D368B3F12C
:10161C00A53FD7D1DCE7154803EB83018A000244D0
:10162C0051684968516003EB830C4FEA8C02083215
:10163C00024491420AD003EB83039A000B4B1344F0
:10164C005B68DA68074B1A601B68AAE76246910070
:10165C0002460A44D1685160EDE700BFE403002064
:10166C00F8030020E404002004040020800400207F
:10167C0000F1080343604FF0FF328260C3600361E6
:10168C0000230360704700230361704730B40D687A
:10169C00B5F1FF3F11D000F108031C465B681A68D6
:1016AC00AA42FAD963684B6099608C6061600861EA
:1016BC0003680133036030BC70470469F2E70369C7
:1016CC00416882688A60416851605A68824205D0DC
:1016DC0000220261186801381860704782685A60ED
:1016EC00F6E7000082B0002301930D4B1B68B3F1A9
:1016FC00FF3F08D04FF0200383F31188BFF36F8FA7
:10170C00BFF34F8FFEE74FF0200383F31188BFF335
:10171C006F8FBFF34F8F019B002BFCD002B0704733
:10172C0004000020074B19680868B0E8F00F80F33C
:10173C000988BFF36F8F4FF0000080F311884EF0D3
:10174C000D0E7047E404002006480068006880F322
:10175C00088862B661B6BFF34F8FBFF36F8F00DF9F
:10176C0000BF000008ED00E0EFF30980BFF36F8FBE
:10177C000D4B1A6820E9F00F10602DE908404FF06E
:10178C00200080F31188FFF705FF4FF0000080F375
:10179C001188BDE8084019680868B0E8F00F80F3BC
:1017AC000988BFF36F8F7047E40400204FF08073FB
:1017BC0040F8043C21F0010140F8081C034B40F8B0
:1017CC000C3C40F8202C4038704700BFF116000844
:1017DC004FF0200383F31188BFF36F8FBFF34F8F4C
:1017EC000B4A136801331360012B00D070474FF084
:1017FC00E023D3F8043D13F0FF0FF7D04FF0200394
:10180C0083F31188BFF36F8FBFF34F8FFEE700BFD9
:10181C0004000020094B1B6843B94FF0200383F3ED
:10182C001188BFF36F8FBFF34F8FFEE7013B034A65
:10183C0013600BB983F31188704700BF04000020BC
:10184C0008B54FF0200383F31188BFF36F8FBFF3FC
:10185C004F8FFFF70FFD28B14FF0E0234FF0805270
:10186C00C3F8042D002383F3118808BD4FF0E02347
:10187C0000221A619A61024A5A6107221A61704762
:10188C003F1901004FF0E023D3F8083DD96A454ACF
:10189C00914208D04FF0200383F31188BFF36F8F70
:1018AC00BFF34F8FFEE79A6B3F4B9A4208D04FF035
:1018BC00200383F31188BFF36F8FBFF34F8FFEE7C5
:1018CC0010B582B000230193384B1A78D2B28DF840
:1018DC000220FF221A701B78DBB28DF803309DF8C2
:1018EC00033003F02003324A137043B94FF0200346
:1018FC0083F31188BFF36F8FBFF34F8FFEE79DF813
:10190C00033013F0200F08D14FF0200383F311881C
:10191C00BFF36F8FBFF34F8FFEE79DF8033013F0CB
:10192C00800F09D0019B013301939DF803305B00BC
:10193C00DBB28DF80330F0E7019B082B2ED0019B16
:10194C00C3F107031B4A13601A4A13681B02136086
:10195C0003F4E06313609DF80230DBB2134A13709A
:10196C004FF0E023D3F8202D42F47F02C3F8202D52
:10197C00D3F8202D42F07F42C3F8202D0024C3F869
:10198C001C4DFFF773FF0C4B1C60FFF7DDFEFFF7E0
:10199C0001FEFFF7A7FE204602B010BD054B00224A
:1019AC001A60D1E7311700087517000800E400E051
:1019BC00EC040020E804002004000020104A12F07F
:1019CC00070F1AD0D11D21F00701C1F52053134484
:1019DC000A460C480260002141601344083B23F086
:1019EC0007030948036059601960991A5160136024
:1019FC00064B1960064B196070474FF42053E8E70B
:101A0C000C0500200405002000050020F80400202F
:101A1C00FC0400201D4B19461B688342FBD31B4A58
:101A2C0091420ED01A4A914202D31A4A914208D9D5
:101A3C004FF0200383F31188BFF36F8FBFF34F8FE9
:101A4C00FEE74A6801EB020C844509D0426800EBC2
:101A5C00020C634509D00360884200D008607047CF
:101A6C00406802444A600846F0E7DFF82CC0DCF816
:101A7C0000C0634506D05B681A4442600B681B6863
:101A8C000360E9E7C0F800C0E6E700BF04050020EA
:101A9C000C0500200B2D00200005002038B5044655
:101AAC0070B110F1090F0AD8083414F0070307D0ED
:101ABC00C3F10802093BA34223D3144400E00024E1
:101ACC00FFF7CAFB544B1B68EBB1002CC0F28D80A6
:101ADC00002C00F08C80514B1868A042C0F096800E
:101AEC004F4B1B684F4A934202D34F4A934229D91A
:101AFC004FF0200383F31188BFF36F8FBFF34F8F29
:101B0C00FEE70024DCE7FFF759FFDEE700219C46E7
:101B1C0079B113465A68A24217D21A68AAB1414940
:101B2C008A42F3D340498A4201D90021EFE70121CF
:101B3C00EDE74FF0200383F31188BFF36F8FBFF3F2
:101B4C004F8FFEE7DFF8D8C0E4E7334A12689A42B9
:101B5C005ED0DCF800500835324A954202D3324A46
:101B6C00954208D94FF0200383F31188BFF36F8F90
:101B7C00BFF34F8FFEE71A68CCF800205A68A242D8
:101B8C000FD3121B102A1CD9191911F0070F11D0E1
:101B9C004FF0200383F31188BFF36F8FBFF34F8F88
:101BAC00FEE74FF0200383F31188BFF36F8FBFF371
:101BBC004F8FFEE74A605C60DCF800201A51CCF8CD
:101BCC0000105A68801A154908601849096888423B
:101BDC0001D21649086042F000425A6000221A6095
:101BEC00134A13680133136002E0002500E000255E
:101BFC00FFF7FCFB15F0070F0CD04FF0200383F31D
:101C0C001188BFF36F8FBFF34F8FFEE70025EFE70F
:101C1C000025EDE7284638BD00050020FC04002017
:101C2C00040500200C0500200B2D0020F8040020DA
:101C3C00F4040020002841D038B50446A0F1080572
:101C4C001F4B9D420FD31F4B9D420CD850F8043CA8
:101C5C00002B11DB4FF0200383F31188BFF36F8F40
:101C6C00BFF34F8FFEE74FF0200383F31188BFF3D0
:101C7C006F8FBFF34F8FFEE750F8082C42B14FF037
:101C8C00200383F31188BFF36F8FBFF34F8FFEE7F1
:101C9C0023F0004340F8043CFFF7DEFA54F8041C30
:101CAC00094A13680B4413602846FFF7B3FE074A32
:101CBC00136801331360FFF799FB38BD704700BF01
:101CCC000C0500200B2D0020FC040020F00400204B
:101CDC007047000010B504460E4B1A784FF47A7317
:101CEC00B3FBF2F30C4A1068B0FBF3F000F086F88B
:101CFC0068B90F2C01D901200AE0002221464FF0CF
:101D0C00FF3000F06BF8054B1C60002000E0012058
:101D1C0010BD00BF08000020000000200C000020B7
:101D2C0008B5074A136843F010031360032000F052
:101D3C0043F80F20FFF7CEFFFFF7CAFF002008BDC6
:101D4C0000200240014B1868704700BF0C2D00208A
:101D5C00002808DB0901C9B200F1604000F56140C0
:101D6C0080F80013704700F00F000901C9B2014B55
:101D7C001954704714ED00E000B500F00700C0F1F5
:101D8C00070CBCF1040F28BF4FF0040C031D062BED
:101D9C000FD9C31E4FF0FF3E0EFA0CF021EA0001E2
:101DAC0099400EFA03FE22EA0E0241EA02005DF8A7
:101DBC0004FB0023EEE70000074AD36823F4E0633A
:101DCC001B041B0C000200F4E060034343F0BF63F0
:101DDC0043F40033D360704700ED00E010B50446C7
:101DEC00054BD868C0F30220FFF7C6FF014620461A
:101DFC00FFF7AEFF10BD00BF00ED00E00138B0F101
:101E0C00807F0BD24FF0E0235861054AF02182F815
:101E1C0023100020986107221A6170470120704737
:101E2C0000ED00E082B0084B1B68084AA2FB0323BC
:101E3C005B0A00FB03F3019300BF019B5A1E019246
:101E4C00002BF9D102B0704700000020D34D621076
:101E5C00002800F0F18170B582B00446036813F0DD
:101E6C00010F2CD0994B5B6803F00C03042B1DD095
:101E7C00964B5B6803F00C03082B12D06368B3F528
:101E8C00803F41D0002B55D103F1804303F504333F
:101E9C001A6822F480321A601A6822F480221A60BE
:101EAC0037E08A4B5B6813F4803FE7D0874B1B68A5
:101EBC0013F4003F03D06368002B00F0BF8123684C
:101ECC0013F0020F75D0814B5B6813F00C0F5FD0D1
:101EDC007E4B5B6803F00C03082B54D02369002B5A
:101EEC0000F08A807A4B01221A60FFF72BFF05461F
:101EFC00764B1B6813F0020F75D1FFF723FF401BC5
:101F0C000228F5D903209EE1704A136843F480330C
:101F1C001360636843B3FFF715FF05466B4B1B68F3
:101F2C0013F4003FCBD1FFF70DFF401B6428F5D90C
:101F3C00032088E1B3F5A02F09D0644B1A6822F472
:101F4C0080321A601A6822F480221A60E1E703F1E9
:101F5C008043A3F53C331A6842F480221A601A6855
:101F6C0042F480321A60D4E7FFF7ECFE0546574B7B
:101F7C001B6813F4003FA2D0FFF7E4FE401B64285B
:101F8C00F5D903205FE1514B5B6813F4803FA5D179
:101F9C004E4B1B6813F0020F03D02369012B40F04A
:101FAC004F814A4A136823F0F803616943EAC1037D
:101FBC001360236813F0080F33D0A369002B5CD097
:101FCC00434B0122C3F88024FFF7BCFE05463F4B70
:101FDC005B6A13F0020F21D1FFF7B4FE401B0228FD
:101FEC00F5D903202FE1394A136823F0F80361690E
:101FFC0043EAC1031360DCE7354B00221A60FFF79C
:10200C00A1FE0546314B1B6813F0020FD1D0FFF730
:10201C0099FE401B0228F5D9032014E10120FFF79B
:10202C0001FF236813F0040F00F09680274BDB6947
:10203C0013F0805F34D1254BDA6942F08052DA61BB
:10204C00DB6903F080530193019B0125214B1B6835
:10205C0013F4807F26D0E368012B3DD0002B53D1A5
:10206C0003F1804303F504331A6A22F001021A6269
:10207C001A6A22F004021A6233E0154B0022C3F8EC
:10208C008024FFF75FFE0546104B5B6A13F0020FCE
:10209C00C7D0FFF757FE401B0228F5D90320D2E02A
:1020AC000025D3E70B4A136843F480731360FFF7E2
:1020BC0049FE0646074B1B6813F4807FCBD1FFF714
:1020CC0041FE801B6428F5D90320BCE000100240BF
:1020DC0000004242007000405F4A136A43F0010363
:1020EC001362E36833B3FFF72DFE06465A4B1B6AA7
:1020FC0013F0020F2FD1FFF725FE801B41F288331E
:10210C009842F3D903209EE0052B09D0524B1A6A52
:10211C0022F001021A621A6A22F004021A62E0E743
:10212C004D4B1A6A42F004021A621A6A42F001021A
:10213C001A62D6E7FFF706FE0646474B1B6A13F0FA
:10214C00020F08D0FFF7FEFD801B41F28833984246
:10215C00F3D9032077E0E5B9E369002B72D03E4A4E
:10216C00526802F00C02082A56D0022B17D03B4BB7
:10217C0000221A66FFF7E6FD0446374B1B6813F086
:10218C00007F47D0FFF7DEFD001B0228F5D90320A6
:10219C0059E0314AD36923F08053D361DCE72F4BEC
:1021AC0000221A66FFF7CEFD05462B4B1B6813F079
:1021BC00007F06D0FFF7C6FD401B0228F5D903208F
:1021CC0041E0236AB3F5803F1AD023494B6823F4CE
:1021DC007413226A606A024313434B601F4B012243
:1021EC001A66FFF7AFFD04461B4B1B6813F0007F0C
:1021FC000ED1FFF7A7FD001B0228F5D9032022E022
:10220C00154A536823F40033A1680B435360DCE791
:10221C00002018E0002016E0012B16D00E4B5B6856
:10222C0003F48031226A914211D103F47013626A73
:10223C0093420ED1002006E001207047012002E0FD
:10224C00012000E0002002B070BD0120FBE701205E
:10225C00F9E70120F7E700BF0010024000004242FE
:10226C000F4B5B6803F00C02082A01D00D48704735
:10227C00C3F383420C49885C13F4803F0BD0084BAA
:10228C005B68C3F34043094AD35C064A02FB00F087
:10229C00B0FBF3F07047064B03FB00F0704700BF38
:1022AC000010024000127A00AC270008A827000892
:1022BC0000093D00002800F0A08070B50D460446D2
:1022CC00524B1B6803F007038B420BD24F4A136827
:1022DC0023F007030B431360136803F007038B42CF
:1022EC0040F08D80236813F0020F17D013F0040F09
:1022FC0004D0474A536843F4E0635360236813F0F7
:10230C00080F04D0424A536843F460535360404A68
:10231C00536823F0F003A1680B435360236813F058
:10232C00010F31D06368012B20D0022B25D0384A05
:10233C00126812F0020F64D035494A6822F0030289
:10234C0013434B60FFF7FEFC0646314B5B6803F012
:10235C000C036268B3EB820F16D0FFF7F3FC801B03
:10236C0041F288339842F0D9032045E0284A12689C
:10237C0012F4003FE0D101203EE0254A126812F031
:10238C00007FD9D1012037E0204B1B6803F00703F5
:10239C00AB420AD91D4A136823F007032B43136081
:1023AC00136803F00703AB422DD1236813F0040F1D
:1023BC0006D0174A536823F4E063E1680B4353607B
:1023CC00236813F0080F07D0114A536823F46053A5
:1023DC00216943EAC1035360FFF742FF0C4B5B6872
:1023EC00C3F303130B4AD35CD8400B4B18600B4B55
:1023FC001868FFF76FFC002070BD012070470120AA
:10240C00FAE70120F8E70120F6E700BF00200240C0
:10241C000010024094270008000000200C0000204F
:10242C0070B582B00024A4469EE07C4DAB4214D023
:10243C000CD8A5F58015AB420FD005F57025AB4235
:10244C000BD0A5F58015AB421FD106E0744DAB4205
:10245C0003D005F58035AB4217D18B68A3B1012BA6
:10246C000DD04261082410E0CC680EE0CC68043436
:10247C000BE0CC68083408E0CC680C3405E0026151
:10248C00082402E0002400E00424BEF1FF0F37D83A
:10249C0006464FEA8C0233680F25954023EA050364
:1024AC0004FA02F2134333604B6813F0805F59D087
:1024BC005C4B9A6942F001029A619B6903F001033B
:1024CC000193019B4FEA9C02951C574B53F82560D6
:1024DC000CF00305AD000F23AB4026EA0306534B6B
:1024EC00984214D003F58063984279D003F5806349
:1024FC00984277D003F58063984206D0042307E016
:10250C00061DACF108029200C5E7032300E000238E
:10251C00AB4033430232444D45F822304B6813F440
:10252C00801F61D0424A936843EA0E0393604B6864
:10253C0013F4001F5ED03E4AD36843EA0E03D36007
:10254C004B6813F4003F5BD0394A536843EA0E03DF
:10255C0053604B6813F4803F58D0354A136843EAF4
:10256C000E0313600CF1010C0B6833FA0CF253D010
:10257C00012202FA0CF203EA020E32EA0303F1D151
:10258C004B68122B3FF651AF122B3FF67EAF01A5D5
:10259C0055F823F067240008752400087F240008F0
:1025AC009124000897240008972400089724000819
:1025BC009724000897240008972400089724000803
:1025CC0097240008972400089724000897240008F3
:1025DC009724000897240008792400088524000813
:1025EC00012395E7022393E7114A936823EA0E032C
:1025FC0093609CE70E4AD36823EA0E03D3609FE7EF
:10260C000B4A536823EA0E035360A2E7084A136887
:10261C0023EA0E031360A5E702B070BD0000221080
:10262C000000311000100240000001400008014081
:10263C00000401408368194201D00120704700203A
:10264C0070470AB101617047090401617047034684
:10265C000244934200D1704703F8011BF9E70000D4
:10266C0070B500260C4D0D4B5B1B9C10A64209D17E
:10267C00002600F019F80A4D0A4B5B1B9C10A64271
:10268C0005D170BD55F8043B98470136EEE755F877
:10269C00043B98470136F2E7C4270008C42700081A
:1026AC00C4270008C8270008F8B500BFF8BC08BC50
:1026BC009E467047F8B500BFF8BC08BC9E467047F4
:1026CC006B657931000000006C656431000000001E
:1026DC004170705374617274000000006B65793244
:1026EC00000000006B657933000000006C656432FB
:1026FC00000000006C6564330000000049444C4548
:10270C00000000001D030008E302000800000000A8
:10271C00B3020008CC26000800080140100000009D
:10272C0000000000E826000800080140200000001E
:10273C0000000000F026000800080140080000001E
:10274C000000000001050008C5040008000000009E
:10275C009104000875040008D426000800100140FC
:10276C000020000001000000F826000800080140CD
:10277C00040000000100000000270008000C0140CC
:10278C00002000000000000000000000000000001D
:10279C0001020304060708090400000001020000FE
:1027AC0002030405060708090A0B0C0D0E0F101086
:0827BC0050D9FF7F010000006D
:0427C40045010008C3
:0427C80021010008E3
:1027CC0000127A00AAAAAAAA0100000010000000B8
:0400000508000C756E
:00000001FF
