:020000040800F2
:1000000000500020D59F00081DA000081DA000087A
:100010001DA000081DA000081DA000080000000091
:100020000000000000000000000000005DCE00089D
:100030001DA0000800000000A1CE000879CF000834
:100040001DA000081DA000081DA000081DA000089C
:100050001DA000081DA000086D540008775400087A
:10006000815400088B540008955400081DA0000816
:100070001968000829680008D9670008E9670008BE
:1000800009680008F96700081DA000081DA0000805
:100090001DA000081DA000081DA00008A154000814
:1000A0001DA00008E55D00081DA000081DA00008B7
:1000B000FD5D0008195E0008355E00081DA00008FF
:1000C0001DA000081DA000081DA000081DA000081C
:1000D0001DA0000839680008516800086D68000814
:1000E000C55400081DA000081DA000080000000065
:1000F0000000000000000000000000000000000000
:0C01000000000000000000005FF808F1A3
:10010C007BB972B90029BEBF00204FF0004106E058
:10011C0008BF00281CBF6FF000414FF0FF3000F00B
:10012C0057B8ADF1080C6DE904CE002909DB002BA2
:10013C001ADB0DF05DFBDDF804E0DDE9022304B011
:10014C007047404261EB4101002B1BDB0DF050FB73
:10015C00DDF804E0DDE9022304B0404261EB41012B
:10016C00524263EB43037047524263EB43030DF07F
:10017C003FFBDDF804E0DDE9022304B0404261EB13
:10018C0041017047524263EB43030DF031FBDDF844
:10019C0004E0DDE9022304B0524263EB43037047F1
:1001AC0053B94AB9002908BF00281CBF4FF0FF31D2
:1001BC004FF0FF3000F00CB8ADF1080C6DE904CE37
:1001CC000DF016FBDDF804E0DDE9022304B0704706
:1001DC00704700BF10F8012B11F8013B012A28BF12
:1001EC009A42F7D0D01A7047034613F8012B002A15
:1001FC00FBD1181A0138704710B5054C237833B968
:10020C00044B13B10448AFF300800123237010BDDD
:10021C0060000020000000003CEF000808B5034B14
:10022C001BB103490348AFF3008008BD0000000078
:10023C00640000203CEF000800B587B03E4809F090
:10024C00CBFD02F03FF8002857D109213B4805F0BF
:10025C0067FB05F091FB3A4A3A49022009F0C2FDCE
:10026C00002000F00BFF00284AD1374A3549022004
:10027C0009F0B8FD002001F0AFF9002843D1334A52
:10028C003049022009F0AEFD01A800230193436020
:10029C008360C36003612E4B01932E4B02932E4B54
:1002AC00039301F0F1FD88BB2C4A2649022009F08A
:1002BC0099FD00F07DFC60BB294A2249022009F01F
:1002CC0091FD00F03FFF38BB01F0AEFA38BB01F0F6
:1002DC00ADFE38BB00F054FD38BB01F09DFC38BBC3
:1002EC00204A1849022009F07DFD0BF0A3FB01F018
:1002FC00C9FF002007B05DF804FB01F0C3FFA4E7C1
:10030C0001F0C0FFB1E701F0BDFFB8E701F0BAFFA3
:10031C00CAE701F0B7FFCFE701F0B4FFD4E701F073
:10032C00B1FFD4E701F0AEFFD4E701F0ABFFD4E7A7
:10033C0001F0A8FFD4E700BFE5590008A8EF0008BA
:10034C00B4EF0008C4EF0008CCEF0008DCEF0008A5
:10035C00ECEF0008F4EF0008FCEF00080CF00008CC
:10036C001CF000082CF00008034B0360034B0B60DF
:10037C0040231380704700BF7C0100207C000020CC
:10038C0008B506F07FFC05F0ABF808BD00BEFEE733
:10039C000378427843EA0223827843EA0243C07826
:1003AC0043EA006070470378427843EA022000B2C7
:1003BC0070470170C1F30721417070470138032861
:1003CC0009D8DFE800F0020A040605487047054822
:1003DC00704705487047054870470548704700BF8F
:1003EC0048F0000858F0000860F0000868F00008B9
:1003FC0050F0000800B585B0684600F0E9FE18B171
:10040C00002005B05DF804FB0298FAE730B58DB01A
:10041C00044608A800F0DCFE054601A801F018FB14
:10042C000146204B1B7823706DBB089B099A6370A7
:10043C00C3F30720A070C3F30740E0701B0E2371B9
:10044C006271C2F30723A371C2F30743E371120E67
:10045C002272D9B9039B049A6372C3F30723A37264
:10046C00E272C2F30722227399B100236373A37360
:10047C00E3730D4A13882374190A617401331380D2
:10048C0012200DB030BD00231A46D0E700231A46C7
:10049C00E2E79DF8183063739DF81930A3739DF84B
:1004AC001A30E5E7AC020020A802002000B589B0A4
:1004BC0001A801F0CDFA18B1002009B05DF804FBD9
:1004CC000798FAE700B583B08DF804008DF8051095
:1004DC0000231A4601A9034840690CF0F9F803B04F
:1004EC005DF804FBAC02002030B58DB00C46103822
:1004FC00072838D8DFE800F0040C143337393F46AE
:10050C00032A30D90846FFF743FF01F019FA2AE015
:10051C00012A28D90846FFF746FF01F01FFA22E00E
:10052C00062A20D908AD0023089309930A930B934C
:10053C00481CFFF738FFADF82000E01CFFF733FF35
:10054C00ADF82200601DFFF72EFFADF824002078D7
:10055C002946003818BF012001F016FA03E00021EB
:10056C000220FFF7AFFF0DB030BD0322224915204A
:10057C0001F0B0FDF7E7002AF5D009780720FFF766
:10058C00A1FFF0E704A90020049048608860C860CF
:10059C0008AC089009900A900B9001F023FA2146C0
:1005AC00012001F01FFA01ACBDF910102046FFF735
:1005BC0000FFBDF912100DF10600FFF7FAFEBDF9B0
:1005CC00141002A8FFF7F5FEBDF920100DF10A007A
:1005DC00FFF7EFFEBDF9221003A8FFF7EAFEBDF905
:1005EC0024100DF10E00FFF7E4FE0C22214617201B
:1005FC0001F070FDB7E700BF00F5000808B5C1B207
:10060C000520FFF75FFF08BD08B5C1B20420FFF756
:10061C0059FF08BD08B505F02FF908BD00B583B02A
:10062C008DF804008DF80510002300936A4601A98B
:10063C00094840690CF036F9009B4BB14FF0E023B0
:10064C004FF08052C3F8042DBFF34F8FBFF36F8F61
:10065C0003B05DF804FB00BFAC020020012900D000
:10066C00704708B50021D0B2FFF7D8FF08BD0000D5
:10067C0010B5104B1B78012B0BD00E4B1B78022B9B
:10068C0015D00C4B1B78042B01D0002102E001216A
:10069C0000E00121074CE06809F0CAFE217803292B
:1006AC0014BF00210121206909F0C2FE10BD0121F7
:1006BC00F0E700BFAC02002008B5054A0549002050
:1006CC0009F090FB044B03221A70FFF7D1FF08BD11
:1006DC0070F0000884F00008AC02002008B5074B4D
:1006EC001B78022B03D0054B1B78042B02D110F086
:1006FC00070F00D108BDFFF7DFFFFBE7AC020020BE
:10070C0008B50D4B1B78022B0FD00B4B1B78012B14
:10071C000BD0094B1B78042B07D000F083FD30B9AC
:10072C00054B01221A70FFF7A3FF012008BD024BF5
:10073C0003221A70F7E700BFAC02002008B538B3EB
:10074C001C4B1B78022B10D01A4B1B78012B15D08D
:10075C00184B1B78042B11D0164B1B7893B9154BE7
:10076C0001225A70FFF7CCFF18E0124B04221A70CA
:10077C00114A1249022009F035FB0FE00D4B012202
:10078C005A700BE00E4A0D49012009F02BFB05E0D5
:10079C00084B00225A701B78042B02D0FFF768FF1D
:1007AC0008BD0220034B1870064A044909F01AFBD5
:1007BC00F4E700BFAC02002088F0000884F00008C9
:1007CC009CF00008BCF0000808B5234B1B78012BEB
:1007DC000DD010F0040F1BD01F4B1B78022B03D035
:1007EC001D4B1B78042B13D1FFF766FF10E010F0A4
:1007FC00010F0ED110F0020F0AD0184A184901202F
:10080C0009F0F0FA144B00221A705A70FFF730FFFF
:10081C0008BD01F04BF8A8B9124A1149022009F0A1
:10082C00E1FA0D4B5B785BB104220B4B1A701B7811
:10083C00042BEBD10C4A0A49022009F0D3FAE5E764
:10084C000222F2E7094A0649002009F0CBFA024BD2
:10085C0003221A70DAE700BFAC02002004F1000892
:10086C0084F00008D0F0000888F00008ECF00008D4
:10087C0070B58EB004460D460AA900200A90486057
:10088C008860C86006AE069007900890099001F049
:10089C00A9F83146012001F0A5F8344E0FCE2060A6
:1008AC006160A260E36033782374BDF92830304A6C
:1008BC00182160180DF016F9BDF92C300093BDF914
:1008CC002A302C4A182104F130000DF00BF9BDF937
:1008DC001830294A182104F148000DF003F9BDF92C
:1008EC001C300093BDF91A30244A182104F1600021
:1008FC000DF0F8F802A800F06BFC00BB029B204A3C
:10090C00182104F178000DF0EDF81E4E0FCEC4F84E
:10091C009000C4F89410C4F89820C4F89C30338824
:10092C00A4F8A030184B07CBC4F8A800C4F8AC103E
:10093C00C4F8B0201B7884F8B430002312E0134BB9
:10094C0003CBA067E1671A889B78A4F8802084F811
:10095C008230DAE703EB430204EBC20245F82320B2
:10096C000133DBB2072BF5D90EB070BD30F10008A6
:10097C0044F1000850F1000864F1000870F100081F
:10098C0084F10008A0F10008B4F1000894F100080B
:10099C002DE9F04F8FB004460D460AA800F018FC64
:1009AC00074603A801F054F80646002F56D1DDF88F
:1009BC002890DDF82CB0002E54D1DDF81480DDF831
:1009CC0018A0334B334A182120460DF08BF804F154
:1009DC001807314B1878FFF7F1FC03462F4A182102
:1009EC0038460DF07FF84B462D4A182104F13000A3
:1009FC000DF078F85B462B4A182104F148000DF0F5
:100A0C0071F8CDF800A04346274A182104F1600084
:100A1C000DF068F804F1780046BB9DF820309DF885
:100A2C0021200092214A18210DF05CF804F190006D
:100A3C00FEB99DF822301E4A18210DF053F81D4EB8
:100A4C000FCEC4F8A800C4F8AC10C4F8B020C4F899
:100A5C00B430337884F8B830002314E04FF0000938
:100A6C00CB46A8E74FF00008C246AAE700231A4677
:100A7C00D7E70023DFE703EB430204EBC20245F8A0
:100A8C0023200133DBB2072BF5D90FB0BDE8F08F73
:100A9C00C4F10008CCF10008AC020020DCF1000825
:100AAC0084F10008E8F10008F8F1000808F20008E9
:100ABC001CF2000828F2000808B5094B1B78042B1F
:100ACC0008D008490848FFF763FF0821054809F0DA
:100ADC004FFA08BD03490448FFF7CAFEF5E700BF0B
:100AEC00AC020020C8010020E801002010B582B043
:100AFC00FFF7E2FF0AF0D8FF04460BE02B4B1B7804
:100B0C00032B29D0FFF7FCFD0AF0CEFF031BB3F536
:100B1C00FA7F45D200238DF804304FF4FA7201A904
:100B2C00224B58690BF08FFF9DF80430002BEBD053
:100B3C00013B062BE8D801A252F823F0090B000860
:100B4C00770B0008150B0008890B0008930B0008A5
:100B5C009D0B0008A30B000801F090F8134B00222A
:100B6C005A701A70FFF784FDCCE700F0D9FE0F4BDA
:100B7C0000225A701A70FFF77BFDC5E79DF805003F
:100B8C00FFF722FEC0E79DF80500FFF7A7FDBBE7C6
:100B9C00FFF792FDB8E79DF80500FFF7CFFDB3E72F
:100BAC00FFF78AFF0AF080FF0446B3E7AC0200208F
:100BBC0030B583B05E4809F00FF95E4A5E490220F9
:100BCC0009F010F95D4809F0D3FA5D4C60605D489E
:100BDC0009F0CEFAA0605C4809F0ECFBE0605B48E1
:100BEC0009F0E8FB20616368002B00F09580A36896
:100BFC00002B00F09480E368002B00F09380002819
:100C0C0000F09380183400230093234604F148022B
:100C1C00022108200BF0F9FC44F8040C4C4D012285
:100C2C00294654F8140C09F0E1FA0222294654F82A
:100C3C00100C09F0DBFA012154F8140C183C09F0E3
:100C4C00E7FA00285AD10121A06809F0E1FA05461B
:100C5C00002853D100213F4800F002FB00213E4800
:100C6C0000F026FF3D49002000F082FF00231A46C9
:100C7C003B493C4800F09AFF00231A463A493B484E
:100C8C0000F094FF3A4C00222146102001F07CF930
:100C9C0000222146112001F077F900222146122072
:100CAC0001F072F900222146132001F06DF90022A7
:100CBC002146142001F068F900222146152001F08C
:100CCC0063F900222146162001F05EF9002221462C
:100CDC00172001F059F90021264801F09DF909F07F
:100CEC0037F998B94FF4FA7004F098FD144B0022C0
:100CFC001A70FFF7BDFC284603B030BD1E4A0E49E2
:100D0C00002009F06FF86FF00405F4E71B4A0A495C
:100D1C00012009F067F8E5E76FF00405EBE76FF0E9
:100D2C000405E8E76FF00405E5E76FF00405E2E77A
:100D3C00E55900083CF2000884F000084CF2000869
:100D4C00AC02002054F200085CF2000864F20008C7
:100D5C0069060008150600080906000821060008A7
:100D6C000104000884F20008B904000888F20008A5
:100D7C00F5040008190400086CF200088CF2000855
:100D8C00154B5B69F3B1144B93F8C034EBB910B548
:100D9C0084B0124C029404F14C030193022300938F
:100DAC0000234FF480720E490E480AF059FD44F8A6
:100DBC00040C68B1A4F17403012283F8C024002050
:100DCC0004B010BD6FF0020070476FF00300704765
:100DDC004FF0FF30F4E700BFAC02002020030020EE
:100DEC00B0F20008F90A000808B5044BD3F8C8346F
:100DFC001BB1024AD2F8CC14984708BD70070020EA
:100E0C0010B5114B5C68D3F8D42401FB0421D3F842
:100E1C00D0240E4C84FB014E4FEAE17CCCEBAE1C93
:100E2C006244C3F8D0244FF47A7404FB1C11C3F849
:100E3C00D414811AB3F9080001FB00F002EBE03284
:100E4C00C3F8D02410BD00BF70070020D34D621032
:100E5C0008B50169C0680CF043FC08BD70B598B0CA
:100E6C00314B032283F8C424002583F8C0542C464C
:100E7C002E4604E0F31A2C4AD2689A4251DB2A4BD4
:100E8C005B89A34228D9284E7268D30E5101891A66
:100E9C0063F100039B0043EA91738900891843F1C5
:100EAC0000034FEAC30C4FF47A720023C8004CEADB
:100EBC005171FFF775F90AF0D1FF0AA9306909F0F1
:100ECC00D7FF58BB0F9B1D440134A4B295FBF4F61D
:100EDC00B342CFDD9B1BCEE701AC24220021204680
:100EEC000CF0A0FE049621460F4B186909F0FEFF8A
:100EFC0008B1002013E00AA90B4B186909F0B8FFE0
:100F0C0008B101200BE00AA8FFF7A2FF064BC3F8BB
:100F1C00D0040022C3F8D424012000E0002018B033
:100F2C0070BD0020FBE700BF70070020F8B5064637
:100F3C000D4614464FF0FF310D4BD3F868040BF0FF
:100F4C0031FE012800D0F8BD094FC7F8B464C7F8CA
:100F5C00B8540AF0A9FDC7F8BC0487F8C0440023B4
:100F6C001A461946D7F868040BF0B2FBEBE700BF42
:100F7C007007002030B591B00AF096FD0F903E4BF3
:100F8C005968CA0E4B015B1A62F10002920042EAE8
:100F9C0093729B00591842F10002D4004FF47A72FC
:100FAC000023C80044EA5171FFF7FAF8044609E03F
:100FBC000220FFF719FF304B022283F8C4240AF0F9
:100FCC0073FD0F9021460FA80AF0F0FE2A4B93F800
:100FDC00DC345BB1284B002283F8DC24FFF73EFFA6
:100FEC000028E5D00120FFF7FFFEE4E76946224B1D
:100FFC00186909F03DFF28BB1F4BD3F8D834022BDE
:10100C0010D81D4D0023C5F8D8346846FFF720FFD3
:10101C000599FFF7F5FE01220599D5F8D004FFF7E5
:10102C0085FFCFE76846FFF713FF134BC3F8D004D7
:10103C000022C3F8D424022283F8C4240820FFF72A
:10104C00D3FEDEE70C4AD2F8D8340133C2F8D834D8
:10105C00022BB7D992F8C434042BB3D01346042511
:10106C0082F8C45400221146D3F8D004FFF75EFF77
:10107C002846FFF7B9FEA5E7700700202F4B93F821
:10108C00C434002B54D110B5002838D00368002B81
:10109C0041D02A4A13604368002B40D1274B0522CC
:1010AC005A60B0F90830002B3CD1244B40F28F220F
:1010BC001A814389002B38D1204BC8225A81C3682E
:1010CC0003B964231D4CE360206809F093FE206192
:1010DC00002830D00622032109F0EAFE04F2B443C2
:1010EC000020186058609860D860D8611862586207
:1010FC0083F8280003F8500C01221A7410BD0F4B12
:10110C000F4A1A6005225A6040F28F221A81C822B7
:10111C005A816423D6E7094B094A1A60BBE7074A90
:10112C005360BEE7054A1381C3E7044A5381C6E7FF
:10113C006FF0030070476FF00400DFE770070020CA
:10114C00BCF200081D4B93F8C4346BB31B4B93F8E3
:10115C00643463BB10B584B0184BD3F86834DBB17E
:10116C00174C029404F14C030193032300930023C6
:10117C004FF48072134914480AF072FB44F8040CC3
:10118C00C0B1A4F11803012283F86424022283F86D
:10119C00C424002004B010BD0C4C214601200BF0DF
:1011AC0072FB44F8040CDBE76FF0020070476FF041
:1011BC00030070474FF0FF30ECE700BF70070020D2
:1011CC0088070020C4F20008810F0008DC0B002007
:1011DC00E8B138B50446124B93F8C434D3B14FF090
:1011EC00FF310F4BD3F868040BF0DCFC012814D151
:1011FC000B4D05F2B4430FCB84E80F0000231A46C5
:10120C001946D5F868040BF063FA002038BD6FF06E
:10121C00010070476FF00200F8E74FF0FF30F5E780
:10122C00700700200D4B93F8C43473B10B4B93F83B
:10123C00C434032B0CD0094B93F864345BB1074BCB
:10124C00012283F8DC24002070476FF00200704705
:10125C006FF0030070476FF00600704770070020B6
:10126C00064B93F8C43433B1044BC3F8C804C3F829
:10127C00CC14002070476FF00200704770070020FC
:10128C00C303094A82FB0312D817C0EBE210074ACA
:10129C00934204DC064A934204DB00B2704747F6E3
:1012AC00FF70FAE70348F8E7F1197605FFFFB70B73
:1012BC0091E847F40080FFFFC303094A82FB031245
:1012CC00D817C0EB6210B3F57A0F04DA054A9342D3
:1012DC0004DB00B2704747F6FF70FAE70248F8E704
:1012EC00D34D62100DFE05FF0080FFFF08B5044BC7
:1012FC00D3F814361BB1024AD2F81816984708BD19
:10130C00500C0020034AD2F860360B43C2F860360A
:10131C00704700BF500C002070B5431803EBD3731B
:10132C005D100F4CC4F8FC05C4F80016D4F8583600
:10133C00C4F80436D4F85806FFF7BEFF0646284614
:10134C00FFF7BAFF0246314604F5C7600CF0CEF841
:10135C00A37C0BB1404200B2014BA3F8540670BD04
:10136C00500C0020F8B50F46204BD3F85C3600FB30
:10137C0003F31F4A82FB0312DB17C3EB6213C51A7C
:10138C001C1803D4642C02DD642400E00024002D1E
:10139C0003DB642D02DD642500E00025134B1B7C70
:1013AC000BB387F00101114B5B7C0BB187F001078C
:1013BC0081F001010D4EC9B2706C09F091F987F002
:1013CC000101B06C09F08CF9E4B22146706C09F0A3
:1013DC0061F9EDB22946B06C09F05CF986F8084663
:1013EC0086F80956F8BD3946DDE700BF500C0020E1
:1013FC001F85EB5110B54FF0FF310C4BD3F8A805FE
:10140C000BF0D0FB012800D010BD084C94F810361E
:10141C0084F80A360AF048FBC4F80C0600231A4676
:10142C001946D4F8A8050BF053F9EDE7500C002041
:10143C0038B505460F4C606C09F04DF9A06C09F0FD
:10144C004AF9606C09F082F9A06C09F07FF904F29A
:10145C001C600CF014F804F5C7600CF010F80023B5
:10146C00A4F8543684F8113684F81056FFF7C2FFEE
:10147C0038BD00BF500C002070B588B00AF014FBCA
:10148C000790544B5969CA0E4B015B1A62F100026A
:10149C00920042EA93729B00591842F10002D40068
:1014AC004FF47A720023C80044EA5171FEF778FEBB
:1014BC00044609E00420FFF7BBFF0220FFF716FFEC
:1014CC00444B0022C3F86026214607A80AF06EFCA4
:1014DC00404BD3F86036002BECD103A8FFF778FE15
:1014EC000028F1D13B4B039AC3F8F425049AC3F8B6
:1014FC00F8250DF10B01586C09F042F918B99DF85B
:10150C000B30042B3BD0334B93F81136002B3DD0D2
:10151C009DF81830002B3CD0039B002BB8BF5B42CE
:10152C002C4AD2699A423BDB2A4AD2F86436013300
:10153C00C2F864369269934239D2264E306AFFF76C
:10154C009FFE85B2B6F854361D442DB20398FFF7B2
:10155C0097FE0246294606F21C600BF0C7FF80EA94
:10156C00E073A3EBE0739BB2642202FB03F3C0F3C2
:10157C00C031D813FFF7F6FEFFF73CFFA4E70420B9
:10158C00FFF756FF0220FFF7B1FE9DE7FFF732FF92
:10159C009AE70420FFF74CFF0420FFF7A7FE93E720
:1015AC000320FFF745FF0120FFF7A0FE8CE7094D54
:1015BC000023C5F86436009301936946E86C09F082
:1015CC0017FA01A9286D09F013FA01990098FFF791
:1015DC00A3FEB2E7500C002038B58A4B93F81036B6
:1015EC00002B40F0FF80002800F0BB800368002B2C
:1015FC0000F0CF80834A13604368002B00F0CD804D
:10160C00804A53608368002B00F0CB807D4A936046
:10161C00C368002B00F0C9807A4AD360037C002B8E
:10162C0000F0C780774B01221A74437C002B00F02A
:10163C00C480744B01225A74837C002B00F0C1804F
:10164C00704B01229A744369002B40F0BE806D4BA5
:10165C0005225A618369002B40F0BA80694B0A223B
:10166C009A61C369002B40F0B680664B4AF6C8728B
:10167C00DA61026A634B1A62B0F9243023B9B0F90B
:10168C002830002B00F0AA8000F12401436B002BC2
:10169C0000F0A68000F134045B4D28460BF0F4FEFC
:1016AC00214605F11C000BF0EFFEA5F21C65286825
:1016BC0008F0B2FF6864686808F0AEFFA864A86818
:1016CC0009F058F9E864E86809F054F9034628650C
:1016DC00686C002800F08980AA6C002A00F08880D1
:1016EC00EA6C002A00F08780002B00F08780474CC2
:1016FC000022214609F064F800222146A86C09F06A
:10170C005FF80121686C09F06DF80121A86C09F0F3
:10171C0069F80024C5F8F445C5F8F845C5F8FC454A
:10172C00C5F80046C5F80446C5F80846C5F80C4689
:10173C00C5F85846C5F85C46A5F85446C5F8644645
:10174C00C5F8604685F8114685F8A445012385F84F
:10175C001036686C08F0FAFFA86C08F0F7FF20460A
:10176C0038BD284B2A4A1A602A4A5A602A4A9A607B
:10177C002A4ADA6000221A745A749A740521596143
:10178C000A2199614AF6C871D9611A62244C25491B
:10179C0082E71C4B1E4A1A602EE71A4B1D4A5A60F0
:1017AC0030E7184B1C4A9A6032E7164B1B4ADA603A
:1017BC0034E7144B00221A7437E7124B00225A7488
:1017CC003AE7104B00229A743DE70E4A536141E709
:1017DC000C4A936145E70B4AD3614AE7114955E737
:1017EC000F4C59E76FF00300BAE76FF00400B7E74E
:1017FC006FF00400B4E76FF00400B1E76FF0040081
:10180C00AEE700BF500C00206C1200201113000832
:10181C00D0F20008D8F20008E0F20008F0F200085C
:10182C0004F5000814F500081B4B93F8103653B35D
:10183C00194B93F8A4354BBB10B584B0164BD3F8A9
:10184C00A835C3B1154C029404F14C030193042345
:10185C00009300234FF4A072114912480AF000F8CB
:10186C0044F8040CA8B1A4F15803012283F8A42570
:10187C00002004B010BD0C4C214601200BF003F8E5
:10188C0044F8040CDEE76FF0020070476FF00300C1
:10189C0070474FF0FF30ECE7500C0020A80C0020F4
:1018AC0000F3000885140008FC11002038B51A4B11
:1018BC0093F810364BB3184B93F8A43543B3164B2F
:1018CC00586C08F029FFE8B9134B986C08F024FF0A
:1018DC000546B8B9114C20460BF0D1FD04F11C00A3
:1018EC000BF0CDFD00232387A364012304F80B3CEC
:1018FC00022304F80C3CFFF77DFD0820FFF7F6FCF3
:10190C00284638BD6FF00405FAE76FF00205F7E7DB
:10191C006FF00605F4E700BF500C00206C1200209D
:10192C0008B5064B93F8103623B10120FFF780FD64
:10193C00002008BD6FF00200FBE700BF500C002038
:10194C00054B93F8103623B1034BC3F8580600200F
:10195C0070476FF002007047500C0020094B93F851
:10196C00103643B100F16403C82B07D8054BC3F8FC
:10197C005C06002070476FF0020070476FF00100AA
:10198C00704700BF500C00200B46F1B1124A92F880
:10199C001026EAB1B8B9114AB3F900101180B3F9A5
:1019AC0002105180B3F904109180B3F90600B3F919
:1019BC000810D0801181B3F90A10B3F90C305181A1
:1019CC00938100207047064AE6E76FF001007047EC
:1019DC006FF00200704700BF500C00206C1200200A
:1019EC00881200200B4619B3012824D8154A92F806
:1019FC0010261AB3D0B9144AB2F900101980B2F9F2
:101A0C0002105980B2F904109980B2F90610D980ED
:101A1C00B2F908101981B2F90A105981B2F90C10F7
:101A2C009981B2F91820DA8100207047074AE3E760
:101A3C006FF0010070476FF0010070476FF002000B
:101A4C00704700BF500C00206C1200208812002040
:101A5C0010B338B50446154B93F81036FBB14FF064
:101A6C00FF31124BD3F8A8050BF09CF8012819D1C3
:101A7C000E4DA44605F2F4540FCCACE80F0094E8DC
:101A8C0007008CE8070000231A461946D5F8A8056C
:101A9C000AF01EFE002038BD6FF0010070476FF099
:101AAC000200F8E74FF0FF30F5E700BF500C0020C4
:101ABC00064B93F8103633B1044BC3F81406C3F835
:101ACC001816002070476FF002007047500C002071
:101ADC00F0B583B009F0E8FF0190244B1968CA0EE9
:101AEC004B015B1A62F10002920042EA93729B0076
:101AFC00591842F10002D4004FF47A720023C80046
:101B0C0044EA5171FEF74CFB0746394601A80AF02E
:101B1C004DF9164B5B6803B1984709F0C5FF0646B3
:101B2C00002400E00134032CEFD804EB84020F4BAB
:101B3C0003EB82031B7E002BF4D00C4B03EB8203D4
:101B4C00DA68002AEED004EB8403084D05EB83051C
:101B5C0028699047301A6B698342E3D203498B6D35
:101B6C000122A24013438B65DCE700BFB8120020B2
:101B7C000D4B93F82C339BB900B964200A4A1060C2
:101B8C0051600023936507E003EB8301064A02EBE7
:101B9C008102002111760133032BF5D90020704707
:101BAC006FF00300704700BFB812002061B330B46F
:101BBC0004460D46174991F82C1341BB002003280D
:101BCC001FD800EB800C134901EB8C01097EB1B9D5
:101BDC0000EB800C0F4901EB8C018C60CD600A612D
:101BEC001BB90C4B1B6803EB430300EB8001094A48
:101BFC0002EB810253610123137630BC7047013034
:101C0C00DDE76FF00300F8E76FF0010070476FF04D
:101C1C000300F2E7B8120020144B1B68EBB1134B16
:101C2C0093F82C33E3B910B584B0114C029404F141
:101C3C004C030193012300930023A0220D490E486D
:101C4C0009F00EFE44F8040C68B1A4F16003012203
:101C5C0083F82C23002004B010BD6FF002007047F5
:101C6C006FF0030070474FF0FF30F4E7B81200201C
:101C7C00181300200CF30008DD1A00080020014B9B
:101C8C0098657047B8120020B0F8002192B2531C2E
:101C9C00DBB2B0F802C11FFA8CFC9C4504D0815415
:101CAC00A0F800310120704700207047B0F80231D5
:101CBC009BB2B0F8002192B29A4207D0C25C0A7073
:101CCC000133DBB2A0F802310120704700207047CD
:101CDC008446002210460EE04000C0B280F007009F
:101CEC000133DBB2072B05D810F0800FF4D1400084
:101CFC00C0B2F5E701328A4204D21CF802305840D7
:101D0C000023EFE770470000164AD2F88032013307
:101D1C00C2F88032002300E001330B2B20D8114A8B
:101D2C0002EB031292F8C021002AF5D00D4903F101
:101D3C001B0201EB0212127991F877018242EBD16E
:101D4C0010B503F11B0201EB0212946801EB0313B3
:101D5C00D3F8BC3191F8782101F5BD71A04710BDC5
:101D6C00704700BFE815002070B50E4615460024DC
:101D7C0000E00134AC420CD2315D0648FFF784FF21
:101D8C000028F6D10448D0F888320133C0F88832E4
:101D9C00EFE770BD5A160020E815002030B591B061
:101DAC000446384BD3F87C220132C3F87C2293F8DA
:101DBC007631042B60D8DFE803F0030A12273A00CF
:101DCC00A5280AD12F4B012283F8762105E02D4B53
:101DDC0083F87701022283F8762111B030BD3828C0
:101DEC0004D9284B002283F87621F6E7254B83F89B
:101DFC007801002283F8792120B90422214B83F841
:101E0C007621EAE70322F9E71E4A92F879114B1C76
:101E1C00DBB282F87931114481F87A0192F8782199
:101E2C009342DAD3174B042283F87621D5E7154970
:101E3C0081F8B201002381F8763191F877318DF871
:101E4C00043091F878518DF805502A4601F5BD7192
:101E5C000DF106000BF07AFFA91C01A8FFF738FF63
:101E6C00A04206D0074AD2F884320133C2F8843239
:101E7C00B3E7FFF749FFB0E7024B002283F8762166
:101E8C00ABE700BFE81500203C4B93F8E436002B81
:101E9C006BD170B5044648B305682DB3636843B382
:101EAC000123364A82F862302BBB002C3CD0E2680E
:101EBC00324B5A66237C314C84F86830284609F042
:101ECC00EBF8E066002853D0002284F870202C49EF
:101EDC0009F070F9034600284DD1A4F87201A4F85A
:101EEC00740184F876012BE0264DD7E7254D0023AD
:101EFC00D7E70023D5E716462022616830460BF061
:101F0C00B8FE002386F82030A16841B1213640226A
:101F1C0030460BF0AEFE002386F84030C7E7174B77
:101F2C00002283F82120C2E7144B64225A66002356
:101F3C00C1E7124A02EB0312002182F8C0110133EF
:101F4C000B2BF6D90D490023C1F87432C1F8783245
:101F5C00C1F87C32C1F88032C1F88432C1F88832C1
:101F6C00C1F88C32C1F8903270BD6FF0030070472D
:101F7C006FF00400F8E76FF00400F5E7E8150020B7
:101F8C00751D0008ECEF000870B54FF0000C6646AC
:101F9C0015E059B11F4B0CF11B0003EB00108160D5
:101FAC0003EB0C13C3F8BC2100202DE0194B03EB01
:101FBC000C13002083F8C00126E00CF1010CBCF1DD
:101FCC000B0F19D80CF11B03124C04EB0313043345
:101FDC0004EB0C1494F8C04144B10CF11B0E0D4DE4
:101FEC0005EB0E1E9EF804508542D2D0002CE4D195
:101FFC00002EE2D11E46E0E739B146B13070716077
:10200C00B26001233373002070BD0020FCE76FF039
:10201C000300F9E7E8150020034BC3F87402C3F87A
:10202C0078120020704700BFE815002070B5A0B0F2
:10203C00244BDC6E002C3BD093F8E436002B3AD1C9
:10204C00204B93F86230C3B91F4C029404F14C033B
:10205C0001930223009300234FF480721B491C4808
:10206C0009F0FEFB44F8040C40B3A4F526730122DE
:10207C0083F8E426002020B070BD05AD6B22002152
:10208C0028460BF0CFFD0F4E2022314628460BF090
:10209C00F0FD402206F121010DF135000BF0E9FDB8
:1020AC00FF238DF87E302946204609F033F8CBE724
:1020BC006FF00200DFE76FF00300DCE74FF0FF305A
:1020CC00D9E700BFE81500208018002014F30008A1
:1020DC008D210008382A47D870B590B014460AB143
:1020EC00002944D0254BDE6E002E43D0A5238DF85D
:1020FC0004308DF805008DF80640ECB9A11C0DF1EB
:10210C000500FFF7E5FD04F143030DEB030505F8AE
:10211C003C0C1A4B93F87030A3B96423221D01A90F
:10212C00304609F017F8B0B9144AD2F88C320133A2
:10213C00C2F88C3210B070BD22460DF107000BF0C6
:10214C0005FEDBE70D4AD2F890320133C2F890322B
:10215C006FF00400EEE7094AD2F890320133C2F86E
:10216C0090324FF0FF30E5E76FF0010070476FF0F1
:10217C000100DFE76FF00200DCE700BFE81500208C
:10218C0010B590B009F090FC0F90204B596EC1B176
:10219C004FF47A704FF47A720023A1FB0001FDF723
:1021AC00FFFF0446194BD86E08F092FFD0B1174BC5
:1021BC00012283F87020164A1649002007F012FEFF
:1021CC0010E00124EEE79DF83B00FFF7E7FD0DF171
:1021DC003B011148FFF76AFD0028F4D10B4BD3F8F3
:1021EC00743223B921460FA809F0E0FDEFE7074A46
:1021FC00D2F878126846984702460028F2D0694611
:10220C00024B93F86800FFF765FFEBE7E815002039
:10221C001CF3000814F300085A16002010B590B0F7
:10222C0006AC2822002120460BF0FCFC0023019375
:10223C000293039304930593012306934FF4803385
:10224C00079302220D920E934FF4E0130F93204646
:10225C0004F0CEFD78B90F230193022102910023E3
:10226C0003934FF480620492059301A804F0F2FFEB
:10227C0020B910B010BD6FF00A00FAE76FF00A0039
:10228C00F7E7000008B517210B4803F049FB72B6BD
:10229C000A4A936943F010039361094B5A6822F47C
:1022AC0070025A605A6842F400125A60DA6822F4DA
:1022BC000052DA6000BFFDE724F500080010024070
:1022CC000010014008B504F0CBFCFFF7A7FF002875
:1022DC0045D103F0DFFA002843D172B606212A4813
:1022EC0003F01EFB62B6294800F0D8F900283AD159
:1022FC000621274803F014FB03F026F9A8BB06219E
:10230C00244803F00DFB03F03FFA80BB0621224862
:10231C0003F006FB02F0E2FE58BB06211F4803F057
:10232C00FFFA02F095FC30BB06211D4803F0F8FAC9
:10233C0001F046FB08BB07211A4803F0F1FA00F044
:10234C0077FEE0B90621184803F0EAFA02F034FAF5
:10235C00B8B90621154803F0E3FA002008BDFFF7D1
:10236C0091FFFFF78FFFFFF78DFFFFF78BFFFFF755
:10237C0089FFFFF787FFFFF785FFFFF783FFFFF765
:10238C0081FFFFF77FFF00BF40F30008801A0600B3
:10239C0048F3000850F3000858F3000860F30008F5
:1023AC0068F3000870F3000878F3000880F3000865
:1023BC000268054B9A4200D07047044AD36923F453
:1023CC000013D361F8E700BF005400400010024036
:1023DC0000B170476420704782B0094B1B68094AF2
:1023EC00A2FB03231B0D00FB03F3019300E000BFD2
:1023FC00019B5A1E0192002BF9D102B0704700BF0D
:10240C000800002083DE1B4308B5021E18BF012202
:10241C004021024805F00BF908BD00BF000C01403B
:10242C0008B5021E18BF01228021024805F0FFF8F2
:10243C0008BD00BF000C014030B585B00F4D012226
:10244C00C021284605F0F3F8002300930193029372
:10245C00039311230193012302930223039340233B
:10246C0000936946284604F0D1FF80230093694607
:10247C00284604F0CBFF05B030BD00BF000C014076
:10248C0000B587B00B4B9A6942F008029A619B69C0
:10249C0003F008030193019B074B0DF1080C0FCBC4
:1024AC008CE80F006146054804F0B0FF07B05DF8FA
:1024BC0004FB00BF0010024054EF0008000C014068
:1024CC000268124B9A4200D0704710B586B0104C7F
:1024DC00A36943F00803A361A36903F00803009305
:1024EC00009B0C4B0DF1080C0FCB8CE80F006146D8
:1024FC00094804F08BFFE36943F40013E361E369DB
:10250C0003F400130193019B06B010BD005400406E
:10251C000010024054EF0008000C014008B5802167
:10252C00034805F07DF8012800D0002008BD00BF4D
:10253C00000C014008B54021034805F071F8012852
:10254C0000D0002008BD00BF000C014010B5FFF703
:10255C0073FFFFF7EFFFB8B300240F2C13D8FFF76E
:10256C00DDFF60BBFFF750FF0520FFF735FF0120B3
:10257C00FFF74AFF0520FFF72FFFFFF7DBFF30B314
:10258C000134E4B2E9E70023DBB1FFF7C7FFC0B1C8
:10259C00FFF7D0FFA8B10020FFF742FF0520FFF79F
:1025AC001BFF0120FFF730FF0520FFF715FF01206F
:1025BC00FFF736FF0520FFF70FFF002010BD0123AA
:1025CC00E2E76FF00400F9E76FF00400F6E76FF054
:1025DC000400F3E71C4B1B7853B310B504461B4B9C
:1025EC001B6843B309F0BCFD022827D1B4B1E30E3C
:1025FC006101091B63F100039B0043EA917389009D
:10260C00091943F10003DC004FF47A720023C8006F
:10261C0044EA5171FDF7C4FD014601E04FF0FF3172
:10262C000A4B18680AF0BEFA012809D1002006E00E
:10263C006FF0060070476FF0060000E0002010BD40
:10264C006FF00200FBE700BFDC1C0020D81C002050
:10265C0008B5104B1B789BB10F4B1B689BB109F055
:10266C007FFD022801D0002008BD00231A46194620
:10267C00094800680AF02CF8012807D10020F3E77C
:10268C006FF00600F0E76FF00600EDE74FF0FF305B
:10269C00EAE700BFDC1C0020D81C002030B583B05A
:1026AC00304A1278002A5AD103462F4A2F4911601A
:1026BC002F49D1672F49C2F8801000B92E4B2A48F8
:1026CC00436000238360C3604FF480420261436126
:1026DC008361C361036206F073F9F8B901200AF053
:1026EC00C7F8264B186008B3FFF730FF044618BB39
:1026FC00234BDA6942F40012DA61DB6903F400134C
:10270C000193019BFFF7BCFE174806F059F9E8B995
:10271C00144B01221A70204603B030BD184AD369FD
:10272C0023F40013D3616FF00404F4E70E4806F0B1
:10273C0053FA6FF00504EEE70B4806F04DFA0F4D17
:10274C0028680AF0F8FA00232B60E4E70B4C2068A9
:10275C000AF0F1FA002323606FF00404DBE76FF05A
:10276C000204D8E7DC1C0020E01C002000540040D0
:10277C00CD240008BD230008A0860100D81C002031
:10278C00001002402DE9F04385B01E46DDF8309074
:10279C00194B1B7803B304460F461546FAB10EB31A
:1027AC004846FFF715FE804664004846FFF712FFC7
:1027BC008146D0B9CDF808800196009501233A46A0
:1027CC0021460E4806F0E6FA0446FFF741FF7CB9B5
:1027DC00484605B0BDE8F0836FF00609F8E76FF0E6
:1027EC000109F5E76FF00109F2E76FF00209EFE775
:1027FC006FF00409ECE700BFDC1C0020E01C00209B
:10280C002DE9F04385B01E46DDF83090194B1B784E
:10281C0003B304460F461546FAB10EB34846FFF70C
:10282C00D7FD804664004846FFF7D4FE8146D0B9F8
:10283C00CDF808800196009501233A4621460E48B2
:10284C0006F058FB0446FFF703FF7CB9484605B079
:10285C00BDE8F0836FF00609F8E76FF00109F5E7C2
:10286C006FF00109F2E76FF00209EFE76FF004096E
:10287C00ECE700BFDC1C0020E01C00202DE9F0413F
:10288C0082B01F46184B1B78F3B104460D46164612
:10289C00E9B1FAB13846FFF79BFD80466400384633
:1028AC00FFF798FE0746C0B9CDF8008033462A469C
:1028BC0021460E4806F0B4F90446FFF7C9FE7CB970
:1028CC00384602B0BDE8F0816FF00607F8E76FF00C
:1028DC000107F5E76FF00107F2E76FF00207EFE78A
:1028EC006FF00407ECE700BFDC1C0020E01C0020AC
:1028FC000268124B9A4200D0704710B582B0002388
:10290C0001930F4A13700F4A146813600E4B18682A
:10291C0010B101A90AF036F80CB10020A047019BB8
:10292C004BB14FF0E0234FF08052C3F8042DBFF3AE
:10293C004F8FBFF36F8F02B010BD00BF005400402B
:10294C00D41C0020D01C0020D81C00200268124B84
:10295C009A4200D0704710B582B0002301930F4A01
:10296C0013700F4A146813600E4B186810B101A94C
:10297C000AF008F814B16FF00400A047019B4BB1AA
:10298C004FF0E0234FF08052C3F8042DBFF34F8F6C
:10299C00BFF36F8F02B010BD00540040D41C002058
:1029AC00D01C0020D81C002008B5FFF7CFFF08BDB5
:1029BC00F8B5124B1B78BBB105460C460846FFF721
:1029CC0007FD06462046FFF705FE074678B9334655
:1029DC00012205FA02F10A4806F036FC0446FFF71C
:1029EC0037FE3CB93846F8BD6FF00607FAE76FF0D2
:1029FC000207F7E76FF00407F4E700BFDC1C0020C8
:102A0C00E01C00208378032B13D8DFE803F00206C8
:102A1C000A0E4FF4FA63836070474FF47A63836055
:102A2C0070474FF4FA53836070474FF47A538360C6
:102A3C0070474FF4FA63836070470000C378032B30
:102A4C000FD8DFE803F00205080B074BC360704793
:102A5C00064BC3607047064BC3607047054BC360A1
:102A6C007047014BC360704790D0030020A1070052
:102A7C0040420F0080841E0010B94FF4FA5070478A
:102A8C004FF47A70704738B5054614460846FFF780
:102A9C00F3FF6B1E082B31D8DFE803F005321F2142
:102AAC002325272A2D00012282422BD8B0FBF2F3DA
:102ABC009BB2013B9BB2FF2B00D9FF232370013348
:102ACC0090FBF3F002EB42021346002A1DDB80B2AE
:102ADC00B0EBA30F1BDB012038BD1922E4E7322237
:102AEC00E2E76422E0E7C822DEE74FF4C872DBE7D6
:102AFC004FF44872D8E74FF4C862D5E76422D3E7A5
:102B0C000A22D1E700202070E6E7D31CDFE7002083
:102B1C00E2E7FF230B70002070476FF00C0070474A
:102B2C006FF00C0070470020086070470848407830
:102B3C0048B109B1032008600AB1002111602BB122
:102B4C000020188070476FF001007047002070471C
:102B5C007C1D00206FF00C0070470000124B5B785E
:102B6C00FBB110B599B1104C04F1140E8C46BCE8B5
:102B7C000F00AEE80F00BCE80F00AEE80F00DCF869
:102B8C000030CEF8003001232374002010BD06481D
:102B9C00002404742422214614300BF043F8204600
:102BAC00F4E76FF0010070477C1D002000B583B086
:102BBC000A46642300930123014605480078FFF779
:102BCC001FFE10B903B05DF804FB4FF0FF30F9E7BE
:102BDC007C1D002010B582B00C460C4B5B781BB9E9
:102BEC000B70002002B010BD0DF107016B20FFF738
:102BFC00DDFF38B99DF80730C3F3801383F0010370
:102C0C002370EEE703232370EBE700BF7C1D00204D
:102C1C0000B583B000238DF807300DF10701752046
:102C2C00FFF7C4FF40B99DF80700682814BF0020C7
:102C3C00012003B05DF804FB0020FAE779B11346DC
:102C4C000A467BB100B583B0642100910146084867
:102C5C000078FFF7D5FD40B903B05DF804FB6FF0C9
:102C6C00040070476FF0040070474FF0FF30F3E73B
:102C7C007C1D00205C4B5B78002B00F0B1802DE9B3
:102C8C00F04184B088460E2269463B20FFF7D6FF00
:102C9C00002840F08A809DF800703F023FB29DF8FA
:102CAC0001301F439DF80260360236B29DF80330A6
:102CBC001E439DF804502D022DB29DF805301D4386
:102CCC009DF806301B021BB29DF8072043EA020E4A
:102CDC009DF80840240224B29DF809301C439DF84D
:102CEC000A20120212B29DF80B301A439DF80C30D8
:102CFC001B021BB29DF80D100B433B49896801FB6D
:102D0C0007F7002F54DBFF1301FB06F6002E53DBF5
:102D1C00F61301FB05F5002D52DBED133249C968A2
:102D2C0001FB04F4002C4FDBE41301FB02F2002A3C
:102D3C004EDBD21301FB03F3002B4DDB4FEAE33CDC
:102D4C002949097C69B128494B69FF1A8B69F61A24
:102D5C00CB69ED1A0B6AE41A4B6AD21A896AACEB8E
:102D6C00010CC8F80870C8F80C60C8F81050C8F806
:102D7C001440C8F81820C8F81CC04FF47A7303FB31
:102D8C000EFE1A4B83FB0E234FEAEE7ECEEBE31EB8
:102D9C00AEF5E24EAEF14E0EA8F82CE00022002368
:102DAC00C8E900230323C8F8303004B0BDE8F08133
:102DBC0007F5FF477F37A6E706F5FF467F36A7E7FF
:102DCC0005F5FF457F35A8E704F5FF447F34ABE7F5
:102DDC0002F5FF427F32ACE703F5FF437F33ADE7EB
:102DEC006FF00100704700BF7C1D002061606060C7
:102DFC0000B585B08DF80F106423009301230DF1FD
:102E0C000F02014605480078FFF7BCFC10B905B06D
:102E1C005DF804FB4FF0FF30F9E700BF7C1D00208C
:102E2C0010B582B0044641791A20FFF7E1FF034642
:102E3C0010B1184602B010BDA178C90001F01801FC
:102E4C001C20FFF7D5FF03460028F2D1E178C9001A
:102E5C0001F018011B20FFF7CBFF03460028E8D137
:102E6C000DF1070261792079FFF70DFE30B19DF865
:102E7C0007101920FFF7BCFF0346DAE76FF00403D5
:102E8C00D7E7000008B50C4B5B788BB159B1012129
:102E9C006B20FFF7ADFF50B90A2002F0E7FF0648A0
:102EAC00FFF7BEFF03E040216B20FFF7A1FF08BD39
:102EBC006FF00100FBE700BF7C1D002038B50B4B09
:102ECC005B787BB10C46C90001F018011B20FFF7A1
:102EDC008FFF054608B1284638BD0448C470FFF77B
:102EEC00ADFDF8E76FF00105F5E700BF7C1D002094
:102EFC0038B50B4B5B787BB10C46C90001F018015F
:102F0C001C20FFF775FF054608B1284638BD04485C
:102F1C008470FFF777FDF8E76FF00105F5E700BF68
:102F2C007C1D0020114B5B78BBB110B582B01446F0
:102F3C0011F0040F14D10DF107020C4B59792046F6
:102F4C00FFF7A1FD78B19DF807101920FFF750FF8E
:102F5C0008B9064B1C7102B010BD6FF00100704730
:102F6C006FF00C00F7E76FF00400F4E77C1D002015
:102F7C0008B5064B5B780BB9002008BD40216B20CF
:102F8C00FFF736FF014B00225A70F5E77C1D00203D
:102F9C0008B532216820FFF70BFD30B132216920D2
:102FAC00FFF706FD18B1002008BD6820FCE769207A
:102FBC00FAE7000038B5FFF7EBFF1C4B187070B345
:102FCC00FFF726FE70B380216B20FFF711FF04463C
:102FDC0008B1204638BD642002F048FF01216B2067
:102FEC00FFF706FF04460028F3D10A2002F03EFF4B
:102FFC000E4800238370C3700523037104234371AF
:10300C00FFF70EFF04460028E3D1084D2846FFF7D2
:10301C00F9FC2846FFF712FD01236B70D9E76FF01E
:10302C000704D6E76FF00804D3E700BF7C1D00202F
:10303C0010B5124C3822002120460AF0F3FD05236E
:10304C002371042363710E480E4B03600E4B4360D7
:10305C00846007F073FE20B9094807F0E7FE30B929
:10306C0010BD074807F09CFE6FF00400F8E7044819
:10307C0007F096FE6FF00400F2E700BF7C1D002005
:10308C00641D0020BCF200083CF50008FF230B7007
:10309C0000207047044B93F8013413B16FF00C000F
:1030AC0070476FF001007047641E00206FF00C0039
:1030BC0070476FF00C0070476FF00C007047000009
:1030CC00094B93F802341BB102230B70002070479C
:1030DC00054B93F801340BB90B70F7E7024B93F8DF
:1030EC0000340B70F2E700BF641E00200020086063
:1030FC00704710B4019C029819B18C468021ACF831
:10310C0000100AB1402111800BB100221A700CB1D1
:10311C000023237008B121230360002010BC7047EA
:10312C006FF00C0070476FF00C007047002900F036
:10313C0007812DE9F04F85B016461A460C46002E35
:10314C0000F001818D88002D00F00081CB88002BD0
:10315C0000F0FF8008884119802900F2FD80618809
:10316C001944402900F2FB8010F0070F40F0FA8060
:10317C0015F0070B40F0F980ED0805FB03F39342C3
:10318C0000F2F680804B1868002800F0F4807F4B2A
:10319C0093F80234002B40F0F180642109F002FD19
:1031AC00012840F0EE80794B93F8023463B96388C0
:1031BC0013F0070040F0B580B4F8068018F007084B
:1031CC0064D00095A64694E000231A4619466E4832
:1031DC00006809F07DFA6FF00200AEE003FB050217
:1031EC00B15C03F110026A4402F8081C0133DBB233
:1031FC00072BF3D9002017E00133DBB2072B0DD8D6
:10320C0003F110026A4412F8082C0A42F4D001228D
:10321C009A404BEA02025FFA82FBEDE767445B4B94
:10322C0003F807B00130C0B2072808D80746C0F130
:10323C00070301219940C9B200239B46DEE70EF13A
:10324C00010E1FFA8EFEAE4512D2B4F800C04FEA42
:10325C00CE039BB29C441FFA8CFC0CEBCA1C1FFACD
:10326C008CFC05FB09F080B2704480B20023BFE7F0
:10327C0009F108091FFA89F9E3884B4555D9B4F8C7
:10328C0002A0CA44CAF3C70AC646DCE7C146F3E744
:10329C003E4DE95C6FEA090040B20140E95401324D
:1032AC00D2B2072A18D8BEF8003003EBC7039BB282
:1032BC009B1A9BB207339BB25FFA88F103EBC113E5
:1032CC009BB22CFA02F111F0010FE1D02F48C15C36
:1032DC0041EA0A01C154E2E70137BFB2009B9F42A9
:1032EC0004D2E31916F803C00022DAE70198431C54
:1032FC0098B2BEF80630834217D9BEF802300344A8
:10330C00C3F3CC0803F007034FF0010909FA03F9E2
:10331C005FFA89FA009B03FB00F4A4B25F460190AC
:10332C00DCE758460095A646E3E700231A46194603
:10333C001548006809F0CCF9002005B0BDE8F08F05
:10334C006FF0040070476FF00400F6E76FF00400B4
:10335C00F3E76FF00400F0E76FF00400EDE76FF0B7
:10336C000400EAE76FF00400E7E76FF00400E4E71D
:10337C006FF00400E1E76FF00100DEE76FF0020090
:10338C00DBE76FF00200D8E7481E0020641E002027
:10339C0008B5074900230B704870642302223C20B7
:1033AC00FFF76CFA00B908BD4FF0FF30FBE700BF28
:1033BC00381E002038B5154B93F80134E3B10C4698
:1033CC00134B1868D8B1642109F0ECFB012819D112
:1033DC0084B1AF20FFF7DCFF054610B90B4B83F827
:1033EC00004400231A4619460948006809F070F990
:1033FC00284638BDAE20EDE76FF00105F8E76FF019
:10340C000105F5E76FF00205F2E700BF641E00202E
:10341C00481E002008B50B46074900220A70487068
:10342C008B70642303223C20FFF728FA00B908BDF7
:10343C004FF0FF30FBE700BF381E00200F2913D8D8
:10344C0038B503460C460B4D2846002200F8012BDC
:10345C000A4619460AF07AFC6423621C29463C2071
:10346C00FFF70CFA18B938BD6FF0040070474FF035
:10347C00FF30F8E7381E00202DE9F04184B00746F4
:10348C009046CC08194401392ED4C1F3C705072D39
:10349C0000D9072521238DF80C308DF80D7007EB22
:1034AC000803DBB2013B8DF80E30032103A8FFF7B4
:1034BC00C5FF0646D0B1244C2368ADF800301B0C78
:1034CC008DF8023003216846FFF7B8FF6368ADF84A
:1034DC0004301B0C8DF80630032101A8FFF7AEFF5A
:1034EC00304604B0BDE8F0810731CEE722238DF8D9
:1034FC0008308DF809408DF80A50032102A8FFF717
:10350C009DFF0646B0B1D6E7104E3046402300F87A
:10351C00013B07EBC41342460D4919440AF016FC53
:10352C00642308F1010231463C20FFF7A7F9064657
:10353C000134E4B2A54201D3002EE5D0002EBAD05E
:10354C004FF0FF36B7E700BF64EF0008B41D002052
:10355C00641E0020F8B506461D46204B186820B3A3
:10356C000F46144622B335B316F0070F26D112F0CE
:10357C00070F26D19319802B26D86B18402B26D8F1
:10358C00642109F00FFB012824D12B462246394631
:10359C003046FFF771FF044600231A4619460F48C0
:1035AC00006809F095F82046F8BD6FF00104FAE7C1
:1035BC006FF00404F7E76FF00404F4E76FF0040411
:1035CC00F1E76FF00404EEE76FF00404EBE76FF043
:1035DC000404E8E76FF00204E5E700BF481E002092
:1035EC00E9B18C468A88EAB108B5CB88EBB108887A
:1035FC0010F0070F1CD112F0070F1CD18118802975
:10360C001CD8BCF8021001EB030CBCF1400F18D80D
:10361C00DBB2D2B2C9B2C0B2FFF79CFF08BD6FF0EB
:10362C00040070476FF0040070476FF00400F5E77A
:10363C006FF00400F2E76FF00400EFE76FF00400A6
:10364C00ECE76FF00400E9E730B583B01E4B1B6864
:10365C00ADF804301B0C8DF80630032101A8FFF7E0
:10366C00EDFE034610B1184603B030BD164B5B6837
:10367C00ADF800301B0C8DF8023003216846FFF7C3
:10368C00DDFE03460028EED1002413E00F4D284642
:10369C00402300F8013B80220D4901EBC4110AF0D4
:1036AC0055FB6423812229463C20FFF7E7F80346AB
:1036BC000134E4B2072C01D8002BE7D0002BD2D078
:1036CC004FF0FF33CFE700BF64EF0008B41D0020BC
:1036DC00641E002010B50D4B186880B1642109F0F0
:1036EC0061FA01280ED1FFF7AFFF044600231A46FA
:1036FC0019460648006808F0EBFF204610BD6FF035
:10370C000104FAE76FF00204F7E700BF481E00203F
:10371C0008B5084B93F8013433B1064B93F80234D7
:10372C002BB9FFF7D7FF08BD6FF00100FBE76FF077
:10373C000200F8E7641E002038B52A4B93F80134D8
:10374C00002B43D0284B1B68002B42D0254B93F801
:10375C0002343BB16421234BD3F8040409F022FA60
:10376C00012838D16421204B186809F01BFA012874
:10377C0034D1AE20FFF70CFE0446D0B100231A461C
:10378C0019461948006808F0A3FF04BB154BD3F881
:10379C00040428B109F0CFFA124B0022C3F8042418
:1037AC00114B186898B109F0C6FA0F4B00221A6039
:1037BC000DE00C4D4FF48062002128460AF032FADD
:1037CC00002385F8003485F80134D7E7002420461F
:1037DC0038BD0024FBE76FF00204F8E76FF0020439
:1037EC00F5E700BF641E0020481E002010B582B013
:1037FC00704B93F80134002B40F0D7806E4B1B6854
:10380C00EBB16C4BD3F804341BB34FF4FA716A4B25
:10381C00186809F0C7F9012840F0C98032213C2012
:10382C00FFF7C6F810B36FF0070400231A461946C9
:10383C006148006808F04CFF204602B010BD012022
:10384C0009F016F85C4B18600028DAD14FF0FF3401
:10385C00F2E703220021012008F00CFF554BC3F8BE
:10386C0004040028D1D14FF0FF34E5E7AE20FFF778
:10387C008FFD04460028D8D18021D520FFF7CAFD42
:10388C0004460028D1D13F21A820FFF7C3FD0446F0
:10389C000028CAD10021D320FFF7BCFD0446002824
:1038AC00C3D14020FFF774FD04460028BDD1A120F0
:1038BC00FFF76EFD04460028B7D1C820FFF768FD5E
:1038CC0004460028B1D11221DA20FFF7A3FD0446EB
:1038DC000028AAD1CF218120FFF79CFD04460028A7
:1038EC00A3D1A420FFF754FD044600289DD1A620A7
:1038FC00FFF74EFD0446002897D1F121D920FFF7A0
:10390C0089FD0446002890D13021DB20FFF782FD91
:10391C000446002889D114218D20FFF77BFD044635
:10392C00002882D100212020FFF774FD04460028D6
:10393C007FF47BAF214B1B68ADF804301B0C8DF86A
:10394C000630032101A8FFF779FD044600287FF417
:10395C006CAF1A4B5B68ADF800301B0C8DF8023065
:10396C0003216846FFF76AFD044600287FF45DAF2B
:10397C004FF4806200210F480AF054F9FFF764FEFF
:10398C00044600287FF451AFAF20FFF701FD044639
:10399C0000287FF44AAF074B012283F8002483F8F8
:1039AC000124002283F802243FE7002444E76FF04F
:1039BC00020441E7641E0020481E002064EF00084A
:1039CC000E4B93F801340BB10020704710B50B4C23
:1039DC004FF48162002120460AF024F90848094B73
:1039EC000360094B4360846007F072F800B910BDA6
:1039FC00034807F09FF86FF00400F8E7641E0020FE
:103A0C004C1E002088F3000878F500080D4AB2F827
:103A1C003C339BB20133C3F30803B2F83E2392B29A
:103A2C009A4209D00749B1F83C2392B20A4482F871
:103A3C003C01A1F83C337047024B012283F8402330
:103A4C00704700BF8C2400200D4BB3F83E2392B27C
:103A5C00B3F83C339BB29A420FD00949B1F83E23DC
:103A6C0092B20A44B1F83E339BB20133C3F308035C
:103A7C00A1F83E3392F83C0170474FF0FF3070478D
:103A8C008C24002070B506460C4AB2F83C339BB22D
:103A9C00B2F83E2392B29B1AC3F30803994228BF93
:103AAC0019460D46002404E0FFF7CEFF30550134D3
:103ABC00A4B2AC42F8D3284670BD00BF8C240020C1
:103ACC0030B54FF0000C634605E09EF80040C4543E
:103ADC000CF1010C013301EB0C0E11F80C4044B14C
:103AEC00951E9D4205D9222CEFD15C24C454013380
:103AFC00EBE70022C25430BD024BC3F84813C3F8A5
:103B0C004C2370478C2400200F4B1B79062B18D8A4
:103B1C00DFE803F004070A0A0E11140000230B70EF
:103B2C0004E001230B7001E002230B7000207047AE
:103B3C0003230B70FAE704230B70F7E700230B70D9
:103B4C00F4E705230B70F1E78C2400200B4609B138
:103B5C00242119600AB104231370002070476FF000
:103B6C000C0070476FF00C00704700230B606FF077
:103B7C000C00704710B58AB00C4609AB039308AB28
:103B8C00029307AB019306AB009305AB04AA09495A
:103B9C0009F0DEFF06280BD00AB010BD0AAA02EB12
:103BAC00830212F8182CE2540133052BF6DDF3E7EF
:103BBC000023FAE790F300082DE9F04385B05C4B45
:103BCC00B3F8C253072D78D804465A490AF07AF84C
:103BDC000646002871D008362B2202FB05F000F5B2
:103BEC007070534B1844002104300AF01BF800236A
:103BFC00039303AA5049304609F0AAFF01285FD06D
:103C0C00222130460AF016F8F0B100F10109222108
:103C1C0048460AF00FF8B8B1A0EB0906B6B2202E50
:103C2C0000D920264FF02B0808FB05F808F570701A
:103C3C003F4F38443246494604300AF087F847442F
:103C4C003744002387F8C4333C4920460AF03AF83D
:103C5C00044660B302340023019301AA384920467C
:103C6C0009F076FF012851D02221204609F0E2FF0D
:103C7C0050B12B2105FB01F101F578712C4A11444F
:103C8C0005310130FFF776FF2C21204609F0D2FFD9
:103C9C0068B12C21013009F0CDFF40B10022029215
:103CAC0002AA2749013009F053FF012837D0204AD6
:103CBC00B2F8C2330133A2F8C23305B0BDE8F083C9
:103CCC00039B032B0AD0042B10D0BBB9184B2B220F
:103CDC0002FB0533002283F8ED2391E7144B2B22D2
:103CEC0002FB0533012283F8ED2389E7104B2B22CD
:103CFC0002FB0533032283F8ED2381E70C4B2B22C7
:103D0C0002FB0533FF2283F8ED2379E79DF90420AC
:103D1C00074B2B2101FB053383F8EB23A4E79DF81C
:103D2C000820034B2B2101FB053383F8EC23BEE762
:103D3C008C240020A4F30008B0F30008B8F30008AA
:103D4C00BCF30008F8B505460C464FEAD26E530199
:103D5C009B1A6EF1000E4FEA8E0E4EEA937E9B007C
:103D6C0099184EF1000E4FEACE0E4FF47A720023E2
:103D7C00C8004EEA5171FCF713FA01460646564B41
:103D8C00D3F8440308F00EFF012840F0A280524BF8
:103D9C00002283F8302083F83120A3F83421C4B1F9
:103DAC0003F110071F222146384609F062FF002359
:103DBC00FB772846FCF718FA642382B2294646485A
:103DCC00006802F031FE40B98CB107F06DFE04467C
:103DDC0067E0414B00221A74EBE700231A461946A0
:103DEC003D48D0F8440308F073FC002472E0002333
:103DFC001A4619463848D0F8440308F069FC0124E7
:103E0C0068E0354BB3F8343133B1591E324A0A44A9
:103E1C0092F833200D2A3FD02F4A1344002183F807
:103E2C00331092F8323043B12C4902F1330009F0CF
:103E3C0049FF10B12A48FFF7BFFE274B1B7C4BB143
:103E4C00284901F1230009F03DFF18B1224B012252
:103E5C0083F830202449224809F034FF18B11E4B56
:103E6C00012283F831201C4B0022A3F8342193F853
:103E7C0030301BB9184B93F8313093B116480021F0
:103E8C0080F8321090F83040E4B20B460A46D0F875
:103E9C00440308F01DFC1DE08BB2BDE7012007F0C8
:103EAC00DDFF07F001FE001B8642E7D9FFF7CCFDD2
:103EBC000028F3DB0A28A4D0074BB3F83431FE2BCF
:103ECC00EFD8054A591CA2F834111A4482F8330071
:103EDC00E7E700242046F8BD8C240020C0F300083E
:103EEC00BF2400209C240020C8F30008F0B589B042
:103EFC000E4614461D461346134A2021684609F007
:103F0C00F1FD2A4611496846FFF71CFF90B1642366
:103F1C00A2B231460E48006802F086FD044660B934
:103F2C004FF47A720B490C48FFF70CFF40B1204656
:103F3C0009B0F0BD6FF00304F9E74FF0FF34F6E77A
:103F4C004FF0FF34F3E700BFD0F30008E4F30008B0
:103F5C008C240020E8F3000840F4000808B54FF466
:103F6C007A7206490648FFF7EDFE18B10020054BA2
:103F7C00187108BD4FF0FF30FBE700BFF0F30008ED
:103F8C00F4F300088C24002070B5CCB00C4640AD86
:103F9C0030222846FFF794FD2CAE502204F121016B
:103FAC003046FFF78DFD94F8623004AC002202928B
:103FBC00019300962B460A4AA021204609F092FD57
:103FCC004FF4FA6207492046FFF7BCFE28B1064BB6
:103FDC0005221A7100204CB070BD4FF0FF30FAE78B
:103FEC0004F40008F0F300088C24002008B54FF40A
:103FFC007A7206490648FFF7A5FE18B10020054B5A
:10400C00187108BD4FF0FF30FBE700BFF0F300085C
:10401C0020F400088C24002070B5CAB00C463EADCC
:10402C0030222846FFF74CFD2AAE502204F1210124
:10403C003046FFF745FD02AC00962B46134AA021F3
:10404C00204609F04FFD41F2883211492046FFF716
:10405C0079FE90B10F4B002283F8C02343F69821D0
:10406C00D3F8BC0308F09EFD012809D1094B93F845
:10407C00C03343B100204AB070BD4FF0FF30FAE7B7
:10408C006FF00300F7E74FF0FF30F4E72CF4000873
:10409C00F0F300088C2400201A4B93F8213573B3ED
:1040AC0010B5184C0021A4F8C21384F820154FF455
:1040BC00AC7204F5717009F0B5FD06232371012370
:1040CC0084F8323042F210720F491048FFF73AFE72
:1040DC0070B10C4800240471012380F8203523466C
:1040EC0022462146D0F81C0508F0F2FA204610BDF5
:1040FC000022227184F832204FF0FF30F7E76FF086
:10410C00010070478C240020F0F3000844F40008F0
:10411C0010B584B00B46094A1021684609F0E2FC40
:10412C004FF47A7206496846FFF70CFE10B1002076
:10413C0004B010BD4FF0FF30FAE700BF50F4000898
:10414C00F0F30008032915D8DFE801F0020202029F
:10415C0010B588B00B460A4A2021684609F0C2FC0B
:10416C004FF47A7207496846FFF7ECFD28B100203E
:10417C0008B010BD6FF0040070474FF0FF30F7E748
:10418C005CF40008F0F3000839B3F8B516461C4689
:10419C000F462BB3144B93F8203543B942F21071F0
:1041AC00114BD3F81C0508F0FDFC012810D10E4969
:1041BC00B1F8C253B54228BF35462B2205FB02F29B
:1041CC0001F57171384609F0C1FD25800020F8BD5C
:1041DC00002323806FF00300F9E76FF004007047B1
:1041EC006FF00400F3E700BF8C24002038B50C4BB3
:1041FC001B79032B0DD10C46094B93F8B8335BB1EB
:10420C00084D2946204609F099FD6B6EE3620020AB
:10421C0038BD6FF00100FBE76FF00100F8E700BF5D
:10422C008C240020DC27002008B51E4B986820B198
:10423C0007F07EFB1B4B00229A601A4BD3F8380117
:10424C0028B108F078FD174B0022C3F83821154B24
:10425C00D3F8440328B108F06EFD124B0022C3F8CA
:10426C004423104BD3F8BC0328B108F064FD0D4B6C
:10427C000022C3F8BC230B4BD3F81C0528B108F063
:10428C005AFD084B0022C3F81C25064B186820B1B8
:10429C0002F09EFC034B00221A600020014B83F8B5
:1042AC00210508BD8C24002030B58FB0534A0BABD0
:1042BC0007CA83E80700524A1946032002F0DEFAC7
:1042CC00002840F08E8005464D4C00224D49206858
:1042DC0002F00BFC03220021012008F0CBF9C4F8FA
:1042EC003801012008F0C4FAC4F844030322002169
:1042FC00012008F0BFF9C4F8BC03032200210120FF
:10430C0008F0B8F9C4F81C05D4F83831002B4AD0A1
:10431C00D4F84433002B46D0D4F8BC33002B42D015
:10432C00002840D0384B01930323009300234FF413
:10433C0000723649364807F0E5FA01283AD14FF4B5
:10434C00007234492E4B186802F096FB4FF47A72C7
:10435C0031493248FFF7F6FC002845D003AC032363
:10436C002F4A2021204609F0BDFB4FF47A722A49CE
:10437C002046FFF7E7FC002839D00023294A2021EA
:10438C00204609F0AFFB4FF47A7223492046FFF721
:10439C00D9FC78B31A4B012283F8212500221A711B
:1043AC0028460FB030BD164B186802F011FC6FF0A8
:1043BC000B05F5E7124CD4F8380108F0BCFCD4F826
:1043CC00440308F0B8FCD4F8BC0308F0B4FCD4F8EF
:1043DC001C0508F0B0FC206802F0FAFB6FF00B052E
:1043EC00DEE76FF00705DBE74FF0FF35D8E74FF05E
:1043FC00FF35D5E74FF0FF35D2E700BF6CEF000873
:10440C008C2400206D47000894240020ECEF000859
:10441C00C54600086C220020F0F300086CF400087C
:10442C005CF4000874F4000830B59FB0002409E077
:10443C003A2815D0631C04F178020DEB020404F841
:10444C00300C9CB22E2C0BD8FFF7FEFA0028EFDABA
:10445C000A2007F003FDFFF7F7FA0028E8DA68E016
:10446C0004F178030DEB0304002304F8303CADF8A1
:10447C0046302C2112A809F00FFCA8B10DF1460210
:10448C004049013009F064FB012852D1BDF8463097
:10449C00002B4ED040F2B452934201D9ADF84620D5
:1044AC0007F002FB04460BE00DF14602354912A859
:1044BC0009F04EFB01283CD1E8E7052007F0CEFCC3
:1044CC00314AB2F83C339BB2B2F83E2392B29B1AFB
:1044DC00C3F30803BDF846209A4205D907F0E4FA65
:1044EC00001BB0F57A7FE8D3274AB2F83C339BB275
:1044FC00B2F83E2392B29B1AC3F30803BDF84600F0
:10450C00984218D9204BB3F83C43A4B2B3F83E33CD
:10451C009BB2E41AC4F3080409E02546402C28BFDA
:10452C004025294601A8FFF7ADFA641BA4B2002C64
:10453C00F3D11FB030BD08F073FE044690B1BDF846
:10454C004610FFF79FFA104BD3F8485335B1184675
:10455C00D3F84C33BDF846202146A847204608F036
:10456C002DFFE6E7BDF8464009E02546402C28BF64
:10457C004025294601A8FFF785FA641BA4B2002C3C
:10458C00F3D1D6E784F400088C24002030B589B030
:10459C000446414909F096FB40B14048022303719F
:1045AC000022012106F026FE09B030BD3C49204610
:1045BC0009F088FB002837D0384B03221A7139498F
:1045CC00204609F07FFB58B105AB019304AB009377
:1045DC0003AB02AA3449033009F0BAFA042812D00A
:1045EC002E4C00220821204606F004FE012384F8FC
:1045FC00C033D4F8BC030028D6D000231A46194681
:10460C0008F066F8D0E7039B1B04029A43EA0263A6
:10461C00049A43EA0223059A1343204AC2F8B4339E
:10462C00012382F8B833DBE72049204609F04AFB26
:10463C00C0B11A4D00242C7185F8B84305AA059415
:10464C00546094600221284606F0D4FD85F8C043DE
:10465C00D5F8BC030028A7D023462246214608F0F3
:10466C0037F8A1E71249204609F02CFB38B10B486A
:10467C00052303710022102106F0BCFD94E70D49BF
:10468C00204609F01FFB00288ED00448002202713E
:10469C00202106F0AFFD87E788F400088C24002069
:1046AC0098F40008A4F40008A8F40008B4F4000876
:1046BC00C4F40008D4F4000830B5C1B0002538E0CB
:1046CC0004222549684609F0C2FA78B92C2C0DD180
:1046DC00FFF7AAFE002503E08DB900220DF8052096
:1046EC00FFF7B2F9041E1CDB042DE9D00A2CF3D021
:1046FC00FE2DF5D86B1C0DF805409DB2F0E76B1E36
:10470C001DF803300D2B09D000220DF80520002DCB
:10471C00E6D06846FFF73AFF0025E1E7013DADB270
:10472C00F2E700231A4619460C48D0F8440307F068
:10473C00CFFF4FF0FF31094BD3F8380108F032FAB4
:10474C000128F6D10021054BD3F8440308F02AFACE
:10475C000128EED1C4E700BFE4F400088C2400204B
:10476C0070B582B00D460B78022B03D0042B01D010
:10477C0002B070BDAE68002403E0305DFFF746F96F
:10478C0001346B68A342F8D80023019301A9094BAB
:10479C00D3F8380108F0F6F8019B002BE8D04FF065
:1047AC00E0234FF08052C3F8042DBFF34F8FBFF3BB
:1047BC006F8FDDE78C24002010B50C4C40F2245296
:1047CC000021204609F02EFA09480A4B03600A4BD7
:1047DC0043608460094BC36006F0F4FB00B910BD64
:1047EC00034806F029FC6FF00400F8E78C24002045
:1047FC006C240020ECEF0008C0F50008B8F50008A8
:10480C0086B0264B984217D0254B984221D0254B89
:10481C0098422AD0244B984233D0244B984216D13C
:10482C0003F578439A6942F040029A619B6903F060
:10483C0040030593059B0AE003F584339A6942F023
:10484C0004029A619B6903F004030193019B06B077
:10485C00704703F582339A6942F008029A619B69AA
:10486C0003F008030293029BF1E703F580339A6986
:10487C0042F010029A619B6903F010030393039BAF
:10488C00E5E703F57C439A6942F020029A619B6943
:10489C0003F020030493049BD9E700BF00080140F8
:1048AC00000C0140001001400014014000180140B0
:1048BC00FF230B70002070478368B3B11A7FBAB125
:1048CC009A7E1AB903230B7000207047DA7E1AB156
:1048DC0002230B70002070475B7E13B90020087018
:1048EC00704701230B70002070476FF00100704778
:1048FC006FF0010070470020086070476FF00C00EB
:10490C00704710B5044601228189806802F08FFE41
:10491C000122A18A206902F08AFE10BD10B58468BC
:10492C0084B1237F8BB1A37E93B1002221792068BF
:10493C0001F038FC2046FFF7E4FF002060760123ED
:10494C00E37610BD6FF00100FBE76FF00100F8E7B4
:10495C006FF00100F5E710B50446002281898068EC
:10496C0002F065FE0022A18A206902F060FE10BDF3
:10497C0010B584686CB1237F73B100222179206853
:10498C0001F010FC2046FFF7E6FF0020A076E07651
:10499C0010BD6FF00100FBE76FF00100F8E738B5D0
:1049AC0004460D4659B901228189806802F03FFE08
:1049BC000022A18A206902F03AFE257638BD002239
:1049CC008189806802F033FE0122A18A206902F0FD
:1049DC002EFEF2E7806868B108B5037F6BB1837E69
:1049EC0073B1C37E13B10176002008BDFFF7D7FF6A
:1049FC000020FAE76FF0010070476FF00100F4E758
:104A0C006FF00100F1E738B584680CB30D46237FD5
:104A1C000BB3A37E13B3642923D8E37E03B139B956
:104A2C002A462179206801F0BDFB40B9657638BD76
:104A3C00217E2046FFF7B3FF0023E376F0E710F169
:104A4C00090F02D06FF00700F1E76FF00C00EEE7F2
:104A5C006FF00100EBE76FF00100E8E76FF0010089
:104A6C00E5E76FF00400E2E710B5044602464FF4A8
:104A7C008041034802F0DBFD024B1C7010BD00BFEF
:104A8C00000C0140B029002038B58468BCB1237FEC
:104A9C00C3B10E4B1B7873B10025E576217E204601
:104AAC00FFF77DFF627E2179206801F07BFB0123FB
:104ABC00A376284638BD0120FFF7D6FFECE76FF050
:104ACC000100F7E76FF00100F4E700BFB029002008
:104ADC000B4B1B7813B1013B094A1370084B1B7825
:104AEC0063B9084B186848B110B501F0F7FA054CDA
:104AFC00206801F02EFB0023236010BD704700BF1F
:104B0C00B1290020B429002038B5846884B1237FF2
:104B1C008BB100222179206801F044FB2046FFF77D
:104B2C001AFF00252577FFF7D3FF2560284638BDEF
:104B3C006FF00100FBE76FF00100F8E710B584B0EF
:104B4C000446154B1B684BB1134B1B682360134A6F
:104B5C00137801331370002004B010BD01A9019328
:104B6C004B608B6044F6206301930B4A012001F0EB
:104B7C0095F968B900221146074B186801F022FA22
:104B8C000028E1D0044C206801F0E3FA00232360F4
:104B9C006FF00700E0E700BFB4290020B129002026
:104BAC0038B58468ECB12046FFF7C8FF054688B9D4
:104BBC002179012903D0206801F058FB60B900224B
:104BCC0062762276A276E276012323772179206819
:104BDC0001F0E8FA284638BDFFF77AFF6FF00705B9
:104BEC00F8E76FF00705F5E710B584B0064C2046E2
:104BFC00FFF706FE054B0FCB8DE80F0069462046EC
:104C0C0002F004FC04B010BD000C014078EF000869
:104C1C0030B585B004468068FFF7F2FD2069FFF7D8
:104C2C00EFFD00230093019302930393012301935F
:104C3C0003230393E36800936946A06802F0E6FB44
:104C4C00636900936946206902F0E0FB05B030BD52
:104C5C002DE9F843FFF7C8FF0020FFF705FF0026FA
:104C6C00012E44D84FEA460906EB46054FEAC50823
:104C7C00224F07EBC5052846FFF7CAFF204C04EB73
:104C8C00461420220021204608F0CCFF2B792371FA
:104C9C00AB68A360EB68E3602B6923616B696361AC
:104CAC00002323764B463344164A02EBC30557F8D0
:104CBC00081042F83310144B6B60AC60284605F0BA
:104CCC004BFC90B9284605F0C3FC98B90136C7E7F0
:104CDC0004EB44000B4B03EBC00005F06FFC0134FC
:104CEC00A642F5D84FF0FF3002E00024F8E7002090
:104CFC00BDE8F8834FF0FF30FAE700BF34F6000848
:104D0C00E8290020B829002008F60008012804D062
:104D1C00022804D028B901207047022070470420D3
:104D2C00704704207047FF230B7000207047002051
:104D3C00086070472DE9F0418468D4B18846174665
:104D4C001D46A37CC3B139B1E668207CFFF7DEFFBA
:104D5C0000FB06F6C8F800600FB100233B7075B17C
:104D6C00637C23B910232B600020BDE8F081142351
:104D7C00F9E76FF00100F8E76FF00100F5E70020AC
:104D8C00F3E76FF00C00704730B583B08468A4B1C2
:104D9C000D462068A0B1A37CABB101A901F08AFA41
:104DAC00A0B9A268019B9A4205D002232B70019BEB
:104DBC00A36003B030BD0123F8E76FF00100F8E702
:104DCC006FF00100F5E76FF00100F2E76FF00700FC
:104DDC00EFE730B583B08468D4B10D462068D0B10C
:104DEC00A37CDBB101A901F065FAD0B9019A636823
:104DFC00D31A6260002B03DD01232B7003B030BD8E
:104E0C00002B02DB00232B70F8E702232B70F5E755
:104E1C006FF00100F2E76FF00100EFE76FF00100B7
:104E2C00ECE76FF00700E9E7F0B583B08668002E79
:104E3C0046D00C463068002845D0B37C002B45D0BA
:104E4C00737C002B45D001A901F034FA05460028EB
:104E5C0042D1F768307CFFF759FF00FB07F2019B4A
:104E6C0093FBF2F102FB1133002B27DBD8178100E7
:104E7C0041EA93714FEA830C1CEB030340EB0100F6
:104E8C00010141EA13714FEA031CBCEB030C61EB0B
:104E9C000006330143EA1C734FEA0C11B1EB0C0111
:104EAC0063EB06034FEA431C002348014CEAD16133
:104EBC00FBF776F92060284603B0F0BD1344D5E724
:104ECC006FF00105F7E76FF00105F4E76FF00105EE
:104EDC00F1E76FF00C05EEE76FF00705EBE708B5AF
:104EEC0083683BB1186840B19B7C4BB101F0E2F98F
:104EFC0048B908BD6FF00100FBE76FF00100F8E75F
:104F0C006FF00100F5E76FF00700F2E710B5846869
:104F1C006CB1206870B1A37C7BB101F0F7F978B962
:104F2C006060A06084F820000123637410BD6FF0F2
:104F3C000100FBE76FF00100F8E76FF00100F5E707
:104F4C006FF00700F2E708B5FFF7E0FF08BD0000BF
:104F5C002DE9F04782B08468002C3ED00E462068C4
:104F6C0000283DD0A37C002B3DD001A901F0A2F973
:104F7C00804600283AD106F097FD054694F820307B
:104F8C00F3B1A769C71B01D1E0691AE06369019805
:104F9C00A0EB0309D4F80CA0207CFFF7B7FE00FBB4
:104FAC000AF3C3EB03135B004FEAE97E1149A9FB3B
:104FBC000109A7FB032301FB0E91FBF7A1F800E00D
:104FCC000020019B6361A561E061012384F820301E
:104FDC003060404602B0BDE8F0876FF00108F8E79A
:104FEC006FF00108F5E76FF00108F2E76FF00708C2
:104FFC00EFE700BFC027090010B5846854B12068E2
:10500C0058B101F06BF8206801F0A3F80020206083
:10501C00A07410BD6FF00100FBE76FF00100F8E722
:10502C0038B505460024012C10D804EB440329465E
:10503C00074A52F82300FBF7CDF808B10134F2E728
:10504C0004EB4404024800EB840000E0002038BD6F
:10505C0098F6000830B585B08468002C34D0006810
:10506C00FFF7DEFF0546002831D001A9002301938C
:10507C004B608B6001238DF8083042798DF80B2042
:10508C0082798DF80C208DF80D306A46007900F08D
:10509C0005FFF8B900221146009800F093FF68B99B
:1050AC00009B2360AB68E3606B792374002363601F
:1050BC00A36063740123A37405B030BD009801F0A4
:1050CC0048F86FF00700F7E76FF00700F4E76FF0B0
:1050DC000100F1E76FF00700EEE7000070B5002467
:1050EC00012C37D804EBC4031D4D05EB830524229A
:1050FC000021284608F096FD1A4904EB440001EB08
:10510C0080039A68EA605B792B7400236B74164BEE
:10511C0003EBC00651F8201043F83010134B7360AA
:10512C00B560304605F0CAFB90B9304605F03EFC40
:10513C0090B90134D4E705EB45000B4B03EBC000F1
:10514C0005F0EEFB0135AC42F5D84FF0FF3002E034
:10515C000025F8E7002070BD4FF0FF30FBE700BFE3
:10516C00582A002098F60008282A002064F6000827
:10517C0086B0264B98420DD0254B984216D0254B25
:10518C0098421FD0244B984228D0244B984231D0BF
:10519C0006B0704703F584339A6942F004029A61B1
:1051AC009B6903F004030193019BF1E703F5823340
:1051BC009A6942F008029A619B6903F00803029312
:1051CC00029BE5E703F580339A6942F010029A617D
:1051DC009B6903F010030393039BD9E703F57C430E
:1051EC009A6942F020029A619B6903F020030493B0
:1051FC00049BCDE703F578439A6942F040029A612B
:10520C009B6903F040030593059BC1E7000801402F
:10521C00000C014000100140001401400018014036
:10522C0010B504468188006802F0FAF9637B984255
:10523C0001D0002010BD0120FCE738B50446FFF773
:10524C00EFFF054606F036FCE37BAB4201D0E5737D
:10525C00206138BD10B504460023012B09D803EB9F
:10526C0083010D4A02EB81029268944203D0013310
:10527C00F3E74FF0FF33002B0ADB03EB4303074A42
:10528C0002EBC3039868064B5C61FFF7D6FF10BDB9
:10529C00034B5C61FBE700BFC4F60008A02A0020AA
:1052AC000004014070B50D468468237D3BB1A37B9F
:1052BC00012B14BF002301230B70002070BD20466E
:1052CC00FFF7AEFF064606F0EFFBE37BB34208D0D8
:1052DC00E6732061A37B012B14BF002301232B70E9
:1052EC00EBE72369C01A1328F4D9A673F2E710B5BB
:1052FC0084B0846804B3206808B3FFF739FF002337
:10530C00009301930293039363680093637B8BB9BF
:10531C00012302936946206802F078F82046FFF7D3
:10532C007FFFA073E07306F0BFFB206100202075A7
:10533C0004B010BD0223ECE76FF00700F8E76FF044
:10534C000700F5E710B586B00446144B9A6942F095
:10535C0001029A619B6903F001030193019B0023F5
:10536C000293039304930593436802930C4B0393AA
:10537C00437B8BB90123049302A9206802F046F801
:10538C000022022194F90C0001F0E6FC94F90C00C7
:10539C0001F0F2FC06B010BD0223ECE70010024055
:1053AC000000311010B584B08468002C33D0236811
:1053BC00002B33D099B1237D13B1002004B010BD64
:1053CC002046FFF72DFFA073E07306F06DFB206104
:1053DC002046FFF7B7FF012323750020EEE7237D5E
:1053EC000BB90020EAE794F90C0001F0D3FC002380
:1053FC00009301930293039363680093637B43B917
:10540C00012302936946206802F000F80020207501
:10541C00D4E70223F5E76FF00100CFE76FF001004E
:10542C00CCE730B585B08568A5B12B68ABB1002150
:10543C00FFF7B8FF6946002400940194029403948A
:10544C006B68009303230193286801F0DFFF20466B
:10545C0005B030BD6FF00100FAE76FF00100F7E71F
:10546C0008B50120FFF7F6FE08BD08B50220FFF7CE
:10547C00F1FE08BD08B50420FFF7ECFE08BD08B529
:10548C000820FFF7E7FE08BD08B51020FFF7E2FE85
:10549C0008BD000010B5202400E06400B4F5007FC6
:1054AC0007D8044B5B692342F7D02046FFF7D2FEA6
:1054BC00F3E710BD0004014010B54FF4806400E028
:1054CC006400B4F5004F07D8044B5B692342F7D056
:1054DC002046FFF7BFFEF3E710BD00BF00040140FC
:1054EC0070B506F0E7FA0646002412E02B69F31AB1
:1054FC00132B0DD9AB7B83420AD0A87304EB440366
:10550C00104800EBC300012900D0022104F0A0FEDA
:10551C000134012C15D804EB44020A4B03EBC203F3
:10552C009D682B7D002BF3D02B68002BF0D02846E8
:10553C00FFF776FE0146EB7B8342D7D0E8732E61F2
:10554C00E6E770BDA02A002070B50024012C42D8DB
:10555C0004EB4401224800EBC103002240F8312047
:10556C005A609A60DA601A615A611E4E04EB840C20
:10557C0006EB8C02556840F8315091685960D1683F
:10558C00996092F910101973527C5A7304EB440110
:10559C00154A02EBC10556F82C0042F83100134AAB
:1055AC006A60AB60284604F085FD90B9284604F08B
:1055BC00FBFD90B90134C9E705EB45000A4B03EB41
:1055CC00C00004F0A9FD0135AC42F5D84FF0FF3016
:1055DC0002E00025F8E7002070BD4FF0FF30FBE73C
:1055EC00D02A0020C4F60008A02A0020B0F600083B
:1055FC0086B0264B98420DD0254B984216D0254BA1
:10560C0098421FD0244B984228D0244B984231D03A
:10561C0006B0704703F584339A6942F004029A612C
:10562C009B6903F004030193019BF1E703F58233BB
:10563C009A6942F008029A619B6903F0080302938D
:10564C00029BE5E703F580339A6942F010029A61F8
:10565C009B6903F010030393039BD9E703F57C4389
:10566C009A6942F020029A619B6903F0200304932B
:10567C00049BCDE703F578439A6942F040029A61A6
:10568C009B6903F040030593059BC1E700080140AB
:10569C00000C0140001001400014014000180140B2
:1056AC0083682BB11A6832B15B7A0B70002070479B
:1056BC006FF0010070476FF00100704738B58468D7
:1056CC0074B10D46206870B1A188227A012D02D0E8
:1056DC00013A18BF012201F0AAFF6572002038BD03
:1056EC006FF00100FBE76FF00100F8E730B585B013
:1056FC008568CDB12868D0B12A7A013A18BF012249
:10570C00A98801F094FF6946002400940194029446
:10571C0003946B68009303230193286801F076FED1
:10572C006C72204605B030BD6FF00100FAE76FF0E7
:10573C000100F7E730B585B08468F4B12068F8B1A2
:10574C00FFF756FF694600250095019502950395D4
:10575C00636800930123019302230393206801F0F3
:10576C0055FE227A013A18BF0122A188206801F067
:10577C005EFF6572284605B030BD6FF00700FAE792
:10578C006FF00700F7E7000070B50024012C38D843
:10579C0004EB44021D4D05EB8203002145F8221059
:1057AC00596099601A4E4FEA041C06EB0410D0F8AD
:1057BC0004E045F822E082685A60027B1A72597242
:1057CC00144A02EB041556F80C1042F80C10124A4D
:1057DC006A60AB60284604F09BFD80B9284604F053
:1057EC0005FE80B90134D1E70A4800EB051004F03E
:1057FC00BFFD0135AC42F7D84FF0FF3002E0002579
:10580C00F8E7002070BD4FF0FF30FBE7202B0020A5
:10581C0000F70008002B0020ECF6000808B5034642
:10582C0008B94FF4FA7340F2712202FB03F303F24E
:10583C00E7330D4AA2FB03129209B3F57A1F0CD27F
:10584C000A480B4B036004234360826004F090FA17
:10585C0030B9084B01221A7008BD6FF00100FBE74C
:10586C004FF0FF30F8E700BFD34D62103C2B002007
:10587C0000300040382B002008B5044B1B780BB9C6
:10588C00002008BD024804F0A1FAF9E7382B0020EB
:10589C003C2B002030B587B01D4DAB6943F00403A1
:1058AC00AB61AB6903F004030093009B02A90024D5
:1058BC0002944C608C60CC6004230293022303930B
:1058CC0003230593134801F0A1FDEB6943F4003366
:1058DC00EB61EB6903F400330193019B0E4BDC602D
:1058EC001C615C6101F072FD00F561400B4BA3FB88
:1058FC000023B0F5E13F08D31B0C074A936042F23A
:10590C000803D360204607B030BD6FF00100FAE702
:10591C00001002400008014000440040C5B3A291B1
:10592C00144BDB6813F4005F1AD084460022104637
:10593C008A4217D210B40F4B1B6813F0800FFAD0A9
:10594C001CF802400B4B5C60013001328A42F2D3EE
:10595C0020B1084B1B6813F0400FFAD010BC7047F5
:10596C000020704722B1034B1B6813F0400FFAD094
:10597C00704700BF0044004010B586B0134A01AB1D
:10598C0007CA03C31A700022CDF80D20CDF81120E0
:10599C000F4B5C6A0EE0C2F107039B0024FA03F381
:1059AC0003F00F030B48C05C02F120036B4403F8B7
:1059BC00140C0132072AEED90A238DF81430112168
:1059CC0001A8FFF7ADFF06B010BD00BF88EF0008BF
:1059DC000010024020F7000808B5FFF7A1FF08BD32
:1059EC0068B1084BC31AB3F5317F04D890F8E7308F
:1059FC001BB9002070470020704701207047002021
:105A0C00704700BF4C2B002084B0013803280DD800
:105A1C00DFE800F0020E1924164B9A6942F400627A
:105A2C009A619B6903F400630093009B04B0704778
:105A3C00104BDA6942F00102DA61DB6903F0010311
:105A4C000193019BF2E70B4BDA6942F00202DA6137
:105A5C00DB6903F002030293029BE7E7054BDA696B
:105A6C0042F00402DA61DB6903F004030393039B45
:105A7C00DCE700BF00100240013803281AD8DFE829
:105A8C0000F002080E140C4A936923F4006393612E
:105A9C007047094AD36923F00103D3617047064A62
:105AAC00D36923F00203D3617047034AD36923F00F
:105ABC000403D361704700BF0010024010B51C46B0
:105ACC00B2B19446134A0023ACFB0001FAF768FB11
