:020000040800F2
:1000000000500020056300084D6300084D630008A0
:100010004D6300084D6300084D63000800000000B8
:1000200000000000000000000000000009C00008FF
:100030004D630008000000004DC0000825C1000805
:100040004D6300084D6300084D6300084D630008D0
:100050004D6300084D630008E94D0008F34D0008AA
:10006000FD4D00084D6300084D6300084D63000816
:10007000015F0008115F0008C15E0008D15E000842
:10008000F15E0008E15E00084D6300084D63000862
:100090004D6300084D6300084D6300084D63000880
:1000A0004D630008355500084D6300084D63000896
:1000B0004D55000869550008855500084D63000836
:1000C0004D6300084D6300084D6300084D63000850
:1000D0004D630008215F0008395F0008555F000884
:1000E0004D6300084D6300084D63000800000000E8
:1000F0000000000000000000000000000000000000
:0C01000000000000000000005FF808F1A3
:10010C007BB972B90029BEBF00204FF0004106E058
:10011C0008BF00281CBF6FF000414FF0FF3000F00B
:10012C0057B8ADF1080C6DE904CE002909DB002BA2
:10013C001ADB0CF033FCDDF804E0DDE9022304B03B
:10014C007047404261EB4101002B1BDB0CF026FC9D
:10015C00DDF804E0DDE9022304B0404261EB41012B
:10016C00524263EB43037047524263EB43030CF080
:10017C0015FCDDF804E0DDE9022304B0404261EB3C
:10018C0041017047524263EB43030CF007FCDDF86E
:10019C0004E0DDE9022304B0524263EB43037047F1
:1001AC0053B94AB9002908BF00281CBF4FF0FF31D2
:1001BC004FF0FF3000F00CB8ADF1080C6DE904CE37
:1001CC000CF0ECFBDDF804E0DDE9022304B0704731
:1001DC00704700BF10F8012B11F8013B012A28BF12
:1001EC009A42F7D0D01A7047034613F8012B002A15
:1001FC00FBD1181A0138704710B5054C237833B968
:10020C00044B13B10448AFF300800123237010BDDD
:10021C00600000200000000070E0000808B5034BEF
:10022C001BB103490348AFF3008008BD0000000078
:10023C006400002070E0000808B501F04FFD18BB09
:10024C00002000F077FC10BB002000F021FF08BB61
:10025C00002001F04FFB00BB00F020FA00BB00F0C7
:10026C00CDFC00BB01F03CF800BB01F013FC00BB63
:10027C0000F0E4FA00BB01F005FA00BB0AF0F4FC54
:10028C0001F012FD002008BD01F00EFDD8E701F0D1
:10029C000BFDD9E701F008FDDAE701F005FDDBE71E
:1002AC0001F002FDDBE701F0FFFCDBE701F0FCFCF9
:1002BC00DBE701F0F9FCDBE701F0F6FCDBE701F032
:1002CC00F3FCDBE7034B0360034B0B6080231380D1
:1002DC00704700BF7C0200207C00002000BEFEE7BF
:1002EC000378427843EA0223827843EA0243C078D7
:1002FC0043EA006070470378427843EA022000B278
:10030C00704700B585B0684600F0BEFC18B10020FF
:10031C0005B05DF804FB0298FAE7000030B58DB02B
:10032C00044608A800F0B0FC054601A801F0C6F888
:10033C000146204B1B7823706DBB089B099A637098
:10034C00C3F30720A070C3F30740E0701B0E2371AA
:10035C006271C2F30723A371C2F30743E371120E58
:10036C002272D9B9039B049A6372C3F30723A37255
:10037C00E272C2F30722227399B100236373A37351
:10038C00E3730D4A13882374190A617401331380C3
:10039C0012200DB030BD00231A46D0E700231A46B8
:1003AC00E2E79DF8183063739DF81930A3739DF83C
:1003BC001A30E5E7CC020020C802002000B589B055
:1003CC0001A801F07BF818B1002009B05DF804FB1E
:1003DC000798FAE700B583B08DF804008DF8051086
:1003EC0000231A4601A90348C0690BF075FA03B043
:1003FC005DF804FBCC02002030B585B00C461038FB
:10040C00032835D8DFE800F0020A1230032A2FD96E
:10041C000846FFF765FF00F0FFFF29E0012A27D906
:10042C000846FFF768FF01F005F821E0062A1FD9FE
:10043C0000230093019302930393481CFFF75BFF87
:10044C00ADF80000E01CFFF756FFADF80200601D90
:10045C00FFF751FFADF8040020786946003818BF4B
:10046C00012000F0FDFF03E000210220FFF7B2FFA6
:10047C0005B030BD08B5C1B20520FFF7ABFF08BD14
:10048C0008B5C1B20420FFF7A5FF08BD08B504F0FC
:10049C0041FE08BD00B583B08DF804008DF8051041
:1004AC00002300936A4601A90948C0690BF0F0FAD1
:1004BC00009B4BB14FF0E0234FF08052C3F8042D5A
:1004CC00BFF34F8FBFF36F8F03B05DF804FB00BF1A
:1004DC00CC020020012900D0704708B50021D0B211
:1004EC00FFF7D8FF08BD000010B50D4C217802298C
:1004FC0014BF00210121206909F0C6F921780129D6
:10050C0014BF00210121606909F0BEF9217803298B
:10051C0014BF00210121A06909F0B6F910BD00BF7C
:10052C00CC02002008B5034B03221A70FFF7DCFF46
:10053C0008BD00BFCC02002008B5054B1B78022B70
:10054C0002D110F0070F00D108BDFFF7EBFFFBE75E
:10055C00CC02002008B50B4B1B78022B0BD0094B9F
:10056C001B78012B07D000F0B9FB30B9054B0122E9
:10057C001A70FFF7B9FF012008BD024B03221A7055
:10058C00F7E700BFCC02002008B5124B1B78012BFB
:10059C0009D010F0040F11D00E4B1B78022B0DD18B
:1005AC00FFF7C0FF0AE010F0010F08D110F0020FA6
:1005BC0004D0084B00221A70FFF796FF08BD00F01C
:1005CC00D1FE18B9034B02221A70F5E7014B032236
:1005DC001A70F1E7CC02002000B583B015E02E4B69
:1005EC001B78032B02D0FFF7B5FF0EE001F07CF86F
:1005FC00294B00221A70FFF777FFF4E700F0ECFEAE
:10060C00254B00221A70FFF76FFF4FF0FF3201A944
:10061C00214BD8690BF00DFB9DF80430013B122BDC
:10062C00F3D801A252F823F0EB05000809060008E4
:10063C00810600088B060008950600089F06000836
:10064C00170600081706000817060008170600080A
:10065C0017060008170600081706000817060008FA
:10066C0017060008170600081706000817060008EA
:10067C000906000800F0C0FEFFF754FFC5E79DF81F
:10068C000500FFF781FFC0E79DF80500FFF754FF59
:10069C00BBE7FFF747FFB8E7CC020020F0B583B00B
:1006AC00554808F0D5FF554C6060554808F0D0FF10
:1006BC00A060544808F0CCFFE060534809F0C8F83B
:1006CC002061524809F0C4F86061514809F0C0F843
:1006DC00A0616368002B7DD0A368002B7DD0E368FC
:1006EC00002B7DD02369002B7DD06369002B7DD03E
:1006FC0000287ED004F1200600240094334606F135
:10070C004802022108200BF084F846F8040C414FF3
:10071C000122394656F81C0C08F0B6FF0222394665
:10072C0056F8180C08F0B0FF0322394656F8140C92
:10073C0008F0AAFF012156F81C0C08F0B7FF0121A4
:10074C0056F8180C08F0B2FF012156F8140C08F0FA
:10075C00ADFF2146304800F0DFFA21462F4800F06B
:10076C00DDFE2F49204600F039FF234622462D4955
:10077C002D4800F051FF234622462C492C4800F00E
:10078C004BFF2C4D22462946102001F031F9224610
:10079C002946112001F02CF922462946122001F09D
:1007AC0027F922462946132001F022F92246294630
:1007BC00142001F01DF921461F4801F061F94FF496
:1007CC00FA7004F079FC06F8204CFFF78DFE2046F9
:1007DC0003B0F0BD6FF00400FAE76FF00400F7E728
:1007EC006FF00400F4E76FF00400F1E76FF0040021
:1007FC00EEE76FF00400EBE7C8E00008CC02002045
:10080C00D0E00008D8E00008E0E00008E8E00008CC
:10081C00F0E00008E10400088D04000881040008E1
:10082C00990400080F030008F8E00008C903000849
:10083C00FCE000080504000829030008144BDB69E0
:10084C00EBB1134B93F8C833E3B910B584B0114C2A
:10085C00029404F14C030193022300930023C02261
:10086C000D490E480AF016F944F8040C68B1A4F1CD
:10087C007C03012283F8C823002004B010BD6FF064
:10088C00020070476FF0030070474FF0FF30F4E741
:10089C00CC0200204803002000E10008E505000818
:1008AC0008B5044BD3F8C8341BB1024AD2F8CC14A7
:1008BC00984708BD9806002010B5114B5C68D3F81A
:1008CC00D42401FB0421D3F8D0240E4C84FB014E1C
:1008DC004FEAE17CCCEBAE1C6244C3F8D0244FF45D
:1008EC007A7404FB1C11C3F8D414811AB3F90800F0
:1008FC0001FB00F002EBE032C3F8D02410BD00BFC6
:10090C0098060020D34D621008B50169C0680BF041
:10091C00BDFF08BD70B598B0314B032283F8C424D9
:10092C00002583F8C0542C462E4604E0F31A2C4ABA
:10093C00D2689A4251DB2A4B5B89A34228D9284EB4
:10094C007268D30E5101891A63F100039B0043EACC
:10095C0091738900891843F100034FEAC30C4FF4DB
:10096C007A720023C8004CEA5171FFF719FC0AF0A7
:10097C0089FB0AA9306909F0B7FB58BB0F9B1D44D2
:10098C000134A4B295FBF4F6B342CFDD9B1BCEE74A
:10099C0001AC2422002120460CF0DEF904962146FD
:1009AC000F4B186909F0DEFB08B1002013E00AA90F
:1009BC000B4B186909F098FB08B101200BE00AA851
:1009CC00FFF7A2FF064BC3F8D0040022C3F8D424CF
:1009DC00012000E0002018B070BD0020FBE700BF34
:1009EC0098060020F8B506460D4614464FF0FF3128
:1009FC000D4BD3F868040BF0BCF9012800D0F8BDFE
:100A0C00094FC7F8B464C7F8B8540AF067F9C7F8C7
:100A1C00BC0487F8C04400231A461946D7F868046A
:100A2C000AF05AFFEBE700BF9806002030B591B0F2
:100A3C000AF054F90F903E4B5968CA0E4B015B1AE1
:100A4C0062F10002920042EA93729B00591842F143
:100A5C000002D4004FF47A720023C80044EA5171AA
:100A6C00FFF79EFB044609E00220FFF719FF304B0D
:100A7C00022283F8C4240AF031F90F9021460FA802
:100A8C000AF0A8FA2A4B93F8DC345BB1284B00220D
:100A9C0083F8DC24FFF73EFF0028E5D00120FFF7A8
:100AAC00FFFEE4E76946224B186909F01DFB28BBE1
:100ABC001F4BD3F8D834022B10D81D4D0023C5F88A
:100ACC00D8346846FFF720FF0599FFF7F5FE0122A1
:100ADC000599D5F8D004FFF785FFCFE76846FFF7F7
:100AEC0013FF134BC3F8D0040022C3F8D424022202
:100AFC0083F8C4240820FFF7D3FEDEE70C4AD2F8B3
:100B0C00D8340133C2F8D834022BB7D992F8C43494
:100B1C00042BB3D01346042582F8C454002211468A
:100B2C00D3F8D004FFF75EFF2846FFF7B9FEA5E720
:100B3C00980600202F4B93F8C434002B54D110B5D9
:100B4C00002838D00368002B41D02A4A1360436830
:100B5C00002B40D1274B05225A60B0F90830002BEE
:100B6C003CD1244B40F28F221A814389002B38D17F
:100B7C00204BC8225A81C36803B964231D4CE3601F
:100B8C00206809F095FA2061002830D00622032154
:100B9C0009F0CAFA04F2B443002018605860986057
:100BAC00D860D8611862586283F8280003F8500C9A
:100BBC0001221A7410BD0F4B0F4A1A6005225A609D
:100BCC0040F28F221A81C8225A816423D6E7094B3E
:100BDC00094A1A60BBE7074A5360BEE7054A13810E
:100BEC00C3E7044A5381C6E76FF0030070476FF008
:100BFC000400DFE7980600200CE100081D4B93F879
:100C0C00C4346BB31B4B93F8643463BB10B584B022
:100C1C00184BD3F86834DBB1174C029404F14C0335
:100C2C0001930323009300234FF48072134914485B
:100C3C0009F030FF44F8040CC0B1A4F118030122F0
:100C4C0083F86424022283F8C424002004B010BD6D
:100C5C000C4C214601200AF00CFF44F8040CDBE795
:100C6C006FF0020070476FF0030070474FF0FF30D9
:100C7C00ECE700BF98060020B006002014E1000845
:100C8C00390A0008040B0020E8B138B50446124BB1
:100C9C0093F8C434D3B14FF0FF310F4BD3F8680441
:100CAC000BF067F8012814D10B4D05F2B4430FCBB0
:100CBC0084E80F0000231A461946D5F868040AF098
:100CCC000BFE002038BD6FF0010070476FF0020082
:100CDC00F8E74FF0FF30F5E7980600200D4B93F83E
:100CEC00C43473B10B4B93F8C434032B0CD0094BA5
:100CFC0093F864345BB1074B012283F8DC240020A9
:100D0C0070476FF0020070476FF0030070476FF090
:100D1C000600704798060020064B93F8C43433B194
:100D2C00044BC3F8C804C3F8CC14002070476FF010
:100D3C000200704798060020C303094A82FB031285
:100D4C00D817C0EBE210074A934204DC064A9342E0
:100D5C0004DB00B2704747F6FF70FAE70348F8E788
:100D6C00F1197605FFFFB70B91E847F40080FFFF00
:100D7C00C303094A82FB0312D817C0EB6210B3F508
:100D8C007A0F04DA054A934204DB00B2704747F647
:100D9C00FF70FAE70248F8E7D34D62100DFE05FF2D
:100DAC000080FFFF08B5044BD3F814361BB1024A80
:100DBC00D2F81816984708BD780B0020034AD2F8D1
:100DCC0060360B43C2F86036704700BF780B0020CA
:100DDC0070B5431803EBD3735D100F4CC4F8FC05CE
:100DEC00C4F80016D4F85836C4F80436D4F85806AB
:100DFC00FFF7BEFF06462846FFF7BAFF024631460C
:100E0C0004F5C7600BF048FCA37C0BB1404200B268
:100E1C00014BA3F8540670BD780B0020F8B50F46B3
:100E2C00204BD3F85C3600FB03F31F4A82FB031202
:100E3C00DB17C3EB6213C51A1C1803D4642C02DD38
:100E4C00642400E00024002D03DB642D02DD642506
:100E5C0000E00025134B1B7C0BB387F00101114BF9
:100E6C005B7C0BB187F0010781F001010D4EC9B21B
:100E7C00706C08F03FFE87F00101B06C08F03AFE90
:100E8C00E4B22146706C08F00FFEEDB22946B06C4E
:100E9C0008F00AFE86F8084686F80956F8BD394669
:100EAC00DDE700BF780B00201F85EB5110B54FF02C
:100EBC00FF310C4BD3F8A8050AF05BFF012800D0DA
:100ECC0010BD084C94F8103684F80A3609F006FF69
:100EDC00C4F80C0600231A461946D4F8A8050AF0E3
:100EEC00FBFCEDE7780B002038B505460F4C606C29
:100EFC0008F0FBFDA06C08F0F8FD606C08F030FE0B
:100F0C00A06C08F02DFE04F21C600BF08EFB04F5B7
:100F1C00C7600BF08AFB0023A4F8543684F8113612
:100F2C0084F81056FFF7C2FF38BD00BF780B0020C5
:100F3C0070B588B009F0D2FE0790544B5969CA0EAF
:100F4C004B015B1A62F10002920042EA93729B0021
:100F5C00591842F10002D4004FF47A720023C800F1
:100F6C0044EA5171FFF71CF9044609E00420FFF72D
:100F7C00BBFF0220FFF716FF444B0022C3F860268C
:100F8C00214607A80AF026F8404BD3F86036002B10
:100F9C00ECD103A8FFF778FE0028F1D13B4B039A64
:100FAC00C3F8F425049AC3F8F8250DF10B01586C1D
:100FBC0008F0F0FD18B99DF80B30042B3BD0334BE7
:100FCC0093F81136002B3DD09DF81830002B3CD0F7
:100FDC00039B002BB8BF5B422C4AD2699A423BDB85
:100FEC002A4AD2F864360133C2F8643692699342C5
:100FFC0039D2264E306AFFF79FFE85B2B6F85436CA
:10100C001D442DB20398FFF797FE0246294606F2BF
:10101C001C600BF041FB80EAE073A3EBE0739BB226
:10102C00642202FB03F3C0F3C031D813FFF7F6FEC2
:10103C00FFF73CFFA4E70420FFF756FF0220FFF761
:10104C00B1FE9DE7FFF732FF9AE70420FFF74CFF54
:10105C000420FFF7A7FE93E70320FFF745FF0120CD
:10106C00FFF7A0FE8CE7094D0023C5F8643600930A
:10107C0001936946E86C08F0A3FE01A9286D08F0FD
:10108C009FFE01990098FFF7A3FEB2E7780B0020B2
:10109C0038B58A4B93F81036002B40F0FF800028AF
:1010AC0000F0BB800368002B00F0CF80834A1360F4
:1010BC004368002B00F0CD80804A53608368002B7E
:1010CC0000F0CB807D4A9360C368002B00F0C98090
:1010DC007A4AD360037C002B00F0C780774B012247
:1010EC001A74437C002B00F0C480744B01225A7498
:1010FC00837C002B00F0C180704B01229A744369F1
:10110C00002B40F0BE806D4B05225A618369002B89
:10111C0040F0BA80694B0A229A61C369002B40F0F7
:10112C00B680664B4AF6C872DA61026A634B1A6281
:10113C00B0F9243023B9B0F92830002B00F0AA8084
:10114C0000F12401436B002B00F0A68000F1340465
:10115C005B4D28460BF06EFA214605F11C000BF096
:10116C0069FAA5F21C65286808F082FC6864686856
:10117C0008F07EFCA864A86808F006FEE864E8683D
:10118C0008F002FE03462865686C002800F0898090
:10119C00AA6C002A00F08880EA6C002A00F0878094
:1011AC00002B00F08780474C0022214608F012FDEE
:1011BC0000222146A86C08F00DFD0121686C08F096
:1011CC001BFD0121A86C08F017FD0024C5F8F4459F
:1011DC00C5F8F845C5F8FC45C5F80046C5F8044601
:1011EC00C5F80846C5F80C46C5F85846C5F85C461F
:1011FC00A5F85446C5F86446C5F8604685F811460E
:10120C0085F8A445012385F81036686C08F0A8FC15
:10121C00A86C08F0A5FC204638BD284B2A4A1A6059
:10122C002A4A5A602A4A9A602A4ADA6000221A74B8
:10123C005A749A74052159610A2199614AF6C87148
:10124C00D9611A62244C254982E71C4B1E4A1A604C
:10125C002EE71A4B1D4A5A6030E7184B1C4A9A600D
:10126C0032E7164B1B4ADA6034E7144B00221A742F
:10127C0037E7124B00225A743AE7104B00229A744B
:10128C003DE70E4A536141E70C4A936145E70B4A2F
:10129C00D3614AE7114955E70F4C59E76FF003004A
:1012AC00BAE76FF00400B7E76FF00400B4E76FF033
:1012BC000400B1E76FF00400AEE700BF780B00202C
:1012CC0094110020C90D000820E1000828E1000855
:1012DC0030E1000840E10008E0E20008F0E200081C
:1012EC001B4B93F8103653B3194B93F8A4354BBBE7
:1012FC0010B584B0164BD3F8A835C3B1154C029475
:10130C0004F14C0301930423009300234FF4A072C7
:10131C001149124809F0BEFB44F8040CA8B1A4F121
:10132C005803012283F8A425002004B010BD0C4CF6
:10133C00214601200AF09DFB44F8040CDEE76FF017
:10134C00020070476FF0030070474FF0FF30ECE77E
:10135C00780B0020D00B002050E100083D0F000856
:10136C002411002038B51A4B93F810364BB3184B98
:10137C0093F8A43543B3164B586C08F0D7FBE8B977
:10138C00134B986C08F0D2FB0546B8B9114C2046AB
:10139C000BF04BF904F11C000BF047F900232387E9
:1013AC00A364012304F80B3C022304F80C3CFFF764
:1013BC007DFD0820FFF7F6FC284638BD6FF00405CC
:1013CC00FAE76FF00205F7E76FF00605F4E700BFE8
:1013DC00780B00209411002008B5064B93F81036BA
:1013EC0023B10120FFF780FD002008BD6FF0020043
:1013FC00FBE700BF780B002008B5064B93F81036BE
:10140C0023B10420FFF770FD002008BD6FF002002F
:10141C00FBE700BF780B0020054B93F8103623B187
:10142C00034BC3F85806002070476FF0020070475A
:10143C00780B0020094B93F8103643B100F164038C
:10144C00C82B07D8054BC3F85C06002070476FF01B
:10145C00020070476FF00100704700BF780B00204E
:10146C000B46F1B1124A92F81026EAB1B8B9114AFA
:10147C00B3F900101180B3F902105180B3F90410C4
:10148C009180B3F90600B3F90810D0801181B3F93B
:10149C000A10B3F90C305181938100207047064A31
:1014AC00E6E76FF0010070476FF00200704700BF75
:1014BC00780B002094110020B011002010B338B527
:1014CC000446154B93F81036FBB14FF0FF31124B1D
:1014DC00D3F8A8050AF04DFC012819D10E4DA446ED
:1014EC0005F2F4540FCCACE80F0094E807008CE83C
:1014FC00070000231A461946D5F8A8050AF0ECF99E
:10150C00002038BD6FF0010070476FF00200F8E763
:10151C004FF0FF30F5E700BF780B0020064B93F837
:10152C00103633B1044BC3F81406C3F81816002058
:10153C0070476FF002007047780B0020F0B583B055
:10154C0009F0CCFB0190244B1968CA0E4B015B1AB5
:10155C0062F10002920042EA93729B00591842F128
:10156C000002D4004FF47A720023C80044EA51718F
:10157C00FEF716FE0746394601A809F02BFD164B5F
:10158C005B6803B1984709F0A9FB0646002400E00C
:10159C000134032CEFD804EB84020F4B03EB8203D2
:1015AC001B7E002BF4D00C4B03EB8203DA68002A71
:1015BC00EED004EB8403084D05EB830528699047B6
:1015CC00301A6B698342E3D203498B6D0122A2402E
:1015DC0013438B65DCE700BFE01100200D4B93F843
:1015EC002C339BB900B964200A4A10605160002367
:1015FC00936507E003EB8301064A02EB81020021AD
:10160C0011760133032BF5D9002070476FF00300DE
:10161C00704700BFE011002061B330B404460D46A2
:10162C00174991F82C1341BB002003281FD800EB5D
:10163C00800C134901EB8C01097EB1B900EB800CD5
:10164C000F4901EB8C018C60CD600A611BB90C4B0E
:10165C001B6803EB430300EB8001094A02EB810298
:10166C0053610123137630BC70470130DDE76FF016
:10167C000300F8E76FF0010070476FF00300F2E72A
:10168C00E0110020144B1B68EBB1134B93F82C3377
:10169C00E3B910B584B0114C029404F14C030193DE
:1016AC00012300930023A0220D490E4809F0F2F902
:1016BC0044F8040C68B1A4F16003012283F82C23D4
:1016CC00002004B010BD6FF0020070476FF00300F3
:1016DC0070474FF0FF30F4E7E0110020401200207B
:1016EC005CE10008491500080020014B9865704723
:1016FC00E0110020B0F8002192B2531CDBB2B0F81C
:10170C0002C11FFA8CFC9C4504D08154A0F8003116
:10171C000120704700207047B0F802319BB2B0F83E
:10172C00002192B29A4207D0C25C0A700133DBB23C
:10173C00A0F8023101207047002070478446002237
:10174C0010460EE04000C0B280F007000133DBB25F
:10175C00072B05D810F0800FF4D14000C0B2F5E78C
:10176C0001328A4204D21CF8023058400023EFE7C1
:10177C0070470000164AD2F840320133C2F84032AA
:10178C00002300E00133072B20D8114A02EB03128F
:10179C0092F8C021002AF5D00D4903F11B0201EB90
:1017AC000212127991F875018242EBD110B503F156
:1017BC001B0201EB0212946801EB0313D3F8BC314A
:1017CC0091F8762101F5BC71A04710BD704700BFA0
:1017DC001015002070B50E461546002400E00134AB
:1017EC00AC420CD2315D0648FFF784FF0028F6D1DD
:1017FC000448D0F848320133C0F84832EFE770BDE6
:10180C00801500201015002030B591B00446384BDF
:10181C00D3F83C220132C3F83C2293F87431042BE8
:10182C0060D8DFE803F0030A12273A00A5280AD192
:10183C002F4B012283F8742105E02D4B83F87501A1
:10184C00022283F8742111B030BD382804D9284BFA
:10185C00002283F87421F6E7254B83F876010022E9
:10186C0083F8772120B90422214B83F87421EAE70D
:10187C000322F9E71E4A92F877114B1CDBB282F86F
:10188C007731114481F8780192F876219342DAD3BA
:10189C00174B042283F87421D5E7154981F8B00160
:1018AC00002381F8743191F875318DF8043091F87A
:1018BC0076518DF805502A4601F5BC710DF10600E4
:1018CC000BF0DEFAA91C01A8FFF738FFA04206D0E6
:1018DC00074AD2F844320133C2F84432B3E7FFF777
:1018EC0049FFB0E7024B002283F87421ABE700BF3D
:1018FC00101500203B4B93F8A436002B69D170B522
:10190C00044638B305681DB3636833B30123354A05
:10191C0082F862301BBB002C3AD0E268314B5A661D
:10192C00237C304C84F86830284608F0F1FCE066E3
:10193C00002851D000222C4908F056FD03460028FF
:10194C004DD1A4F87001A4F8720184F874012BE055
:10195C00264DD9E7254D0023D9E70023D7E71646B6
:10196C002022616830460BF01EFA002386F82030E6
:10197C00A16841B12136402230460BF014FA002305
:10198C0086F84030C9E7174B002283F82120C4E7C2
:10199C00144B64225A660023C3E7124A02EB03126B
:1019AC00002182F8C0110133072BF6D90D49002311
:1019BC00C1F83432C1F83832C1F83C32C1F8403287
:1019CC00C1F84432C1F84832C1F84C32C1F8503237
:1019DC0070BD6FF0030070476FF00400F8E76FF014
:1019EC000400F5E710150020E117000864E1000879
:1019FC0070B54FF0000C664615E059B11F4B0CF159
:101A0C001B0003EB0010816003EB0C13C3F8BC212B
:101A1C0000202DE0194B03EB0C13002083F8C001C0
:101A2C0026E00CF1010CBCF1070F19D80CF11B03CB
:101A3C00124C04EB0313043304EB0C1494F8C04164
:101A4C0044B10CF11B0E0D4D05EB0E1E9EF804500F
:101A5C008542D2D0002CE4D1002EE2D11E46E0E724
:101A6C0039B146B130707160B2600123337300201C
:101A7C0070BD0020FCE76FF00300F9E710150020A3
:101A8C00034BC3F83402C3F838120020704700BF70
:101A9C001015002070B5A0B0244BDC6E002C3BD090
:101AAC0093F8A436002B3AD1204B93F86230C3B98B
:101ABC001F4C029404F14C03019302230093002366
:101ACC004FF480721B491C4808F0E4FF44F8040CE6
:101ADC0040B3A4F51673012283F8A426002020B08D
:101AEC0070BD05AD6B22002128460BF035F90F4E69
:101AFC002022314628460BF056F9402206F12101EE
:101B0C000DF135000BF04FF9FF238DF87E3029468F
:101B1C00204608F019FCCBE76FF00200DFE76FF00E
:101B2C000300DCE74FF0FF30D9E700BF10150020B1
:101B3C00681700206CE10008D51B0008382A38D83B
:101B4C0070B590B0144602B1B1B31E4BDE6EB6B395
:101B5C00A5238DF804308DF805008DF80640CCB91E
:101B6C00A11C0DF10500FFF7E9FD04F143030DEB9A
:101B7C00030505F83C0C6423221D01A9304608F02E
:101B8C0003FC68B90F4AD2F84C320133C2F84C321C
:101B9C0010B070BD22460DF107000BF071F9DFE7B4
:101BAC00084AD2F850320133C2F850324FF0FF30AD
:101BBC00EEE76FF0010070476FF00100E8E76FF09F
:101BCC000200E5E71015002010B590B009F086F87A
:101BDC000F90194B596E51B14FF47A704FF47A72D1
:101BEC000023A1FB0001FEF7DBFA044610E0012400
:101BFC000EE09DF83B00FFF707FE0DF13B010F488F
:101C0C00FFF78AFD0028F4D10B4BD3F8343223B9FB
:101C1C0021460FA809F0DEF9EFE7074AD2F838128F
:101C2C006846984702460028F2D06946024B93F862
:101C3C006800FFF783FFEBE71015002080150020EC
:101C4C0010B590B006AC2822002120460BF084F889
:101C5C0000230193029303930493059301230693AA
:101C6C004FF48033079302220D920E934FF4E0133E
:101C7C000F93204604F04AFC78B90F2301930221FC
:101C8C000291002303934FF480620492059301A800
:101C9C0004F06EFE20B910B010BD6FF00A00FAE728
:101CAC006FF00A00F7E7000072B60A4A936943F036
:101CBC0010039361084B5A6822F470025A605A68F8
:101CCC0042F400125A60DA6822F40052DA6000BF63
:101CDC00FDE700BF001002400010014008B504F001
:101CEC0059FBFFF7ADFFD0B9164800F093F9C0B916
:101CFC0003F084F8B8B903F09BF9B0B902F098FE80
:101D0C00A8B902F057FCA0B901F00CFB98B900F08F
:101D1C004BFE90B902F002FA88B9002008BDFFF71B
:101D2C00C3FFFFF7C1FFFFF7BFFFFFF7BDFFFFF7D3
:101D3C00BBFFFFF7B9FFFFF7B7FFFFF7B5FFFFF7E3
:101D4C00B3FF00BF801A06000268054B9A4200D010
:101D5C007047044AD36923F40013D361F8E700BF3A
:101D6C00005400400010024000B1704764207047DE
:101D7C0082B0094B1B68094AA2FB03231B0D00FB15
:101D8C0003F3019300E000BF019B5A1E0192002B4C
:101D9C00F9D102B0704700BF0000002083DE1B4366
:101DAC0008B5021E18BF01224021024804F0CDFFE5
:101DBC0008BD00BF000C014008B5021E18BF01226F
:101DCC008021024804F0C1FF08BD00BF000C014097
:101DDC0030B585B00F4D0122C021284604F0B5FF67
:101DEC000023009301930293039311230193012386
:101DFC00029302230393402300936946284604F080
:101E0C0093FE802300936946284604F08DFE05B0AE
:101E1C0030BD00BF000C014000B587B00B4B9A6978
:101E2C0042F008029A619B6903F008030193019B3D
:101E3C00074B0DF1080C0FCB8CE80F0061460548E1
:101E4C0004F072FE07B05DF804FB00BF0010024006
:101E5C0088E00008000C01400268124B9A4200D046
:101E6C00704710B586B0104CA36943F00803A3610A
:101E7C00A36903F008030093009B0C4B0DF1080CB5
:101E8C000FCB8CE80F006146094804F04DFEE36966
:101E9C0043F40013E361E36903F400130193019B22
:101EAC0006B010BD005400400010024088E000084D
:101EBC00000C014008B58021034804F03FFF0128C5
:101ECC0000D0002008BD00BF000C014008B5402127
:101EDC00034804F033FF012800D0002008BD00BFE8
:101EEC00000C014010B5FFF773FFFFF7EFFFB8B31D
:101EFC0000240F2C13D8FFF7DDFF60BBFFF750FF5A
:101F0C000520FFF735FF0120FFF74AFF0520FFF7FB
:101F1C002FFFFFF7DBFF30B30134E4B2E9E7002316
:101F2C00DBB1FFF7C7FFC0B1FFF7D0FFA8B10020AE
:101F3C00FFF742FF0520FFF71BFF0120FFF730FFE3
:101F4C000520FFF715FF0120FFF736FF0520FFF7EF
:101F5C000FFF002010BD0123E2E76FF00400F9E74A
:101F6C006FF00400F6E76FF00400F3E7184B1B78F2
:101F7C002BB310B5174B1C6824B3E8B1C30E410149
:101F8C00091A63F100039B0043EA91738900091855
:101F9C0043F100034FEAC30C4FF47A720023C800DC
:101FAC004CEA5171FEF7FCF80146204609F0E1FEBF
:101FBC0001280AD1002010BD4FF0FF31F5E76FF07A
:101FCC00060070476FF00600F5E76FF00200F2E7CD
:101FDC00C41B0020C01B002008B50C4B1B785BB148
:101FEC000B4B186858B100231A46194609F074FCBB
:101FFC00012807D1002008BD6FF00600FBE76FF049
:10200C000600F8E74FF0FF30F5E700BFC41B0020D7
:10201C00C01B002030B583B0304A1278002A5AD148
:10202C0003462F4A2F4911602F49D1672F49C2F817
:10203C00801000B92E4B2A48436000238360C36094
:10204C004FF48042026143618361C361036206F015
:10205C0045F8F8B9012009F001FD264B186008B3CA
:10206C00FFF740FF044618BB234BDA6942F4001219
:10207C00DA61DB6903F400130193019BFFF7CCFEDB
:10208C00174806F02BF8E8B9144B01221A702046B9
:10209C0003B030BD184AD36923F40013D3616FF039
:1020AC000404F4E70E4806F025F96FF00504EEE79A
:1020BC000B4806F01FF90F4D286809F012FF00239A
:1020CC002B60E4E70B4C206809F00BFF0023236026
:1020DC006FF00404DBE76FF00204D8E7C41B0020A8
:1020EC00C81B002000540040651E0008551D000848
:1020FC00A0860100C01B0020001002402DE9F04317
:10210C0085B01E46DDF83090194B1B7803B304469E
:10211C000F461546FAB10EB34846FFF725FE80462A
:10212C0064004846FFF722FF8146D0B9CDF80880FD
:10213C000196009501233A4621460E4806F0B8F95F
:10214C000446FFF749FF7CB9484605B0BDE8F0836B
:10215C006FF00609F8E76FF00109F5E76FF0010978
:10216C00F2E76FF00209EFE76FF00409ECE700BF4C
:10217C00C41B0020C81B00202DE9F04385B01E466F
:10218C00DDF83090194B1B7803B304460F46154607
:10219C00FAB10EB34846FFF7E7FD804664004846A7
:1021AC00FFF7E4FE8146D0B9CDF808800196009582
:1021BC0001233A4621460E4806F02AFA0446FFF758
:1021CC000BFF7CB9484605B0BDE8F0836FF00609FB
:1021DC00F8E76FF00109F5E76FF00109F2E76FF02E
:1021EC000209EFE76FF00409ECE700BFC41B002005
:1021FC00C81B00202DE9F04182B01F46184B1B78FC
:10220C00F3B104460D461646E9B1FAB13846FFF76C
:10221C00ABFD804664003846FFF7A8FE0746C0B900
:10222C00CDF8008033462A4621460E4806F086F843
:10223C000446FFF7D1FE7CB9384602B0BDE8F08108
:10224C006FF00607F8E76FF00107F5E76FF001078D
:10225C00F2E76FF00207EFE76FF00407ECE700BF5F
:10226C00C41B0020C81B00200268124B9A4200D0ED
:10227C00704710B582B0002301930F4A13700F4AB8
:10228C00146813600E4B186810B101A909F070FCAA
:10229C000CB10020A047019B4BB14FF0E0234FF055
:1022AC008052C3F8042DBFF34F8FBFF36F8F02B072
:1022BC0010BD00BF00540040BC1B0020B81B002008
:1022CC00C01B00200268124B9A4200D0704710B518
:1022DC0082B0002301930F4A13700F4A14681360E5
:1022EC000E4B186810B101A909F042FC14B16FF043
:1022FC000400A047019B4BB14FF0E0234FF08052FC
:10230C00C3F8042DBFF34F8FBFF36F8F02B010BD16
:10231C0000540040BC1B0020B81B0020C01B002038
:10232C0008B5FFF7CFFF08BDF8B5124B1B78BBB152
:10233C0005460C460846FFF717FD06462046FFF7F4
:10234C0015FE074678B93346012205FA02F10A4810
:10235C0006F008FB0446FFF73FFE3CB93846F8BDD3
:10236C006FF00607FAE76FF00207F7E76FF0040764
:10237C00F4E700BFC41B0020C81B00208378032B8C
:10238C0013D8DFE803F002060A0E4FF4FA638360F9
:10239C0070474FF47A63836070474FF4FA5383604D
:1023AC0070474FF47A53836070474FF4FA6383603D
:1023BC0070470000C378032B0FD8DFE803F0020549
:1023CC00080B074BC3607047064BC3607047064B46
:1023DC00C3607047054BC3607047014BC3607047C7
:1023EC0090D0030020A1070040420F0080841E0003
:1023FC0010B94FF4FA5070474FF47A70704738B5F3
:10240C00054614460846FFF7F3FF6B1E082B31D820
:10241C00DFE803F005321F212325272A2D00012296
:10242C0082422BD8B0FBF2F39BB2013B9BB2FF2B49
:10243C0000D9FF232370013390FBF3F002EB42022F
:10244C001346002A1DDB80B2B0EBA30F1BDB01206F
:10245C0038BD1922E4E73222E2E76422E0E7C82221
:10246C00DEE74FF4C872DBE74FF44872D8E74FF45D
:10247C00C862D5E76422D3E70A22D1E70020207096
:10248C00E6E7D31CDFE70020E2E7FF230B70002018
:10249C0070476FF00C0070476FF00C007047002015
:1024AC00086070470848407848B109B103200860BB
:1024BC000AB1002111602BB10020188070476FF019
:1024CC000100704700207047641C00206FF00C0066
:1024DC0070470000124B5B78FBB110B599B1104CF2
:1024EC0004F1140E8C46BCE80F00AEE80F00BCE8FB
:1024FC000F00AEE80F00DCF80030CEF800300123FE
:10250C002374002010BD06480024047424222146A4
:10251C0014300AF021FC2046F4E76FF001007047FC
:10252C00641C002000B583B00A4664230093012389
:10253C00014605480078FFF71FFE10B903B05DF89F
:10254C0004FB4FF0FF30F9E7641C002010B582B09B
:10255C000C460C4B5B781BB90B70002002B010BD05
:10256C000DF107016B20FFF7DDFF38B99DF807303F
:10257C00C3F3801383F001032370EEE7032323706E
:10258C00EBE700BF641C002000B583B000238DF87E
:10259C0007300DF107017520FFF7C4FF40B99DF816
:1025AC000700682814BF0020012003B05DF804FB6D
:1025BC000020FAE779B113460A467BB100B583B027
:1025CC0064210091014608480078FFF7D5FD40B919
:1025DC0003B05DF804FB6FF0040070476FF004006B
:1025EC0070474FF0FF30F3E7641C00205C4B5B78C6
:1025FC00002B00F0B1802DE9F04184B088460E220A
:10260C0069463B20FFF7D6FF002840F08A809DF8F2
:10261C0000703F023FB29DF801301F439DF80260ED
:10262C00360236B29DF803301E439DF804502D023D
:10263C002DB29DF805301D439DF806301B021BB2D0
:10264C009DF8072043EA020E9DF80840240224B2AC
:10265C009DF809301C439DF80A20120212B29DF815
:10266C000B301A439DF80C301B021BB29DF80D1059
:10267C000B433B49896801FB07F7002F54DBFF1321
:10268C0001FB06F6002E53DBF61301FB05F5002DBE
:10269C0052DBED133249C96801FB04F4002C4FDB0B
:1026AC00E41301FB02F2002A4EDBD21301FB03F30D
:1026BC00002B4DDB4FEAE33C2949097C69B12849E1
:1026CC004B69FF1A8B69F61ACB69ED1A0B6AE41A7F
:1026DC004B6AD21A896AACEB010CC8F80870C8F8BE
:1026EC000C60C8F81050C8F81440C8F81820C8F886
:1026FC001CC04FF47A7303FB0EFE1A4B83FB0E23A4
:10270C004FEAEE7ECEEBE31EAEF5E24EAEF14E0E90
:10271C00A8F82CE000220023C8E900230323C8F802
:10272C00303004B0BDE8F08107F5FF477F37A6E7EE
:10273C0006F5FF467F36A7E705F5FF457F35A8E789
:10274C0004F5FF447F34ABE702F5FF427F32ACE780
:10275C0003F5FF437F33ADE76FF00100704700BF17
:10276C00641C00206160606000B585B08DF80F10AE
:10277C006423009301230DF10F02014605480078F4
:10278C00FFF7BCFC10B905B05DF804FB4FF0FF304F
:10279C00F9E700BF641C002010B582B004464179F3
:1027AC001A20FFF7E1FF034610B1184602B010BD26
:1027BC00A178C90001F018011C20FFF7D5FF0346D2
:1027CC000028F2D1E178C90001F018011B20FFF7B5
:1027DC00CBFF03460028E8D10DF10702617920797F
:1027EC00FFF70DFE30B19DF807101920FFF7BCFF65
:1027FC000346DAE76FF00403D7E7000008B50C4B8B
:10280C005B788BB159B101216B20FFF7ADFF50B94B
:10281C000A2002F0D3FE0648FFF7BEFF03E040217A
:10282C006B20FFF7A1FF08BD6FF00100FBE700BFB5
:10283C00641C002038B50B4B5B787BB10C46C9008F
:10284C0001F018011B20FFF78FFF054608B1284641
:10285C0038BD0448C470FFF7ADFDF8E76FF0010513
:10286C00F5E700BF641C002038B50B4B5B787BB1DF
:10287C000C46C90001F018011C20FFF775FF054636
:10288C0008B1284638BD04488470FFF777FDF8E797
:10289C006FF00105F5E700BF641C0020114B5B785D
:1028AC00BBB110B582B0144611F0040F14D10DF168
:1028BC0007020C4B59792046FFF7A1FD78B19DF822
:1028CC0007101920FFF750FF08B9064B1C7102B016
:1028DC0010BD6FF0010070476FF00C00F7E76FF060
:1028EC000400F4E7641C002008B5064B5B780BB9B8
:1028FC00002008BD40216B20FFF736FF014B002262
:10290C005A70F5E7641C002008B532216820FFF7E7
:10291C000BFD30B132216920FFF706FD18B1002004
:10292C0008BD6820FCE76920FAE7000038B5FFF71E
:10293C00EBFF1C4B187070B3FFF726FE70B38021B1
:10294C006B20FFF711FF044608B1204638BD642008
:10295C0002F034FE01216B20FFF706FF044600282D
:10296C00F3D10A2002F02AFE0E4800238370C370B4
:10297C000523037104234371FFF70EFF044600285F
:10298C00E3D1084D2846FFF7F9FC2846FFF712FD66
:10299C0001236B70D9E76FF00704D6E76FF00804DA
:1029AC00D3E700BF641C002010B50D4C3822002169
:1029BC0020460AF0D1F905232371042363710948D9
:1029CC00094B0360094B4360846007F015FB00B9A9
:1029DC0010BD044807F042FB6FF00400F8E700BF9D
:1029EC00641C00204C1C00200CE1000800E30008D3
:1029FC00FF230B7000207047044B93F8013413B184
:102A0C006FF00C0070476FF0010070474C1D0020F8
:102A1C006FF00C0070476FF00C0070476FF00C00FB
:102A2C0070470000094B93F802341BB102230B7062
:102A3C0000207047054B93F801340BB90B70F7E786
:102A4C00024B93F800340B70F2E700BF4C1D0020D2
:102A5C0000200860704710B4019C029819B18C4694
:102A6C008021ACF800100AB1402111800BB100227A
:102A7C001A700CB10023237008B1212303600020CD
:102A8C0010BC70476FF00C0070476FF00C00704773
:102A9C00002900F007812DE9F04F85B016461A4643
:102AAC000C46002E00F001818D88002D00F0008175
:102ABC00CB88002B00F0FF8008884119802900F298
:102ACC00FD8061881944402900F2FB8010F0070F4B
:102ADC0040F0FA8015F0070B40F0F980ED0805FB8B
:102AEC0003F3934200F2F680804B1868002800F044
:102AFC00F4807F4B93F80234002B40F0F18064217A
:102B0C0009F037F9012840F0EE80794B93F8023444
:102B1C0063B9638813F0070040F0B580B4F8068001
:102B2C0018F0070864D00095A64694E000231A46D6
:102B3C0019466E48006808F0CFFE6FF00200AEE058
:102B4C0003FB0502B15C03F110026A4402F8081C95
:102B5C000133DBB2072BF3D9002017E00133DBB2D2
:102B6C00072B0DD803F110026A4412F8082C0A4204
:102B7C00F4D001229A404BEA02025FFA82FBEDE7A5
:102B8C0067445B4B03F807B00130C0B2072808D884
:102B9C000746C0F1070301219940C9B200239B46A7
:102BAC00DEE70EF1010E1FFA8EFEAE4512D2B4F81E
:102BBC0000C04FEACE039BB29C441FFA8CFC0CEB7A
:102BCC00CA1C1FFA8CFC05FB09F080B2704480B261
:102BDC000023BFE709F108091FFA89F9E3884B457F
:102BEC0055D9B4F802A0CA44CAF3C70AC646DCE7F2
:102BFC00C146F3E73E4DE95C6FEA090040B2014083
:102C0C00E9540132D2B2072A18D8BEF8003003EBCF
:102C1C00C7039BB29B1A9BB207339BB25FFA88F136
:102C2C0003EBC1139BB22CFA02F111F0010FE1D0AE
:102C3C002F48C15C41EA0A01C154E2E70137BFB237
:102C4C00009B9F4204D2E31916F803C00022DAE776
:102C5C000198431C98B2BEF80630834217D9BEF8CF
:102C6C0002300344C3F3CC0803F007034FF001090F
:102C7C0009FA03F95FFA89FA009B03FB00F4A4B28A
:102C8C005F460190DCE758460095A646E3E7002333
:102C9C001A4619461548006808F01EFE002005B0BB
:102CAC00BDE8F08F6FF0040070476FF00400F6E79A
:102CBC006FF00400F3E76FF00400F0E76FF004002E
:102CCC00EDE76FF00400EAE76FF00400E7E76FF060
:102CDC000400E4E76FF00400E1E76FF00100DEE7C9
:102CEC006FF00200DBE76FF00200D8E7301D002028
:102CFC004C1D002008B5074900230B704870642355
:102D0C0002223C20FFF776FA00B908BD4FF0FF30E5
:102D1C00FBE700BF201D002038B5154B93F801349C
:102D2C00E3B10C46134B1868D8B1642109F021F8B3
:102D3C00012819D184B1AF20FFF7DCFF054610B98B
:102D4C000B4B83F8004400231A46194609480068C7
:102D5C0008F0C2FD284638BDAE20EDE76FF0010546
:102D6C00F8E76FF00105F5E76FF00205F2E700BF39
:102D7C004C1D0020301D002008B50B4607490022D1
:102D8C000A7048708B70642303223C20FFF732FAE0
:102D9C0000B908BD4FF0FF30FBE700BF201D00203D
:102DAC000F2913D838B503460C460B4D2846002284
:102DBC0000F8012B0A4619460AF062F86423621CDB
:102DCC0029463C20FFF716FA18B938BD6FF00400FD
:102DDC0070474FF0FF30F8E7201D00202DE9F0413F
:102DEC0084B007469046CC08194401392ED4C1F35F
:102DFC00C705072D00D9072521238DF80C308DF838
:102E0C000D7007EB0803DBB2013B8DF80E3003218C
:102E1C0003A8FFF7C5FF0646D0B1244C2368ADF8D4
:102E2C0000301B0C8DF8023003216846FFF7B8FF09
:102E3C006368ADF804301B0C8DF80630032101A833
:102E4C00FFF7AEFF304604B0BDE8F0810731CEE7A6
:102E5C0022238DF808308DF809408DF80A50032193
:102E6C0002A8FFF79DFF0646B0B1D6E7104E3046DC
:102E7C00402300F8013B07EBC41342460D491944AB
:102E8C0009F0FEFF642308F1010231463C20FFF7F4
:102E9C00B1F906460134E4B2A54201D3002EE5D0C7
:102EAC00002EBAD04FF0FF36B7E700BF98E000080D
:102EBC009C1C00204C1D0020F8B506461D46204BDE
:102ECC00186820B30F46144622B335B316F0070F1B
:102EDC0026D112F0070F26D19319802B26D86B1808
:102EEC00402B26D8642108F044FF012824D12B461E
:102EFC00224639463046FFF771FF044600231A4636
:102F0C0019460F48006808F0E7FC2046F8BD6FF042
:102F1C000104FAE76FF00404F7E76FF00404F4E738
:102F2C006FF00404F1E76FF00404EEE76FF00404B3
:102F3C00EBE76FF00404E8E76FF00204E5E700BF8D
:102F4C00301D0020E9B18C468A88EAB108B5CB88DF
:102F5C00EBB1088810F0070F1CD112F0070F1CD131
:102F6C00811880291CD8BCF8021001EB030CBCF1B1
:102F7C00400F18D8DBB2D2B2C9B2C0B2FFF79CFF77
:102F8C0008BD6FF0040070476FF0040070476FF0DD
:102F9C000400F5E76FF00400F2E76FF00400EFE7D0
:102FAC006FF00400ECE76FF00400E9E730B583B094
:102FBC001E4B1B68ADF804301B0C8DF8063003213A
:102FCC0001A8FFF7EDFE034610B1184603B030BD63
:102FDC00164B5B68ADF800301B0C8DF802300321EA
:102FEC006846FFF7DDFE03460028EED1002413E00F
:102FFC000F4D2846402300F8013B80220D4901EB80
:10300C00C41109F03DFF6423812229463C20FFF7BF
:10301C00F1F803460134E4B2072C01D8002BE7D0B9
:10302C00002BD2D04FF0FF33CFE700BF98E0000861
:10303C009C1C00204C1D002010B50D4B186880B155
:10304C00642108F096FE01280ED1FFF7AFFF04466D
:10305C0000231A4619460648006808F03DFC204635
:10306C0010BD6FF00104FAE76FF00204F7E700BF40
:10307C00301D002008B5084B93F8013433B1064BD2
:10308C0093F802342BB9FFF7D7FF08BD6FF001009E
:10309C00FBE76FF00200F8E74C1D002038B52A4B17
:1030AC0093F80134002B43D0284B1B68002B42D0E3
:1030BC00254B93F802343BB16421234BD3F8040421
:1030CC0008F057FE012838D16421204B186808F00D
:1030DC0050FE012834D1AE20FFF70CFE0446D0B1CF
:1030EC0000231A4619461948006808F0F5FB04BB82
:1030FC00154BD3F8040428B108F0F3FE124B002250
:10310C00C3F80424114B186898B108F0EAFE0F4B71
:10311C0000221A600DE00C4D4FF48062002128460D
:10312C0009F01AFE002385F8003485F80134D7E73E
:10313C000024204638BD0024FBE76FF00204F8E7BA
:10314C006FF00204F5E700BF4C1D0020301D00207D
:10315C0010B582B0704B93F80134002B40F0D7803F
:10316C006E4B1B68EBB16C4BD3F804341BB34FF4B0
:10317C00FA716A4B186808F0FCFD012840F0C98010
:10318C0032213C20FFF7D0F810B36FF00704002376
:10319C001A4619466148006808F09EFB204602B0AA
:1031AC0010BD012008F05AFC5C4B18600028DAD1E5
:1031BC004FF0FF34F2E703220021012008F05EFB00
:1031CC00554BC3F804040028D1D14FF0FF34E5E788
:1031DC00AE20FFF78FFD04460028D8D18021D520E2
:1031EC00FFF7CAFD04460028D1D13F21A820FFF7E4
:1031FC00C3FD04460028CAD10021D320FFF7BCFD33
:10320C0004460028C3D14020FFF774FD0446002873
:10321C00BDD1A120FFF76EFD04460028B7D1C82010
:10322C00FFF768FD04460028B1D11221DA20FFF720
:10323C00A3FD04460028AAD1CF218120FFF79CFDD5
:10324C0004460028A3D1A420FFF754FD044600280F
:10325C009DD1A620FFF74EFD0446002897D1F12101
:10326C00D920FFF789FD0446002890D13021DB20BE
:10327C00FFF782FD0446002889D114218D20FFF729
:10328C007BFD0446002882D100212020FFF774FD2D
:10329C00044600287FF47BAF214B1B68ADF804304B
:1032AC001B0C8DF80630032101A8FFF779FD0446AD
:1032BC0000287FF46CAF1A4B5B68ADF800301B0C28
:1032CC008DF8023003216846FFF76AFD044600289A
:1032DC007FF45DAF4FF4806200210F4809F03CFD94
:1032EC00FFF764FE044600287FF451AFAF20FFF7D0
:1032FC0001FD044600287FF44AAF074B012283F8F6
:10330C00002483F80124002283F802243FE70024E0
:10331C0044E76FF0020441E74C1D0020301D0020F3
:10332C0098E000080E4B93F801340BB10020704765
:10333C0010B50B4C4FF481620021204609F00CFDB6
:10334C000848094B0360094B4360846006F0A8FDF4
:10335C0000B910BD034806F0D5FD6FF00400F8E786
:10336C004C1D0020341D002074E100083CE30008D3
:10337C000D4AB2F83C339BB20133C3F30803B2F8E5
:10338C003E2392B29A4209D00749B1F83C2392B23B
:10339C000A4482F83C01A1F83C337047024B0122ED
:1033AC0083F84023704700BF742300200D4BB3F803
:1033BC003E2392B2B3F83C339BB29A420FD00949E8
:1033CC00B1F83E2392B20A44B1F83E339BB20133BA
:1033DC00C3F30803A1F83E3392F83C0170474FF059
:1033EC00FF3070477423002070B506460C4AB2F8C3
:1033FC003C339BB2B2F83E2392B29B1AC3F3080340
:10340C00994228BF19460D46002404E0FFF7CEFF71
:10341C0030550134A4B2AC42F8D3284670BD00BF7D
:10342C007423002030B54FF0000C634605E09EF885
:10343C000040C4540CF1010C013301EB0C0E11F8DB
:10344C000C4044B1951E9D4205D9222CEFD15C2431
:10345C00C4540133EBE70022C25430BD024BC3F815
:10346C004813C3F84C237047742300200F4B1B796F
:10347C00062B18D8DFE803F004070A0A0E11140013
:10348C0000230B7004E001230B7001E002230B708E
:10349C000020704703230B70FAE704230B70F7E747
:1034AC0000230B70F4E705230B70F1E77423002065
:1034BC000B4609B1242119600AB1042313700020B2
:1034CC0070476FF00C0070476FF00C0070470023D2
:1034DC000B606FF00C00704710B58AB00C4609AB4E
:1034EC00039308AB029307AB019306AB009305ABB8
:1034FC0004AA094909F002FC06280BD00AB010BD39
:10350C000AAA02EB830212F8182CE2540133052BA1
:10351C00F6DDF3E70023FAE77CE100082DE9F04340
:10352C0085B05C4BB3F8C253072D78D804465A4982
:10353C0009F062FC0646002871D008362B2202FBEB
:10354C0005F000F57070534B18440021043009F05D
:10355C0003FC0023039303AA5049304609F0CEFB29
:10356C0001285FD02221304609F0FEFBF0B100F1BA
:10357C0001092221484609F0F7FBB8B1A0EB090676
:10358C00B6B2202E00D920264FF02B0808FB05F8E8
:10359C0008F570703F4F384432464946043009F004
:1035AC006FFC47443744002387F8C4333C4920461A
:1035BC0009F022FC044660B302340023019301AAF3
:1035CC003849204609F09AFB012851D02221204687
:1035DC0009F0CAFB50B12B2105FB01F101F5787103
:1035EC002C4A114405310130FFF776FF2C2120467F
:1035FC0009F0BAFB68B12C21013009F0B5FB40B1E0
:10360C000022029202AA2749013009F077FB012817
:10361C0037D0204AB2F8C2330133A2F8C23305B016
:10362C00BDE8F083039B032B0AD0042B10D0BBB94D
:10363C00184B2B2202FB0533002283F8ED2391E774
:10364C00144B2B2202FB0533012283F8ED2389E76F
:10365C00104B2B2202FB0533032283F8ED2381E769
:10366C000C4B2B2202FB0533FF2283F8ED2379E769
:10367C009DF90420074B2B2101FB053383F8EB2329
:10368C00A4E79DF80820034B2B2101FB053383F89D
:10369C00EC23BEE77423002090E100089CE10008B5
:1036AC00A4E10008A8E10008F8B505460C464FEA6D
:1036BC00D26E53019B1A6EF1000E4FEA8E0E4EEA3B
:1036CC00937E9B0099184EF1000E4FEACE0E4FF4EC
:1036DC007A720023C8004EEA5171FCF761FD014675
:1036EC000646564BD3F8440308F043FB012840F040
:1036FC00A280524B002283F8302083F83120A3F8AB
:10370C003421C4B103F110071F222146384609F0B9
:10371C004AFB0023FB772846FCF766FD642382B244
:10372C0029464648006802F0F3FC40B98CB107F01A
:10373C00D5FA044667E0414B00221A74EBE70023EC
:10374C001A4619463D48D0F8440308F0C5F8002441
:10375C0072E000231A4619463848D0F8440308F0A2
:10376C00BBF8012468E0354BB3F8343133B1591E42
:10377C00324A0A4492F833200D2A3FD02F4A134480
:10378C00002183F8331092F8323043B12C4902F106
:10379C00330009F031FB10B12A48FFF7BFFE274B6D
:1037AC001B7C4BB1284901F1230009F025FB18B112
:1037BC00224B012283F830202449224809F01CFBBB
:1037CC0018B11E4B012283F831201C4B0022A3F8A8
:1037DC00342193F830301BB9184B93F8313093B136
:1037EC001648002180F8321090F83040E4B20B46B5
:1037FC000A46D0F8440308F06FF81DE08BB2BDE721
:10380C00012007F03FFC07F069FA001B8642E7D95C
:10381C00FFF7CCFD0028F3DB0A28A4D0074BB3F844
:10382C003431FE2BEFD8054A591CA2F834111A4436
:10383C0082F83300E7E700242046F8BD742300200B
:10384C00ACE10008A723002084230020B4E1000889
:10385C00F0B589B00E4614461D461346134A202176
:10386C00684609F015FA2A4611496846FFF71CFF0D
:10387C0090B16423A2B231460E48006802F048FCB5
:10388C00044660B94FF47A720B490C48FFF70CFFF1
:10389C0040B1204609B0F0BD6FF00304F9E74FF0DA
:1038AC00FF34F6E74FF0FF34F3E700BFBCE100084C
:1038BC00D0E1000874230020D4E100082CE20008B9
:1038CC0008B54FF47A7206490648FFF7EDFE18B1B9
:1038DC000020054B187108BD4FF0FF30FBE700BF0F
:1038EC00DCE10008E0E100087423002070B5CCB0E6
:1038FC000C4640AD30222846FFF794FD2CAE5022EA
:10390C0004F121013046FFF78DFD94F8623004ACD0
:10391C0000220292019300962B460A4AA0212046CF
:10392C0009F0B6F94FF4FA6207492046FFF7BCFEDE
:10393C0028B1064B05221A7100204CB070BD4FF017
:10394C00FF30FAE7F0E10008DCE100087423002006
:10395C0008B54FF47A7206490648FFF7A5FE18B170
:10396C000020054B187108BD4FF0FF30FBE700BF7E
:10397C00DCE100080CE200087423002070B5CAB02A
:10398C000C463EAD30222846FFF74CFD2AAE5022A5
:10399C0004F121013046FFF745FD02AC00962B46A1
:1039AC00134AA021204609F073F941F288321149DB
:1039BC002046FFF779FE90B10F4B002283F8C0230D
:1039CC0043F69821D3F8BC0308F0D3F9012809D1A8
:1039DC00094B93F8C03343B100204AB070BD4FF08F
:1039EC00FF30FAE76FF00300F7E74FF0FF30F4E732
:1039FC0018E20008DCE10008742300201A4B93F84D
:103A0C00213573B310B5184C0021A4F8C21384F8F7
:103A1C0020154FF4AC7204F5717009F09DF9062372
:103A2C002371012384F8323042F210720F4910488E
:103A3C00FFF73AFE70B10C4800240471012380F8A2
:103A4C002035234622462146D0F81C0507F044FFBA
:103A5C00204610BD0022227184F832204FF0FF3036
:103A6C00F7E76FF00100704774230020DCE10008D9
:103A7C0030E2000810B584B00B46094A10216846A4
:103A8C0009F006F94FF47A7206496846FFF70CFE06
:103A9C0010B1002004B010BD4FF0FF30FAE700BFAA
:103AAC003CE20008DCE10008032915D8DFE801F04E
:103ABC000202020210B588B00B460A4A2021684661
:103ACC0009F0E6F84FF47A7207496846FFF7ECFD07
:103ADC0028B1002008B010BD6FF0040070474FF003
:103AEC00FF30F7E748E20008DCE1000839B3F8B52D
:103AFC0016461C460F462BB3144B93F8203543B98E
:103B0C0042F21071114BD3F81C0508F032F9012860
:103B1C0010D10E49B1F8C253B54228BF35462B22FD
:103B2C0005FB02F201F57171384609F0A9F92580FF
:103B3C000020F8BD002323806FF00300F9E76FF03D
:103B4C00040070476FF00400F3E700BF74230020FB
:103B5C0038B50C4B1B79032B0DD10C46094B93F844
:103B6C00B8335BB1084D2946204609F081F96B6EDC
:103B7C00E362002038BD6FF00100FBE76FF001003D
:103B8C00F8E700BF74230020C426002008B51E4BA4
:103B9C00986820B106F0E6FF1B4B00229A601A4B86
:103BAC00D3F8380128B108F09CF9174B0022C3F860
:103BBC003821154BD3F8440328B108F092F9124B75
:103BCC000022C3F84423104BD3F8BC0328B108F0EF
:103BDC0088F90D4B0022C3F8BC230B4BD3F81C0502
:103BEC0028B108F07EF9084B0022C3F81C25064BBF
:103BFC00186820B102F060FB034B00221A60002011
:103C0C00014B83F8210508BD7423002030B58FB01B
:103C1C00534A0BAB07CA83E80700524A19460320E4
:103C2C0002F0A0F9002840F08E8005464D4C002291
:103C3C004D49206802F0CDFA03220021012007F043
:103C4C001DFEC4F83801012007F008FFC4F8440336
:103C5C0003220021012007F011FEC4F8BC0303224B
:103C6C000021012007F00AFEC4F81C05D4F83831F5
:103C7C00002B4AD0D4F84433002B46D0D4F8BC33B4
:103C8C00002B42D0002840D0384B019303230093E3
:103C9C0000234FF400723649364806F04DFF0128D8
:103CAC003AD14FF4007234492E4B186802F058FA8E
:103CBC004FF47A7231493248FFF7F6FC002845D0B0
:103CCC0003AC03232F4A2021204608F0E1FF4FF4D8
:103CDC007A722A492046FFF7E7FC002839D00023E6
:103CEC00294A2021204608F0D3FF4FF47A72234949
:103CFC002046FFF7D9FC78B31A4B012283F8212513
:103D0C0000221A7128460FB030BD164B186802F00D
:103D1C00D3FA6FF00B05F5E7124CD4F8380108F024
:103D2C00E0F8D4F8440308F0DCF8D4F8BC0308F04D
:103D3C00D8F8D4F81C0508F0D4F8206802F0BCFAC6
:103D4C006FF00B05DEE76FF00705DBE74FF0FF3593
:103D5C00D8E74FF0FF35D5E74FF0FF35D2E700BF7E
:103D6C00A0E0000874230020D14000087C23002030
:103D7C0064E100082940000854210020DCE100081F
:103D8C0058E2000848E2000860E2000830B59FB035
:103D9C00002409E03A2815D0631C04F178020DEBDD
:103DAC00020404F8300C9CB22E2C0BD8FFF7FEFA50
:103DBC000028EFDA0A2007F065F9FFF7F7FA002878
:103DCC00E8DA68E004F178030DEB0304002304F84F
:103DDC00303CADF846302C2112A808F0F7FFA8B102
:103DEC000DF146024049013008F088FF012852D1FC
:103DFC00BDF84630002B4ED040F2B452934201D95C
:103E0C00ADF8462006F06AFF04460BE00DF14602C1
:103E1C00354912A808F072FF01283CD1E8E70520CB
:103E2C0007F030F9314AB2F83C339BB2B2F83E237A
:103E3C0092B29B1AC3F30803BDF846209A4205D9E7
:103E4C0006F04CFF001BB0F57A7FE8D3274AB2F896
:103E5C003C339BB2B2F83E2392B29B1AC3F30803D5
:103E6C00BDF84600984218D9204BB3F83C43A4B295
:103E7C00B3F83E339BB2E41AC4F3080409E02546B8
:103E8C00402C28BF4025294601A8FFF7ADFA641B3A
:103E9C00A4B2002CF3D11FB030BD08F097FA044641
:103EAC0090B1BDF84610FFF79FFA104BD3F848536A
:103EBC0035B11846D3F84C33BDF846202146A847F7
:103ECC00204608F051FBE6E7BDF8464009E02546E0
:103EDC00402C28BF4025294601A8FFF785FA641B12
:103EEC00A4B2002CF3D1D6E770E2000874230020B2
:103EFC0030B589B00446414908F07EFF40B14048D6
:103F0C00022303710022012106F08EFA09B030BDA4
:103F1C003C49204608F070FF002837D0384B03226C
:103F2C001A713949204608F067FF58B105AB019367
:103F3C0004AB009303AB02AA3449033008F0DEFE55
:103F4C00042812D02E4C00220821204606F06CFAD0
:103F5C00012384F8C033D4F8BC030028D6D0002346
:103F6C001A46194607F0B8FCD0E7039B1B04029ACB
:103F7C0043EA0263049A43EA0223059A1343204A54
:103F8C00C2F8B433012382F8B833DBE7204920466A
:103F9C0008F032FFC0B11A4D00242C7185F8B843DB
:103FAC0005AA0594546094600221284606F03CFA58
:103FBC0085F8C043D5F8BC030028A7D02346224679
:103FCC00214607F089FCA1E71249204608F014FFAE
:103FDC0038B10B48052303710022102106F024FA96
:103FEC0094E70D49204608F007FF00288ED00448BE
:103FFC0000220271202106F017FA87E774E200080C
:10400C007423002084E2000890E2000894E2000887
:10401C00A0E20008B0E20008C0E2000830B5C1B070
:10402C00002538E004222549684608F0AAFE78B934
:10403C002C2C0DD1FFF7AAFE002503E08DB9002230
:10404C000DF80520FFF7B2F9041E1CDB042DE9D096
:10405C000A2CF3D0FE2DF5D86B1C0DF805409DB243
:10406C00F0E76B1E1DF803300D2B09D000220DF864
:10407C000520002DE6D06846FFF73AFF0025E1E762
:10408C00013DADB2F2E700231A4619460C48D0F8B0
:10409C00440307F021FC4FF0FF31094BD3F83801F2
:1040AC0007F067FE0128F6D10021054BD3F8440335
:1040BC0007F05FFE0128EED1C4E700BFD0E2000894
:1040CC007423002070B582B00D460B78022B03D000
:1040DC00042B01D002B070BDAE68002403E0305D4B
:1040EC00FFF746F901346B68A342F8D8002301931B
:1040FC0001A9094BD3F8380107F03AFD019B002BBD
:10410C00E8D04FF0E0234FF08052C3F8042DBFF3FA
:10411C004F8FBFF36F8FDDE77423002010B50C4C6D
:10412C0040F224520021204608F016FE09480A4BA2
:10413C0003600A4B43608460094BC36006F07EF851
:10414C0000B910BD034806F0B3F86FF00400F8E7AF
:10415C00742300205423002064E1000884E3000849
:10416C007CE3000886B0264B984217D0254B98422A
:10417C0021D0254B98422AD0244B984233D0244B43
:10418C00984216D103F578439A6942F040029A613D
:10419C009B6903F040030593059B0AE003F5843308
:1041AC009A6942F004029A619B6903F0040301933B
:1041BC00019B06B0704703F582339A6942F00802FE
:1041CC009A619B6903F008030293029BF1E703F5E4
:1041DC0080339A6942F010029A619B6903F01003D4
:1041EC000393039BE5E703F57C439A6942F02002B5
:1041FC009A619B6903F020030493049BD9E700BFE9
:10420C0000080140000C0140001001400014014066
:10421C0000180140FF230B70002070478368B3B176
:10422C001A7FBAB19A7E1AB903230B70002070471B
:10423C00DA7E1AB102230B70002070475B7E13B933
:10424C0000200870704701230B70002070476FF03E
:10425C00010070476FF00100704700200860704744
:10426C006FF00C00704710B50446012281898068FC
:10427C0002F06BFD0122A18A206902F066FD10BDDF
:10428C0010B5846884B1237F8BB1A37E93B10022D7
:10429C002179206801F02EFB2046FFF7E4FF002077
:1042AC0060760123E37610BD6FF00100FBE76FF041
:1042BC000100F8E76FF00100F5E710B504460022A5
:1042CC008189806802F041FD0022A18A206902F0F8
:1042DC003CFD10BD10B584686CB1237F73B1002216
:1042EC002179206801F006FB2046FFF7E6FF00204D
:1042FC00A076E07610BD6FF00100FBE76FF00100D7
:10430C00F8E738B504460D4659B901228189806811
:10431C0002F01BFD0022A18A206902F016FD257611
:10432C0038BD00228189806802F00FFD0122A18A2C
:10433C00206902F00AFDF2E7806868B108B5037FD6
:10434C006BB1837E73B1C37E13B10176002008BDBF
:10435C00FFF7D7FF0020FAE76FF0010070476FF00E
:10436C000100F4E76FF00100F1E738B584680CB395
:10437C000D46237F0BB3A37E13B3642923D8E37EAE
:10438C0003B139B92A462179206801F0B3FA40B952
:10439C00657638BD217E2046FFF7B3FF0023E37618
:1043AC00F0E710F1090F02D06FF00700F1E76FF0A2
:1043BC000C00EEE76FF00100EBE76FF00100E8E7AF
:1043CC006FF00100E5E76FF00400E2E710B504467A
:1043DC0002464FF48041034802F0B7FC024B1C70BC
:1043EC0010BD00BF000C01409828002038B584682F
:1043FC00BCB1237FC3B10E4B1B7873B10025E5769E
:10440C00217E2046FFF77DFF627E2179206801F036
:10441C0071FA0123A376284638BD0120FFF7D6FF99
:10442C00ECE76FF00100F7E76FF00100F4E700BF75
:10443C00982800200B4B1B7813B1013B094A1370D1
:10444C00084B1B7863B9084B186848B110B501F0DC
:10445C00EDF9054C206801F024FA0023236010BD0F
:10446C00704700BF992800209C28002038B584682C
:10447C0084B1237F8BB100222179206801F03AFAB4
:10448C002046FFF71AFF00252577FFF7D3FF25609D
:10449C00284638BD6FF00100FBE76FF00100F8E72C
:1044AC0010B584B00446154B1B684BB1134B1B68FD
:1044BC002360134A137801331370002004B010BD2D
:1044CC0001A901934B608B6044F6206301930B4A66
:1044DC00012001F08BF868B900221146074B1868CF
:1044EC0001F018F90028E1D0044C206801F0D9F94A
:1044FC00002323606FF00700E0E700BF9C2800203A
:10450C009928002038B58468ECB12046FFF7C8FF25
:10451C00054688B92179012903D0206801F04EFAAB
:10452C0060B9002262762276A276E27601232377A6
:10453C002179206801F0DEF9284638BDFFF77AFFB3
:10454C006FF00705F8E76FF00705F5E710B584B0D5
:10455C00064C2046FFF706FE054B0FCB8DE80F00EF
:10456C006946204602F0E0FA04B010BD000C014090
:10457C00ACE0000830B585B004468068FFF7F2FD6A
:10458C002069FFF7EFFD002300930193029303933F
:10459C000123019303230393E36800936946A06806
:1045AC0002F0C2FA636900936946206902F0BCFA12
:1045BC0005B030BD2DE9F843FFF7C8FF0020FFF729
:1045CC0005FF0026012E3FD84FEA460906EB4605AB
:1045DC004FEAC5081E4F07EBC5052846FFF7CAFF73
:1045EC001C4C04EB461420220021204608F0B4FB9E
:1045FC002B792371AB68A360EB68E3602B692361B3
:10460C006B696361002323764B463344124A02EBF9
:10461C00C30057F8081042F83310104B4360846005
:10462C0005F0C6F970B90136CCE704EB44000A4B2F
:10463C0003EBC00005F0EEF90134A642F5D84FF0BB
:10464C00FF3002E00024F8E70020BDE8F88300BF4B
:10465C00F8E30008D0280020A0280020CCE30008B4
:10466C00012804D0022804D028B901207047022068
:10467C0070470420704704207047FF230B70002004
:10468C0070470020086070472DE9F0418468D4B170
:10469C00884617461D46A37CC3B139B1E668207C19
:1046AC00FFF7DEFF00FB06F6C8F800600FB1002331
:1046BC003B7075B1637C23B910232B600020BDE8DF
:1046CC00F0811423F9E76FF00100F8E76FF00100B7
:1046DC00F5E70020F3E76FF00C00704730B583B0BE
:1046EC008468A4B10D462068A0B1A37CABB101A92C
:1046FC0001F088F9A0B9A268019B9A4205D0022367
:10470C002B70019BA36003B030BD0123F8E76FF061
:10471C000100F8E76FF00100F5E76FF00100F2E738
:10472C006FF00700EFE730B583B08468D4B10D4665
:10473C002068D0B1A37CDBB101A901F063F9D0B939
:10474C00019A6368D31A6260002B03DD01232B707E
:10475C0003B030BD002B02DB00232B70F8E70223E3
:10476C002B70F5E76FF00100F2E76FF00100EFE757
:10477C006FF00100ECE76FF00700E9E7F0B583B0EC
:10478C008668002E46D00C463068002845D0B37C95
:10479C00002B45D0737C002B45D001A901F032F9D8
:1047AC000546002842D1F768307CFFF759FF00FB23
:1047BC0007F2019B93FBF2F102FB1133002B27DB79
:1047CC00D817810041EA93714FEA830C1CEB030369
:1047DC0040EB0100010141EA13714FEA031CBCEBF1
:1047EC00030C61EB0006330143EA1C734FEA0C1116
:1047FC00B1EB0C0163EB06034FEA431C00234801A9
:10480C004CEAD161FBF7CCFC2060284603B0F0BD2C
:10481C001344D5E76FF00105F7E76FF00105F4E7F6
:10482C006FF00105F1E76FF00C05EEE76FF007058F
:10483C00EBE708B583683BB1186840B19B7C4BB182
:10484C0001F0E0F848B908BD6FF00100FBE76FF02C
:10485C000100F8E76FF00100F5E76FF00700F2E7F1
:10486C0010B584686CB1206870B1A37C7BB101F089
:10487C00F5F878B96060A06084F8200001236374B7
:10488C0010BD6FF00100FBE76FF00100F8E76FF06F
:10489C000100F5E76FF00700F2E708B5FFF7E0FF5E
:1048AC0008BD00002DE9F04782B08468002C3ED092
:1048BC000E46206800283DD0A37C002B3DD001A9DA
:1048CC0001F0A0F8804600283AD106F007FA054618
:1048DC0094F82030F3B1A769C71B01D1E0691AE045
:1048EC0063690198A0EB0309D4F80CA0207CFFF7B6
:1048FC00B7FE00FB0AF3C3EB03135B004FEAE97E40
:10490C001149A9FB0109A7FB032301FB0E91FBF73E
:10491C00F7FB00E00020019B6361A561E0610123CE
:10492C0084F820303060404602B0BDE8F0876FF06C
:10493C000108F8E76FF00108F5E76FF00108F2E7FE
:10494C006FF00708EFE700BFC027090010B58468B7
:10495C0054B1206858B100F069FF206800F0A1FF45
:10496C0000202060A07410BD6FF00100FBE76FF019
:10497C000100F8E738B505460024012C10D804EBEB
:10498C0044032946074A52F82300FBF723FC08B1DD
:10499C000134F2E704EB4404024800EB840000E02D
:1049AC00002038BD5CE4000830B585B08468002C6C
:1049BC0034D00068FFF7DEFF0546002831D001A98E
:1049CC00002301934B608B6001238DF808304279F2
:1049DC008DF80B2082798DF80C208DF80D306A46FD
:1049EC00007900F003FEF8B900221146009800F09F
:1049FC0091FE68B9009B2360AB68E3606B7923740C
:104A0C0000236360A36063740123A37405B030BDFD
:104A1C00009800F046FF6FF00700F7E76FF0070013
:104A2C00F4E76FF00100F1E76FF00700EEE700002C
:104A3C0038B50024012C32D804EBC403194D05EB16
:104A4C00830524220021284608F086F9164904EB38
:104A5C00440C01EB8C039A68EA605B792B7400239D
:104A6C006B74124B03EBCC0051F82C1043F83C1038
:104A7C000F4B4360856005F02BF970B90134D9E711
:104A8C0005EB4500094B03EBC00005F053F901356C
:104A9C00AC42F5D84FF0FF3002E00025F8E70020DB
:104AAC0038BD00BF402900205CE40008102900201C
:104ABC0028E4000886B0264B98420DD0254B98422E
:104ACC0016D0254B98421FD0244B984228D0244B0B
:104ADC00984231D006B0704703F584339A6942F09E
:104AEC0004029A619B6903F004030193019BF1E7B3
:104AFC0003F582339A6942F008029A619B6903F0CC
:104B0C0008030293029BE5E703F580339A6942F0B0
:104B1C0010029A619B6903F010030393039BD9E77E
:104B2C0003F57C439A6942F020029A619B6903F079
:104B3C0020030493049BCDE703F578439A6942F074
:104B4C0040029A619B6903F040030593059BC1E702
:104B5C0000080140000C014000100140001401400D
:104B6C000018014010B504468188006802F0E6F890
:104B7C00637B984201D0002010BD0120FCE738B5C2
:104B8C000446FFF7EFFF054606F0AEF8E37BAB42B9
:104B9C0002D0E573206138BD2369C01A1328FAD9F5
:104BAC00A37BAB42F7D0A573012D00D00225257550
:104BBC00F1E7000038B5002300E00133022B08D8E0
:104BCC0003EB8301114A02EB810292689042F4D10B
:104BDC0001E04FF0FF33002B14DB03EB43040C4AD2
:104BEC0002EBC404A5680B4B58612846FFF7C7FFBE
:104BFC002B7D03F0FF013BB100232B75204604F005
:104C0C0075FD01E0034B586138BD00BF88E4000816
:104C1C00882900200004014070B50D468468637D2E
:104C2C003BB1A37B012B14BF002301230B7000208D
:104C3C0070BD2046FFF796FF064606F04FF8E37B63
:104C4C00B34208D0E6732061A37B012B14BF002371
:104C5C0001232B70EBE72369C01A1328F4D9A67330
:104C6C00F2E710B584B084680CB3206810B3FFF77A
:104C7C0021FF002300930193029303936368009335
:104C8C00637B93B9012302936946206801F04CFFC2
:104C9C002046FFF767FFA073E07306F01FF8206152
:104CAC0000202075607504B010BD0223EBE76FF097
:104CBC000700F8E76FF00700F5E7000010B586B0C5
:104CCC000446144B9A6942F001029A619B6903F005
:104CDC0001030193019B0023029303930493059317
:104CEC00436802930C4B0393437B8BB901230493CE
:104CFC0002A9206801F018FF0022022194F90C008F
:104D0C0001F0B8FB94F90C0001F0C4FB06B010BD27
:104D1C000223ECE7001002400000311030B585B0E2
:104D2C008468002C35D02368002B35D0A9B1637D65
:104D3C0013B1002005B030BD2046FFF713FFA07360
:104D4C00E07305F0CBFF2061002525752046FFF7A9
:104D5C00B5FF012363752846ECE7637D0BB9002092
:104D6C00E8E794F90C0001F0A3FB002300930193F6
:104D7C000293039363680093637B43B9012302930B
:104D8C006946206801F0D0FE00206075D2E702234E
:104D9C00F5E76FF00100CDE76FF00100CAE730B521
:104DAC0085B08568A5B12B68ABB10021FFF7B6FFC4
:104DBC006946002400940194029403946B68009358
:104DCC0003230193286801F0AFFE204605B030BDE7
:104DDC006FF00100FAE76FF00100F7E708B501206A
:104DEC00FFF7E8FE08BD08B50220FFF7E3FE08BD9B
:104DFC0008B50420FFF7DEFE08BD000038B500241E
:104E0C000DE005EB4500204B03EBC00004F0F4FB78
:104E1C000135AC42F5D84FF0FF3034E00134022CB0
:104E2C0030D804EB4401194800EBC103002240F8D0
:104E3C0031205A609A60DA601A615A61144D04EBA1
:104E4C00840C05EB8C02D2F804E040F831E0916858
:104E5C005960D168996092F910101973527C5A7389
:104E6C0004EB4401084A02EBC10055F82C5042F8FF
:104E7C003150084A4260836004F08CFB0028CDD08E
:104E8C000025C6E7002038BD88290020D029002045
:104E9C0088E4000874E4000886B0264B98420DD0D4
:104EAC00254B984216D0254B98421FD0244B984244
:104EBC0028D0244B984231D006B0704703F5843388
:104ECC009A6942F004029A619B6903F0040301930E
:104EDC00019BF1E703F582339A6942F008029A616B
:104EEC009B6903F008030293029BE5E703F580330B
:104EFC009A6942F010029A619B6903F010030393C4
:104F0C00039BD9E703F57C439A6942F020029A612E
:104F1C009B6903F020030493049BCDE703F57843CE
:104F2C009A6942F040029A619B6903F04003059331
:104F3C00059BC1E700080140000C01400010014036
:104F4C00001401400018014083682BB11A6832B17B
:104F5C005B7A0B70002070476FF0010070476FF0A8
:104F6C000100704738B5846874B10D46206870B183
:104F7C00A188227A012D02D0013A18BF012201F03A
:104F8C00E4FE6572002038BD6FF00100FBE76FF0A6
:104F9C000100F8E730B585B08568CDB12868D0B18F
:104FAC002A7A013A18BF0122A98801F0CEFE69467F
:104FBC00002400940194029403946B6800930323DF
:104FCC000193286801F0B0FD6C72204605B030BD2D
:104FDC006FF00100FAE76FF00100F7E730B585B02C
:104FEC008468F4B12068F8B1FFF756FF69460025D4
:104FFC000095019502950395636800930123019335
:10500C0002230393206801F08FFD227A013A18BF26
:10501C000122A188206801F098FE6572284605B02F
:10502C0030BD6FF00700FAE76FF00700F7E70000FC
:10503C0070B500240BE01C4800EB051004F0E6FBF7
:10504C000135AC42F7D84FF0FF302BE00134022C85
:10505C0027D804EB4402154D05EB8203002145F8DB
:10506C00221059609960124E4FEA041C06EB041092
:10507C00D0F804E045F822E082685A60027B1A728C
:10508C005972094A02EB041056F80C1042F80C1035
:10509C00084A4260836004F089FB0028D6D00025C2
:1050AC00CFE7002070BD00BF182A0020482A00203E
:1050BC00D8E40008C4E4000808B5034608B94FF466
:1050CC00FA7340F2712202FB03F303F2E7330D4A49
:1050DC00A2FB03129209B3F57A1F0CD20A480B4BB0
:1050EC00036004234360826004F0D0F930B9084BAC
:1050FC0001221A7008BD6FF00100FBE74FF0FF3082
:10510C00F8E700BFD34D6210702A00200030004039
:10511C006C2A002008B5044B1B780BB9002008BD85
:10512C00024804F0E1F9F9E76C2A0020702A00200B
:10513C0068B1084BC31AB3F5317F04D890F8E73047
:10514C001BB90020704700207047012070470020D9
:10515C00704700BF802A002084B0013803280DD886
:10516C00DFE800F0020E1924164B9A6942F4006233
:10517C009A619B6903F400630093009B04B0704731
:10518C00104BDA6942F00102DA61DB6903F00103CA
:10519C000193019BF2E70B4BDA6942F00202DA61F0
:1051AC00DB6903F002030293029BE7E7054BDA6924
:1051BC0042F00402DA61DB6903F004030393039BFE
:1051CC00DCE700BF00100240013803281AD8DFE8E2
:1051DC0000F002080E140C4A936923F400639361E7
:1051EC007047094AD36923F00103D3617047064A1B
:1051FC00D36923F00203D3617047034AD36923F0C8
:10520C000403D361704700BF0010024010B51C4668
:10521C00B2B19446134A0023ACFB0001FAF7C0FF6D
:10522C00E8B10021B1F5803F13D201F1010CB0FBC4
:10523C00FCF2013A4FF6FE7E724505D96146F1E764
:10524C0051B1B0FBF1F0EBE72160029B1A6000203A
:10525C0010BD6FF00100FBE76FF00100F8E76FF095
:10526C000100F5E740420F0090F8C030012B00D050
:10527C00704703681A6912F0010FF9D0DA6812F05E
:10528C00010FF5D06FF001021A6103681B6813F06F
:10529C00100F06D0D0F8E030A3F58033C0F8E03022
:1052AC007047D0F8E03003F58033C0F8E030DFE72A
:1052BC000A4B1B788BB94FF0E022D2F8FC3D43F03F
:1052CC008073C2F8FC3D064B00225A601A6842F00B
:1052DC0001021A60014B01221A7070477C2A0020CF
:1052EC00001000E030B589B00546D0F8B43003604A
:1052FC00416090F8C130012B27D00023AB60EA60ED
:10530C0000232B618023AB61284604F023F804466C
:10531C0000BB00230193029303930493059306931C
:10532C0007936023019395F8C23003B102230393D2
:10533C00032C0CD80A4B53F8242001A9284603F05F
:10534C00F1FD50B90134E4B2F2E72023D6E7002096
:10535C0009B030BD6FF00400FAE76FF00400F7E716
:10536C0008E5000810B58AB00446D0F8B4300360E4
:10537C000023436083604FF6FF72C2600361836158
:10538C0090F8C330DBB1032294F8C430CBB10220C7
:10539C000192029001210391002204920F230593A4
:1053AC00069007910892099301A9204604F008F889
:1053BC0048B923686FF001021A610AB010BD0122CE
:1053CC00E2E70020E4E76FF00400F6E710B50446CE
:1053DC0090F8C030012B0AD00721002294F9B800B4
:1053EC0001F048F894F9B80001F054F810BD05210B
:1053FC00F3E708B590F9B80001F05AF808BD0000C1
:10540C0000B587B0002302930393049305930368BC
:10541C00B3F1804F05D0184A934217D007B05DF80E
:10542C0004FB03F504339A6942F004029A619B6908
:10543C0003F004030093009B0323029301220492C4
:10544C00059302A90D4801F06FFBE7E70C4B9A6935
:10545C0042F004029A619B6903F004030193019BDF
:10546C00C0230293012304930323059302A9034849
:10547C0001F05AFBD2E700BF0004004000080140D5
:10548C000010024030B587B00023029303930493BD
:10549C0005930268124B9A4201D007B030BD03F558
:1054AC0064439A6942F004029A619B6903F0040315
:1054BC000193019B4FF48073029302230393032304
:1054CC00059302AD074C2946204601F02DFB4FF405
:1054DC00007302932946204601F026FBDDE700BF4E
:1054EC00002C01400008014008B5002300E0013306
:1054FC00032B15D80B4AEC2101FB032292F8E72071
:10550C00002AF4D0074A01FB0322D2F8B410026837
:10551C009142ECD1EC20034A00FB0320FFF7A4FEE0
:10552C0008BD00BF802A002008B5044B93F8E73073
:10553C0003B908BD014803F0CBFBFAE7802A002031
:10554C0008B5044B93F8D33103B908BD024803F0F6
:10555C00BFFBFAE7802A00206C2B002008B5044B17
:10556C0093F8BF3203B908BD024803F0B1FBFAE768
:10557C00802A0020582C002008B5044B93F8AB333C
:10558C0003B908BD024803F0A3FBFAE7802A002008
:10559C00442D002000B9704710B50446FFF788FE73
:1055AC0004EBC404E200044B5968034B5B685B1AC0
:1055BC009342FAD310BD00BF001000E010B50446B2
:1055CC0028B908E00848FFF7E5FFA4F57A74B4F5AC
:1055DC007A7FF7D204B910BD4FF47A7004FB00F057
:1055EC00FFF7D8FFF7E700BF40420F002DE9F0436B
:1055FC0085B000297BD0054690460E46002A79D00E
:10560C00441EE4B2032C78D8EC233F4F03FB047701
:10561C0097F8E730002B73D14FF0EC094A46002184
:10562C00384607F099FB87F8E650012287F8E72007
:10563C0007F1BC0C96E807008CE80700334951F8D9
:10564C003420C7F8B42001EBC40191F9042087F889
:10565C00B8202F4AC7F8C820727A87F8DC20284671
:10566C00FFF77AFD00230393029333798BB1012B5F
:10567C0031D06FF001062846FFF7A6FD224BEC2235
:10568C0002FB0433002283F8E720304605B0BDE866
:10569C00F083316809B94FF47A711B4BEC2202FB91
:1056AC000433D3F8C80002AB009303AB0022FFF71E
:1056BC00ADFD06460028DED10399134BEC2202FB0C
:1056CC000433C3F8D010029AC3F8CC203846FFF745
:1056DC0009FE064603E03846FFF744FE0646002E58
:1056EC00C9D13846FFF772FEC8F80070CDE76FF0ED
:1056FC000106CAE76FF00106C7E76FF00106C4E7C1
:10570C006FF00206C1E700BF802A002018E50008F0
:10571C0000A24A0470B584B005460E461446FFF745
:10572C0007FD00286FD095F8C030002B56D1642CA3
:10573C006CD8CEB195F8E830002B44D103AB009374
:10574C0002AB32460021D5F8C800FFF75FFD0028F8
:10575C0041D12B68029A9A622968039BCB62EB6059
:10576C00C5F8D020C5F8CC30D5F8CC100131A4FB4D
:10577C000131C3F31302180D40EA01301044284ADA
:10578C00A2FB0042D20802EB820202EB8202821AD6
:10579C009B1A61F100012348234A03FB02F200FB30
:1057AC000122A3FB003002449B0843EA82732A685F
:1057BC0053630021284603F033FC50BB012385F8CA
:1057CC00E83004B070BD0021284603F093FC0023A0
:1057DC0085F8E830B2E76FF00100F2E70023C5F876
:1057EC00E030A5F8E4302A6853623C21284603F0E7
:1057FC00C3FC88B92A68D36843F00103D360012342
:10580C0085F8E830DDE76FF00100DAE76FF00100B2
:10581C00D7E76FF00400D4E76FF00400D1E700BFC6
:10582C001F85EB51295C8FC2F5285C8F30B585B094
:10583C000446FFF77DFC50B394F8E83053B394F86A
:10584C00C030D3B90021204603F054FC002384F867
:10585C00E83094F8DC3003B3D4F8D430FBB101A9B0
:10586C00002501954D608D6008228DF80420D4F838
:10587C00D8202046984728460DE02268D36823F0AC
:10588C000103D3603C21204603F0DCFCDEE76FF023
:10589C00010000E0002005B030BD0020FBE7002037
:1058AC00F9E710B50446FFF743FCF8B194F8E8307B
:1058BC00A3B994F8C030ABB9204603F0A5F9204643
:1058CC00FFF797FD94F8E600FFF77EFC0020C4F884
:1058DC00D400C4F8D80084F8E70010BD2046FFF7C8
:1058EC00A5FFE6E7204603F0C5F9E8E76FF00100F5
:1058FC00F3E7000070B505460C461646FFF718FC9A
:10590C00002845D095F8C030002B44D1631EDBB283
:10591C00032B43D8642E44D8D5F8CC300133A6FBE6
:10592C000336C3F313011A0D42EA06328818204AD3
:10593C00A2FB002C4FEADC0C0CEB8C0C0CEB8C0C53
:10594C00A0EB0C015B1A66F100001A491A4A03FB22
:10595C0002F201FB0022A3FB01310A449B0843EA3B
:10596C008273013C032C1FD8DFE804F002060A0EF8
:10597C002A685363002070BD2A6893630020FAE7FD
:10598C002A68D3630020F6E72A6813640020F2E744
:10599C006FF00100EFE76FF00800ECE76FF001002B
:1059AC00E9E76FF00100E6E76FF00100E3E700BF05
:1059BC001F85EB51295C8FC2F5285C8F38B50546E5
:1059CC000C46FFF7B5FB78B195F8C0307BB9631E78
:1059DC00DBB2032B0ED8013C094B53F8241028469C
:1059EC0003F01EFB48B938BD6FF00100FBE76FF008
:1059FC000800F8E76FF00100F5E76FF00400F2E73C
:105A0C0008E5000838B504460D46FFF791FBE0B1F8
:105A1C00F5B194F8C030012B1DD1EFF3108172B6A3
:105A2C0023685A6A92B2B4F8E430D31A1BB2A4F8C1
:105A3C00E420D4F8E0201344C4F8E030D4F8E0308B
:105A4C002B6081F31088002038BD6FF00100FBE75C
:105A5C006FF00100F8E76FF00800F5E710B50446A9
:105A6C00FFF766FB80B194F8C030012B0FD1EFF338
:105A7C00108372B6226800205062C4F8E000A4F8CB
:105A8C00E40083F3108810BD6FF00100FBE76FF0AA
:105A9C000800F8E77047704770470000024690B165
:105AAC000C4BC31AB3F5647F0ED219090A48A0FB3C
:105ABC0001014FF4987000FB11333BB992F80C3193
:105ACC0033B1104670477047002070470020704774
