:020000040800F2
:1000000000500020ED01000835020008350200080C
:100010003502000835020008350200080000000023
:10002000000000000000000000000000690B000854
:100030003502000800000000AD0B0008850C000828
:1000400035020008350200083502000835020008B4
:1000500035020008350200083502000835020008A4
:100060003502000835020008350200083502000894
:100070003502000835020008350200083502000884
:100080003502000835020008350200083502000874
:100090003502000835020008350200083502000864
:1000A0003502000835020008350200083502000854
:1000B0003502000835020008350200083502000844
:1000C0003502000835020008350200083502000834
:1000D0003502000835020008350200083502000824
:1000E0003502000835020008350200080000000053
:1000F0000000000000000000000000000000000000
:0C01000000000000000000005FF808F1A3
:10010C0010B5054C237833B9044B13B10448AFF345
:10011C0000800123237010BD10000020000000009F
:10012C00C410000808B5034B1BB103490348AFF3D7
:10013C00008008BD0000000014000020C41000085E
:10014C0008B500F045F800B1FEE700F0B7FAFEE79D
:10015C00034B0360034B0B6080231380704700BF7D
:10016C002C0200202C00002000BEFEE708B5164A29
:10017C00136843F480331360134B1B6813F4003F74
:10018C00FAD0124B14221A60A3F580534FF48062FC
:10019C005A605A6842F4E8125A601A6842F0807247
:1001AC001A60094B1B6813F0007FFAD0064A53689B
:1001BC0043F002035360044B5B6803F00C03082B01
:1001CC00F9D100F033F808BD0010024000200240C5
:1001DC0008B5FFF7CBFF00F0C7FE002008BD0000FC
:1001EC0000F023F80B480C490C4A002302E0D458C9
:1001FC00C4500433C4188C42F9D3094A094C002367
:10020C0001E013600432A242FBD300F031FFFFF790
:10021C0097FF70470000002010000020001100081C
:10022C0010000020A82B0020FEE770471F4B5B68D6
:10023C0003F00C03042B11D0082B13D0002B31D15D
:10024C001B4B1C4A1A60194B5B68C3F303131A4A05
:10025C00D15C174A1368CB4013607047144B154A96
:10026C001A60F0E7114A53685268C3F383430233B0
:10027C0012F4803F05D1114A02FB03F30C4A1360C0
:10028C00E1E70A4A526812F4003F05D00B4A02FB20
:10029C0003F3074A1360D6E7064A02FB03F3044A4A
:1002AC001360D0E7024B034A1A60CCE700100240FF
:1002BC000000002000127A00DC10000800093D004C
:1002CC00074B1B681B6823B9064B4FF0FF321A60B3
:1002DC007047034B1B68DB681A68024B1A60704747
:1002EC00F8020020900200202DE9F04781460D46CF
:1002FC0017469A46DDF820800A9C9200A521206BB7
:10030C0000F0AEFE236B07F18042013A03EB82034F
:10031C0023F007068DB14FF0000CBCF10F0F09D87C
:10032C0015F80C3004EB0C0282F8343013B10CF1DC
:10033C00010CF2E7002384F84330B8F1040F08D91C
:10034C004FF0200383F31188BFF36F8FBFF34F8FF0
:10035C00FEE7C4F82C80C4F84C80201D00F0C9FBCB
:10036C0004F1180000F0C5FB2461C8F10503A3617A
:10037C00646252464946304600F034FC2060361A1E
:10038C00B7EBA60F08D84FF0200383F31188BFF307
:10039C006F8FBFF34F8FFEE7099B03B11C60BDE865
:1003AC00F0872DE9F04186B00D9E9EB1044688463B
:1003BC0017461D460E9BB3B15C230593059B5C2B26
:1003CC001AD04FF0200383F31188BFF36F8FBFF364
:1003DC004F8FFEE74FF0200383F31188BFF36F8F2D
:1003EC00BFF34F8FFEE74FF0200383F31188BFF369
:1003FC006F8FBFF34F8FFEE7059B5C2200210E9899
:10040C0000F02EFE0E9B1E6302230E9A82F85930CA
:10041C000023039302920F9B01930C9B00932B469A
:10042C003A4641462046FFF75FFF0E9806B0BDE8FE
:10043C00F081000038B5002407E004EB840293003F
:10044C000E48184400F04AFB0134042CF5D90C4D2D
:10045C00284600F043FB0B4C204600F03FFB0A48BB
:10046C0000F03CFB094800F039FB094800F036FB72
:10047C00084B1D60084B1C6038BD00BF24030020D6
:10048C0010030020FC020020E0020020CC0200201F
:10049C00B4020020F8020020F402002010B504463B
:1004AC0000F0B2FB2A4A136801331360294B1B6816
:1004BC005BB1294B1B686BB9264B1B68DA6AE36A84
:1004CC009A4207D8234B1C6004E0224B1C60136833
:1004DC00012B3AD0214A1368013313606364E36A39
:1004EC0001229A401E49086802430A601D4A03EB28
:1004FC00830302EB83035B68A3609868E060211DB3
:10050C0041609960E36A03EB830102EB8100606157
:10051C0052F82110013103EB830342F8231000F051
:10052C0095FB0D4B1B687BB10A4B1B68DA6AE36ABF
:10053C009A4209D24FF0E0234FF08052C3F8042DB9
:10054C00BFF34F8FBFF36F8F10BDFFF773FFC1E782
:10055C00B002002088030020A40200209402002096
:10056C00A80200202403002010B5044690F859304E
:10057C0063B1012B11D0022B0ED04FF0200383F36B
:10058C001188BFF36F8FBFF34F8FFEE7006B00F046
:10059C0075FC204600F072FC10BD00F06FFCFBE710
:1005AC000F4B1B68D3B110B500F02EFB0D4BDB6865
:1005BC00DC68201D00F0A0FA0B4A1368013B1360A5
:1005CC00074A1368013B136000F040FB2046FFF71D
:1005DC00CBFF034B1B68002BE6D110BD704700BF4F
:1005EC00C8020020CC020020B002002008B5FFF7A2
:1005FC00D7FF074B1B68012BF9D94FF0E0234FF0C5
:10060C008052C3F8042DBFF34F8FBFF36F8FEEE70B
:10061C002403002010B586B00024059405AC039487
:10062C000A9C0294099C0194089C0094FFF7B9FE63
:10063C0008B1FFF733FF059806B010BD30B58DB08B
:10064C000023089309930A930B930E2B09D8184A8D
:10065C00D25C03F13001694401F8102C0AB101336A
:10066C00F3E730336B44002403F8104C002C02DD0C
:10067C0001200DB030BD0025069507950DF1160231
:10068C0007A906A8FFF764FD069B0293079B01933D
:10069C0000952B46BDF8162008A90648FFF7BAFFAF
:1006AC00054B43F8240008B10134DFE70020E0E7F4
:1006BC00EC100008F90500088C02002008B5FFF7C3
:1006CC00BDFF012805D0B0F1FF3F17D0104B1B68C0
:1006DC0008BD4FF0200383F31188BFF36F8FBFF376
:1006EC004F8F0C4B4FF0FF321A600B4B01221A60EC
:1006FC000A4B00221A6000F0E1FAE7E74FF0200302
:10070C0083F31188BFF36F8FBFF34F8FFEE700BFEA
:10071C00F410000890020020A4020020AC0200207B
:10072C00024A136801331360704700BF880200202F
:10073C00F8B5524B1B68002B40F09980504B1C684D
:10074C0001341C60C4B94F4B1B681B6843B14FF09C
:10075C00200383F31188BFF36F8FBFF34F8FFEE736
:10076C00484A1168484B186810601960474A13686A
:10077C0001331360FFF7A4FD454B1B68A34211D94D
:10078C000020444B1B68DB6A03EB83039A00424B4B
:10079C009B58012B00D90120404B1B68002B6BD0C0
:1007AC00012069E0002037E0394B4FF0FF321A602E
:1007BC00E7E7374B1A60E4E7D968516042E0002163
:1007CC009962116801391160DA6A01219140344E45
:1007DC00376839433160304902EB82024FEA820CB0
:1007EC008C44DCF804209A609668DE607560956035
:1007FC00DA6A02EB820C4FEA8C056E185E614D5979
:10080C0001354FEA8C0C41F80C50DA6A214B1B680D
:10081C00DB6A9A4200D901201A4B1B681B68002B1B
:10082C00C2D0184B1B68DB68DB685A689442C0D393
:10083C005A699D68D968A9609D684D6051681D1DF5
:10084C00A942B9D0002159611168013911609A6A25
:10085C00002AB9D0DE69196AB160DE694E6056684B
:10086C0003F118018E42AAD1196A5160A7E70D4A0B
:10087C001368013313600020F8BD00BF880200200C
:10088C00AC020020F8020020F402002098020020A4
:10089C009002002088030020240300209C020020EA
:1008AC00A8020020A002002038B500F0ADF94C4B96
:1008BC001B6843B94FF0200383F31188BFF36F8F8C
:1008CC00BFF34F8FFEE7464B1A68013A1A601B685C
:1008DC00002B7FD1434B1B683BB900247BE0196A8A
:1008EC00516015E0D968516021E000233E4A12683E
:1008FC00002A4AD03C4BDB68DB689A6AD869196AD3
:10090C008160D8694860506803F118018842E6D0CC
:10091C00002199621168013911605A699868D96887
:10092C008160986848605168181D8142DAD00021B6
:10093C005961116801391160DA6A012191402B4C1F
:10094C002568294321602A4902EB820201EB8202CD
:10095C0052689A609468DC6060609060DA6A02EBBE
:10096C00820001EB80045C6151F82000013002EB45
:10097C00820241F82200D96A1E4A1268D26A914258
:10098C00B4D91D4A01211160B0E70BB1FFF798FCF7
:10099C001A4B1C6894B9184B1C68E4B1154B1B68B6
:1009AC004FF0E0234FF08052C3F8042DBFF34F8F6C
:1009BC00BFF36F8F01240EE0013C07D0FFF7B8FEA8
:1009CC000028F9D00C4B01221A60F5E70B4B0022E2
:1009DC001A60E0E7002400F039F9204638BD00BF6A
:1009EC0088020020B0020020E0020020A8020020B3
:1009FC0024030020880300209C020020A002002079
:100A0C0008B5314B1B681BB1304B01221A6008BD75
:100A1C002E4B00221A602E4B1A68126B196809684B
:100A2C001B681B6B994203D91368B3F1A53F1BD00C
:100A3C00274B196818683431FFF796FB254B1B6858
:100A4C00B3FA83F3DBB2C3F11F0303EB83018A0018
:100A5C0021498A58AAB94FF0200383F31188BFF3B8
:100A6C006F8FBFF34F8FFEE75368B3F1A53FDFD114
:100A7C009368B3F1A53FDBD1D368B3F1A53FD7D1D0
:100A8C00DCE7154803EB83018A000244516849688E
:100A9C00516003EB830C4FEA8C0208320244914202
:100AAC000AD003EB83039A000B4B13445B68DA68A0
:100ABC00074B1A601B68AAE76246910002460A447B
:100ACC00D1685160EDE700BF880200209C02002035
:100ADC0088030020A80200202403002000F1080352
:100AEC0043604FF0FF328260C360036100230360F8
:100AFC0070470023036170470369416882688A600C
:100B0C00416851605A68824205D00022026118681F
:100B1C0001381860704782685A60F6E782B000238B
:100B2C0001930D4B1B68B3F1FF3F08D04FF020032E
:100B3C0083F31188BFF36F8FBFF34F8FFEE74FF036
:100B4C00200383F31188BFF36F8FBFF34F8F019B8B
:100B5C00002BFCD002B0704704000020074B196832
:100B6C000868B0E8F00F80F30988BFF36F8F4FF07F
:100B7C00000080F311884EF00D0E704788030020A2
:100B8C0006480068006880F3088862B661B6BFF357
:100B9C004F8FBFF36F8F00DF00BF000008ED00E048
:100BAC00EFF30980BFF36F8F0D4B1A6820E9F00F3C
:100BBC0010602DE908404FF0200080F31188FFF7FA
:100BCC001FFF4FF0000080F31188BDE80840196842
:100BDC000868B0E8F00F80F30988BFF36F8F704797
:100BEC00880300204FF0807340F8043C21F0010191
:100BFC0040F8081C034B40F80C3C40F8202C4038C3
:100C0C00704700BF290B00084FF0200383F31188B5
:100C1C00BFF36F8FBFF34F8F0B4A13680133136011
:100C2C00012B00D070474FF0E023D3F8043D13F0B4
:100C3C00FF0FF7D04FF0200383F31188BFF36F8FB2
:100C4C00BFF34F8FFEE700BF04000020094B1B6869
:100C5C0043B94FF0200383F31188BFF36F8FBFF3B9
:100C6C004F8FFEE7013B034A13600BB983F31188E6
:100C7C00704700BF0400002008B54FF0200383F339
:100C8C001188BFF36F8FBFF34F8FFFF751FD28B162
:100C9C004FF0E0234FF08052C3F8042D002383F370
:100CAC00118808BD4FF0E02300221A619A61024AB4
:100CBC005A6107221A6170473F1901004FF0E02377
:100CCC00D3F8083DD96A454A914208D04FF0200329
:100CDC0083F31188BFF36F8FBFF34F8FFEE79A6BCF
:100CEC003F4B9A4208D04FF0200383F31188BFF397
:100CFC006F8FBFF34F8FFEE710B582B000230193C7
:100D0C00384B1A78D2B28DF80220FF221A701B7859
:100D1C00DBB28DF803309DF8033003F02003324A28
:100D2C00137043B94FF0200383F31188BFF36F8F17
:100D3C00BFF34F8FFEE79DF8033013F0200F08D15F
:100D4C004FF0200383F31188BFF36F8FBFF34F8FE6
:100D5C00FEE79DF8033013F0800F09D0019B01339F
:100D6C0001939DF803305B00DBB28DF80330F0E7A4
:100D7C00019B082B2ED0019BC3F107031B4A136068
:100D8C001A4A13681B02136003F4E06313609DF8A6
:100D9C000230DBB2134A13704FF0E023D3F8202D4E
:100DAC0042F47F02C3F8202DD3F8202D42F07F426D
:100DBC00C3F8202D0024C3F81C4DFFF773FF0C4B18
:100DCC001C60FFF7DDFEFFF71BFEFFF7A7FE2046BA
:100DDC0002B010BD054B00221A60D1E7690B000868
:100DEC00AD0B000800E400E0900300208C03002011
:100DFC00040000201D4B19461B688342FBD31B4A81
:100E0C0091420ED01A4A914202D31A4A914208D901
:100E1C004FF0200383F31188BFF36F8FBFF34F8F15
:100E2C00FEE74A6801EB020C844509D0426800EBEE
:100E3C00020C634509D00360884200D008607047FB
:100E4C00406802444A600846F0E7DFF82CC0DCF842
:100E5C0000C0634506D05B681A4442600B681B688F
:100E6C000360E9E7C0F800C0E6E700BFA00300207C
:100E7C00A8030020A72B00209C030020002841D0B1
:100E8C0038B50446A0F108051F4B9D420FD31F4BEC
:100E9C009D420CD850F8043C002B11DB4FF0200382
:100EAC0083F31188BFF36F8FBFF34F8FFEE74FF0C3
:100EBC00200383F31188BFF36F8FBFF34F8FFEE7CF
:100ECC0050F8082C42B14FF0200383F31188BFF384
:100EDC006F8FBFF34F8FFEE723F0004340F8043CC5
:100EEC00FFF71EFC54F8041C094A13680B441360EA
:100EFC002846FFF77FFF074A136801331360FFF79B
:100F0C00D3FC38BD704700BFA8030020A72B0020DE
:100F1C0098030020940300207047000010B504468D
:100F2C000E4B1A784FF47A73B3FBF2F30C4A106839
:100F3C00B0FBF3F000F080F868B90F2C01D9012058
:100F4C000AE0002221464FF0FF3000F065F8054B17
:100F5C001C60002000E0012010BD00BF0800002034
:100F6C00000000200C00002008B5074A136843F06D
:100F7C0010031360032000F03DF80F20FFF7CEFFA5
:100F8C00FFF7CAFF002008BD00200240002808DB44
:100F9C000901C9B200F1604000F5614080F800130E
:100FAC00704700F00F000901C9B2014B195470478A
:100FBC0014ED00E000B500F00700C0F1070CBCF127
:100FCC00040F28BF4FF0040C031D062B0FD9C31EB2
:100FDC004FF0FF3E0EFA0CF021EA000199400EFA98
:100FEC0003FE22EA0E0241EA02005DF804FB002334
:100FFC00EEE70000074AD36823F4E0631B041B0CE4
:10100C00000200F4E060034343F0BF6343F4003399
:10101C00D360704700ED00E010B50446054BD8686E
:10102C00C0F30220FFF7C6FF01462046FFF7AEFFD4
:10103C0010BD00BF00ED00E00138B0F1807F0BD295
:10104C004FF0E0235861054AF02182F8231000206C
:10105C00986107221A6170470120704700ED00E08B
:10106C0003460244934200D1704703F8011BF9E791
:10107C0070B500260C4D0D4B5B1B9C10A64209D184
:10108C00002600F019F80A4D0A4B5B1B9C10A64277
:10109C0005D170BD55F8043B98470136EEE755F87D
:1010AC00043B98470136F2E7F8100008F8100008E6
:1010BC00F8100008FC100008F8B500BFF8BC08BC1C
:1010CC009E467047F8B500BFF8BC08BC9E467047FA
:1010DC0000000000000000000102030406070809DC
:0C10EC0049444C450000000004000000D6
:0410F80031010008BA
:0410FC000D010008DA
:1011000000127A00AAAAAAAA01000000100000009A
:04000005080001ED01
:00000001FF
